{
  "contractName": "ArbitrableTokenList",
  "abi": [
    {
      "constant": true,
      "inputs": [],
      "name": "challengePeriodDuration",
      "outputs": [
        {
          "name": "",
          "type": "uint256"
        }
      ],
      "payable": false,
      "stateMutability": "view",
      "type": "function"
    },
    {
      "constant": true,
      "inputs": [],
      "name": "governor",
      "outputs": [
        {
          "name": "",
          "type": "address"
        }
      ],
      "payable": false,
      "stateMutability": "view",
      "type": "function"
    },
    {
      "constant": true,
      "inputs": [],
      "name": "arbitratorExtraData",
      "outputs": [
        {
          "name": "",
          "type": "bytes"
        }
      ],
      "payable": false,
      "stateMutability": "view",
      "type": "function"
    },
    {
      "constant": true,
      "inputs": [],
      "name": "loserStakeMultiplier",
      "outputs": [
        {
          "name": "",
          "type": "uint256"
        }
      ],
      "payable": false,
      "stateMutability": "view",
      "type": "function"
    },
    {
      "constant": true,
      "inputs": [],
      "name": "challengerBaseDeposit",
      "outputs": [
        {
          "name": "",
          "type": "uint256"
        }
      ],
      "payable": false,
      "stateMutability": "view",
      "type": "function"
    },
    {
      "constant": true,
      "inputs": [],
      "name": "sharedStakeMultiplier",
      "outputs": [
        {
          "name": "",
          "type": "uint256"
        }
      ],
      "payable": false,
      "stateMutability": "view",
      "type": "function"
    },
    {
      "constant": true,
      "inputs": [
        {
          "name": "",
          "type": "address"
        },
        {
          "name": "",
          "type": "uint256"
        }
      ],
      "name": "arbitratorDisputeIDToTokenID",
      "outputs": [
        {
          "name": "",
          "type": "bytes32"
        }
      ],
      "payable": false,
      "stateMutability": "view",
      "type": "function"
    },
    {
      "constant": true,
      "inputs": [
        {
          "name": "",
          "type": "uint256"
        }
      ],
      "name": "tokensList",
      "outputs": [
        {
          "name": "",
          "type": "bytes32"
        }
      ],
      "payable": false,
      "stateMutability": "view",
      "type": "function"
    },
    {
      "constant": true,
      "inputs": [],
      "name": "arbitrator",
      "outputs": [
        {
          "name": "",
          "type": "address"
        }
      ],
      "payable": false,
      "stateMutability": "view",
      "type": "function"
    },
    {
      "constant": true,
      "inputs": [],
      "name": "metaEvidenceUpdates",
      "outputs": [
        {
          "name": "",
          "type": "uint256"
        }
      ],
      "payable": false,
      "stateMutability": "view",
      "type": "function"
    },
    {
      "constant": true,
      "inputs": [
        {
          "name": "",
          "type": "address"
        },
        {
          "name": "",
          "type": "uint256"
        }
      ],
      "name": "addressToSubmissions",
      "outputs": [
        {
          "name": "",
          "type": "bytes32"
        }
      ],
      "payable": false,
      "stateMutability": "view",
      "type": "function"
    },
    {
      "constant": true,
      "inputs": [],
      "name": "winnerStakeMultiplier",
      "outputs": [
        {
          "name": "",
          "type": "uint256"
        }
      ],
      "payable": false,
      "stateMutability": "view",
      "type": "function"
    },
    {
      "constant": true,
      "inputs": [],
      "name": "requesterBaseDeposit",
      "outputs": [
        {
          "name": "",
          "type": "uint256"
        }
      ],
      "payable": false,
      "stateMutability": "view",
      "type": "function"
    },
    {
      "constant": true,
      "inputs": [
        {
          "name": "",
          "type": "bytes32"
        }
      ],
      "name": "tokens",
      "outputs": [
        {
          "name": "name",
          "type": "string"
        },
        {
          "name": "ticker",
          "type": "string"
        },
        {
          "name": "addr",
          "type": "address"
        },
        {
          "name": "symbolMultihash",
          "type": "string"
        },
        {
          "name": "status",
          "type": "uint8"
        }
      ],
      "payable": false,
      "stateMutability": "view",
      "type": "function"
    },
    {
      "constant": true,
      "inputs": [],
      "name": "MULTIPLIER_DIVISOR",
      "outputs": [
        {
          "name": "",
          "type": "uint256"
        }
      ],
      "payable": false,
      "stateMutability": "view",
      "type": "function"
    },
    {
      "inputs": [
        {
          "name": "_arbitrator",
          "type": "address"
        },
        {
          "name": "_arbitratorExtraData",
          "type": "bytes"
        },
        {
          "name": "_registrationMetaEvidence",
          "type": "string"
        },
        {
          "name": "_clearingMetaEvidence",
          "type": "string"
        },
        {
          "name": "_governor",
          "type": "address"
        },
        {
          "name": "_requesterBaseDeposit",
          "type": "uint256"
        },
        {
          "name": "_challengerBaseDeposit",
          "type": "uint256"
        },
        {
          "name": "_challengePeriodDuration",
          "type": "uint256"
        },
        {
          "name": "_sharedStakeMultiplier",
          "type": "uint256"
        },
        {
          "name": "_winnerStakeMultiplier",
          "type": "uint256"
        },
        {
          "name": "_loserStakeMultiplier",
          "type": "uint256"
        }
      ],
      "payable": false,
      "stateMutability": "nonpayable",
      "type": "constructor"
    },
    {
      "anonymous": false,
      "inputs": [
        {
          "indexed": false,
          "name": "_name",
          "type": "string"
        },
        {
          "indexed": false,
          "name": "_ticker",
          "type": "string"
        },
        {
          "indexed": false,
          "name": "_symbolMultihash",
          "type": "string"
        },
        {
          "indexed": true,
          "name": "_address",
          "type": "address"
        }
      ],
      "name": "TokenSubmitted",
      "type": "event"
    },
    {
      "anonymous": false,
      "inputs": [
        {
          "indexed": true,
          "name": "_tokenID",
          "type": "bytes32"
        },
        {
          "indexed": false,
          "name": "_registrationRequest",
          "type": "bool"
        }
      ],
      "name": "RequestSubmitted",
      "type": "event"
    },
    {
      "anonymous": false,
      "inputs": [
        {
          "indexed": true,
          "name": "_requester",
          "type": "address"
        },
        {
          "indexed": true,
          "name": "_challenger",
          "type": "address"
        },
        {
          "indexed": true,
          "name": "_tokenID",
          "type": "bytes32"
        },
        {
          "indexed": false,
          "name": "_status",
          "type": "uint8"
        },
        {
          "indexed": false,
          "name": "_disputed",
          "type": "bool"
        },
        {
          "indexed": false,
          "name": "_appealed",
          "type": "bool"
        }
      ],
      "name": "TokenStatusChange",
      "type": "event"
    },
    {
      "anonymous": false,
      "inputs": [
        {
          "indexed": true,
          "name": "_tokenID",
          "type": "bytes32"
        },
        {
          "indexed": true,
          "name": "_contributor",
          "type": "address"
        },
        {
          "indexed": true,
          "name": "_request",
          "type": "uint256"
        },
        {
          "indexed": false,
          "name": "_round",
          "type": "uint256"
        },
        {
          "indexed": false,
          "name": "_value",
          "type": "uint256"
        }
      ],
      "name": "RewardWithdrawal",
      "type": "event"
    },
    {
      "anonymous": false,
      "inputs": [
        {
          "indexed": true,
          "name": "_metaEvidenceID",
          "type": "uint256"
        },
        {
          "indexed": false,
          "name": "_evidence",
          "type": "string"
        }
      ],
      "name": "MetaEvidence",
      "type": "event"
    },
    {
      "anonymous": false,
      "inputs": [
        {
          "indexed": true,
          "name": "_arbitrator",
          "type": "address"
        },
        {
          "indexed": true,
          "name": "_disputeID",
          "type": "uint256"
        },
        {
          "indexed": false,
          "name": "_metaEvidenceID",
          "type": "uint256"
        },
        {
          "indexed": false,
          "name": "_evidenceGroupID",
          "type": "uint256"
        }
      ],
      "name": "Dispute",
      "type": "event"
    },
    {
      "anonymous": false,
      "inputs": [
        {
          "indexed": true,
          "name": "_arbitrator",
          "type": "address"
        },
        {
          "indexed": true,
          "name": "_evidenceGroupID",
          "type": "uint256"
        },
        {
          "indexed": true,
          "name": "_party",
          "type": "address"
        },
        {
          "indexed": false,
          "name": "_evidence",
          "type": "string"
        }
      ],
      "name": "Evidence",
      "type": "event"
    },
    {
      "anonymous": false,
      "inputs": [
        {
          "indexed": true,
          "name": "_arbitrator",
          "type": "address"
        },
        {
          "indexed": true,
          "name": "_disputeID",
          "type": "uint256"
        },
        {
          "indexed": false,
          "name": "_ruling",
          "type": "uint256"
        }
      ],
      "name": "Ruling",
      "type": "event"
    },
    {
      "constant": false,
      "inputs": [
        {
          "name": "_name",
          "type": "string"
        },
        {
          "name": "_ticker",
          "type": "string"
        },
        {
          "name": "_addr",
          "type": "address"
        },
        {
          "name": "_symbolMultihash",
          "type": "string"
        }
      ],
      "name": "requestStatusChange",
      "outputs": [],
      "payable": true,
      "stateMutability": "payable",
      "type": "function"
    },
    {
      "constant": false,
      "inputs": [
        {
          "name": "_tokenID",
          "type": "bytes32"
        },
        {
          "name": "_evidence",
          "type": "string"
        }
      ],
      "name": "challengeRequest",
      "outputs": [],
      "payable": true,
      "stateMutability": "payable",
      "type": "function"
    },
    {
      "constant": false,
      "inputs": [
        {
          "name": "_tokenID",
          "type": "bytes32"
        },
        {
          "name": "_side",
          "type": "uint8"
        }
      ],
      "name": "fundAppeal",
      "outputs": [],
      "payable": true,
      "stateMutability": "payable",
      "type": "function"
    },
    {
      "constant": false,
      "inputs": [
        {
          "name": "_beneficiary",
          "type": "address"
        },
        {
          "name": "_tokenID",
          "type": "bytes32"
        },
        {
          "name": "_request",
          "type": "uint256"
        },
        {
          "name": "_round",
          "type": "uint256"
        }
      ],
      "name": "withdrawFeesAndRewards",
      "outputs": [],
      "payable": false,
      "stateMutability": "nonpayable",
      "type": "function"
    },
    {
      "constant": false,
      "inputs": [
        {
          "name": "_beneficiary",
          "type": "address"
        },
        {
          "name": "_tokenID",
          "type": "bytes32"
        },
        {
          "name": "_request",
          "type": "uint256"
        },
        {
          "name": "_cursor",
          "type": "uint256"
        },
        {
          "name": "_count",
          "type": "uint256"
        }
      ],
      "name": "batchRoundWithdraw",
      "outputs": [],
      "payable": false,
      "stateMutability": "nonpayable",
      "type": "function"
    },
    {
      "constant": false,
      "inputs": [
        {
          "name": "_beneficiary",
          "type": "address"
        },
        {
          "name": "_tokenID",
          "type": "bytes32"
        },
        {
          "name": "_cursor",
          "type": "uint256"
        },
        {
          "name": "_count",
          "type": "uint256"
        },
        {
          "name": "_roundCursor",
          "type": "uint256"
        },
        {
          "name": "_roundCount",
          "type": "uint256"
        }
      ],
      "name": "batchRequestWithdraw",
      "outputs": [],
      "payable": false,
      "stateMutability": "nonpayable",
      "type": "function"
    },
    {
      "constant": false,
      "inputs": [
        {
          "name": "_tokenID",
          "type": "bytes32"
        }
      ],
      "name": "executeRequest",
      "outputs": [],
      "payable": false,
      "stateMutability": "nonpayable",
      "type": "function"
    },
    {
      "constant": false,
      "inputs": [
        {
          "name": "_disputeID",
          "type": "uint256"
        },
        {
          "name": "_ruling",
          "type": "uint256"
        }
      ],
      "name": "rule",
      "outputs": [],
      "payable": false,
      "stateMutability": "nonpayable",
      "type": "function"
    },
    {
      "constant": false,
      "inputs": [
        {
          "name": "_tokenID",
          "type": "bytes32"
        },
        {
          "name": "_evidence",
          "type": "string"
        }
      ],
      "name": "submitEvidence",
      "outputs": [],
      "payable": false,
      "stateMutability": "nonpayable",
      "type": "function"
    },
    {
      "constant": false,
      "inputs": [
        {
          "name": "_challengePeriodDuration",
          "type": "uint256"
        }
      ],
      "name": "changeTimeToChallenge",
      "outputs": [],
      "payable": false,
      "stateMutability": "nonpayable",
      "type": "function"
    },
    {
      "constant": false,
      "inputs": [
        {
          "name": "_requesterBaseDeposit",
          "type": "uint256"
        }
      ],
      "name": "changeRequesterBaseDeposit",
      "outputs": [],
      "payable": false,
      "stateMutability": "nonpayable",
      "type": "function"
    },
    {
      "constant": false,
      "inputs": [
        {
          "name": "_challengerBaseDeposit",
          "type": "uint256"
        }
      ],
      "name": "changeChallengerBaseDeposit",
      "outputs": [],
      "payable": false,
      "stateMutability": "nonpayable",
      "type": "function"
    },
    {
      "constant": false,
      "inputs": [
        {
          "name": "_governor",
          "type": "address"
        }
      ],
      "name": "changeGovernor",
      "outputs": [],
      "payable": false,
      "stateMutability": "nonpayable",
      "type": "function"
    },
    {
      "constant": false,
      "inputs": [
        {
          "name": "_sharedStakeMultiplier",
          "type": "uint256"
        }
      ],
      "name": "changeSharedStakeMultiplier",
      "outputs": [],
      "payable": false,
      "stateMutability": "nonpayable",
      "type": "function"
    },
    {
      "constant": false,
      "inputs": [
        {
          "name": "_winnerStakeMultiplier",
          "type": "uint256"
        }
      ],
      "name": "changeWinnerStakeMultiplier",
      "outputs": [],
      "payable": false,
      "stateMutability": "nonpayable",
      "type": "function"
    },
    {
      "constant": false,
      "inputs": [
        {
          "name": "_loserStakeMultiplier",
          "type": "uint256"
        }
      ],
      "name": "changeLoserStakeMultiplier",
      "outputs": [],
      "payable": false,
      "stateMutability": "nonpayable",
      "type": "function"
    },
    {
      "constant": false,
      "inputs": [
        {
          "name": "_arbitrator",
          "type": "address"
        },
        {
          "name": "_arbitratorExtraData",
          "type": "bytes"
        }
      ],
      "name": "changeArbitrator",
      "outputs": [],
      "payable": false,
      "stateMutability": "nonpayable",
      "type": "function"
    },
    {
      "constant": false,
      "inputs": [
        {
          "name": "_registrationMetaEvidence",
          "type": "string"
        },
        {
          "name": "_clearingMetaEvidence",
          "type": "string"
        }
      ],
      "name": "changeMetaEvidence",
      "outputs": [],
      "payable": false,
      "stateMutability": "nonpayable",
      "type": "function"
    },
    {
      "constant": true,
      "inputs": [
        {
          "name": "_tokenID",
          "type": "bytes32"
        }
      ],
      "name": "isPermitted",
      "outputs": [
        {
          "name": "allowed",
          "type": "bool"
        }
      ],
      "payable": false,
      "stateMutability": "view",
      "type": "function"
    },
    {
      "constant": true,
      "inputs": [
        {
          "name": "_tokenID",
          "type": "bytes32"
        },
        {
          "name": "_beneficiary",
          "type": "address"
        },
        {
          "name": "_request",
          "type": "uint256"
        }
      ],
      "name": "amountWithdrawable",
      "outputs": [
        {
          "name": "total",
          "type": "uint256"
        }
      ],
      "payable": false,
      "stateMutability": "view",
      "type": "function"
    },
    {
      "constant": true,
      "inputs": [],
      "name": "tokenCount",
      "outputs": [
        {
          "name": "count",
          "type": "uint256"
        }
      ],
      "payable": false,
      "stateMutability": "view",
      "type": "function"
    },
    {
      "constant": true,
      "inputs": [],
      "name": "countByStatus",
      "outputs": [
        {
          "name": "absent",
          "type": "uint256"
        },
        {
          "name": "registered",
          "type": "uint256"
        },
        {
          "name": "registrationRequest",
          "type": "uint256"
        },
        {
          "name": "clearingRequest",
          "type": "uint256"
        },
        {
          "name": "challengedRegistrationRequest",
          "type": "uint256"
        },
        {
          "name": "challengedClearingRequest",
          "type": "uint256"
        }
      ],
      "payable": false,
      "stateMutability": "view",
      "type": "function"
    },
    {
      "constant": true,
      "inputs": [
        {
          "name": "_cursor",
          "type": "bytes32"
        },
        {
          "name": "_count",
          "type": "uint256"
        },
        {
          "name": "_filter",
          "type": "bool[8]"
        },
        {
          "name": "_oldestFirst",
          "type": "bool"
        },
        {
          "name": "_tokenAddr",
          "type": "address"
        }
      ],
      "name": "queryTokens",
      "outputs": [
        {
          "name": "values",
          "type": "bytes32[]"
        },
        {
          "name": "hasMore",
          "type": "bool"
        }
      ],
      "payable": false,
      "stateMutability": "view",
      "type": "function"
    },
    {
      "constant": true,
      "inputs": [
        {
          "name": "_tokenID",
          "type": "bytes32"
        },
        {
          "name": "_request",
          "type": "uint256"
        },
        {
          "name": "_round",
          "type": "uint256"
        },
        {
          "name": "_contributor",
          "type": "address"
        }
      ],
      "name": "getContributions",
      "outputs": [
        {
          "name": "contributions",
          "type": "uint256[3]"
        }
      ],
      "payable": false,
      "stateMutability": "view",
      "type": "function"
    },
    {
      "constant": true,
      "inputs": [
        {
          "name": "_tokenID",
          "type": "bytes32"
        }
      ],
      "name": "getTokenInfo",
      "outputs": [
        {
          "name": "name",
          "type": "string"
        },
        {
          "name": "ticker",
          "type": "string"
        },
        {
          "name": "addr",
          "type": "address"
        },
        {
          "name": "symbolMultihash",
          "type": "string"
        },
        {
          "name": "status",
          "type": "uint8"
        },
        {
          "name": "numberOfRequests",
          "type": "uint256"
        }
      ],
      "payable": false,
      "stateMutability": "view",
      "type": "function"
    },
    {
      "constant": true,
      "inputs": [
        {
          "name": "_tokenID",
          "type": "bytes32"
        },
        {
          "name": "_request",
          "type": "uint256"
        }
      ],
      "name": "getRequestInfo",
      "outputs": [
        {
          "name": "disputed",
          "type": "bool"
        },
        {
          "name": "disputeID",
          "type": "uint256"
        },
        {
          "name": "submissionTime",
          "type": "uint256"
        },
        {
          "name": "resolved",
          "type": "bool"
        },
        {
          "name": "parties",
          "type": "address[3]"
        },
        {
          "name": "numberOfRounds",
          "type": "uint256"
        },
        {
          "name": "ruling",
          "type": "uint8"
        },
        {
          "name": "arbitrator",
          "type": "address"
        },
        {
          "name": "arbitratorExtraData",
          "type": "bytes"
        }
      ],
      "payable": false,
      "stateMutability": "view",
      "type": "function"
    },
    {
      "constant": true,
      "inputs": [
        {
          "name": "_tokenID",
          "type": "bytes32"
        },
        {
          "name": "_request",
          "type": "uint256"
        },
        {
          "name": "_round",
          "type": "uint256"
        }
      ],
      "name": "getRoundInfo",
      "outputs": [
        {
          "name": "appealed",
          "type": "bool"
        },
        {
          "name": "paidFees",
          "type": "uint256[3]"
        },
        {
          "name": "hasPaid",
          "type": "bool[3]"
        },
        {
          "name": "feeRewards",
          "type": "uint256"
        }
      ],
      "payable": false,
      "stateMutability": "view",
      "type": "function"
    }
  ],
  "bytecode": "0x6080604052600280553480156200001557600080fd5b5060405162004946380380620049468339810160409081528151602080840151928401516060850151608086015160a087015160c088015160e08901516101008a01516101208b01516101408c015160008054600160a060020a031916600160a060020a038d161790559a8c0180519a9c909b9881019a9701989597949693959294919390928c918c91620000b09160019184019062000211565b5050506000600080516020620049268339815191528a6040518080602001828103825283818151815260200191508051906020019080838360005b8381101562000105578181015183820152602001620000eb565b50505050905090810190601f168015620001335780820380516001836020036101000a031916815260200191505b509250505060405180910390a2600160008051602062004926833981519152896040518080602001828103825283818151815260200191508051906020019080838360005b838110156200019257818101518382015260200162000178565b50505050905090810190601f168015620001c05780820380516001836020036101000a031916815260200191505b509250505060405180910390a260038054600160a060020a031916600160a060020a039890981697909717909655600494909455600592909255600655600a5560085560095550620002b692505050565b828054600181600116156101000203166002900490600052602060002090601f016020900481019282601f106200025457805160ff191683800117855562000284565b8280016001018555821562000284579182015b828111156200028457825182559160200191906001019062000267565b506200029292915062000296565b5090565b620002b391905b808211156200029257600081556001016200029d565b90565b61466080620002c66000396000f3006080604052600436106101e95763ffffffff60e060020a60003504166282a36d81146101ee5780630c340a24146102155780630c7ac7b6146102465780631126ca5e146102d057806312ce3525146102f7578063171dff6e146103115780631d5120851461034157806329ccf8ea146103565780632baf80ee1461039e5780632d8b70a1146103af578063311a6c5614610540578063329cedb41461055b57806334f06fb9146105705780633b77d60614610588578063416583411461061757806346106fea1461062c5780634d12e34e1461065057806352bc0e60146106685780636cc6cde1146106ca5780636cdc090f146106df57806373a7800b146106f45780637a086f96146107185780637b94338314610745578063873db1a71461075a5780638c10fef314610771578063904194a31461078657806392239dff14610910578063974121b2146109285780639f181b5e146109ba578063a05359ff146109cf578063a1c2bf4d14610a07578063adc7faba14610a31578063ba7079ca14610a49578063beabdb7b14610a76578063bfbcff1a14610aa2578063d36fdb1814610bba578063d661dd3114610bd2578063d706be3114610be7578063dd0f026514610c13578063e4c0aaf414610c2b578063e9c2416614610c4c578063f48a0b3114610c64575b600080fd5b3480156101fa57600080fd5b50610203610c88565b60408051918252519081900360200190f35b34801561022157600080fd5b5061022a610c8e565b60408051600160a060020a039092168252519081900360200190f35b34801561025257600080fd5b5061025b610c9d565b6040805160208082528351818301528351919283929083019185019080838360005b8381101561029557818101518382015260200161027d565b50505050905090810190601f1680156102c25780820380516001836020036101000a031916815260200191505b509250505060405180910390f35b3480156102dc57600080fd5b50610203600435600160a060020a0360243516604435610d2a565b34801561030357600080fd5b5061030f600435610f3c565b005b34801561031d57600080fd5b5061030f600160a060020a036004351660243560443560643560843560a435610f91565b34801561034d57600080fd5b50610203610fdf565b34801561036257600080fd5b5061036b610fe5565b604080519687526020870195909552858501939093526060850191909152608084015260a0830152519081900360c00190f35b61030f60043560ff6024351661117b565b3480156103bb57600080fd5b506103c7600435611976565b60405180806020018060200187600160a060020a0316600160a060020a03168152602001806020018660038111156103fb57fe5b60ff16815260200185815260200184810384528a818151815260200191508051906020019080838360005b8381101561043e578181015183820152602001610426565b50505050905090810190601f16801561046b5780820380516001836020036101000a031916815260200191505b5084810383528951815289516020918201918b019080838360005b8381101561049e578181015183820152602001610486565b50505050905090810190601f1680156104cb5780820380516001836020036101000a031916815260200191505b50848103825287518152875160209182019189019080838360005b838110156104fe5781810151838201526020016104e6565b50505050905090810190601f16801561052b5780820380516001836020036101000a031916815260200191505b50995050505050505050505060405180910390f35b34801561054c57600080fd5b5061030f600435602435611b7d565b34801561056757600080fd5b50610203611ce9565b34801561057c57600080fd5b5061030f600435611cef565b34801561059457600080fd5b506105b86004356024356044610144351515600160a060020a036101643516611d44565b604051808060200183151515158152602001828103825284818151815260200191508051906020019060200280838360005b838110156106025781810151838201526020016105ea565b50505050905001935050505060405180910390f35b34801561062357600080fd5b50610203612107565b34801561063857600080fd5b50610203600160a060020a036004351660243561210d565b34801561065c57600080fd5b5061020360043561212a565b34801561067457600080fd5b50610692600435602435604435600160a060020a0360643516612149565b6040518082606080838360005b838110156106b757818101518382015260200161069f565b5050505090500191505060405180910390f35b3480156106d657600080fd5b5061022a6121fc565b3480156106eb57600080fd5b5061020361220b565b34801561070057600080fd5b50610203600160a060020a0360043516602435612211565b34801561072457600080fd5b5061030f600160a060020a0360043516602435604435606435608435612241565b34801561075157600080fd5b506102036122ac565b61030f6004803590602480359081019101356122b2565b34801561077d57600080fd5b50610203612a32565b34801561079257600080fd5b5061079e600435612a38565b60405180806020018060200186600160a060020a0316600160a060020a03168152602001806020018560038111156107d257fe5b60ff168152602001848103845289818151815260200191508051906020019080838360005b8381101561080f5781810151838201526020016107f7565b50505050905090810190601f16801561083c5780820380516001836020036101000a031916815260200191505b5084810383528851815288516020918201918a019080838360005b8381101561086f578181015183820152602001610857565b50505050905090810190601f16801561089c5780820380516001836020036101000a031916815260200191505b50848103825286518152865160209182019188019080838360005b838110156108cf5781810151838201526020016108b7565b50505050905090810190601f1680156108fc5780820380516001836020036101000a031916815260200191505b509850505050505050505060405180910390f35b34801561091c57600080fd5b5061030f600435612c22565b34801561093457600080fd5b50610946600435602435604435612c77565b60405184151581526020810184606080838360005b8381101561097357818101518382015260200161095b565b5050505090500183600360200280838360005b8381101561099e578181015183820152602001610986565b5050505090500182815260200194505050505060405180910390f35b3480156109c657600080fd5b50610203612d99565b61030f6024600480358281019290820135918135808301929082013591600160a060020a036044351691606435908101910135612da0565b348015610a1357600080fd5b5061030f600160a060020a03600435166024356044356064356133c6565b348015610a3d57600080fd5b5061030f600435613687565b348015610a5557600080fd5b5061030f60048035600160a060020a031690602480359081019101356136dc565b348015610a8257600080fd5b50610a8e600435613759565b604080519115158252519081900360200190f35b348015610aae57600080fd5b50610abd6004356024356137a1565b604051808a1515151581526020018981526020018881526020018715151515815260200186600360200280838360005b83811015610b05578181015183820152602001610aed565b50505050905001858152602001846002811115610b1e57fe5b60ff16815260200183600160a060020a0316600160a060020a0316815260200180602001828103825283818151815260200191508051906020019080838360005b83811015610b77578181015183820152602001610b5f565b50505050905090810190601f168015610ba45780820380516001836020036101000a031916815260200191505b509a505050505050505050505060405180910390f35b348015610bc657600080fd5b5061030f600435613916565b348015610bde57600080fd5b5061020361396b565b348015610bf357600080fd5b5061030f6024600480358281019290820135918135918201910135613971565b348015610c1f57600080fd5b5061030f600435613a5c565b348015610c3757600080fd5b5061030f600160a060020a0360043516613ab1565b348015610c5857600080fd5b5061030f600435613b23565b348015610c7057600080fd5b5061030f600480359060248035908101910135613d94565b60065481565b600354600160a060020a031681565b60018054604080516020600284861615610100026000190190941693909304601f81018490048402820184019092528181529291830182828015610d225780601f10610cf757610100808354040283529160200191610d22565b820191906000526020600020905b815481529060010190602001808311610d0557829003601f168201915b505050505081565b6000838152600b602052604081206005018054829182918291829182919088908110610d5257fe5b60009182526020909120600a90910201600381015490955060ff161515610d7857610f30565b600093505b6007850154841015610f305760078501805485908110610d9957fe5b600091825260209091208654600690920201935060ff161580610dce57506000600886015460ff166002811115610dcc57fe5b145b15610e85576000836001015411610de6576000610e24565b826002015483600101546004850154600160a060020a038b166000908152600587016020526040902092909101916001015402811515610e2257fe5b045b91506000836002015411610e39576000610e77565b826002015483600101546004850154600160a060020a038b166000908152600587016020526040902092909101916002015402811515610e7557fe5b045b905080820186019550610f25565b6008850154600090849060ff166002811115610e9d57fe5b60038110610ea757fe5b015411610eb5576000610f20565b6008850154839060ff166002811115610eca57fe5b60038110610ed457fe5b01546004840154600160a060020a038a1660009081526005860160205260409020600888015460ff166002811115610f0857fe5b60038110610f1257fe5b015402811515610f1e57fe5b045b860195505b600190930192610d7d565b50505050509392505050565b600354600160a060020a03163314610f8c576040805160e560020a62461bcd02815260206004820181905260248201526000805160206145b5833981519152604482015290519081900360640190fd5b600a55565b6000858152600b60205260409020845b600582015481108015610fbb5750841580610fbb57508481105b15610fd557610fcd8888838787612241565b600101610fa1565b5050505050505050565b60095481565b600080808080808080805b600d5483101561117057600b6000600d8581548110151561100d57fe5b60009182526020808320909101548352820192909252604001902060058101805491935090600019810190811061104057fe5b600091825260208220600a909102019150600483015460ff16600381111561106457fe5b141561107557600190980197611165565b6001600483015460ff16600381111561108a57fe5b141561109b57600190970196611165565b6002600483015460ff1660038111156110b057fe5b1480156110bf5750805460ff16155b156110cf57600190960195611165565b6003600483015460ff1660038111156110e457fe5b1480156110f35750805460ff16155b1561110357600190950194611165565b6002600483015460ff16600381111561111857fe5b1480156111265750805460ff165b1561113657600190940193611165565b6003600483015460ff16600381111561114b57fe5b1480156111595750805460ff165b15611165576001909301925b600190920191610ff0565b505050909192939495565b600080808080808080808060018b600281111561119457fe5b14806111ab575060028b60028111156111a957fe5b145b15156111b657600080fd5b60008c8152600b602052604090209950600260048b015460ff1660038111156111db57fe5b14806111f95750600360048b015460ff1660038111156111f757fe5b145b151561124f576040805160e560020a62461bcd02815260206004820152602660248201526000805160206145f5833981519152604482015260d160020a6538bab2b9ba1702606482015290519081900360840190fd5b60058a018054600019810190811061126357fe5b60009182526020909120600a90910201805490995060ff1615156112ef576040805160e560020a62461bcd02815260206004820152603260248201527f412064697370757465206d7573742068617665206265656e20726169736564206044820152607160020a713a3790333ab7321030b71030b83832b0b61702606482015290519081900360840190fd5b8860080160019054906101000a9004600160a060020a0316600160a060020a031663afe15cfb8a600101546040518263ffffffff1660e060020a028152600401808281526020019150506040805180830381600087803b15801561135257600080fd5b505af1158015611366573d6000803e3d6000fd5b505050506040513d604081101561137c57600080fd5b508051602090910151909850965042881180159061139957508642105b151561140f576040805160e560020a62461bcd02815260206004820152603460248201527f436f6e747269627574696f6e73206d757374206265206d6164652077697468696044820152606160020a7337103a34329030b83832b0b6103832b934b7b21702606482015290519081900360840190fd5b600789018054600019810190811061142357fe5b906000526020600020906006020195508860080160019054906101000a9004600160a060020a0316600160a060020a0316631c3db16d8a600101546040518263ffffffff1660e060020a02815260040180828152602001915050602060405180830381600087803b15801561149757600080fd5b505af11580156114ab573d6000803e3d6000fd5b505050506040513d60208110156114c157600080fd5b505160028111156114ce57fe5b945060018560028111156114de57fe5b14156114ed5760029350611506565b60028560028111156114fb57fe5b141561150657600193505b83600281111561151257fe5b8b600281111561151e57fe5b1415806115315750600288880304884203105b15156115be576040805160e560020a62461bcd02815260206004820152604560248201527f546865206c6f736572206d75737420636f6e7472696275746520647572696e6760448201527f207468652066697273742068616c66206f66207468652061707065616c207065606482015260d960020a643934b7b21702608482015290519081900360a40190fd5b8460028111156115ca57fe5b8b60028111156115d657fe5b14156115e6576008549250611614565b8360028111156115f257fe5b8b60028111156115fe57fe5b141561160e576009549250611614565b600a5492505b60088901546001808b01546040805160e160020a63791f8b73028152600481018381526024820192835260098f018054600261010097821615880260001901909116046044840181905295909604600160a060020a03169563f23f16e6959093919260640190849080156116c95780601f1061169e576101008083540402835291602001916116c9565b820191906000526020600020905b8154815290600101906020018083116116ac57829003601f168201915b50509350505050602060405180830381600087803b1580156116ea57600080fd5b505af11580156116fe573d6000803e3d6000fd5b505050506040513d602081101561171457600080fd5b5051915061174661271061172e848663ffffffff613f1e16565b81151561173757fe5b8491900463ffffffff613f5b16565b9050611755868c333485613f70565b80868c600281111561176357fe5b6003811061176d57fe5b0154106117b0576001866003018c600281111561178657fe5b6003811061179057fe5b602091828204019190066101000a81548160ff0219169083151502179055505b600386015462010000900460ff1680156117d357506003860154610100900460ff165b156119685760088901546001808b01546040805160e360020a63093225f1028152600481018381526024820192835260098f018054600261010097821615880260001901909116046044840181905295909604600160a060020a0316956349912f88958995949193606401908490801561188e5780601f106118635761010080835404028352916020019161188e565b820191906000526020600020905b81548152906001019060200180831161187157829003601f168201915b505093505050506000604051808303818588803b1580156118ae57600080fd5b505af11580156118c2573d6000803e3d6000fd5b50505060078b01805492506118db9150600183016142b7565b5060048601546118f1908363ffffffff61403c16565b60048781019190915560068a015460058b0154918c01546040518f93600160a060020a039384169316916000805160206145d58339815191529160ff9091169060019081908084600381111561194357fe5b60ff168152921515602084015250151560408083019190915251908190036060019150a45b505050505050505050505050565b6000818152600b602090815260408083206002808201546004830154600584015484548651601f600183811615610100026000190190931696909604958601899004890281018901909752848752606098899890978997899788979196879695870195600160a060020a0390931694600388019460ff90921693928891830182828015611a445780601f10611a1957610100808354040283529160200191611a44565b820191906000526020600020905b815481529060010190602001808311611a2757829003601f168201915b5050885460408051602060026001851615610100026000190190941693909304601f8101849004840282018401909252818152959b508a945092508401905082828015611ad25780601f10611aa757610100808354040283529160200191611ad2565b820191906000526020600020905b815481529060010190602001808311611ab557829003601f168201915b5050865460408051602060026001851615610100026000190190941693909304601f8101849004840282018401909252818152959a5088945092508401905082828015611b605780601f10611b3557610100808354040283529160200191611b60565b820191906000526020600020905b815481529060010190602001808311611b4357829003601f168201915b505050505092509650965096509650965096505091939550919395565b6000806000806000856002811115611b9157fe5b336000908152600c602090815260408083208b8452825280832054808452600b9092529091206005810180549398509196509450906000198101908110611bd457fe5b60009182526020909120600a90910201600781018054919350906000198101908110611bfc57fe5b906000526020600020906006020190506002548611151515611c1d57600080fd5b60088201546101009004600160a060020a03163314611c3b57600080fd5b600382015460ff1615611c4d57600080fd5b600381015460ff61010090910416151560011415611c6e5760019450611c8b565b600381015462010000900460ff16151560011415611c8b57600294505b86337f394027a5fa6e098a1191094d1719d6929b9abc535fcc0c8f448d6a4e75622276876002811115611cba57fe5b60408051918252519081900360200190a3611ce087866002811115611cdb57fe5b614059565b50505050505050565b60055481565b600354600160a060020a03163314611d3f576040805160e560020a62461bcd02815260206004820181905260248201526000805160206145b5833981519152604482015290519081900360640190fd5b600455565b606060008060008060008060008060008d604051908082528060200260200182016040528015611d7e578160200160208202803883390190505b50995060009650600160a060020a038b1615611db157600160a060020a038b166000908152600e60205260409020611db4565b600d5b95508e1515611dc65760009750611e5c565b600094505b8554851015611e095785548f90879087908110611de457fe5b6000918252602090912001541415611dfe57849750611e09565b600190940193611dcb565b871515611e5c576040805160e560020a62461bcd0281526020600482015260166024820152605160020a752a34329031bab939b7b91034b99034b73b30b634b21702604482015290519081900360640190fd5b8715611e7e578b611e74578554889003600101611e79565b876001015b611e91565b8b611e8a576001611e8d565b60005b60ff165b93505b8b611ea3578554841115611ea8565b855484105b156120f557858c611ebd578654859003611ebf565b845b81548110611ec957fe5b6000918252602080832090910154808352600b9091526040909120600581018054929550909350906000198101908110611eff57fe5b60009182526020909120600a9091020190508c3515801590611f3357506000600483015460ff166003811115611f3157fe5b145b80611f5e575060208d013515801590611f5e57506001600483015460ff166003811115611f5c57fe5b145b80611f97575060408d013515801590611f8957506002600483015460ff166003811115611f8757fe5b145b8015611f975750805460ff16155b80611fd0575060608d013515801590611fc257506003600483015460ff166003811115611fc057fe5b145b8015611fd05750805460ff16155b80612008575060808d013515801590611ffb57506002600483015460ff166003811115611ff957fe5b145b80156120085750805460ff165b80612040575060a08d01351580159061203357506003600483015460ff16600381111561203157fe5b145b80156120405750805460ff165b80612065575060c08d01351580159061206557506005810154600160a060020a031633145b8061208a575060e08d01351580159061208a57506006810154600160a060020a031633145b156120ea578d8710156120e157858c6120a75786548590036120a9565b845b815481106120b357fe5b90600052602060002001548a888151811015156120cc57fe5b602090810290910101526001909601956120ea565b600198506120f5565b600190930192611e94565b50505050505050509550959350505050565b600a5481565b600c60209081526000928352604080842090915290825290205481565b600d80548290811061213857fe5b600091825260209091200154905081565b6121516142e8565b6000858152600b602052604081206005810180549192918291908890811061217557fe5b90600052602060002090600a02019150816007018681548110151561219657fe5b60009182526020808320600160a060020a03891684526005600690930201918201905260409182902082516060810190935290925060038282826020028201915b8154815260200190600101908083116121d75750505050509350505050949350505050565b600054600160a060020a031681565b60075481565b600e6020528160005260406000208181548110151561222c57fe5b90600052602060002001600091509150505481565b6000848152600b602052604081206005810180549192918291908790811061226557fe5b90600052602060002090600a020191508490505b600782015481108015612293575083158061229357508381105b15610fd5576122a4888888846133c6565b600101612279565b60085481565b6000838152600b60205260408120908080806002600486015460ff1660038111156122d957fe5b14806122f757506003600486015460ff1660038111156122f557fe5b145b151561234d576040805160e560020a62461bcd02815260206004820152602660248201526000805160206145f5833981519152604482015260d160020a6538bab2b9ba1702606482015290519081900360840190fd5b600585018054600019810190811061236157fe5b90600052602060002090600a0201935060065484600201544203111515156123f1576040805160e560020a62461bcd02815260206004820152603260248201527f4368616c6c656e676573206d757374206f6363757220647572696e67207468656044820152607160020a711031b430b63632b733b2903832b934b7b21702606482015290519081900360840190fd5b835460ff1615612469576040805160e560020a62461bcd02815260206004820152603260248201527f54686520726571756573742073686f756c64206e6f74206861766520616c72656044820152607160020a7130b23c903132b2b7103234b9b83aba32b21702606482015290519081900360840190fd5b600684018054600160a060020a03191633179055600784018054600019810190811061249157fe5b6000918252602091829020600887015460405160e060020a63f7434ea902815260048101948552600989018054600261010060018316158102600019019092160460248401819052600696909602909401985092909104600160a060020a03169363f7434ea99390918291604490910190849080156125515780601f1061252657610100808354040283529160200191612551565b820191906000526020600020905b81548152906001019060200180831161253457829003601f168201915b505092505050602060405180830381600087803b15801561257157600080fd5b505af1158015612585573d6000803e3d6000fd5b505050506040513d602081101561259b57600080fd5b5051600554600a549193506125e7916125db90612710906125c390879063ffffffff613f1e16565b8115156125cc57fe5b8691900463ffffffff613f5b16565b9063ffffffff613f5b16565b90506125f7836002333485613f70565b8083600201541015612641576040805160e560020a62461bcd02815260206004820152601e6024820152600080516020614615833981519152604482015290519081900360640190fd5b60038301805462ff00001916620100001790556008840154600280546040805160e060020a63c13517e1028152600481018381526024820192835260098a018054600181161561010090810260001901909116969096046044840181905295909604600160a060020a03169563c13517e1958995949193606401908490801561270b5780601f106126e05761010080835404028352916020019161270b565b820191906000526020600020905b8154815290600101906020018083116126ee57829003601f168201915b505093505050506020604051808303818588803b15801561272b57600080fd5b505af115801561273f573d6000803e3d6000fd5b50505050506040513d602081101561275657600080fd5b5051600185810182905560088601546101009004600160a060020a03166000908152600c6020908152604080832094835293905291909120899055845460ff191681178555600785018054916127ae919083016142b7565b5060048301546127c4908363ffffffff61403c16565b6004840155600184015460088501546101009004600160a060020a03167f74baab670a4015ab2f1b467c5252a96141a2573f2908e58a92081e80d3cfde3d6002600489015460ff16600381111561281757fe5b1461282a57600754600202600101612831565b6007546002025b8b60018a6005018054905003604051602001808360001916600019168152602001828152602001925050506040516020818303038152906040526040518082805190602001908083835b6020831061289a5780518252601f19909201916020918201910161287b565b51815160209384036101000a600019018019909216911617905260408051929094018290038220968252810195909552508051938490030192915050a36006840154600585015460048701546040518b93600160a060020a039081169316916000805160206145d58339815191529160ff909116906001906000908084600381111561292257fe5b60ff168152921515602084015250151560408083019190915251908190036060019150a46000861115610fd55760058501546040805160208082018c905260001990930181830152815180820383018152606090910191829052805133939192918291908401908083835b602083106129ac5780518252601f19909201916020918201910161298d565b518151600019602094850361010090810a91909101918216911992909216179091526040805195909301859003852060088d01548387529286018f90529650600160a060020a039104169350600080516020614595833981519152928d92508c918190810184848082843760405192018290039550909350505050a45050505050505050565b60045481565b600b6020908152600091825260409182902080548351601f60026000196101006001861615020190931692909204918201849004840281018401909452808452909291839190830182828015612acf5780601f10612aa457610100808354040283529160200191612acf565b820191906000526020600020905b815481529060010190602001808311612ab257829003601f168201915b505050505090806001018054600181600116156101000203166002900480601f016020809104026020016040519081016040528092919081815260200182805460018160011615610100020316600290048015612b6d5780601f10612b4257610100808354040283529160200191612b6d565b820191906000526020600020905b815481529060010190602001808311612b5057829003601f168201915b505050506002838101546003850180546040805160206101006001851615026000190190931695909504601f81018390048302860183019091528085529596600160a060020a0390931695929450909190830182828015612c0f5780601f10612be457610100808354040283529160200191612c0f565b820191906000526020600020905b815481529060010190602001808311612bf257829003601f168201915b5050506004909301549192505060ff1685565b600354600160a060020a03163314612c72576040805160e560020a62461bcd02815260206004820181905260248201526000805160206145b5833981519152604482015290519081900360640190fd5b600955565b6000612c816142e8565b612c896142e8565b6000868152600b60205260408120600581018054839182918a908110612cab57fe5b90600052602060002090600a020191508160070188815481101515612ccc57fe5b9060005260206000209060060201905060018260070180549050038814158160000182600301836004015482600380602002604051908101604052809291908260038015612d2f576020028201915b815481526020019060010190808311612d1b575b5050604080516060810191829052949750869350600392509050826000855b825461010083900a900460ff161515815260206001928301818104948501949093039092029101808411612d4e57905050505050509150965096509650965050505093509350935093565b600d545b90565b6000806000806000808c8c8c8c8c8c8c604051602001808888808284378201915050868680828437606060020a600160a060020a0388160292019182525060140183838082843782019150509750505050505050506040516020818303038152906040526040518082805190602001908083835b60208310612e335780518252601f199092019160209182019101612e14565b51815160209384036101000a600019018019909216911617905260408051929094018290039091206000818152600b9092529290206005810154929a5098505015159150612fe4905057612e88858e8e614307565b50612e97600186018c8c614307565b50600285018054600160a060020a031916600160a060020a038b16179055612ec3600386018989614307565b50600d869080600181540180825580915050906001820390600052602060002001600090919290919091509060001916905550600e60008a600160a060020a0316600160a060020a0316815260200190815260200160002086908060018154018082558091505090600182039060005260206000200160009091929091909150906000191690555088600160a060020a03167fe06ec53edc3679388991a8310fd45c6a8368784489fe5a7bee90717385efc28d8e8e8e8e8d8d6040518080602001806020018060200184810384528a8a82818152602001925080828437909101858103845288815260200190508888808284379091018581038352868152602001905086868082843760405192018290039b50909950505050505050505050a25b6000600486015460ff166003811115612ff957fe5b141561301b576004850180546002919060ff19166001835b02179055506130ab565b6001600486015460ff16600381111561303057fe5b141561304c576004850180546003919060ff1916600183613011565b6040805160e560020a62461bcd028152602060048201526024808201527f546f6b656e20616c72656164792068617320612070656e64696e672072657175604482015260e160020a6332b9ba1702606482015290519081900360840190fd5b6005850180546130be8260018301614385565b815481106130c857fe5b60009182526020909120600a90910201935033600485016001018054600160a060020a031916600160a060020a039283161790554260028681019190915560005460088701805461010060a860020a031916610100929094168202939093179092556001805461314b9360098901938284161590910260001901909116046143b1565b5060078401805461315f82600183016142b7565b8154811061316957fe5b600091825260209091206006909102019250857fa3038500b3c6dba812512e25571133d315bfe339f7f8ab4d56e9cad98318e2706002600488015460ff1660038111156131b257fe5b60408051929091148252519081900360200190a2600884015460405160e060020a63f7434ea90281526020600482019081526009870180546002610100600183161581026000190190921604602485018190529404600160a060020a03169363f7434ea9939192918291604490910190849080156132715780601f1061324657610100808354040283529160200191613271565b820191906000526020600020905b81548152906001019060200180831161325457829003601f168201915b505092505050602060405180830381600087803b15801561329157600080fd5b505af11580156132a5573d6000803e3d6000fd5b505050506040513d60208110156132bb57600080fd5b5051600454600a549193506132e3916125db90612710906125c390879063ffffffff613f1e16565b90506132f3836001333485613f70565b808360010154101561333d576040805160e560020a62461bcd02815260206004820152601e6024820152600080516020614615833981519152604482015290519081900360640190fd5b60038301805461ff00191661010017905585600060048601600101546004880154604051600160a060020a03909216916000805160206145d58339815191529160ff169060009081908084600381111561339357fe5b60ff168152921515602084015250151560408083019190915251908190036060019150a450505050505050505050505050565b6000838152600b602052604081206005810180549192918291829182918291899081106133ef57fe5b90600052602060002090600a02019450846007018781548110151561341057fe5b600091825260209091206003870154600690920201945060ff16151561343557600080fd5b845460ff16158061345857506000600886015460ff16600281111561345657fe5b145b156135325760008460010154116134705760006134ae565b836001015484600201546004860154600160a060020a038d1660009081526005880160205260409020929091019160010154028115156134ac57fe5b045b915060008460020154116134c3576000613501565b836001015484600201546004860154600160a060020a038d1660009081526005880160205260409020929091019160020154028115156134ff57fe5b045b600160a060020a038b166000908152600586016020526040812060018101829055600201558281019350905061360c565b6008850154600090859060ff16600281111561354a57fe5b6003811061355457fe5b0154116135625760006135cd565b6008850154849060ff16600281111561357757fe5b6003811061358157fe5b01546004850154600160a060020a038c1660009081526005870160205260409020600888015460ff1660028111156135b557fe5b600381106135bf57fe5b0154028115156135cb57fe5b045b600160a060020a038b16600090815260058601602052604081206008880154929550909160ff1660028111156135ff57fe5b6003811061360957fe5b01555b604080518881526020810185905281518a92600160a060020a038e16928d927fea1e4a64c44a9979a3521f67bc0c27e16b79ecff122406c701db571d6df96ab1929181900390910190a4604051600160a060020a038b169084156108fc029085906000818181858888f1505050505050505050505050505050565b600354600160a060020a031633146136d7576040805160e560020a62461bcd02815260206004820181905260248201526000805160206145b5833981519152604482015290519081900360640190fd5b600855565b600354600160a060020a0316331461372c576040805160e560020a62461bcd02815260206004820181905260248201526000805160206145b5833981519152604482015290519081900360640190fd5b60008054600160a060020a031916600160a060020a03851617905561375360018383614307565b50505050565b6000818152600b602052604081206001600482015460ff16600381111561377c57fe5b148061379a57506003600482015460ff16600381111561379857fe5b145b9392505050565b6000806000806137af6142e8565b6000878152600b6020526040812060050180548291829160609183918c9081106137d557fe5b60009182526020909120600a909102018054600182015460028301546003808501546007860154600887015460408051606081019182905298995060ff97881698969795969386169560048b0195939490831693610100909304600160a060020a03169260098c019287919082845b8154600160a060020a03168152600190910190602001808311613844575050845460408051602060026001851615610100026000190190941693909304601f8101849004840282018401909252818152959a50869450925084019050828280156138ef5780601f106138c4576101008083540402835291602001916138ef565b820191906000526020600020905b8154815290600101906020018083116138d257829003601f168201915b50505050509050995099509950995099509950995099509950509295985092959850929598565b600354600160a060020a03163314613966576040805160e560020a62461bcd02815260206004820181905260248201526000805160206145b5833981519152604482015290519081900360640190fd5b600655565b61271081565b600354600160a060020a031633146139c1576040805160e560020a62461bcd02815260206004820181905260248201526000805160206145b5833981519152604482015290519081900360640190fd5b6007805460010190819055604080516020808252810186905260029092029160008051602061457583398151915291879187918190810184848082843760405192018290039550909350505050a260075460020260010160008051602061457583398151915283836040518080602001828103825284848281815260200192508082843760405192018290039550909350505050a250505050565b600354600160a060020a03163314613aac576040805160e560020a62461bcd02815260206004820181905260248201526000805160206145b5833981519152604482015290519081900360640190fd5b600555565b600354600160a060020a03163314613b01576040805160e560020a62461bcd02815260206004820181905260248201526000805160206145b5833981519152604482015290519081900360640190fd5b60038054600160a060020a031916600160a060020a0392909216919091179055565b6000818152600b602052604081206005810180549192916000198101908110613b4857fe5b90600052602060002090600a0201905060065481600201544203111515613bd4576040805160e560020a62461bcd02815260206004820152602f60248201527f54696d6520746f206368616c6c656e6765207468652072657175657374206d756044820152608960020a6e39ba103430bb32903830b9b9b2b21702606482015290519081900360840190fd5b805460ff1615613c3d576040805160e560020a62461bcd02815260206004820152602360248201527f54686520726571756573742073686f756c64206e6f7420626520646973707574604482015260e960020a6232b21702606482015290519081900360840190fd5b6002600483015460ff166003811115613c5257fe5b1415613c73576004820180546001919060ff191682805b0217905550613cf2565b6003600483015460ff166003811115613c8857fe5b1415613ca4576004820180546000919060ff1916600183613c69565b6040805160e560020a62461bcd0281526020600482015260186024820152604160020a772a3432b9329036bab9ba1031329030903932b8bab2b9ba1702604482015290519081900360640190fd5b60038101805460ff1916600117905560058082015490830154613d2691600160a060020a03169085906000190160006133c6565b82600060048301600101546004850154604051600160a060020a03909216916000805160206145d58339815191529160ff1690600090819080846003811115613d6b57fe5b60ff168152921515602084015250151560408083019190915251908190036060019150a4505050565b6000838152600b602052604081206005810180549192916000198101908110613db957fe5b60009182526020909120600a90910201600381015490915060ff1615613e3e576040805160e560020a62461bcd02815260206004820152602960248201527f5468652064697370757465206d757374206e6f7420616c726561647920626520604482015260b960020a683932b9b7b63b32b21702606482015290519081900360840190fd5b600582015460408051602080820189905260001990930181830152815180820383018152606090910191829052805133939192918291908401908083835b60208310613e9b5780518252601f199092019160209182019101613e7c565b518151600019602094850361010090810a91909101918216911992909216179091526040805195909301859003852060088a01548387529286018c90529650600160a060020a039104169350600080516020614595833981519152928a925089918190810184848082843760405192018290039550909350505050a45050505050565b600080831515613f315760009150613f54565b50828202828482811515613f4157fe5b0414613f4f57600019613f51565b805b91505b5092915050565b600082820183811015613f4f57600019613f51565b600080613fa584613fa089896002811115613f8757fe5b60038110613f9157fe5b0154869063ffffffff61403c16565b614292565b600160a060020a038716600090815260058a016020526040902091935091508290876002811115613fd257fe5b60038110613fdc57fe5b01805490910190558187876002811115613ff257fe5b60038110613ffc57fe5b018054909101905560048701805483019055604051600160a060020a0386169082156108fc029083906000818181858888f1505050505050505050505050565b60008282111561404e57506000614053565b508082035b92915050565b336000908152600c60209081526040808320858452825280832054808452600b909252822060058101805492939192829190600019810190811061409957fe5b90600052602060002090600a020191508460028111156140b557fe5b905060018160028111156140c557fe5b1415614117576002600484015460ff1660038111156140e057fe5b14156140fa5760048301805460ff19166001179055614112565b6004830180546000919060ff19166001835b02179055505b614173565b6002600484015460ff16600381111561412c57fe5b1415614148576004830180546000919060ff191660018361410c565b6003600484015460ff16600381111561415d57fe5b14156141735760048301805460ff191660011790555b60038201805460ff1916600117905584600281111561418e57fe5b60088301805460ff191660018360028111156141a657fe5b021790555060008160028111156141b957fe5b1415614206576141f36004830160015b600381106141d357fe5b01546005850154600160a060020a039091169086906000190160006133c6565b6142016004830160026141c9565b614219565b614219826004018260028111156141c957fe5b60068201546005830154600485015484546040518894600160a060020a039081169416926000805160206145d58339815191529260ff918216929116906000908084600381111561426657fe5b60ff168152921515602084015250151560408083019190915251908190036060019150a4505050505050565b600080838311156142a8575082905060006142b0565b508190508083035b9250929050565b8154818355818111156142e3576006028160060283600052602060002091820191016142e39190614426565b505050565b6060604051908101604052806003906020820280388339509192915050565b828054600181600116156101000203166002900490600052602060002090601f016020900481019282601f106143485782800160ff19823516178555614375565b82800160010185558215614375579182015b8281111561437557823582559160200191906001019061435a565b5061438192915061445e565b5090565b8154818355818111156142e357600a0281600a0283600052602060002091820191016142e39190614478565b828054600181600116156101000203166002900490600052602060002090601f016020900481019282601f106143ea5780548555614375565b8280016001018555821561437557600052602060002091601f016020900482015b8281111561437557825482559160010191906001019061440b565b612d9d91905b8082111561438157600061444082826144f0565b61444e600383016000614505565b506000600482015560060161442c565b612d9d91905b808211156143815760008155600101614464565b612d9d91905b8082111561438157805460ff199081168255600060018301819055600283018190556003830180549092169091556144b960048301826144f0565b6144c760078301600061450c565b600882018054600160a860020a03191690556144e7600983016000614530565b50600a0161447e565b50600081556001016000815560010160009055565b5060009055565b508054600082556006029060005260206000209081019061452d9190614426565b50565b50805460018160011615610100020316600290046000825580601f10614556575061452d565b601f01602090049060005260206000209081019061452d919061445e560061606860eb6c87306811e2695215385101daab53bd6ab4e9f9049aead9363c7ddccf2f8b2cc26eafcd61905cba744cff4b81d14740725f6376390dc6298a6a3c5468652063616c6c6572206d7573742062652074686520676f7665726e6f722e1d939a93a378cb71bc38b0480cac752dd80d8951166c558440209d33b1f4ae6854686520746f6b656e206d757374206861766520612070656e64696e67207265596f75206d7573742066756c6c792066756e6420796f757220736964652e0000a165627a7a723058209f301f5b15384994b0e9537761c8466564b0f85e4f8ed523b093322cfc4ec038002961606860eb6c87306811e2695215385101daab53bd6ab4e9f9049aead9363c7d",
  "source": "/**\n *  @authors: [@mtsalenc, @clesaege]\n *  @reviewers: []\n *  @auditors: []\n *  @bounties: []\n *  @deployments: []\n */\n/* solium-disable max-len*/\npragma solidity ^0.4.24;\n\nimport \"../arbitration/Arbitrable.sol\";\nimport \"./PermissionInterface.sol\";\nimport \"../../libraries/CappedMath.sol\";\n\n/**\n *  @title ArbitrableTokenList\n *  This contract is an arbitrable token curated registry for tokens, sometimes referred to as a Token Curated Registry. Users can send requests to register or remove tokens from the registry, which can in turn, be challenged by parties that disagree with them.\n *  A crowdsourced insurance system allows parties to contribute to arbitration fees and win rewards if the side they backed ultimately wins a dispute.\n *  NOTE: This contract trusts that the Arbitrator is honest and will not reenter or modify its costs during a call. This contract is only to be used with an arbitrator returning appealPeriod and having non-zero fees. The governor contract (which will be a DAO) is also to be trusted.\n */\ncontract ArbitrableTokenList is PermissionInterface, Arbitrable {\n    using CappedMath for uint; // Operations bounded between 0 and 2**256 - 1.\n\n    /* Enums */\n\n    enum TokenStatus {\n        Absent, // The token is not in the registry.\n        Registered, // The token is in the registry.\n        RegistrationRequested, // The token has a request to be added to the registry.\n        ClearingRequested // The token has a request to be removed from the registry.\n    }\n\n    enum Party {\n        None,      // Party per default when there is no challenger or requester. Also used for unconclusive ruling.\n        Requester, // Party that made the request to change a token status.\n        Challenger // Party that challenges the request to change a token status.\n    }\n\n    // ************************ //\n    // *  Request Life Cycle  * //\n    // ************************ //\n    // Changes to the token status are made via requests for either listing or removing a token from the Token Curated Registry.\n    // To make or challenge a request, a party must pay a deposit. This value will be rewarded to the party that ultimately wins a dispute. If no one challenges the request, the value will be reimbursed to the requester.\n    // Additionally to the challenge reward, in the case a party challenges a request, both sides must fully pay the amount of arbitration fees required to raise a dispute. The party that ultimately wins the case will be reimbursed.\n    // Finally, arbitration fees can be crowdsourced. To incentivise insurers, an additional fee stake must be deposited. Contributors that fund the side that ultimately wins a dispute will be reimbursed and rewarded with the other side's fee stake proportionally to their contribution.\n    // In summary, costs for placing or challenging a request are the following:\n    // - A challenge reward given to the party that wins a potential dispute.\n    // - Arbitration fees used to pay jurors.\n    // - A fee stake that is distributed among insurers of the side that ultimately wins a dispute.\n\n    /* Structs */\n\n    struct Token {\n        string name; // The token name (e.g. Pinakion).\n        string ticker; // The token ticker (e.g. PNK).\n        address addr; // The Ethereum address of the token.\n        string symbolMultihash; // The multihash of the token symbol.\n        TokenStatus status; // The status of the token.\n        Request[] requests; // List of status change requests made for the token.\n    }\n\n    // Some arrays below have 3 elements to map with the Party enums for better readability:\n    // - 0: is unused, matches `Party.None`.\n    // - 1: for `Party.Requester`.\n    // - 2: for `Party.Challenger`.\n    struct Request {\n        bool disputed; // True if a dispute was raised.\n        uint disputeID; // ID of the dispute, if any.\n        uint submissionTime; // Time when the request was made. Used to track when the challenge period ends.\n        bool resolved; // True if the request was executed and/or any disputes raised were resolved.\n        address[3] parties; // Address of requester and challenger, if any.\n        Round[] rounds; // Tracks each round of a dispute.\n        Party ruling; // The final ruling given, if any.\n        Arbitrator arbitrator; // The arbitrator trusted to solve disputes for this request.\n        bytes arbitratorExtraData; // The extra data for the trusted arbitrator of this request.\n    }\n\n    struct Round {\n        uint[3] paidFees; // Tracks the fees paid by each side on this round.\n        bool[3] hasPaid; // True when the side has fully paid its fee. False otherwise.\n        uint feeRewards; // Sum of reimbursable fees and stake rewards available to the parties that made contributions to the side that ultimately wins a dispute.\n        mapping(address => uint[3]) contributions; // Maps contributors to their contributions for each side.\n    }\n\n    /* Storage */\n    \n    // Constants\n    \n    uint RULING_OPTIONS = 2; // The amount of non 0 choices the arbitrator can give.\n\n    // Settings\n    address public governor; // The address that can make governance changes to the parameters of the Token Curated Registry.\n    uint public requesterBaseDeposit; // The base deposit to make a request.\n    uint public challengerBaseDeposit; // The base deposit to challenge a request.\n    uint public challengePeriodDuration; // The time before a request becomes executable if not challenged.\n    uint public metaEvidenceUpdates; // The number of times the meta evidence has been updated. Used to track the latest meta evidence ID.\n\n    // The required fee stake that a party must pay depends on who won the previous round and is proportional to the arbitration cost such that the fee stake for a round is stake multiplier * arbitration cost for that round.\n    // Multipliers are in basis points.\n    uint public winnerStakeMultiplier; // Multiplier for calculating the fee stake paid by the party that won the previous round.\n    uint public loserStakeMultiplier; // Multiplier for calculating the fee stake paid by the party that lost the previous round.\n    uint public sharedStakeMultiplier; // Multiplier for calculating the fee stake that must be paid in the case where there isn't a winner and loser (e.g. when it's the first round or the arbitrator ruled \"refused to rule\"/\"could not rule\").\n    uint public constant MULTIPLIER_DIVISOR = 10000; // Divisor parameter for multipliers.\n\n    // Registry data.\n    mapping(bytes32 => Token) public tokens; // Maps the token ID to the token data.\n    mapping(address => mapping(uint => bytes32)) public arbitratorDisputeIDToTokenID; // Maps a dispute ID to the ID of the token with the disputed request. On the form arbitratorDisputeIDToTokenID[arbitrator][disputeID].\n    bytes32[] public tokensList; // List of IDs of submitted tokens.\n\n    // Token list\n    mapping(address => bytes32[]) public addressToSubmissions; // Maps addresses to submitted token IDs.\n\n    /* Modifiers */\n\n    modifier onlyGovernor {require(msg.sender == governor, \"The caller must be the governor.\"); _;}\n\n    /* Events */\n\n    /**\n     *  @dev Emitted when a party submits a new token.\n     *  @param _name The token name (e.g. Pinakion).\n     *  @param _ticker The token ticker (e.g. PNK).\n     *  @param _symbolMultihash The keccak256 multihash of the token symbol image.\n     *  @param _address The token address.\n     */\n    event TokenSubmitted(string _name, string _ticker, string _symbolMultihash, address indexed _address);\n\n    /** @dev Emitted when a party makes a request to change a token status.\n     *  @param _tokenID The ID of the affected token.\n     *  @param _registrationRequest Whether the request is a registration request. False means it is a clearing request.\n     */\n    event RequestSubmitted(bytes32 indexed _tokenID, bool _registrationRequest);\n\n    /**\n     *  @dev Emitted when a party makes a request, dispute or appeals are raised, or when a request is resolved.\n     *  @param _requester Address of the party that submitted the request.\n     *  @param _challenger Address of the party that has challenged the request, if any.\n     *  @param _tokenID The token ID. It is the keccak256 hash of it's data.\n     *  @param _status The status of the token.\n     *  @param _disputed Whether the token is disputed.\n     *  @param _appealed Whether the current round was appealed.\n     */\n    event TokenStatusChange(\n        address indexed _requester,\n        address indexed _challenger,\n        bytes32 indexed _tokenID,\n        TokenStatus _status,\n        bool _disputed,\n        bool _appealed\n    );\n\n    /** @dev Emitted when a reimbursements and/or contribution rewards are withdrawn.\n     *  @param _tokenID The ID of the token from which the withdrawal was made.\n     *  @param _contributor The address that sent the contribution.\n     *  @param _request The request from which the withdrawal was made.\n     *  @param _round The round from which the reward was taken.\n     *  @param _value The value of the reward.\n     */\n    event RewardWithdrawal(bytes32 indexed _tokenID, address indexed _contributor, uint indexed _request, uint _round, uint _value);\n\n    \n    /* Constructor */\n\n    /**\n     *  @dev Constructs the arbitrable token curated registry.\n     *  @param _arbitrator The trusted arbitrator to resolve potential disputes.\n     *  @param _arbitratorExtraData Extra data for the trusted arbitrator contract.\n     *  @param _registrationMetaEvidence The URI of the meta evidence object for registration requests.\n     *  @param _clearingMetaEvidence The URI of the meta evidence object for clearing requests.\n     *  @param _governor The trusted governor of this contract.\n     *  @param _requesterBaseDeposit The base deposit to make a request.\n     *  @param _challengerBaseDeposit The base deposit to challenge a request.\n     *  @param _challengePeriodDuration The time in seconds, parties have to challenge a request.\n     *  @param _sharedStakeMultiplier Multiplier of the arbitration cost that each party must pay as fee stake for a round when there isn't a winner/loser in the previous round (e.g. when it's the first round or the arbitrator refused to or did not rule). In basis points.\n     *  @param _winnerStakeMultiplier Multiplier of the arbitration cost that the winner has to pay as fee stake for a round in basis points.\n     *  @param _loserStakeMultiplier Multiplier of the arbitration cost that the loser has to pay as fee stake for a round in basis points.\n     */\n    constructor(\n        Arbitrator _arbitrator,\n        bytes _arbitratorExtraData,\n        string _registrationMetaEvidence,\n        string _clearingMetaEvidence,\n        address _governor,\n        uint _requesterBaseDeposit,\n        uint _challengerBaseDeposit,\n        uint _challengePeriodDuration,\n        uint _sharedStakeMultiplier,\n        uint _winnerStakeMultiplier,\n        uint _loserStakeMultiplier\n    ) Arbitrable(_arbitrator, _arbitratorExtraData) public {\n        emit MetaEvidence(0, _registrationMetaEvidence);\n        emit MetaEvidence(1, _clearingMetaEvidence);\n\n        governor = _governor;\n        requesterBaseDeposit = _requesterBaseDeposit;\n        challengerBaseDeposit = _challengerBaseDeposit;\n        challengePeriodDuration = _challengePeriodDuration;\n        sharedStakeMultiplier = _sharedStakeMultiplier;\n        winnerStakeMultiplier = _winnerStakeMultiplier;\n        loserStakeMultiplier = _loserStakeMultiplier;\n    }\n\n    \n    /* External and Public */\n    \n    // ************************ //\n    // *       Requests       * //\n    // ************************ //\n\n    /** @dev Submits a request to change a token status. Accepts enough ETH to fund a potential dispute considering the current required amount and reimburses the rest. TRUSTED.\n     *  @param _name The token name (e.g. Pinakion).\n     *  @param _ticker The token ticker (e.g. PNK).\n     *  @param _addr The Ethereum address of the token.\n     *  @param _symbolMultihash The multihash of the token symbol.\n     */\n    function requestStatusChange(\n        string _name,\n        string _ticker,\n        address _addr,\n        string _symbolMultihash\n    )\n        external\n        payable\n    {\n        bytes32 tokenID = keccak256(\n            abi.encodePacked(\n                _name,\n                _ticker,\n                _addr,\n                _symbolMultihash\n            )\n        );\n\n        Token storage token = tokens[tokenID];\n        if (token.requests.length == 0) {\n            // Initial token registration.\n            token.name = _name;\n            token.ticker = _ticker;\n            token.addr = _addr;\n            token.symbolMultihash = _symbolMultihash;\n            tokensList.push(tokenID);\n            addressToSubmissions[_addr].push(tokenID);\n            emit TokenSubmitted(_name, _ticker, _symbolMultihash, _addr);\n        }\n\n        // Update token status.\n        if (token.status == TokenStatus.Absent)\n            token.status = TokenStatus.RegistrationRequested;\n        else if (token.status == TokenStatus.Registered)\n            token.status = TokenStatus.ClearingRequested;\n        else\n            revert(\"Token already has a pending request.\");\n\n        // Setup request.\n        Request storage request = token.requests[token.requests.length++];\n        request.parties[uint(Party.Requester)] = msg.sender;\n        request.submissionTime = now;\n        request.arbitrator = arbitrator;\n        request.arbitratorExtraData = arbitratorExtraData;\n        Round storage round = request.rounds[request.rounds.length++];\n\n        emit RequestSubmitted(tokenID, token.status == TokenStatus.RegistrationRequested);\n\n        // Amount required to fully fund each side: requesterBaseDeposit + arbitration cost + (arbitration cost * multiplier).\n        uint arbitrationCost = request.arbitrator.arbitrationCost(request.arbitratorExtraData);\n        uint totalCost = arbitrationCost.addCap((arbitrationCost.mulCap(sharedStakeMultiplier)) / MULTIPLIER_DIVISOR).addCap(requesterBaseDeposit);\n        contribute(round, Party.Requester, msg.sender, msg.value, totalCost);\n        require(round.paidFees[uint(Party.Requester)] >= totalCost, \"You must fully fund your side.\");\n        round.hasPaid[uint(Party.Requester)] = true;\n        \n        emit TokenStatusChange(\n            request.parties[uint(Party.Requester)],\n            address(0x0),\n            tokenID,\n            token.status,\n            false,\n            false\n        );\n    }\n\n    /** @dev Challenges the latest request of a token. Accepts enough ETH to fund a potential dispute considering the current required amount. Reimburses unused ETH. TRUSTED.\n     *  @param _tokenID The ID of the token with the request to challenge.\n     *  @param _evidence A link to an evidence using its URI. Ignored if not provided or if not enough funds were provided to create a dispute.\n     */\n    function challengeRequest(bytes32 _tokenID, string _evidence) external payable {\n        Token storage token = tokens[_tokenID];\n        require(\n            token.status == TokenStatus.RegistrationRequested || token.status == TokenStatus.ClearingRequested,\n            \"The token must have a pending request.\"\n        );\n        Request storage request = token.requests[token.requests.length - 1];\n        require(now - request.submissionTime <= challengePeriodDuration, \"Challenges must occur during the challenge period.\");\n        require(!request.disputed, \"The request should not have already been disputed.\");\n\n        // Take the deposit and save the challenger's address.\n        request.parties[uint(Party.Challenger)] = msg.sender;\n\n        Round storage round = request.rounds[request.rounds.length - 1];\n        uint arbitrationCost = request.arbitrator.arbitrationCost(request.arbitratorExtraData);\n        uint totalCost = arbitrationCost.addCap((arbitrationCost.mulCap(sharedStakeMultiplier)) / MULTIPLIER_DIVISOR).addCap(challengerBaseDeposit);\n        contribute(round, Party.Challenger, msg.sender, msg.value, totalCost);\n        require(round.paidFees[uint(Party.Challenger)] >= totalCost, \"You must fully fund your side.\");\n        round.hasPaid[uint(Party.Challenger)] = true;\n        \n        // Raise a dispute.\n        request.disputeID = request.arbitrator.createDispute.value(arbitrationCost)(RULING_OPTIONS, request.arbitratorExtraData);\n        arbitratorDisputeIDToTokenID[request.arbitrator][request.disputeID] = _tokenID;\n        request.disputed = true;\n        request.rounds.length++;\n        round.feeRewards = round.feeRewards.subCap(arbitrationCost);\n        \n        emit Dispute(\n            request.arbitrator,\n            request.disputeID,\n            token.status == TokenStatus.RegistrationRequested\n                ? 2 * metaEvidenceUpdates\n                : 2 * metaEvidenceUpdates + 1,\n            uint(keccak256(abi.encodePacked(_tokenID,token.requests.length - 1)))\n        );\n        emit TokenStatusChange(\n            request.parties[uint(Party.Requester)],\n            request.parties[uint(Party.Challenger)],\n            _tokenID,\n            token.status,\n            true,\n            false\n        );\n        if (bytes(_evidence).length > 0)\n            emit Evidence(request.arbitrator, uint(keccak256(abi.encodePacked(_tokenID,token.requests.length - 1))), msg.sender, _evidence);\n        }\n\n    /** @dev Takes up to the total amount required to fund a side of an appeal. Reimburses the rest. Creates an appeal if both sides are fully funded. TRUSTED.\n     *  @param _tokenID The ID of the token with the request to fund.\n     *  @param _side The recipient of the contribution.\n     */\n    function fundAppeal(bytes32 _tokenID, Party _side) external payable {\n        // Recipient must be either the requester or challenger.\n        require(_side == Party.Requester || _side == Party.Challenger); // solium-disable-line error-reason\n        Token storage token = tokens[_tokenID];\n        require(\n            token.status == TokenStatus.RegistrationRequested || token.status == TokenStatus.ClearingRequested,\n            \"The token must have a pending request.\"\n        );\n        Request storage request = token.requests[token.requests.length - 1];\n        require(request.disputed, \"A dispute must have been raised to fund an appeal.\");\n        (uint appealPeriodStart, uint appealPeriodEnd) = request.arbitrator.appealPeriod(request.disputeID);\n        require(\n            now >= appealPeriodStart && now < appealPeriodEnd,\n            \"Contributions must be made within the appeal period.\"\n        );\n        \n\n        // Amount required to fully fund each side: arbitration cost + (arbitration cost * multiplier)\n        Round storage round = request.rounds[request.rounds.length - 1];\n        Party winner = Party(request.arbitrator.currentRuling(request.disputeID));\n        Party loser;\n        if (winner == Party.Requester)\n            loser = Party.Challenger;\n        else if (winner == Party.Challenger)\n            loser = Party.Requester;\n        require(!(_side==loser) || (now-appealPeriodStart < (appealPeriodEnd-appealPeriodStart)/2), \"The loser must contribute during the first half of the appeal period.\");\n        \n        uint multiplier;\n        if (_side == winner)\n            multiplier = winnerStakeMultiplier;\n        else if (_side == loser)\n            multiplier = loserStakeMultiplier;\n        else\n            multiplier = sharedStakeMultiplier;\n        uint appealCost = request.arbitrator.appealCost(request.disputeID, request.arbitratorExtraData);\n        uint totalCost = appealCost.addCap((appealCost.mulCap(multiplier)) / MULTIPLIER_DIVISOR);\n        contribute(round, _side, msg.sender, msg.value, totalCost);\n        if (round.paidFees[uint(_side)] >= totalCost)\n            round.hasPaid[uint(_side)] = true;\n\n        // Raise appeal if both sides are fully funded.\n        if (round.hasPaid[uint(Party.Challenger)] && round.hasPaid[uint(Party.Requester)]) {\n            request.arbitrator.appeal.value(appealCost)(request.disputeID, request.arbitratorExtraData);\n            request.rounds.length++;\n            round.feeRewards = round.feeRewards.subCap(appealCost);\n            emit TokenStatusChange(\n                request.parties[uint(Party.Requester)],\n                request.parties[uint(Party.Challenger)],\n                _tokenID,\n                token.status,\n                true,\n                true\n            );\n        }\n    }\n\n    /** @dev Reimburses contributions if no disputes were raised. If a dispute was raised, sends the fee stake rewards and reimbursements proportional to the contributions made to the winner of a dispute.\n     *  @param _beneficiary The address that made contributions to a request.\n     *  @param _tokenID The ID of the token submission with the request from which to withdraw.\n     *  @param _request The request from which to withdraw.\n     *  @param _round The round from which to withdraw.\n     */\n    function withdrawFeesAndRewards(address _beneficiary, bytes32 _tokenID, uint _request, uint _round) public {\n        Token storage token = tokens[_tokenID];\n        Request storage request = token.requests[_request];\n        Round storage round = request.rounds[_round];\n        // The request must be executed and there can be no disputes pending resolution.\n        require(request.resolved); // solium-disable-line error-reason\n\n        uint reward;\n        if (!request.disputed || request.ruling == Party.None) {\n            // No disputes were raised, or there isn't a winner and loser. Reimburse unspent fees proportionally.\n            uint rewardRequester = round.paidFees[uint(Party.Requester)] > 0\n                ? (round.contributions[_beneficiary][uint(Party.Requester)] * round.feeRewards) / (round.paidFees[uint(Party.Challenger)] + round.paidFees[uint(Party.Requester)])\n                : 0;\n            uint rewardChallenger = round.paidFees[uint(Party.Challenger)] > 0\n                ? (round.contributions[_beneficiary][uint(Party.Challenger)] * round.feeRewards) / (round.paidFees[uint(Party.Challenger)] + round.paidFees[uint(Party.Requester)])\n                : 0;\n\n            reward = rewardRequester + rewardChallenger;\n            round.contributions[_beneficiary][uint(Party.Requester)] = 0;\n            round.contributions[_beneficiary][uint(Party.Challenger)] = 0;\n        } else {\n            // Reward the winner.\n            reward = round.paidFees[uint(request.ruling)] > 0\n                ? (round.contributions[_beneficiary][uint(request.ruling)] * round.feeRewards) / round.paidFees[uint(request.ruling)]\n                : 0;\n\n            round.contributions[_beneficiary][uint(request.ruling)] = 0;\n        }\n\n        emit RewardWithdrawal(_tokenID, _beneficiary, _request, _round,  reward);\n        _beneficiary.send(reward); // It is the user responsibility to accept ETH.\n    }\n\n    /** @dev Withdraws rewards and reimbursements of multiple rounds at once. This function is O(n) where n is the number of rounds. This could exceed gas limits, therefore this function should be used only as a utility and not be relied upon by other contracts.\n     *  @param _beneficiary The address that made contributions to the request.\n     *  @param _tokenID The token ID with funds to be withdrawn.\n     *  @param _request The request from which to withdraw contributions.\n     *  @param _cursor The round from where to start withdrawing.\n     *  @param _count The number of rounds to iterate. If set to 0 or a value larger than the number of rounds, iterates until the last round.\n     */\n    function batchRoundWithdraw(address _beneficiary, bytes32 _tokenID, uint _request, uint _cursor, uint _count) public {\n        Token storage token = tokens[_tokenID];\n        Request storage request = token.requests[_request];\n        for (uint i = _cursor; i<request.rounds.length && (_count==0 || i<_count); i++)\n            withdrawFeesAndRewards(_beneficiary, _tokenID, _request, i);\n    }\n\n    /** @dev Withdraws rewards and reimbursements of multiple requests at once. This function is O(n*m) where n is the number of requests and m is the number of rounds. This could exceed gas limits, therefore this function should be used only as a utility and not be relied upon by other contracts.\n     *  @param _beneficiary The address that made contributions to the request.\n     *  @param _tokenID The token ID with funds to be withdrawn.\n     *  @param _cursor The request from which to start withdrawing.\n     *  @param _count The number of requests to iterate. If set to 0 or a value larger than the number of request, iterates until the last request.\n     *  @param _roundCursor The round of each request from where to start withdrawing.\n     *  @param _roundCount The number of rounds to iterate on each request. If set to 0 or a value larger than the number of rounds a request has, iteration for that request will stop at the last round.\n     */\n    function batchRequestWithdraw(\n        address _beneficiary,\n        bytes32 _tokenID,\n        uint _cursor,\n        uint _count,\n        uint _roundCursor,\n        uint _roundCount\n    ) external {\n        Token storage token = tokens[_tokenID];\n        for (uint i = _cursor; i<token.requests.length && (_count==0 || i<_count); i++)\n            batchRoundWithdraw(_beneficiary, _tokenID, i, _roundCursor, _roundCount);\n    }\n\n    /** @dev Executes a request if the challenge period passed and no one challenged the request.\n     *  @param _tokenID The ID of the token with the request to execute.\n     */\n    function executeRequest(bytes32 _tokenID) external {\n        Token storage token = tokens[_tokenID];\n        Request storage request = token.requests[token.requests.length - 1];\n        require(\n            now - request.submissionTime > challengePeriodDuration,\n            \"Time to challenge the request must have passed.\"\n        );\n        require(!request.disputed, \"The request should not be disputed.\");\n\n        if (token.status == TokenStatus.RegistrationRequested)\n            token.status = TokenStatus.Registered;\n        else if (token.status == TokenStatus.ClearingRequested)\n            token.status = TokenStatus.Absent;\n        else\n            revert(\"There must be a request.\");\n\n        request.resolved = true;\n        withdrawFeesAndRewards(request.parties[uint(Party.Requester)], _tokenID, token.requests.length - 1, 0); // Automatically withdraw for the requester.\n\n        emit TokenStatusChange(\n            request.parties[uint(Party.Requester)],\n            address(0x0),\n            _tokenID,\n            token.status,\n            false,\n            false\n        );\n    }\n\n    /** @dev Give a ruling for a dispute. Can only be called by the arbitrator. TRUSTED.\n     *  Overrides parent function to account for the situation where the winner loses a case due to paying less appeal fees than expected.\n     *  @param _disputeID ID of the dispute in the arbitrator contract.\n     *  @param _ruling Ruling given by the arbitrator. Note that 0 is reserved for \"Not able/wanting to make a decision\".\n     */\n    function rule(uint _disputeID, uint _ruling) public {\n        Party resultRuling = Party(_ruling);\n        bytes32 tokenID = arbitratorDisputeIDToTokenID[msg.sender][_disputeID];\n        Token storage token = tokens[tokenID];\n        Request storage request = token.requests[token.requests.length - 1];\n        Round storage round = request.rounds[request.rounds.length - 1];\n        require(_ruling <= RULING_OPTIONS); // solium-disable-line error-reason\n        require(request.arbitrator == msg.sender); // solium-disable-line error-reason\n        require(!request.resolved); // solium-disable-line error-reason\n\n        // The ruling is inverted if the loser paid its fees.\n        if (round.hasPaid[uint(Party.Requester)] == true) // If one side paid its fees, the ruling is in its favor. Note that if the other side had also paid, an appeal would have been created.\n            resultRuling = Party.Requester;\n        else if (round.hasPaid[uint(Party.Challenger)] == true)\n            resultRuling = Party.Challenger;\n        \n        emit Ruling(Arbitrator(msg.sender), _disputeID, uint(resultRuling));\n        executeRuling(_disputeID, uint(resultRuling));\n    }\n\n    /** @dev Submit a reference to evidence. EVENT.\n     *  @param _evidence A link to an evidence using its URI.\n     */\n    function submitEvidence(bytes32 _tokenID, string _evidence) external {\n        Token storage token = tokens[_tokenID];\n        Request storage request = token.requests[token.requests.length - 1];\n        require(!request.resolved, \"The dispute must not already be resolved.\");\n\n        emit Evidence(request.arbitrator, uint(keccak256(abi.encodePacked(_tokenID,token.requests.length - 1))), msg.sender, _evidence);\n    }\n\n    // ************************ //\n    // *      Governance      * //\n    // ************************ //\n\n    /** @dev Change the duration of the challenge period.\n     *  @param _challengePeriodDuration The new duration of the challenge period.\n     */\n    function changeTimeToChallenge(uint _challengePeriodDuration) external onlyGovernor {\n        challengePeriodDuration = _challengePeriodDuration;\n    }\n\n    /** @dev Change the base amount required as a deposit to make a request.\n     *  @param _requesterBaseDeposit The new base amount of wei required to make a request.\n     */\n    function changeRequesterBaseDeposit(uint _requesterBaseDeposit) external onlyGovernor {\n        requesterBaseDeposit = _requesterBaseDeposit;\n    }\n    \n    /** @dev Change the base amount required as a deposit to challenge a request.\n     *  @param _challengerBaseDeposit The new base amount of wei required to challenge a request.\n     */\n    function changeChallengerBaseDeposit(uint _challengerBaseDeposit) external onlyGovernor {\n        challengerBaseDeposit = _challengerBaseDeposit;\n    }\n\n    /** @dev Change the governor of the token curated registry.\n     *  @param _governor The address of the new governor.\n     */\n    function changeGovernor(address _governor) external onlyGovernor {\n        governor = _governor;\n    }\n\n    /** @dev Change the percentage of arbitration fees that must be paid as fee stake by parties when there isn't a winner or loser.\n     *  @param _sharedStakeMultiplier Multiplier of arbitration fees that must be paid as fee stake. In basis points.\n     */\n    function changeSharedStakeMultiplier(uint _sharedStakeMultiplier) external onlyGovernor {\n        sharedStakeMultiplier = _sharedStakeMultiplier;\n    }\n\n    /** @dev Change the percentage of arbitration fees that must be paid as fee stake by the winner of the previous round.\n     *  @param _winnerStakeMultiplier Multiplier of arbitration fees that must be paid as fee stake. In basis points.\n     */\n    function changeWinnerStakeMultiplier(uint _winnerStakeMultiplier) external onlyGovernor {\n        winnerStakeMultiplier = _winnerStakeMultiplier;\n    }\n\n    /** @dev Change the percentage of arbitration fees that must be paid as fee stake by the party that lost the previous round.\n     *  @param _loserStakeMultiplier Multiplier of arbitration fees that must be paid as fee stake. In basis points.\n     */\n    function changeLoserStakeMultiplier(uint _loserStakeMultiplier) external onlyGovernor {\n        loserStakeMultiplier = _loserStakeMultiplier;\n    }\n\n    /** @dev Change the arbitrator to be used for disputes that may be raised in the next requests. The arbitrator is trusted to support appeal periods and not reenter.\n     *  @param _arbitrator The new trusted arbitrator to be used in the next requests.\n     *  @param _arbitratorExtraData The extra data used by the new arbitrator.\n     */\n    function changeArbitrator(Arbitrator _arbitrator, bytes _arbitratorExtraData) external onlyGovernor {\n        arbitrator = _arbitrator;\n        arbitratorExtraData = _arbitratorExtraData;\n    }\n\n    /** @dev Update the meta evidence used for disputes.\n     *  @param _registrationMetaEvidence The meta evidence to be used for future registration request disputes.\n     *  @param _clearingMetaEvidence The meta evidence to be used for future clearing request disputes.\n     */\n    function changeMetaEvidence(string _registrationMetaEvidence, string _clearingMetaEvidence) external onlyGovernor {\n        metaEvidenceUpdates++;\n        emit MetaEvidence(2 * metaEvidenceUpdates, _registrationMetaEvidence);\n        emit MetaEvidence(2 * metaEvidenceUpdates + 1, _clearingMetaEvidence);\n    }\n\n    \n    /* Internal */\n\n    /** @dev Returns the contribution value and remainder from available ETH and required amount.\n     *  @param _available The amount of ETH available for the contribution.\n     *  @param _requiredAmount The amount of ETH required for the contribution.\n     *  @return taken The amount of ETH taken.\n     *  @return remainder The amount of ETH left from the contribution.\n     */\n    function calculateContribution(uint _available, uint _requiredAmount)\n        internal\n        pure\n        returns(uint taken, uint remainder)\n    {\n        if (_requiredAmount > _available)\n            return (_available, 0); // Take whatever is available, return 0 as leftover ETH.\n\n        remainder = _available - _requiredAmount;\n        return (_requiredAmount, remainder);\n    }\n    \n    /** @dev Make a fee contribution.\n     *  @param _round The round to contribute.\n     *  @param _side The side for which to contribute.\n     *  @param _contributor The contributor.\n     *  @param _amount The amount contributed.\n     *  @param _totalRequired The total amount required for this side.\n     */\n    function contribute(Round storage _round, Party _side, address _contributor, uint _amount, uint _totalRequired) internal {\n        // Take up to the amount necessary to fund the current round at the current costs.\n        uint contribution; // Amount contributed.\n        uint remainingETH; // Remaining ETH to send back.\n        (contribution, remainingETH) = calculateContribution(_amount, _totalRequired.subCap(_round.paidFees[uint(_side)]));\n        _round.contributions[_contributor][uint(_side)] += contribution;\n        _round.paidFees[uint(_side)] += contribution;\n        _round.feeRewards += contribution;\n\n        // Reimburse leftover ETH.\n        _contributor.send(remainingETH); // Deliberate use of send in order to not block the contract in case of reverting fallback.\n    }\n    \n    /** @dev Execute the ruling of a dispute.\n     *  @param _disputeID ID of the dispute in the Arbitrator contract.\n     *  @param _ruling Ruling given by the arbitrator. Note that 0 is reserved for \"Not able/wanting to make a decision\".\n     */\n    function executeRuling(uint _disputeID, uint _ruling) internal {\n        bytes32 tokenID = arbitratorDisputeIDToTokenID[msg.sender][_disputeID];\n        Token storage token = tokens[tokenID];\n        Request storage request = token.requests[token.requests.length - 1];\n\n        Party winner = Party(_ruling);\n\n        // Update token state\n        if (winner == Party.Requester) { // Execute Request\n            if (token.status == TokenStatus.RegistrationRequested)\n                token.status = TokenStatus.Registered;\n            else\n                token.status = TokenStatus.Absent;\n        } else { // Revert to previous state.\n            if (token.status == TokenStatus.RegistrationRequested)\n                token.status = TokenStatus.Absent;\n            else if (token.status == TokenStatus.ClearingRequested)\n                token.status = TokenStatus.Registered;\n        }\n\n        request.resolved = true;\n        request.ruling = Party(_ruling);\n        // Automatically withdraw.\n        if (winner == Party.None) {\n            withdrawFeesAndRewards(request.parties[uint(Party.Requester)], tokenID, token.requests.length-1, 0);\n            withdrawFeesAndRewards(request.parties[uint(Party.Challenger)], tokenID, token.requests.length-1, 0);\n        } else {\n            withdrawFeesAndRewards(request.parties[uint(winner)], tokenID, token.requests.length-1, 0); \n        }\n\n        emit TokenStatusChange(\n            request.parties[uint(Party.Requester)],\n            request.parties[uint(Party.Challenger)],\n            tokenID,\n            token.status,\n            request.disputed,\n            false\n        );\n    }\n    \n    \n    /* Views */\n\n    /** @dev Return true if the token is on the list.\n     *  @param _tokenID The ID of the token to be queried.\n     *  @return allowed True if the token is allowed, false otherwise.\n     */\n    function isPermitted(bytes32 _tokenID) external view returns (bool allowed) {\n        Token storage token = tokens[_tokenID];\n        return token.status == TokenStatus.Registered || token.status == TokenStatus.ClearingRequested;\n    }\n\n    \n    /* Interface Views */\n\n    /** @dev Return the sum of withdrawable wei of a request an account is entitled to. This function is O(n), where n is the number of rounds of the request. This could exceed the gas limit, therefore this function should only be used for interface display and not by other contracts.\n     *  @param _tokenID The ID of the token to query.\n     *  @param _beneficiary The contributor for which to query.\n     *  @param _request The request from which to query for.\n     *  @return The total amount of wei available to withdraw.\n     */\n    function amountWithdrawable(bytes32 _tokenID, address _beneficiary, uint _request) external view returns (uint total){\n        Request storage request = tokens[_tokenID].requests[_request];\n        if (!request.resolved) return total;\n\n        for (uint i = 0; i < request.rounds.length; i++) {\n            Round storage round = request.rounds[i];\n            if (!request.disputed || request.ruling == Party.None) {\n                uint rewardRequester = round.paidFees[uint(Party.Requester)] > 0\n                    ? (round.contributions[_beneficiary][uint(Party.Requester)] * round.feeRewards) / (round.paidFees[uint(Party.Requester)] + round.paidFees[uint(Party.Challenger)])\n                    : 0;\n                uint rewardChallenger = round.paidFees[uint(Party.Challenger)] > 0\n                    ? (round.contributions[_beneficiary][uint(Party.Challenger)] * round.feeRewards) / (round.paidFees[uint(Party.Requester)] + round.paidFees[uint(Party.Challenger)])\n                    : 0;\n\n                total += rewardRequester + rewardChallenger;\n            } else {\n                total += round.paidFees[uint(request.ruling)] > 0\n                    ? (round.contributions[_beneficiary][uint(request.ruling)] * round.feeRewards) / round.paidFees[uint(request.ruling)]\n                    : 0;\n            }\n        }\n\n        return total;\n    }\n    \n    /** @dev Return the numbers of tokens that were submitted. Includes tokens that never made it to the list or were later removed.\n     *  @return count The numbers of tokens in the list.\n     */\n    function tokenCount() external view returns (uint count) {\n        return tokensList.length;\n    }\n    \n    /** @dev Return the numbers of tokens with each status. This function is O(n), where n is the number of tokens. This could exceed the gas limit, therefore this function should only be used for interface display and not by other contracts.\n     *  @return The numbers of tokens in the list per status.\n     */\n    function countByStatus()\n        external\n        view\n        returns (\n            uint absent,\n            uint registered,\n            uint registrationRequest,\n            uint clearingRequest,\n            uint challengedRegistrationRequest,\n            uint challengedClearingRequest\n        )\n    {\n        for (uint i = 0; i < tokensList.length; i++) {\n            Token storage token = tokens[tokensList[i]];\n            Request storage request = token.requests[token.requests.length - 1];\n\n            if (token.status == TokenStatus.Absent) absent++;\n            else if (token.status == TokenStatus.Registered) registered++;\n            else if (token.status == TokenStatus.RegistrationRequested && !request.disputed) registrationRequest++;\n            else if (token.status == TokenStatus.ClearingRequested && !request.disputed) clearingRequest++;\n            else if (token.status == TokenStatus.RegistrationRequested && request.disputed) challengedRegistrationRequest++;\n            else if (token.status == TokenStatus.ClearingRequested && request.disputed) challengedClearingRequest++;\n        }\n    }\n\n    /** @dev Return the values of the tokens the query finds. This function is O(n), where n is the number of tokens. This could exceed the gas limit, therefore this function should only be used for interface display and not by other contracts.\n     *  @param _cursor The ID of the token from which to start iterating. To start from either the oldest or newest item.\n     *  @param _count The number of tokens to return.\n     *  @param _filter The filter to use. Each element of the array in sequence means:\n     *  - Include absent tokens in result.\n     *  - Include registered tokens in result.\n     *  - Include tokens with registration requests that are not disputed in result.\n     *  - Include tokens with clearing requests that are not disputed in result.\n     *  - Include disputed tokens with registration requests in result.\n     *  - Include disputed tokens with clearing requests in result.\n     *  - Include tokens submitted by the caller.\n     *  - Include tokens challenged by the caller.\n     *  @param _oldestFirst Whether to sort from oldest to the newest item.\n     *  @param _tokenAddr A token address to filter submissions by address (optional).\n     *  @return The values of the tokens found and whether there are more tokens for the current filter and sort.\n     */\n    function queryTokens(bytes32 _cursor, uint _count, bool[8] _filter, bool _oldestFirst, address _tokenAddr)\n        external\n        view\n        returns (bytes32[] values, bool hasMore)\n    {\n        uint cursorIndex;\n        values = new bytes32[](_count);\n        uint index = 0;\n\n        bytes32[] storage list = _tokenAddr == address(0x0)\n            ? tokensList\n            : addressToSubmissions[_tokenAddr];\n\n        if (_cursor == 0)\n            cursorIndex = 0;\n        else {\n            for (uint j = 0; j < list.length; j++) {\n                if (list[j] == _cursor) {\n                    cursorIndex = j;\n                    break;\n                }\n            }\n            require(cursorIndex  != 0, \"The cursor is invalid.\");\n        }\n\n        for (\n                uint i = cursorIndex == 0 ? (_oldestFirst ? 0 : 1) : (_oldestFirst ? cursorIndex + 1 : list.length - cursorIndex + 1);\n                _oldestFirst ? i < list.length : i <= list.length;\n                i++\n            ) { // Oldest or newest first.\n            bytes32 tokenID = list[_oldestFirst ? i : list.length - i];\n            Token storage token = tokens[tokenID];\n            Request storage request = token.requests[token.requests.length - 1];\n            if (\n                /* solium-disable operator-whitespace */\n                (_filter[0] && token.status == TokenStatus.Absent) ||\n                (_filter[1] && token.status == TokenStatus.Registered) ||\n                (_filter[2] && token.status == TokenStatus.RegistrationRequested && !request.disputed) ||\n                (_filter[3] && token.status == TokenStatus.ClearingRequested && !request.disputed) ||\n                (_filter[4] && token.status == TokenStatus.RegistrationRequested && request.disputed) ||\n                (_filter[5] && token.status == TokenStatus.ClearingRequested && request.disputed) ||\n                (_filter[6] && request.parties[uint(Party.Requester)] == msg.sender) || // My Submissions.\n                (_filter[7] && request.parties[uint(Party.Challenger)] == msg.sender) // My Challenges.\n                /* solium-enable operator-whitespace */\n            ) {\n                if (index < _count) {\n                    values[index] = list[_oldestFirst ? i : list.length - i];\n                    index++;\n                } else {\n                    hasMore = true;\n                    break;\n                }\n            }\n        }\n    }\n    \n    /** @dev Gets the contributions made by a party for a given round of a request.\n     *  @param _tokenID The ID of the token.\n     *  @param _request The position of the request.\n     *  @param _round The position of the round.\n     *  @param _contributor The address of the contributor.\n     *  @return The contributions.\n     */\n    function getContributions(\n        bytes32 _tokenID,\n        uint _request,\n        uint _round,\n        address _contributor\n    ) external view returns(uint[3] contributions) {\n        Token storage token = tokens[_tokenID];\n        Request storage request = token.requests[_request];\n        Round storage round = request.rounds[_round];\n        contributions = round.contributions[_contributor];\n    }\n    \n    /** @dev Returns token information. Includes length of requests array.\n     *  @param _tokenID The ID of the queried token.\n     *  @return The token information.\n     */\n    function getTokenInfo(bytes32 _tokenID)\n        external\n        view\n        returns (\n            string name,\n            string ticker,\n            address addr,\n            string symbolMultihash,\n            TokenStatus status,\n            uint numberOfRequests\n        )\n    {\n        Token storage token = tokens[_tokenID];\n        return (\n            token.name,\n            token.ticker,\n            token.addr,\n            token.symbolMultihash,\n            token.status,\n            token.requests.length\n        );\n    }\n\n    /** @dev Gets information on a request made for a token.\n     *  @param _tokenID The ID of the queried token.\n     *  @param _request The request to be queried.\n     *  @return The request information.\n     */\n    function getRequestInfo(bytes32 _tokenID, uint _request)\n        external\n        view\n        returns (\n            bool disputed,\n            uint disputeID,\n            uint submissionTime,\n            bool resolved,\n            address[3] parties,\n            uint numberOfRounds,\n            Party ruling,\n            Arbitrator arbitrator,\n            bytes arbitratorExtraData\n        )\n    {\n        Request storage request = tokens[_tokenID].requests[_request];\n        return (\n            request.disputed,\n            request.disputeID,\n            request.submissionTime,\n            request.resolved,\n            request.parties,\n            request.rounds.length,\n            request.ruling,\n            request.arbitrator,\n            request.arbitratorExtraData\n        );\n    }\n\n    /** @dev Gets the information on a round of a request.\n     *  @param _tokenID The ID of the queried token.\n     *  @param _request The request to be queried.\n     *  @param _round The round to be queried.\n     *  @return The round information.\n     */\n    function getRoundInfo(bytes32 _tokenID, uint _request, uint _round)\n        external\n        view\n        returns (\n            bool appealed,\n            uint[3] paidFees,\n            bool[3] hasPaid,\n            uint feeRewards\n        )\n    {\n        Token storage token = tokens[_tokenID];\n        Request storage request = token.requests[_request];\n        Round storage round = request.rounds[_round];\n        return (\n            _round != (request.rounds.length-1),\n            round.paidFees,\n            round.hasPaid,\n            round.feeRewards\n        );\n    }\n}\n",
  "sourcePath": "/home/rigel/Documents/kleros/kleros-interaction/contracts/standard/permission/ArbitrableTokenList.sol",
  "compiler": {
    "name": "solc",
    "version": "0.4.24+commit.e67f0147.Emscripten.clang"
  },
  "schemaVersion": "2.0.1",
  "updatedAt": "2019-02-28T18:03:47.539Z"
}