{
  "contractName": "ArbitrableTokenList",
  "abi": [
    {
      "constant": true,
      "inputs": [],
      "name": "challengePeriodDuration",
      "outputs": [
        {
          "name": "",
          "type": "uint256"
        }
      ],
      "payable": false,
      "stateMutability": "view",
      "type": "function"
    },
    {
      "constant": true,
      "inputs": [],
      "name": "governor",
      "outputs": [
        {
          "name": "",
          "type": "address"
        }
      ],
      "payable": false,
      "stateMutability": "view",
      "type": "function"
    },
    {
      "constant": true,
      "inputs": [],
      "name": "arbitratorExtraData",
      "outputs": [
        {
          "name": "",
          "type": "bytes"
        }
      ],
      "payable": false,
      "stateMutability": "view",
      "type": "function"
    },
    {
      "constant": true,
      "inputs": [],
      "name": "loserStakeMultiplier",
      "outputs": [
        {
          "name": "",
          "type": "uint256"
        }
      ],
      "payable": false,
      "stateMutability": "view",
      "type": "function"
    },
    {
      "constant": true,
      "inputs": [],
      "name": "challengeReward",
      "outputs": [
        {
          "name": "",
          "type": "uint256"
        }
      ],
      "payable": false,
      "stateMutability": "view",
      "type": "function"
    },
    {
      "constant": true,
      "inputs": [],
      "name": "sharedStakeMultiplier",
      "outputs": [
        {
          "name": "",
          "type": "uint256"
        }
      ],
      "payable": false,
      "stateMutability": "view",
      "type": "function"
    },
    {
      "constant": true,
      "inputs": [
        {
          "name": "",
          "type": "uint256"
        }
      ],
      "name": "tokensList",
      "outputs": [
        {
          "name": "",
          "type": "bytes32"
        }
      ],
      "payable": false,
      "stateMutability": "view",
      "type": "function"
    },
    {
      "constant": true,
      "inputs": [],
      "name": "arbitrator",
      "outputs": [
        {
          "name": "",
          "type": "address"
        }
      ],
      "payable": false,
      "stateMutability": "view",
      "type": "function"
    },
    {
      "constant": true,
      "inputs": [],
      "name": "winnerStakeMultiplier",
      "outputs": [
        {
          "name": "",
          "type": "uint256"
        }
      ],
      "payable": false,
      "stateMutability": "view",
      "type": "function"
    },
    {
      "constant": true,
      "inputs": [
        {
          "name": "",
          "type": "bytes32"
        }
      ],
      "name": "tokens",
      "outputs": [
        {
          "name": "name",
          "type": "string"
        },
        {
          "name": "ticker",
          "type": "string"
        },
        {
          "name": "addr",
          "type": "address"
        },
        {
          "name": "symbolMultihash",
          "type": "string"
        },
        {
          "name": "networkID",
          "type": "string"
        },
        {
          "name": "status",
          "type": "uint8"
        }
      ],
      "payable": false,
      "stateMutability": "view",
      "type": "function"
    },
    {
      "constant": true,
      "inputs": [],
      "name": "MULTIPLIER_PRECISION",
      "outputs": [
        {
          "name": "",
          "type": "uint256"
        }
      ],
      "payable": false,
      "stateMutability": "view",
      "type": "function"
    },
    {
      "constant": true,
      "inputs": [
        {
          "name": "",
          "type": "uint256"
        }
      ],
      "name": "disputeIDToTokenID",
      "outputs": [
        {
          "name": "",
          "type": "bytes32"
        }
      ],
      "payable": false,
      "stateMutability": "view",
      "type": "function"
    },
    {
      "constant": true,
      "inputs": [],
      "name": "arbitrationFeesWaitingTime",
      "outputs": [
        {
          "name": "",
          "type": "uint256"
        }
      ],
      "payable": false,
      "stateMutability": "view",
      "type": "function"
    },
    {
      "inputs": [
        {
          "name": "_arbitrator",
          "type": "address"
        },
        {
          "name": "_arbitratorExtraData",
          "type": "bytes"
        },
        {
          "name": "_metaEvidence",
          "type": "string"
        },
        {
          "name": "_governor",
          "type": "address"
        },
        {
          "name": "_arbitrationFeesWaitingTime",
          "type": "uint256"
        },
        {
          "name": "_challengeReward",
          "type": "uint256"
        },
        {
          "name": "_challengePeriodDuration",
          "type": "uint256"
        },
        {
          "name": "_sharedStakeMultiplier",
          "type": "uint256"
        },
        {
          "name": "_winnerStakeMultiplier",
          "type": "uint256"
        },
        {
          "name": "_loserStakeMultiplier",
          "type": "uint256"
        }
      ],
      "payable": false,
      "stateMutability": "nonpayable",
      "type": "constructor"
    },
    {
      "anonymous": false,
      "inputs": [
        {
          "indexed": true,
          "name": "_requester",
          "type": "address"
        },
        {
          "indexed": true,
          "name": "_challenger",
          "type": "address"
        },
        {
          "indexed": true,
          "name": "_tokenID",
          "type": "bytes32"
        },
        {
          "indexed": false,
          "name": "_status",
          "type": "uint8"
        },
        {
          "indexed": false,
          "name": "_disputed",
          "type": "bool"
        }
      ],
      "name": "TokenStatusChange",
      "type": "event"
    },
    {
      "anonymous": false,
      "inputs": [
        {
          "indexed": true,
          "name": "_tokenID",
          "type": "bytes32"
        },
        {
          "indexed": true,
          "name": "_contributor",
          "type": "address"
        },
        {
          "indexed": true,
          "name": "_side",
          "type": "uint8"
        },
        {
          "indexed": false,
          "name": "_value",
          "type": "uint256"
        }
      ],
      "name": "Contribution",
      "type": "event"
    },
    {
      "anonymous": false,
      "inputs": [
        {
          "indexed": true,
          "name": "_tokenID",
          "type": "bytes32"
        },
        {
          "indexed": true,
          "name": "_challenger",
          "type": "address"
        }
      ],
      "name": "ChallengeDepositPlaced",
      "type": "event"
    },
    {
      "anonymous": false,
      "inputs": [
        {
          "indexed": true,
          "name": "_tokenID",
          "type": "bytes32"
        },
        {
          "indexed": true,
          "name": "_request",
          "type": "uint256"
        },
        {
          "indexed": true,
          "name": "_contributor",
          "type": "address"
        },
        {
          "indexed": false,
          "name": "_value",
          "type": "uint256"
        }
      ],
      "name": "RewardWithdrawal",
      "type": "event"
    },
    {
      "anonymous": false,
      "inputs": [
        {
          "indexed": true,
          "name": "_metaEvidenceID",
          "type": "uint256"
        },
        {
          "indexed": false,
          "name": "_evidence",
          "type": "string"
        }
      ],
      "name": "MetaEvidence",
      "type": "event"
    },
    {
      "anonymous": false,
      "inputs": [
        {
          "indexed": true,
          "name": "_arbitrator",
          "type": "address"
        },
        {
          "indexed": true,
          "name": "_disputeID",
          "type": "uint256"
        },
        {
          "indexed": false,
          "name": "_metaEvidenceID",
          "type": "uint256"
        }
      ],
      "name": "Dispute",
      "type": "event"
    },
    {
      "anonymous": false,
      "inputs": [
        {
          "indexed": true,
          "name": "_arbitrator",
          "type": "address"
        },
        {
          "indexed": true,
          "name": "_disputeID",
          "type": "uint256"
        },
        {
          "indexed": true,
          "name": "_party",
          "type": "address"
        },
        {
          "indexed": false,
          "name": "_evidence",
          "type": "string"
        }
      ],
      "name": "Evidence",
      "type": "event"
    },
    {
      "anonymous": false,
      "inputs": [
        {
          "indexed": true,
          "name": "_arbitrator",
          "type": "address"
        },
        {
          "indexed": true,
          "name": "_disputeID",
          "type": "uint256"
        },
        {
          "indexed": false,
          "name": "_ruling",
          "type": "uint256"
        }
      ],
      "name": "Ruling",
      "type": "event"
    },
    {
      "constant": false,
      "inputs": [
        {
          "name": "_name",
          "type": "string"
        },
        {
          "name": "_ticker",
          "type": "string"
        },
        {
          "name": "_addr",
          "type": "address"
        },
        {
          "name": "_symbolMultihash",
          "type": "string"
        },
        {
          "name": "_networkID",
          "type": "string"
        }
      ],
      "name": "requestStatusChange",
      "outputs": [],
      "payable": true,
      "stateMutability": "payable",
      "type": "function"
    },
    {
      "constant": false,
      "inputs": [
        {
          "name": "_tokenID",
          "type": "bytes32"
        }
      ],
      "name": "challengeRequest",
      "outputs": [],
      "payable": true,
      "stateMutability": "payable",
      "type": "function"
    },
    {
      "constant": false,
      "inputs": [
        {
          "name": "_tokenID",
          "type": "bytes32"
        },
        {
          "name": "_side",
          "type": "uint8"
        }
      ],
      "name": "fundLatestRound",
      "outputs": [],
      "payable": true,
      "stateMutability": "payable",
      "type": "function"
    },
    {
      "constant": false,
      "inputs": [
        {
          "name": "_tokenID",
          "type": "bytes32"
        },
        {
          "name": "_request",
          "type": "uint256"
        }
      ],
      "name": "withdrawFeesAndRewards",
      "outputs": [],
      "payable": false,
      "stateMutability": "nonpayable",
      "type": "function"
    },
    {
      "constant": false,
      "inputs": [
        {
          "name": "_tokenID",
          "type": "bytes32"
        }
      ],
      "name": "timeout",
      "outputs": [],
      "payable": false,
      "stateMutability": "nonpayable",
      "type": "function"
    },
    {
      "constant": false,
      "inputs": [
        {
          "name": "_disputeID",
          "type": "uint256"
        },
        {
          "name": "_ruling",
          "type": "uint256"
        }
      ],
      "name": "rule",
      "outputs": [],
      "payable": false,
      "stateMutability": "nonpayable",
      "type": "function"
    },
    {
      "constant": false,
      "inputs": [
        {
          "name": "_tokenID",
          "type": "bytes32"
        },
        {
          "name": "_evidence",
          "type": "string"
        }
      ],
      "name": "submitEvidence",
      "outputs": [],
      "payable": false,
      "stateMutability": "nonpayable",
      "type": "function"
    },
    {
      "constant": false,
      "inputs": [
        {
          "name": "_challengePeriodDuration",
          "type": "uint256"
        }
      ],
      "name": "changeTimeToChallenge",
      "outputs": [],
      "payable": false,
      "stateMutability": "nonpayable",
      "type": "function"
    },
    {
      "constant": false,
      "inputs": [
        {
          "name": "_challengeReward",
          "type": "uint256"
        }
      ],
      "name": "changeChallengeReward",
      "outputs": [],
      "payable": false,
      "stateMutability": "nonpayable",
      "type": "function"
    },
    {
      "constant": false,
      "inputs": [
        {
          "name": "_governor",
          "type": "address"
        }
      ],
      "name": "changeGovernor",
      "outputs": [],
      "payable": false,
      "stateMutability": "nonpayable",
      "type": "function"
    },
    {
      "constant": false,
      "inputs": [
        {
          "name": "_arbitrationFeesWaitingTime",
          "type": "uint256"
        }
      ],
      "name": "changeArbitrationFeesWaitingTime",
      "outputs": [],
      "payable": false,
      "stateMutability": "nonpayable",
      "type": "function"
    },
    {
      "constant": false,
      "inputs": [
        {
          "name": "_sharedStakeMultiplier",
          "type": "uint256"
        }
      ],
      "name": "changeSharedStakeMultiplier",
      "outputs": [],
      "payable": false,
      "stateMutability": "nonpayable",
      "type": "function"
    },
    {
      "constant": false,
      "inputs": [
        {
          "name": "_winnerStakeMultiplier",
          "type": "uint256"
        }
      ],
      "name": "changeWinnerStakeMultiplier",
      "outputs": [],
      "payable": false,
      "stateMutability": "nonpayable",
      "type": "function"
    },
    {
      "constant": false,
      "inputs": [
        {
          "name": "_loserStakeMultiplier",
          "type": "uint256"
        }
      ],
      "name": "changeLoserStakeMultiplier",
      "outputs": [],
      "payable": false,
      "stateMutability": "nonpayable",
      "type": "function"
    },
    {
      "constant": true,
      "inputs": [
        {
          "name": "_tokenID",
          "type": "bytes32"
        }
      ],
      "name": "isPermitted",
      "outputs": [
        {
          "name": "allowed",
          "type": "bool"
        }
      ],
      "payable": false,
      "stateMutability": "view",
      "type": "function"
    },
    {
      "constant": true,
      "inputs": [
        {
          "name": "_tokenID",
          "type": "bytes32"
        }
      ],
      "name": "getTokenInfo",
      "outputs": [
        {
          "name": "name",
          "type": "string"
        },
        {
          "name": "ticker",
          "type": "string"
        },
        {
          "name": "addr",
          "type": "address"
        },
        {
          "name": "symbolMultihash",
          "type": "string"
        },
        {
          "name": "networkID",
          "type": "string"
        },
        {
          "name": "status",
          "type": "uint8"
        },
        {
          "name": "numberOfRequests",
          "type": "uint256"
        }
      ],
      "payable": false,
      "stateMutability": "view",
      "type": "function"
    },
    {
      "constant": true,
      "inputs": [
        {
          "name": "_tokenID",
          "type": "bytes32"
        },
        {
          "name": "_request",
          "type": "uint256"
        }
      ],
      "name": "getRequestInfo",
      "outputs": [
        {
          "name": "disputed",
          "type": "bool"
        },
        {
          "name": "disputeID",
          "type": "uint256"
        },
        {
          "name": "submissionTime",
          "type": "uint256"
        },
        {
          "name": "challengeRewardBalance",
          "type": "uint256"
        },
        {
          "name": "challengerDepositTime",
          "type": "uint256"
        },
        {
          "name": "balance",
          "type": "uint256"
        },
        {
          "name": "resolved",
          "type": "bool"
        },
        {
          "name": "parties",
          "type": "address[3]"
        },
        {
          "name": "totalContributed",
          "type": "uint256[3]"
        },
        {
          "name": "numberOfRounds",
          "type": "uint256"
        }
      ],
      "payable": false,
      "stateMutability": "view",
      "type": "function"
    },
    {
      "constant": true,
      "inputs": [
        {
          "name": "_tokenID",
          "type": "bytes32"
        },
        {
          "name": "_request",
          "type": "uint256"
        },
        {
          "name": "_round",
          "type": "uint256"
        }
      ],
      "name": "getRoundInfo",
      "outputs": [
        {
          "name": "appealed",
          "type": "bool"
        },
        {
          "name": "oldWinnerTotalCost",
          "type": "uint256"
        },
        {
          "name": "paidFees",
          "type": "uint256[3]"
        },
        {
          "name": "requiredForSide",
          "type": "uint256[3]"
        }
      ],
      "payable": false,
      "stateMutability": "view",
      "type": "function"
    },
    {
      "constant": true,
      "inputs": [
        {
          "name": "_tokenID",
          "type": "bytes32"
        },
        {
          "name": "_request",
          "type": "uint256"
        },
        {
          "name": "_contributor",
          "type": "address"
        }
      ],
      "name": "getContributions",
      "outputs": [
        {
          "name": "contributions",
          "type": "uint256[3]"
        }
      ],
      "payable": false,
      "stateMutability": "view",
      "type": "function"
    },
    {
      "constant": true,
      "inputs": [],
      "name": "tokenCount",
      "outputs": [
        {
          "name": "count",
          "type": "uint256"
        }
      ],
      "payable": false,
      "stateMutability": "view",
      "type": "function"
    },
    {
      "constant": true,
      "inputs": [],
      "name": "countByStatus",
      "outputs": [
        {
          "name": "disputed",
          "type": "uint256"
        },
        {
          "name": "absent",
          "type": "uint256"
        },
        {
          "name": "registered",
          "type": "uint256"
        },
        {
          "name": "registrationRequested",
          "type": "uint256"
        },
        {
          "name": "clearingRequested",
          "type": "uint256"
        }
      ],
      "payable": false,
      "stateMutability": "view",
      "type": "function"
    },
    {
      "constant": true,
      "inputs": [
        {
          "name": "_cursor",
          "type": "bytes32"
        },
        {
          "name": "_count",
          "type": "uint256"
        },
        {
          "name": "_filter",
          "type": "bool[8]"
        },
        {
          "name": "_oldestFirst",
          "type": "bool"
        }
      ],
      "name": "queryTokens",
      "outputs": [
        {
          "name": "values",
          "type": "bytes32[]"
        },
        {
          "name": "hasMore",
          "type": "bool"
        }
      ],
      "payable": false,
      "stateMutability": "view",
      "type": "function"
    }
  ],
  "bytecode": "0x60806040523480156200001157600080fd5b5060405162004b2438038062004b248339810160409081528151602080840151928401516060850151608086015160a087015160c088015160e08901516101008a01516101208b015160008054600160a060020a031916600160a060020a038c16179055998b018051999b909a97019895979496939592949193909290918b918b91620000a49160019184019062000188565b50505060007f61606860eb6c87306811e2695215385101daab53bd6ab4e9f9049aead9363c7d896040518080602001828103825283818151815260200191508051906020019080838360005b838110156200010a578181015183820152602001620000f0565b50505050905090810190601f168015620001385780820380516001836020036101000a031916815260200191505b509250505060405180910390a260058054600160a060020a031916600160a060020a039890981697909717909655600494909455600292909255600355600855600655600755506200022d915050565b828054600181600116156101000203166002900490600052602060002090601f016020900481019282601f10620001cb57805160ff1916838001178555620001fb565b82800160010185558215620001fb579182015b82811115620001fb578251825591602001919060010190620001de565b50620002099291506200020d565b5090565b6200022a91905b8082111562000209576000815560010162000214565b90565b6148e7806200023d6000396000f3006080604052600436106101b55763ffffffff7c010000000000000000000000000000000000000000000000000000000060003504166282a36d81146101ba5780630c340a24146101e15780630c7ac7b61461021257806312ce35251461029c57806313ba2580146102b657806314bc8e58146102ce5780631d08991b146102e95780631d5120851461030157806329ccf8ea146103165780632d8b70a114610356578063311a6c561461054d5780633ea0c15e14610568578063416583411461057d5780634c34f8cc146105925780634d12e34e1461059d5780636a457f14146105b55780636cc6cde11461063757806378a162031461064c578063795ea18e146106905780637b943383146106a85780638fee5e06146106bd578063904194a31461071c57806392239dff1461090c578063974121b2146109245780639f181b5e146109b7578063adc7faba146109cc578063b17ee4f9146109e4578063b309483a146109f5578063beabdb7b14610a0a578063bfbcff1a14610a36578063d2996e1e14610af8578063d36fdb1814610b10578063d987adf414610b28578063e4c0aaf414610b3d578063f48a0b3114610b5e575b600080fd5b3480156101c657600080fd5b506101cf610b82565b60408051918252519081900360200190f35b3480156101ed57600080fd5b506101f6610b88565b60408051600160a060020a039092168252519081900360200190f35b34801561021e57600080fd5b50610227610b97565b6040805160208082528351818301528351919283929083019185019080838360005b83811015610261578181015183820152602001610249565b50505050905090810190601f16801561028e5780820380516001836020036101000a031916815260200191505b509250505060405180910390f35b3480156102a857600080fd5b506102b4600435610c24565b005b3480156102c257600080fd5b506102b4600435610c79565b3480156102da57600080fd5b506102b4600435602435610cce565b3480156102f557600080fd5b506102b4600435611045565b34801561030d57600080fd5b506101cf61109a565b34801561032257600080fd5b5061032b6110a0565b6040805195865260208601949094528484019290925260608401526080830152519081900360a00190f35b34801561036257600080fd5b5061036e6004356111e5565b60405180806020018060200188600160a060020a0316600160a060020a0316815260200180602001806020018760038111156103a657fe5b60ff16815260200186815260200185810385528c818151815260200191508051906020019080838360005b838110156103e95781810151838201526020016103d1565b50505050905090810190601f1680156104165780820380516001836020036101000a031916815260200191505b5085810384528b5181528b516020918201918d019080838360005b83811015610449578181015183820152602001610431565b50505050905090810190601f1680156104765780820380516001836020036101000a031916815260200191505b5085810383528951815289516020918201918b019080838360005b838110156104a9578181015183820152602001610491565b50505050905090810190601f1680156104d65780820380516001836020036101000a031916815260200191505b5085810382528851815288516020918201918a019080838360005b838110156105095781810151838201526020016104f1565b50505050905090810190601f1680156105365780820380516001836020036101000a031916815260200191505b509b50505050505050505050505060405180910390f35b34801561055957600080fd5b506102b4600435602435611484565b34801561057457600080fd5b506101cf6116bd565b34801561058957600080fd5b506101cf6116c3565b6102b46004356116c9565b3480156105a957600080fd5b506101cf600435611b3d565b3480156105c157600080fd5b506105d86004356024356044610144351515611b5c565b604051808060200183151515158152602001828103825284818151815260200191508051906020019060200280838360005b8381101561062257818101518382015260200161060a565b50505050905001935050505060405180910390f35b34801561064357600080fd5b506101f6611ef7565b6102b46024600480358281019290820135918135808301929082013591600160a060020a036044351691606435808201929081013591608435908101910135611f06565b34801561069c57600080fd5b506102b46004356123bf565b3480156106b457600080fd5b506101cf612898565b3480156106c957600080fd5b506106e4600435602435600160a060020a036044351661289e565b6040518082606080838360005b838110156107095781810151838201526020016106f1565b5050505090500191505060405180910390f35b34801561072857600080fd5b5061073460043561292b565b60405180806020018060200187600160a060020a0316600160a060020a03168152602001806020018060200186600381111561076c57fe5b60ff16815260200185810385528b818151815260200191508051906020019080838360005b838110156107a9578181015183820152602001610791565b50505050905090810190601f1680156107d65780820380516001836020036101000a031916815260200191505b5085810384528a5181528a516020918201918c019080838360005b838110156108095781810151838201526020016107f1565b50505050905090810190601f1680156108365780820380516001836020036101000a031916815260200191505b5085810383528851815288516020918201918a019080838360005b83811015610869578181015183820152602001610851565b50505050905090810190601f1680156108965780820380516001836020036101000a031916815260200191505b50858103825287518152875160209182019189019080838360005b838110156108c95781810151838201526020016108b1565b50505050905090810190601f1680156108f65780820380516001836020036101000a031916815260200191505b509a505050505050505050505060405180910390f35b34801561091857600080fd5b506102b4600435612ba5565b34801561093057600080fd5b50610942600435602435604435612bfa565b6040805185151581526020810185905290810183606080838360005b8381101561097657818101518382015260200161095e565b5050505090500182600360200280838360005b838110156109a1578181015183820152602001610989565b5050505090500194505050505060405180910390f35b3480156109c357600080fd5b506101cf612cf0565b3480156109d857600080fd5b506102b4600435612cf7565b6102b460043560ff60243516612d4c565b348015610a0157600080fd5b506101cf613a15565b348015610a1657600080fd5b50610a22600435613a1b565b604080519115158252519081900360200190f35b348015610a4257600080fd5b50610a51600435602435613a63565b604051808b1515151581526020018a81526020018981526020018881526020018781526020018681526020018515151515815260200184600360200280838360005b83811015610aab578181015183820152602001610a93565b5050505090500183600360200280838360005b83811015610ad6578181015183820152602001610abe565b505050509050018281526020019a505050505050505050505060405180910390f35b348015610b0457600080fd5b506101cf600435613b82565b348015610b1c57600080fd5b506102b4600435613b94565b348015610b3457600080fd5b506101cf613be9565b348015610b4957600080fd5b506102b4600160a060020a0360043516613bef565b348015610b6a57600080fd5b506102b4600480359060248035908101910135613c6e565b60035481565b600554600160a060020a031681565b60018054604080516020600284861615610100026000190190941693909304601f81018490048402820184019092528181529291830182828015610c1c5780601f10610bf157610100808354040283529160200191610c1c565b820191906000526020600020905b815481529060010190602001808311610bff57829003601f168201915b505050505081565b600554600160a060020a03163314610c74576040805160e560020a62461bcd02815260206004820152601f602482015260008051602061489c833981519152604482015290519081900360640190fd5b600855565b600554600160a060020a03163314610cc9576040805160e560020a62461bcd02815260206004820152601f602482015260008051602061489c833981519152604482015290519081900360640190fd5b600455565b60008281526009602052604081206006810180549192918291829182919087908110610cf657fe5b60009182526020909120600f90910201600681015490945060ff161515610db3576040805160e560020a62461bcd02815260206004820152604a60248201527f546865207265717565737420776173206e6f7420657865637574656420616e6460448201527f2f6f72207468657265206172652064697370757465732070656e64696e67207260648201527f65736f6c7574696f6e2e00000000000000000000000000000000000000000000608482015290519081900360a40190fd5b835460ff161580610e5957506000805460018601546040805160e060020a631c3db16d028152600481019290925251600160a060020a0390921691631c3db16d9160248082019260209290919082900301818787803b158015610e1557600080fd5b505af1158015610e29573d6000803e3d6000fd5b505050506040513d6020811015610e3f57600080fd5b50516002811115610e4c57fe5b6002811115610e5757fe5b145b15610e8b57336000908152600b8501602052604081206002810180546001909201805490849055929055019250610fd4565b60016000805460018701546040805160e060020a631c3db16d028152600481019290925251600160a060020a0390921692631c3db16d926024808401936020939083900390910190829087803b158015610ee457600080fd5b505af1158015610ef8573d6000803e3d6000fd5b505050506040513d6020811015610f0e57600080fd5b50516002811115610f1b57fe5b6002811115610f2657fe5b1415610f355760019150610f3a565b600291505b83600c01826002811115610f4a57fe5b60038110610f5457fe5b0154336000908152600b86016020526040902061271090846002811115610f7757fe5b60038110610f8157fe5b015402811515610f8d57fe5b04905061271084600501548202811515610fa357fe5b336000908152600b87016020526040812092909104945090836002811115610fc757fe5b60038110610fd157fe5b01555b604080518481529051339188918a917f3af1589e5fc22e884f17d5fef298cf3ddc2cd21fa3d0ee55d7c1e7afc3697c6e919081900360200190a4604051339084156108fc029085906000818181858888f1935050505015801561103b573d6000803e3d6000fd5b5050505050505050565b600554600160a060020a03163314611095576040805160e560020a62461bcd02815260206004820152601f602482015260008051602061489c833981519152604482015290519081900360640190fd5b600255565b60075481565b6000808080808080805b600b548310156111db5760096000600b858154811015156110c757fe5b6000918252602080832090910154835282019290925260400190206006810180549193509060001981019081106110fa57fe5b600091825260209091206005840154600f90920201915060019060ff16600381111561112257fe5b1180156111305750805460ff165b1561113c576001909701965b6000600583015460ff16600381111561115157fe5b1415611162576001909601956111d0565b6001600583015460ff16600381111561117757fe5b1415611188576001909501946111d0565b6002600583015460ff16600381111561119d57fe5b14156111ae576001909401936111d0565b6003600583015460ff1660038111156111c357fe5b14156111d0576001909301925b6001909201916110aa565b5050509091929394565b60008181526009602090815260408083206002808201546005830154600684015484548651601f60018381161561010002600019019093169690960495860189900489028101890190975284875260609889989097899788978a97889792968796870195600160a060020a03909216946003880194600489019460ff909116938991908301828280156112b95780601f1061128e576101008083540402835291602001916112b9565b820191906000526020600020905b81548152906001019060200180831161129c57829003601f168201915b5050895460408051602060026001851615610100026000190190941693909304601f8101849004840282018401909252818152959c508b9450925084019050828280156113475780601f1061131c57610100808354040283529160200191611347565b820191906000526020600020905b81548152906001019060200180831161132a57829003601f168201915b5050875460408051602060026001851615610100026000190190941693909304601f8101849004840282018401909252818152959b50899450925084019050828280156113d55780601f106113aa576101008083540402835291602001916113d5565b820191906000526020600020905b8154815290600101906020018083116113b857829003601f168201915b5050865460408051602060026001851615610100026000190190941693909304601f8101849004840282018401909252818152959950889450925084019050828280156114635780601f1061143857610100808354040283529160200191611463565b820191906000526020600020905b81548152906001019060200180831161144657829003601f168201915b50505050509250975097509750975097509750975050919395979092949650565b60008054819081908190819081908190600160a060020a03163314611519576040805160e560020a62461bcd02815260206004820152602560248201527f43616e206f6e6c792062652063616c6c6564206279207468652061726269747260448201527f61746f722e000000000000000000000000000000000000000000000000000000606482015290519081900360840190fd5b87600281111561152557fe5b9450600185600281111561153557fe5b1415611548576001965060029550611565565b600285600281111561155657fe5b14156115655760029650600195505b6000898152600a6020908152604080832054808452600990925290912060068101805492965090945090600019810190811061159d57fe5b60009182526020909120600f90910201600a810180549193509060001981019081106115c557fe5b60009182526020822060099091020191508560028111156115e257fe5b141580156116265750806005018660028111156115fb57fe5b6003811061160557fe5b01548160020187600281111561161757fe5b6003811061162157fe5b015410155b80156116365750600881015460ff165b1561165d57600185600281111561164957fe5b1415611658576002945061165d565b600194505b88337f394027a5fa6e098a1191094d1719d6929b9abc535fcc0c8f448d6a4e7562227687600281111561168c57fe5b60408051918252519081900360200190a36116b2898660028111156116ad57fe5b613d6d565b505050505050505050565b60025481565b60085481565b6000818152600960205260408120908080806002600586015460ff1660038111156116f057fe5b148061170e57506003600586015460ff16600381111561170c57fe5b145b151561178a576040805160e560020a62461bcd02815260206004820152602960248201527f546f6b656e20646f6573206e6f74206861766520616e792070656e64696e672060448201527f72657175657374732e0000000000000000000000000000000000000000000000606482015290519081900360840190fd5b600685018054600019810190811061179e57fe5b90600052602060002090600f0201935060035484600201544203101515611835576040805160e560020a62461bcd02815260206004820152602860248201527f546865206368616c6c656e676520706572696f642068617320616c726561647960448201527f207061737365642e000000000000000000000000000000000000000000000000606482015290519081900360840190fd5b6004840154156118b5576040805160e560020a62461bcd02815260206004820152603160248201527f526571756573742073686f756c642068617665206f6e6c79207468652072657160448201527f7565737465722773206465706f7369742e000000000000000000000000000000606482015290519081900360840190fd5b600384015434101561195e576040805160e560020a62461bcd028152602060048201526044602482018190527f4e6f7420656e6f756768204554482e205061727479207374617274696e672064908201527f697370757465206d75737420706c6163652061206465706f73697420696e206660648201527f756c6c2e00000000000000000000000000000000000000000000000000000000608482015290519081900360a40190fd5b60038401805480800190915560098501805473ffffffffffffffffffffffffffffffffffffffff191633908117909155426004870155604051349290920394509087907fc347e59ab9ca710641c8441480eeaba2f88c2e98dced98e72603b29d0388cd4090600090a3600a8401805460001981019081106119db57fe5b906000526020600020906009020191506119f9868360010154614009565b611a099060058401906003614636565b5060088201805460ff19166001179055611a35836005840160025b60038110611a2e57fe5b01546145bf565b336000908152600b870160205260408120600201839055600e87018390556004850183905560058701805484019055909450909150811115611aab576002604080518381529051339189917f3d15935aee4298b99c153c4f229411da295ab3d83c38f88e93beffe5fe53442d9181900360200190a45b604051339084156108fc029085906000818181858888f150899350505060078601905060020154600160a060020a031660078601600101546005880154604051600160a060020a039092169160008051602061487c8339815191529160ff169060009080836003811115611b1b57fe5b60ff1681529115156020830152506040805191829003019150a4505050505050565b600b805482908110611b4b57fe5b600091825260209091200154905081565b60606000806000806000806000808b604051908082528060200260200182016040528015611b94578160200160208202803883390190505b509850600095508c1515611bab5760009650611c47565b600094505b600b54851015611bf057600b80548e919087908110611bcb57fe5b6000918252602090912001541415611be557849650611bf0565b600190940193611bb0565b861515611c47576040805160e560020a62461bcd02815260206004820152601660248201527f54686520637572736f7220697320696e76616c69642e00000000000000000000604482015290519081900360640190fd5b8615611c6a5789611c6057600b54879003600101611c65565b866001015b611c7d565b89611c76576001611c79565b60005b60ff165b93505b89611c9057600b54841115611c96565b600b5484105b15611ee757600b8a611cad57600b54859003611caf565b845b81548110611cb957fe5b600091825260208083209091015480835260099091526040909120600681018054929550909350906000198101908110611cef57fe5b60009182526020909120600f9091020190508a3515801590611d2357506000600583015460ff166003811115611d2157fe5b145b80611d4e575060208b013515801590611d4e57506001600583015460ff166003811115611d4c57fe5b145b80611d87575060408b013515801590611d7957506002600583015460ff166003811115611d7757fe5b145b8015611d875750805460ff16155b80611dc0575060608b013515801590611db257506003600583015460ff166003811115611db057fe5b145b8015611dc05750805460ff16155b80611df8575060808b013515801590611deb57506002600583015460ff166003811115611de957fe5b145b8015611df85750805460ff165b80611e30575060a08b013515801590611e2357506003600583015460ff166003811115611e2157fe5b145b8015611e305750805460ff165b80611e55575060c08b013515801590611e5557506008810154600160a060020a031633145b80611e7a575060e08b013515801590611e7a57506009810154600160a060020a031633145b15611edc578b861015611ed357600b8a611e9957600b54859003611e9b565b845b81548110611ea557fe5b90600052602060002001548987815181101515611ebe57fe5b60209081029091010152600190950194611edc565b60019750611ee7565b600190930192611c80565b5050505050505094509492505050565b600054600160a060020a031681565b6000806000806000806002543410151515611f6b576040805160e560020a62461bcd02815260206004820152600f60248201527f4e6f7420656e6f756768204554482e0000000000000000000000000000000000604482015290519081900360640190fd5b8e8e8e8e8e8e8e8e8e604051602001808a8a8082843782019150508888808284376c01000000000000000000000000600160a060020a038a16029201918252506014018585808284378201915050838380828437820191505099505050505050505050506040516020818303038152906040526040518082805190602001908083835b6020831061200d5780518252601f199092019160209182019101611fee565b51815160209384036101000a60001901801990921691161790526040805192909401829003909120600081815260099092529290206006810154929a50985050151591506120f89050578e8e86600001919061206a929190614674565b50612079600186018e8e614674565b5060028501805473ffffffffffffffffffffffffffffffffffffffff1916600160a060020a038d161790556120b2600386018b8b614674565b506120c1600486018989614674565b50600b80546001810182556000919091527f0175b7a638427703f0dbe7bb9bbf987a2551717b34e79f33b5b1008d1fa01db9018690555b6000600586015460ff16600381111561210d57fe5b141561212f576005850180546002919060ff19166001835b02179055506121d6565b6001600586015460ff16600381111561214457fe5b1415612160576005850180546003919060ff1916600183612125565b6040805160e560020a62461bcd02815260206004820152602260248201527f546f6b656e20696e2077726f6e672073746174757320666f722072657175657360448201527f742e000000000000000000000000000000000000000000000000000000000000606482015290519081900360840190fd5b600685018054906121ea90600183016146e2565b5060068501805460001981019081106121ff57fe5b600091825260209091206008600f90920201908101805473ffffffffffffffffffffffffffffffffffffffff191633179055426002820155600a8101805491955061224d9060018301614713565b506002546003850155600a84018054600019810190811061226a57fe5b90600052602060002090600902019250612288868460010154614009565b6122989060058501906003614636565b505060088201805460ff191660019081179091556002543403906122c29082906005860190611a24565b336000908152600b870160205260408120600101839055600d870183905560038601839055600587018054840190559193509150821115612337576001604080518481529051339189917f3d15935aee4298b99c153c4f229411da295ab3d83c38f88e93beffe5fe53442d9181900360200190a45b604051339082156108fc029083906000818181858888f1505050600886015460058801546040518a945060009350600160a060020a039092169160008051602061487c8339815191529160ff169084908083600381111561239457fe5b60ff1681529115156020830152506040805191829003019150a4505050505050505050505050505050565b60008181526009602052604081206006810180549192918291829160001981019081106123e857fe5b90600052602060002090600f020192508260040154600014156125aa57600354600284015442031161248a576040805160e560020a62461bcd02815260206004820152602960248201527f5468652074696d6520746f206368616c6c656e676520686173206e6f7420706160448201527f73736564207965742e0000000000000000000000000000000000000000000000606482015290519081900360840190fd5b6002600585015460ff16600381111561249f57fe5b14156124c0576005840180546001919060ff191682805b0217905550612567565b6003600585015460ff1660038111156124d557fe5b14156124f1576005840180546000919060ff19166001836124b6565b6040805160e560020a62461bcd02815260206004820152602c60248201527f546f6b656e20696e2077726f6e672073746174757320666f722065786563757460448201527f696e6720726571756573742e0000000000000000000000000000000000000000606482015290519081900360840190fd5b6007830160015b6003811061257857fe5b01546003840154604051600160a060020a039092169181156108fc0291906000818181858888f193505050505061280f565b825460ff1615612629576040805160e560020a62461bcd028152602060048201526024808201527f412064697370757465206d7573742068617665206e6f74206265656e2072616960448201527f7365642e00000000000000000000000000000000000000000000000000000000606482015290519081900360840190fd5b60048054908401544203116126ae576040805160e560020a62461bcd02815260206004820152602c60248201527f5468657265206973207374696c6c2074696d6520746f20706c6163652061206360448201527f6f6e747269627574696f6e2e0000000000000000000000000000000000000000606482015290519081900360840190fd5b600a8301805460001981019081106126c257fe5b90600052602060002090600902019150816002016002808111156126e257fe5b600381106126ec57fe5b015460038301541061270057506001612704565b5060025b600181600281111561271257fe5b1415612764576002600585015460ff16600381111561272d57fe5b14156127475760058401805460ff1916600117905561275f565b6005840180546000919060ff19166001835b02179055505b6127c0565b6002600585015460ff16600381111561277957fe5b1415612795576005840180546000919060ff1916600183612759565b6003600585015460ff1660038111156127aa57fe5b14156127c05760058401805460ff191660011790555b60028160028111156127ce57fe5b14156127df5760078301600261256e565b60088301546003840154604051600160a060020a03909216916108fc82150291906000818181858888f150505050505b6000600384015560068301805460ff19166001179055846007840160020154600160a060020a031660078501600101546005870154604051600160a060020a039092169160008051602061487c8339815191529160ff16906000908083600381111561287757fe5b60ff1681529115156020830152506040805191829003019150a45050505050565b60065481565b6128a661473f565b6000848152600960205260408120600681018054919291869081106128c757fe5b60009182526020808320600160a060020a0388168452600b600f90930201918201905260409182902082516060810190935290925060038282826020028201915b815481526020019060010190808311612908575050505050925050509392505050565b60096020908152600091825260409182902080548351601f600260001961010060018616150201909316929092049182018490048402810184019094528084529092918391908301828280156129c25780601f10612997576101008083540402835291602001916129c2565b820191906000526020600020905b8154815290600101906020018083116129a557829003601f168201915b505050505090806001018054600181600116156101000203166002900480601f016020809104026020016040519081016040528092919081815260200182805460018160011615610100020316600290048015612a605780601f10612a3557610100808354040283529160200191612a60565b820191906000526020600020905b815481529060010190602001808311612a4357829003601f168201915b505050506002838101546003850180546040805160206101006001851615026000190190931695909504601f81018390048302860183019091528085529596600160a060020a0390931695929450909190830182828015612b025780601f10612ad757610100808354040283529160200191612b02565b820191906000526020600020905b815481529060010190602001808311612ae557829003601f168201915b5050505060048301805460408051602060026001851615610100026000190190941693909304601f8101849004840282018401909252818152949594935090830182828015612b925780601f10612b6757610100808354040283529160200191612b92565b820191906000526020600020905b815481529060010190602001808311612b7557829003601f168201915b5050506005909301549192505060ff1686565b600554600160a060020a03163314612bf5576040805160e560020a62461bcd02815260206004820152601f602482015260008051602061489c833981519152604482015290519081900360640190fd5b600755565b600080612c0561473f565b612c0d61473f565b60008781526009602052604081206006810180549192918291908a908110612c3157fe5b90600052602060002090600f0201915081600a0188815481101515612c5257fe5b600091825260209091206009909102018054600182015460408051606081019182905293945060ff90921692909160028501916005860191839060039082845b815481526020019060010190808311612c9257505060408051606081019182905294965085935060039250905082845b815481526020019060010190808311612cc25750505050509050965096509650965050505093509350935093565b600b545b90565b600554600160a060020a03163314612d47576040805160e560020a62461bcd02815260206004820152601f602482015260008051602061489c833981519152604482015290519081900360640190fd5b600655565b600080808080808080808060018b6002811115612d6557fe5b1480612d7c575060028b6002811115612d7a57fe5b145b1515612df8576040805160e560020a62461bcd02815260206004820152603060248201527f53696465206d757374206265206569746865722074686520726571756573746560448201527f72206f72206368616c6c656e6765722e00000000000000000000000000000000606482015290519081900360840190fd5b60008c81526009602052604090209950600260058b015460ff166003811115612e1d57fe5b1480612e3b5750600360058b015460ff166003811115612e3957fe5b145b1515612eb7576040805160e560020a62461bcd02815260206004820152602960248201527f546f6b656e20646f6573206e6f74206861766520616e792070656e64696e672060448201527f72657175657374732e0000000000000000000000000000000000000000000000606482015290519081900360840190fd5b60068a0180546000198101908110612ecb57fe5b90600052602060002090600f0201985060008960040154111515612f5f576040805160e560020a62461bcd02815260206004820152602360248201527f41207061727479206d757374206861766520706c616365642061206465706f7360448201527f69742e0000000000000000000000000000000000000000000000000000000000606482015290519081900360840190fd5b600a890180546000198101908110612f7357fe5b90600052602060002090600902019750612f918c8960010154614009565b612fa19060058a01906003614636565b5060088801805460ff19166001179055885460ff16158015612fc7575060008960040154115b1561307c5760048054908a0154420310613077576040805160e560020a62461bcd02815260206004820152604a60248201527f546865206172626974726174696f6e20666565732066756e64696e672070657260448201527f696f64206f662074686520666972737420726f756e642068617320616c72656160648201527f6479207061737365642e00000000000000000000000000000000000000000000608482015290519081900360a40190fd5b6133a3565b6000805460018b0154604080517fafe15cfb00000000000000000000000000000000000000000000000000000000815260048101929092528051600160a060020a039093169363afe15cfb936024808501949192918390030190829087803b1580156130e757600080fd5b505af11580156130fb573d6000803e3d6000fd5b505050506040513d604081101561311157600080fd5b508051602090910151909650945085851180156131c457506000805460018b01546040805160e060020a631c3db16d028152600481019290925251600160a060020a0390921691631c3db16d9160248082019260209290919082900301818787803b15801561317f57600080fd5b505af1158015613193573d6000803e3d6000fd5b505050506040513d60208110156131a957600080fd5b505160028111156131b657fe5b60028111156131c157fe5b14155b156133a35760026000805460018c01546040805160e060020a631c3db16d028152600481019290925251600160a060020a0390921692631c3db16d926024808401936020939083900390910190829087803b15801561322257600080fd5b505af1158015613236573d6000803e3d6000fd5b505050506040513d602081101561324c57600080fd5b5051600281111561325957fe5b600281111561326457fe5b14156132735760019650613278565b600296505b86600281111561328457fe5b8b600281111561329057fe5b141561331b576002868603044287900310613077576040805160e560020a62461bcd02815260206004820152603060248201527f41707065616c20706572696f6420666f722066756e64696e6720746865206c6f60448201527f73696e67207369646520656e6465642e00000000000000000000000000000000606482015290519081900360840190fd5b428511613372576040805160e560020a62461bcd02815260206004820152601460248201527f41707065616c20706572696f6420656e6465642e000000000000000000000000604482015290519081900360640190fd5b60028686030486420310156133a357876005018b600281111561339157fe5b6003811061339b57fe5b015460018901555b349250876002018b60028111156133b657fe5b600381106133c057fe5b0154886005018c60028111156133d257fe5b600381106133dc57fe5b01540391506133eb83836145bf565b336000908152600b8c0160205260409020919550935084908c600281111561340f57fe5b6003811061341957fe5b018054909101905583600c8a018c600281111561343257fe5b6003811061343c57fe5b0180549091019055836002808a01908d9081111561345657fe5b6003811061346057fe5b01805490910190556005890180548501905560008411156134bf578a600281111561348757fe5b60408051868152905133918f917f3d15935aee4298b99c153c4f229411da295ab3d83c38f88e93beffe5fe53442d9181900360200190a45b604051339084156108fc029085906000818181858888f150505050600689015460038a015410801591506134fb57506007880154600489015410155b15613a0757885460ff161561361d5760005460018a810154604080517ff23f16e60000000000000000000000000000000000000000000000000000000081526004810183815260248201928352845460026000198288161561010002019091160460448301819052600160a060020a039096169563f23f16e69593919260640190849080156135cb5780601f106135a0576101008083540402835291602001916135cb565b820191906000526020600020905b8154815290600101906020018083116135ae57829003601f168201915b50509350505050602060405180830381600087803b1580156135ec57600080fd5b505af1158015613600573d6000803e3d6000fd5b505050506040513d602081101561361657600080fd5b5051613725565b6000546040517ff7434ea90000000000000000000000000000000000000000000000000000000081526020600482019081526001805460026000198284161561010002019091160460248401819052600160a060020a039094169363f7434ea9939192918291604490910190849080156136d85780601f106136ad576101008083540402835291602001916136d8565b820191906000526020600020905b8154815290600101906020018083116136bb57829003601f168201915b505092505050602060405180830381600087803b1580156136f857600080fd5b505af115801561370c573d6000803e3d6000fd5b505050506040513d602081101561372257600080fd5b50515b895490915060ff16151561386b57600054604080517fc13517e100000000000000000000000000000000000000000000000000000000815260026004820181815260248301938452600180546000198183161561010002011683900460448501819052600160a060020a039096169563c13517e19588959293929091606490910190849080156137f65780601f106137cb576101008083540402835291602001916137f6565b820191906000526020600020905b8154815290600101906020018083116137d957829003601f168201915b505093505050506020604051808303818588803b15801561381657600080fd5b505af115801561382a573d6000803e3d6000fd5b50505050506040513d602081101561384157600080fd5b50516001808b018290556000918252600a60205260409091208d9055895460ff1916178955613977565b60005460018a810154604080517f49912f880000000000000000000000000000000000000000000000000000000081526004810183815260248201928352845460026000198288161561010002019091160460448301819052600160a060020a03909616956349912f889588959490939091606490910190849080156139325780601f1061390757610100808354040283529160200191613932565b820191906000526020600020905b81548152906001019060200180831161391557829003601f168201915b505093505050506000604051808303818588803b15801561395257600080fd5b505af1158015613966573d6000803e3d6000fd5b50508a5460ff19166001178b555050505b600a890180549061398b9060018301614713565b5060058901805482900390558b60078a0160020154600160a060020a031660078b016001015460058d01548c54604051600160a060020a039093169260008051602061487c8339815191529260ff908116921690808360038111156139ec57fe5b60ff1681529115156020830152506040805191829003019150a45b505050505050505050505050565b61271081565b60008181526009602052604081206001600582015460ff166003811115613a3e57fe5b1480613a5c57506003600582015460ff166003811115613a5a57fe5b145b9392505050565b6000806000806000806000613a7661473f565b613a7e61473f565b60008b81526009602052604081206006810180548391908e908110613a9f57fe5b60009182526020909120600f90910201805460018201546002830154600380850154600486015460058701546006880154600a8901546040805160608101918290529a9b5060ff998a169a98999798959794969395949092169360078c0193600c8d019385919082845b8154600160a060020a03168152600190910190602001808311613b0957505060408051606081019182905294975086935060039250905082845b815481526020019060010190808311613b4357505050505091509b509b509b509b509b509b509b509b509b509b5050509295989b9194979a5092959850565b600a6020526000908152604090205481565b600554600160a060020a03163314613be4576040805160e560020a62461bcd02815260206004820152601f602482015260008051602061489c833981519152604482015290519081900360640190fd5b600355565b60045481565b600554600160a060020a03163314613c3f576040805160e560020a62461bcd02815260206004820152601f602482015260008051602061489c833981519152604482015290519081900360640190fd5b6005805473ffffffffffffffffffffffffffffffffffffffff1916600160a060020a0392909216919091179055565b60008381526009602052604081206006810180549192916000198101908110613c9357fe5b60009182526020909120600f90910201805490915060ff161515613d01576040805160e560020a62461bcd02815260206004820152601c60248201527f5468652072657175657374206973206e6f742064697370757465642e00000000604482015290519081900360640190fd5b60018101546000546040805160208082528101879052339392600160a060020a0316917fdccf2f8b2cc26eafcd61905cba744cff4b81d14740725f6376390dc6298a6a3c9189918991908190810184848082843760405192018290039550909350505050a45050505050565b6000828152600a602090815260408083205480845260099092528220600681018054929391928291906000198101908110613da457fe5b60009182526020909120600f9091020191506001856002811115613dc457fe5b6002811115613dcf57fe5b1415613ddd57506001613e00565b6002856002811115613deb57fe5b6002811115613df657fe5b1415613e00575060025b6001816002811115613e0e57fe5b1415613e60576002600584015460ff166003811115613e2957fe5b1415613e435760058301805460ff19166001179055613e5b565b6005830180546000919060ff19166001835b02179055505b613ebc565b6002600584015460ff166003811115613e7557fe5b1415613e91576005830180546000919060ff1916600183613e55565b6003600584015460ff166003811115613ea657fe5b1415613ebc5760058301805460ff191660011790555b6002816002811115613eca57fe5b1415613f13576007820160025b60038110613ee157fe5b01546003830154604051600160a060020a039092169181156108fc0291906000818181858888f1935050505050613fa1565b6001816002811115613f2157fe5b1415613f3257600782016001613ed7565b60078201600101546003830154604051600160a060020a0390921691600290910480156108fc02916000818181858888f15050506007840191506002905001546003830154604051600160a060020a0390921691600290910480156108fc02916000818181858888f150505050505b6000600383015560068201805460ff19166001179055836007830160020154600160a060020a031660078401600101546005860154604051600160a060020a039092169160008051602061487c8339815191529160ff169060009080836003811115611b1b57fe5b61401161473f565b6000838152600960205260408120600681018054919291829182918291829182918291829190600019810190811061404557fe5b60009182526020909120600f90910201805490985060ff1615156141d4576000546040517ff7434ea90000000000000000000000000000000000000000000000000000000081526020600482019081526001805460026000198284161561010002019091160460248401819052600160a060020a039094169363f7434ea99391929182916044909101908490801561411e5780601f106140f35761010080835404028352916020019161411e565b820191906000526020600020905b81548152906001019060200180831161410157829003601f168201915b505092505050602060405180830381600087803b15801561413e57600080fd5b505af1158015614152573d6000803e3d6000fd5b505050506040513d602081101561416857600080fd5b50516008549097506141a19061271090614189908a9063ffffffff6145e416565b81151561419257fe5b8991900463ffffffff61462116565b60208b01526008546141bc9061271090614189908a906145e4565b8a60025b600381106141ca57fe5b60200201526145b0565b6000805460018a01546040805160e060020a631c3db16d028152600481019290925251600160a060020a0390921692631c3db16d926024808401936020939083900390910190829087803b15801561422b57600080fd5b505af115801561423f573d6000803e3d6000fd5b505050506040513d602081101561425557600080fd5b5051600281111561426257fe5b9350600184600281111561427257fe5b14156142855760019550600294506142a2565b600284600281111561429357fe5b14156142a25760029550600194505b600054600189810154604080517ff23f16e60000000000000000000000000000000000000000000000000000000081526004810183815260248201928352845460026000198288161561010002019091160460448301819052600160a060020a039096169563f23f16e69593919260640190849080156143635780601f1061433857610100808354040283529160200191614363565b820191906000526020600020905b81548152906001019060200180831161434657829003601f168201915b50509350505050602060405180830381600087803b15801561438457600080fd5b505af1158015614398573d6000803e3d6000fd5b505050506040513d60208110156143ae57600080fd5b5051925060008660028111156143c057fe5b1115614574576143f96127106143e1600654866145e490919063ffffffff16565b8115156143ea57fe5b8591900463ffffffff61462116565b8a87600281111561440657fe5b6003811061441057fe5b60200201526000805460018a0154604080517fafe15cfb00000000000000000000000000000000000000000000000000000000815260048101929092528051600160a060020a039093169363afe15cfb936024808501949192918390030190829087803b15801561448057600080fd5b505af1158015614494573d6000803e3d6000fd5b505050506040513d60408110156144aa57600080fd5b5080516020909101519092509050818111156145475760028282030482420311156144fb57828b116144dc57826144de565b8a5b8a8760028111156144eb57fe5b600381106144f557fe5b60200201525b6002828203048242031015614542576145256127106143e1600754866145e490919063ffffffff16565b8a86600281111561453257fe5b6003811061453c57fe5b60200201525b61456f565b6145626127106143e1600754866145e490919063ffffffff16565b8a8660028111156141c057fe5b6145b0565b61458f6127106143e1600854866145e490919063ffffffff16565b60208b01526008546145aa90612710906143e19086906145e4565b60408b01525b50505050505050505092915050565b600080838311156145d5575082905060006145dd565b508190508083035b9250929050565b6000808315156145f7576000915061461a565b5082820282848281151561460757fe5b041461461557600019614617565b805b91505b5092915050565b60008282018381101561461557600019614617565b8260038101928215614664579160200282015b82811115614664578251825591602001919060010190614649565b5061467092915061475e565b5090565b828054600181600116156101000203166002900490600052602060002090601f016020900481019282601f106146b55782800160ff19823516178555614664565b82800160010185558215614664579182015b828111156146645782358255916020019190600101906146c7565b81548183558181111561470e57600f0281600f02836000526020600020918201910161470e9190614778565b505050565b81548183558181111561470e5760090281600902836000526020600020918201910161470e91906147f3565b6060604051908101604052806003906020820280388339509192915050565b612cf491905b808211156146705760008155600101614764565b612cf491905b8082111561467057805460ff199081168255600060018301819055600283018190556003830181905560048301819055600583018190556006830180549092169091556147ce6007830182614842565b6147dc600a83016000614857565b6147ea600c83016000614842565b50600f0161477e565b612cf491905b8082111561467057805460ff1916815560006001820181905561481f6002830182614842565b61482d600583016000614842565b5060088101805460ff191690556009016147f9565b50600081556001016000815560010160009055565b508054600082556009029060005260206000209081019061487891906147f3565b5056003ee664d593ac27afc86a29df82d69632252db742dc1d088b04f51fa26316dd865468652063616c6c6572206973206e6f742074686520676f7665726e6f722e00a165627a7a72305820f9a46f7d9116571ceaa9d622db39d37c1f3b32860927886b449396517416072d0029",
  "source": "/**\n *  @authors: [@mtsalenc]\n *  @reviewers: []\n *  @auditors: []\n *  @bounties: []\n *  @deployments: []\n */\n\npragma solidity ^0.4.24;\n\nimport \"../arbitration/Arbitrable.sol\";\nimport \"./PermissionInterface.sol\";\n\n\n/**\n * @title CappedMath\n * @dev Math operations with caps for under and overflow.\n */\nlibrary CappedMath {\n    uint constant private UINT_MAX = 2**256 - 1;\n\n    /**\n    * @dev Adds two unsigned integers, returns 2^256 - 1 on overflow.\n    */\n    function addCap(uint256 _a, uint256 _b) internal pure returns (uint256) {\n        uint c = _a + _b;\n        return c >= _a ? c : UINT_MAX;\n    }\n\n    /**\n    * @dev Multiplies two unsigned integers, returns 2^256 - 1 on overflow.\n    */\n    function mulCap(uint256 _a, uint256 _b) internal pure returns (uint256) {\n        // Gas optimization: this is cheaper than requiring '_a' not being zero, but the\n        // benefit is lost if '_b' is also tested.\n        // See: https://github.com/OpenZeppelin/openzeppelin-solidity/pull/522\n        if (_a == 0)\n            return 0;\n\n        uint256 c = _a * _b;\n        return c / _a == _b ? c : UINT_MAX;\n    }\n}\n\n/**\n *  @title ArbitrableTokenList\n *  This contract is arbitrable token curated list for tokens, sometimes referred to as a Token Curated List. Users can send requests to register or remove tokens from the list which can, in turn, be challenged by parties that disagree with the request.\n *  A crowdsourced insurance system allows parties to contribute to arbitration fees and win rewards if the side they backed ultimatly wins a dispute.\n */\ncontract ArbitrableTokenList is PermissionInterface, Arbitrable {\n    using CappedMath for uint;\n    /* solium-disable max-len*/\n    /* solium-disable operator-whitespace*/\n\n    /* Enums */\n\n    enum TokenStatus {\n        Absent, // The token is not on the list.\n        Registered, // The token is on the list.\n        RegistrationRequested, // The token has a request to be added to the list.\n        ClearingRequested // The token has a request to be removed from the list.\n    }\n\n    enum RulingOption {\n        Other, // Arbitrator did not rule or refused to rule.\n        Accept, // Execute request. Rule in favor of requester.\n        Refuse // Refuse request. Rule in favor of challenger.\n    }\n\n    enum Party {\n        None,\n        Requester, // Party that placed a request to change a token status.\n        Challenger // Party challenging a request.\n    }\n\n    // ************************ //\n    // *  Request Life Cycle  * //\n    // ************************ //\n    // Changes to the token status are made via requests for either listing or removing a token from the Token Curated List.\n    // The total cost a request vary depending on whether a party challenges that request and on the number of appeals.\n    // To place or challenge a request, a party must place value at stake. This value will rewarded to the party that ultimatly wins the dispute. If no one challenges the request, the value will be reimbursed to the requester.\n    // Additionally to the challenge reward, in the case a party challenges a request, both sides must fully pay the amount of arbitration fees required to raise a dispute. The party that ultimatly wins the case will be reimbursed.\n    // Finally, arbitration fees can be crowdsourced. To incentivise insurers, an additional value must placed at stake. Contributors that fund the side that ultimatly win a dispute will be reimbursed and rewarded with the other side's fee stake proportinally to their contribution.\n    // In summary, costs for placing or challenging a request are the following:\n    // - A challenge reward given to the party that wins a potential dispute.\n    // - Arbitration fees used to pay jurors.\n    // - Fee stake that is distributed among contributors of the side that ultimatly wins a dispute.\n\n    /* Structs */\n    struct Token {\n        string name; // The token name (e.g. Pinakion).\n        string ticker; // The token ticker (e.g. PNK).\n        address addr; // The Ethereum address of the token, if it is running on an EVM based network.\n        string symbolMultihash; // The multihash of the token symbol.\n        string networkID; // The ID of the network. Can be used for listing tokens from other blockchains. 'ETH' if the token is deployed on the Ethereum mainnet.\n        TokenStatus status;\n        Request[] requests; // List of status change requests made for the token.\n    }\n\n    // Arrays of that have 3 elements to map with the Party enum for better readability:\n    // - 0 is unused, matches Party.None.\n    // - 1 for Party.Requester.\n    // - 2 for Party.Challenger.\n    struct Request {\n        bool disputed; // True if a dispute was raised.\n        uint disputeID; // ID of the dispute, if any.\n        uint submissionTime; // Time when the request was made. Used to track when the challenge period ends.\n        uint challengeRewardBalance; // The summation of requester's and challenger's deposit. This value will be given to the party that ultimatly wins a potential dispute, or be reimbursed to the requester if no one challenges.\n        uint challengerDepositTime; // The time when a challenger placed his deposit. Used to track when the request left the challenge period and entered the arbitration fees funding period.\n        uint feeRewards; // Summation of reimbursable fees and stake rewards available to the parties that made contributions to the side that ultimatly wins a dispute.\n        bool resolved; // True if the request was executed and/or any disputes raised were resolved.\n        address[3] parties; // Address of requester and challenger, if any.\n        Round[] rounds; // Tracks each round of a dispute.\n        mapping(address => uint[3]) contributions; // Maps contributors to their contributions for each side, if any.\n        uint[3] totalContributed; // The total amount contributed for each side. Used for calculating rewards.\n    }\n\n    struct Round {\n        bool appealed; // True if this round was appealed.\n        uint oldWinnerTotalCost; // Governance changes on the second half of the appeal funding period create a difference between the amount that must be contributed by the winner and the loser. This variable tracks the amount that was required of the winner in the first round, before a change that happened on the second half of the funding period. It is used to calculate the amount that must be paid by the winner to fully fund his side, which is max(old total cost, new appeal cost).\n        uint[3] paidFees; // Tracks the fees paid by each side on this round.\n        uint[3] requiredForSide; // The total amount required to fully fund each side. It is the summation of the dispute or appeal cost and the fee stake. The fourth element is used to track whether the required value for each side has been set, with 1 for true and 0 for false.\n        bool requiredForSideSet; // Tracks if the required amount has been set. False if no one made any contributions after the arbitrator gave a ruling.\n    }\n\n    /* Modifiers */\n\n    modifier onlyGovernor {require(msg.sender == governor, \"The caller is not the governor.\"); _;}\n\n    /* Events */\n\n    /**\n     *  @dev Emitted when a party places a request, dispute or appeals are raised or when a request is resolved.\n     *  @param _requester Address of the party that submitted the request.\n     *  @param _challenger Address of the party that challenged the request, if any.\n     *  @param _tokenID The token ID. It is the keccak256 hash of it's data.\n     *  @param _status The status of the token.\n     *  @param _disputed Whether the token is disputed.\n     */\n    event TokenStatusChange(\n        address indexed _requester,\n        address indexed _challenger,\n        bytes32 indexed _tokenID,\n        TokenStatus _status,\n        bool _disputed\n    );\n\n    /** @dev Emitted when a party makes contribution.\n     *  @param _tokenID The ID of the token that the contribution was made to.\n     *  @param _contributor The address that sent the contribution.\n     *  @param _side The side the contribution was made to.\n     *  @param _value The value of the contribution.\n     */\n    event Contribution(bytes32 indexed _tokenID, address indexed _contributor, Party indexed _side, uint _value);\n\n    /** @dev Emitted when a deposit is made to challenge a request.\n     *  @param _tokenID The ID of the token that with the challenged request.\n     *  @param _challenger The address that placed the deposit.\n     */\n    event ChallengeDepositPlaced(bytes32 indexed _tokenID, address indexed _challenger);\n\n    /** @dev Emitted when a reimbursements and/or contribution rewards are withdrawn.\n     *  @param _tokenID The ID of the token from which the withdrawal was made.\n     *  @param _request The request from which the withdrawal was made.\n     *  @param _contributor The address that sent the contribution.\n     *  @param _value The value of the reward.\n     */\n    event RewardWithdrawal(bytes32 indexed _tokenID, uint indexed _request, address indexed _contributor, uint _value);\n\n    /* Storage */\n\n    // Settings\n    uint public challengeReward; // The deposit required for placing and/or challenging a request. A party that wins a disputed request will be reimbursed and will receive the other's deposit.\n    uint public challengePeriodDuration; // The time before a request becomes executable if not challenged.\n    uint public arbitrationFeesWaitingTime; // The time available to fund arbitration fees and fee stake for a potential dispute.\n    address public governor; // The address that can make governance changes to the parameters of the Token Curated List.\n\n    // The required fee stake that a party must pay depends on who won the previous round and is proportional to the arbitration cost such that the fee stake for a round is stake multiplier * arbitration cost for that round.\n    // The value is the percentage in 2 digits precision (e.g. a multiplier of 5000 results the fee stake being 50% of the arbitration cost for that round).\n    uint public winnerStakeMultiplier; // Multiplier for calculating the fee stake paid by the party that won the previous round.\n    uint public loserStakeMultiplier; // Multiplier for calculating the fee stake paid by the party that lost the previous round.\n    uint public sharedStakeMultiplier; // Multiplier for calculating the fee stake that be must paid in the case where the previous round does not have a winner (e.g. when it's the first round or the arbitrator ruled refused to rule/could not rule).\n    uint public constant MULTIPLIER_PRECISION = 10000; // Precision parameter for multipliers.\n\n    mapping(bytes32 => Token) public tokens; // Maps the token ID to the token data.\n    mapping(uint => bytes32) public disputeIDToTokenID; // Maps a dispute ID to the affected token's ID.\n    bytes32[] public tokensList; // List of IDs of submitted tokens.\n\n    /* Constructor */\n\n    /**\n     *  @dev Constructs the arbitrable token curated list.\n     *  @param _arbitrator The chosen arbitrator.\n     *  @param _arbitratorExtraData Extra data for the arbitrator contract.\n     *  @param _metaEvidence The URI of the meta evidence object.\n     *  @param _governor The governor of this contract.\n     *  @param _arbitrationFeesWaitingTime The maximum time to wait for arbitration fees if the dispute is raised.\n     *  @param _challengeReward The amount in weis required to submit or a challenge a request.\n     *  @param _challengePeriodDuration The time in seconds, parties have to challenge a request.\n     *  @param _sharedStakeMultiplier Percentage of the arbitration cost that each party must pay as fee stake for a round when there isn't a winner/loser in the previous round (e.g. when it's the first round or the arbitrator refused to or did not rule). Value in 2 digits precision (e.g. 2500 results in 25% of the arbitration cost value of that round).\n     *  @param _winnerStakeMultiplier Percentage of the arbitration cost that the winner has to pay as fee stake for a round. Value in 2 digits precision (e.g. 5000 results in 50% of the arbitration cost value of that round).\n     *  @param _loserStakeMultiplier Percentage of the arbitration cost that the loser has to pay as fee stake for a round. Value in 2 digits precision (e.g. 10000 results in 100% of the arbitration cost value of that round).\n     */\n    constructor(\n        Arbitrator _arbitrator,\n        bytes _arbitratorExtraData,\n        string _metaEvidence,\n        address _governor,\n        uint _arbitrationFeesWaitingTime,\n        uint _challengeReward,\n        uint _challengePeriodDuration,\n        uint _sharedStakeMultiplier,\n        uint _winnerStakeMultiplier,\n        uint _loserStakeMultiplier\n    ) Arbitrable(_arbitrator, _arbitratorExtraData) public {\n        emit MetaEvidence(0, _metaEvidence);\n        governor = _governor;\n        arbitrationFeesWaitingTime = _arbitrationFeesWaitingTime;\n        challengeReward = _challengeReward;\n        challengePeriodDuration = _challengePeriodDuration;\n        sharedStakeMultiplier = _sharedStakeMultiplier;\n        winnerStakeMultiplier = _winnerStakeMultiplier;\n        loserStakeMultiplier = _loserStakeMultiplier;\n    }\n\n    /* Public */\n\n    // ************************ //\n    // *       Requests       * //\n    // ************************ //\n\n    /** @dev Submit a request to change a token status. Accepts enough ETH to fund a potential dispute considering the current required amount and reimburses the rest.\n     *  @param _name The token name (e.g. Pinakion).\n     *  @param _ticker The token ticker (e.g. PNK).\n     *  @param _addr The Ethereum address of the token, if it is running on an EVM based network.\n     *  @param _symbolMultihash The multihash of the token symbol.\n     *  @param _networkID The ID of the network. Can be used for listing tokens from other blockchains. 'ETH' if the token is on the Ethereum mainnet.\n     */\n    function requestStatusChange(\n        string _name,\n        string _ticker,\n        address _addr,\n        string _symbolMultihash,\n        string _networkID\n    )\n        external\n        payable\n    {\n        require(msg.value >= challengeReward, \"Not enough ETH.\");\n        bytes32 tokenID = keccak256(\n            abi.encodePacked(\n                _name,\n                _ticker,\n                _addr,\n                _symbolMultihash,\n                _networkID\n            )\n        );\n\n        Token storage token = tokens[tokenID];\n        if (token.requests.length == 0) {\n            // Initial token registration\n            token.name = _name;\n            token.ticker = _ticker;\n            token.addr = _addr;\n            token.symbolMultihash = _symbolMultihash;\n            token.networkID = _networkID;\n            tokensList.push(tokenID);\n        }\n\n        // Update token status.\n        if (token.status == TokenStatus.Absent)\n            token.status = TokenStatus.RegistrationRequested;\n        else if (token.status == TokenStatus.Registered)\n            token.status = TokenStatus.ClearingRequested;\n        else\n            revert(\"Token in wrong status for request.\");\n\n        // Setup request.\n        token.requests.length++;\n        Request storage request = token.requests[token.requests.length - 1];\n        request.parties[uint(Party.Requester)] = msg.sender;\n        request.submissionTime = now;\n        request.rounds.length++;\n        request.challengeRewardBalance = challengeReward;\n\n        // Calculate and save the total amount required to fully fund the each side.\n        Round storage round = request.rounds[request.rounds.length - 1];\n        round.requiredForSide = calculateRequiredForSide(tokenID, round.oldWinnerTotalCost);\n        round.requiredForSideSet = true;\n\n        // Take up to the amount necessary to fund the current round at the current costs.\n        uint contribution;\n        uint remainingETH = msg.value - challengeReward;\n        (contribution, remainingETH) = calculateContribution(remainingETH, round.requiredForSide[uint(Party.Requester)]);\n        request.contributions[msg.sender][uint(Party.Requester)] = contribution;\n        request.totalContributed[uint(Party.Requester)] = contribution;\n        round.paidFees[uint(Party.Requester)] = contribution;\n        request.feeRewards += contribution;\n        if (contribution > 0)\n            emit Contribution(tokenID, msg.sender, Party.Requester, contribution);\n\n        // Reimburse leftover ETH.\n        msg.sender.send(remainingETH); // Deliberate use of send in order to not block the contract in case of reverting fallback.\n\n        emit TokenStatusChange(\n            request.parties[uint(Party.Requester)],\n            address(0x0),\n            tokenID,\n            token.status,\n            false\n        );\n    }\n\n    /** @dev Challenges the latest request of a token. Accepts enough ETH to fund a potential dispute considering the current required amount and reimburses the rest.\n     *  @param _tokenID The tokenID of the token with the request to execute.\n     */\n    function challengeRequest(bytes32 _tokenID) external payable {\n        Token storage token = tokens[_tokenID];\n        require(\n            token.status == TokenStatus.RegistrationRequested || token.status == TokenStatus.ClearingRequested,\n            \"Token does not have any pending requests.\"\n        );\n        Request storage request = token.requests[token.requests.length - 1];\n        require(now - request.submissionTime < challengePeriodDuration, \"The challenge period has already passed.\");\n        require(request.challengerDepositTime == 0, \"Request should have only the requester's deposit.\");\n        require(msg.value >= request.challengeRewardBalance, \"Not enough ETH. Party starting dispute must place a deposit in full.\");\n\n        // Take the deposit and save the challenger's address.\n        uint remainingETH = msg.value - request.challengeRewardBalance;\n        request.challengeRewardBalance += request.challengeRewardBalance;\n        request.parties[uint(Party.Challenger)] = msg.sender;\n        request.challengerDepositTime = now; // Save the start of the first round arbitration fees funding period.\n        emit ChallengeDepositPlaced(_tokenID, msg.sender);\n\n        // Calculate and save the total amount required to fully fund the each side.\n        Round storage round = request.rounds[request.rounds.length - 1];\n        round.requiredForSide = calculateRequiredForSide(_tokenID, round.oldWinnerTotalCost);\n        round.requiredForSideSet = true;\n\n        // Take up to the amount necessary to fund the current round at the current costs.\n        uint contribution;\n        (contribution, remainingETH) = calculateContribution(remainingETH, round.requiredForSide[uint(Party.Challenger)]);\n        request.contributions[msg.sender][uint(Party.Challenger)] = contribution;\n        request.totalContributed[uint(Party.Challenger)] = contribution;\n        round.paidFees[uint(Party.Challenger)] = contribution;\n        request.feeRewards += contribution;\n        if (contribution > 0)\n            emit Contribution(_tokenID, msg.sender, Party.Challenger, contribution);\n\n        // Reimburse leftover ETH.\n        msg.sender.send(remainingETH); // Deliberate use of send in order to not block the contract in case of reverting fallback.\n\n        emit TokenStatusChange(\n            request.parties[uint(Party.Requester)],\n            request.parties[uint(Party.Challenger)],\n            _tokenID,\n            token.status,\n            false\n        );\n    }\n\n    /** @dev Takes up to the total required to fund a side of the latest round, reimburses the rest.\n     *  @param _tokenID The IDtIDokenID of the token with the request to execute.\n     *  @param _side The recipient of the contribution.\n     */\n    function fundLatestRound(bytes32 _tokenID, Party _side) external payable {\n        require(\n            _side == Party.Requester || _side == Party.Challenger,\n            \"Side must be either the requester or challenger.\"\n        );\n        Token storage token = tokens[_tokenID];\n        require(\n            token.status == TokenStatus.RegistrationRequested || token.status == TokenStatus.ClearingRequested,\n            \"Token does not have any pending requests.\"\n        );\n        Request storage request = token.requests[token.requests.length - 1];\n        require(request.challengerDepositTime > 0, \"A party must have placed a deposit.\");\n\n        // Calculate and save the total amount required to fully fund the each side.\n        Round storage round = request.rounds[request.rounds.length - 1];\n        round.requiredForSide = calculateRequiredForSide(_tokenID, round.oldWinnerTotalCost);\n        round.requiredForSideSet = true;\n\n        // Check if the contribution is within time restrictions, if there are any.\n        Party loser;\n        if(!request.disputed && request.challengerDepositTime > 0) { // First round.\n            require(\n                now - request.challengerDepositTime < arbitrationFeesWaitingTime,\n                \"The arbitration fees funding period of the first round has already passed.\"\n            );\n        } else { // Later round.\n            (uint appealPeriodStart, uint appealPeriodEnd) = arbitrator.appealPeriod(request.disputeID);\n            if(appealPeriodEnd > appealPeriodStart && RulingOption(arbitrator.currentRuling(request.disputeID)) != RulingOption.Other) {\n                // Appeal period is known and there is a winner and loser.\n                // Contributions are time restricted to the first half if the beneficiary is the loser.\n                if(RulingOption(arbitrator.currentRuling(request.disputeID)) == RulingOption.Refuse)\n                    loser = Party.Requester;\n                else\n                    loser = Party.Challenger;\n\n                // The losing side must fully fund in the first half of the appeal period.\n                if(_side == loser)\n                    require(\n                        now - appealPeriodStart < (appealPeriodEnd - appealPeriodStart) / 2,\n                        \"Appeal period for funding the losing side ended.\"\n                    );\n                else {\n                    require(now < appealPeriodEnd, \"Appeal period ended.\"); // Winner can only receive contributions in the appeal period.\n                    // Beneficiary is the winning side.\n                    // If in the first half of the appeal period, update the old total cost to the winner.\n                    // This is required to calculate the amount the winner has to pay when governance changes are made in the second half of the appeal period.\n                    if (now - appealPeriodStart < (appealPeriodEnd - appealPeriodStart) / 2) // First half of appeal period.\n                        round.oldWinnerTotalCost = round.requiredForSide[uint(_side)];\n                }\n            }\n        }\n\n        // Take only the necessary ETH.\n        uint contribution;\n        uint remainingETH = msg.value;\n        uint amountStillRequired = round.requiredForSide[uint(_side)] - round.paidFees[uint(_side)];\n        (contribution, remainingETH) = calculateContribution(remainingETH, amountStillRequired);\n        request.contributions[msg.sender][uint(_side)] += contribution;\n        request.totalContributed[uint(_side)] += contribution;\n        round.paidFees[uint(_side)] += contribution;\n        request.feeRewards += contribution;\n        if (contribution > 0)\n            emit Contribution(_tokenID, msg.sender, _side, contribution);\n\n        // Reimburse leftover ETH.\n        msg.sender.send(remainingETH); // Deliberate use of send in order to not block the contract in case of reverting fallback.\n\n        // Raise dispute or appeal if both sides are fully funded.\n        if (round.paidFees[uint(Party.Requester)] >= round.requiredForSide[uint(Party.Requester)] &&\n            round.paidFees[uint(Party.Challenger)] >= round.requiredForSide[uint(Party.Challenger)]) {\n\n            uint cost = !request.disputed // First round.\n                ? arbitrator.arbitrationCost(arbitratorExtraData)\n                : arbitrator.appealCost(request.disputeID, arbitratorExtraData);\n\n            if(!request.disputed) {\n                // First round, raise dispute.\n                request.disputeID = arbitrator.createDispute.value(cost)(2, arbitratorExtraData);\n                disputeIDToTokenID[request.disputeID] = _tokenID;\n                request.disputed = true;\n            } else {\n                // Later round, raise an appeal.\n                arbitrator.appeal.value(cost)(request.disputeID, arbitratorExtraData);\n                round.appealed = true;\n            }\n\n            request.rounds.length++;\n            request.feeRewards -= cost;\n\n            emit TokenStatusChange(\n                request.parties[uint(Party.Requester)],\n                request.parties[uint(Party.Challenger)],\n                _tokenID,\n                token.status,\n                request.disputed\n            );\n        }\n    }\n\n    /** @dev Reimburses caller's contributions if no disputes were raised. If a dispute was raised,  withdraws the rewards and reimbursements proportional to the contribtutions made to the winner of a dispute.\n     *  @param _tokenID The ID of the token from which to withdraw.\n     *  @param _request The request from which to withdraw.\n     */\n    function withdrawFeesAndRewards(bytes32 _tokenID, uint _request) external {\n        Token storage token = tokens[_tokenID];\n        Request storage request = token.requests[_request];\n        require(\n            request.resolved,\n            \"The request was not executed and/or there are disputes pending resolution.\"\n        );\n\n        uint reward;\n        if (!request.disputed || RulingOption(arbitrator.currentRuling(request.disputeID)) == RulingOption.Other) {\n            // No disputes were raised, or there isn't a winner and and loser. Reimburse contributions.\n            reward = request.contributions[msg.sender][uint(Party.Requester)] + request.contributions[msg.sender][uint(Party.Challenger)];\n            request.contributions[msg.sender][uint(Party.Requester)] = 0;\n            request.contributions[msg.sender][uint(Party.Challenger)] = 0;\n        } else {\n            Party winner;\n            if(RulingOption(arbitrator.currentRuling(request.disputeID)) == RulingOption.Accept)\n                winner = Party.Requester;\n            else\n                winner = Party.Challenger;\n\n            // Take rewards for funding the winner.\n            uint share = request.contributions[msg.sender][uint(winner)] * MULTIPLIER_PRECISION / request.totalContributed[uint(winner)];\n            reward = (share * request.feeRewards) / MULTIPLIER_PRECISION;\n            request.contributions[msg.sender][uint(winner)] = 0;\n        }\n\n        emit RewardWithdrawal(_tokenID, _request, msg.sender, reward);\n        msg.sender.transfer(reward);\n    }\n\n    /** @dev Execute a request if no disputes were raised within the allowed period.\n     *  @param _tokenID The ID of the token with the request to execute.\n     */\n    function timeout(bytes32 _tokenID) external {\n        Token storage token = tokens[_tokenID];\n        Request storage request = token.requests[token.requests.length - 1];\n        if(request.challengerDepositTime == 0) {\n            // No one placed a challenge deposit.\n            require(\n                now - request.submissionTime > challengePeriodDuration,\n                \"The time to challenge has not passed yet.\"\n            );\n\n            if (token.status == TokenStatus.RegistrationRequested)\n                token.status = TokenStatus.Registered;\n            else if (token.status == TokenStatus.ClearingRequested)\n                token.status = TokenStatus.Absent;\n            else\n                revert(\"Token in wrong status for executing request.\");\n\n            // Deliberate use of send in order to not block the contract in case of reverting fallback.\n            request.parties[uint(Party.Requester)].send(request.challengeRewardBalance);\n        } else {\n            require(!request.disputed, \"A dispute must have not been raised.\");\n            require(\n                now - request.challengerDepositTime > arbitrationFeesWaitingTime,\n                \"There is still time to place a contribution.\"\n            );\n\n            // Rule in favor of requester if he paid more or the same amount of the challenger. Rule in favor of challenger otherwise.\n            Round storage round = request.rounds[request.rounds.length - 1];\n            Party winner;\n            if (round.paidFees[uint(Party.Requester)] >= round.paidFees[uint(Party.Challenger)])\n                winner = Party.Requester;\n            else\n                winner = Party.Challenger;\n\n            // Update token state\n            if (winner == Party.Requester) // Execute Request\n                if (token.status == TokenStatus.RegistrationRequested)\n                    token.status = TokenStatus.Registered;\n                else\n                    token.status = TokenStatus.Absent;\n            else // Revert to previous state.\n                if (token.status == TokenStatus.RegistrationRequested)\n                    token.status = TokenStatus.Absent;\n                else if (token.status == TokenStatus.ClearingRequested)\n                    token.status = TokenStatus.Registered;\n\n            // Send token balance.\n            // Deliberate use of send in order to not block the contract in case the recipient refuses payments.\n            if (winner == Party.Challenger)\n                request.parties[uint(Party.Challenger)].send(request.challengeRewardBalance);\n            else\n                request.parties[uint(Party.Requester)].send(request.challengeRewardBalance);\n        }\n\n        request.challengeRewardBalance = 0;\n        request.resolved = true;\n\n        emit TokenStatusChange(\n            request.parties[uint(Party.Requester)],\n            request.parties[uint(Party.Challenger)],\n            _tokenID,\n            token.status,\n            false\n        );\n    }\n\n    /** @dev Give a ruling for a dispute. Can only be called by the arbitrator.\n     *  Overrides parent function to account for the situation where the winner loses a case due to paying less appeal fees than expected.\n     *  @param _disputeID ID of the dispute in the arbitrator contract.\n     *  @param _ruling Ruling given by the arbitrator. Note that 0 is reserved for \"Not able/wanting to make a decision\".\n     */\n    function rule(uint _disputeID, uint _ruling) public onlyArbitrator {\n        Party winner;\n        Party loser;\n        RulingOption resultRuling = RulingOption(_ruling);\n        if(resultRuling == RulingOption.Accept) {\n            winner = Party.Requester;\n            loser = Party.Challenger;\n        } else if (resultRuling == RulingOption.Refuse) {\n            winner = Party.Challenger;\n            loser = Party.Requester;\n        } // Respect ruling if there aren't a winner and loser.\n\n        // Invert ruling if there are a winner and loser and the loser fully funded but the winner did not. Respect the ruling otherwise.\n        bytes32 tokenID = disputeIDToTokenID[_disputeID];\n        Token storage token = tokens[tokenID];\n        Request storage request = token.requests[token.requests.length - 1];\n        Round storage round = request.rounds[request.rounds.length - 1];\n        if(resultRuling != RulingOption.Other &&\n            round.paidFees[uint(loser)] >= round.requiredForSide[uint(loser)] &&\n            round.requiredForSideSet) // Check that the amount required for each side has been set, if respect ruling otherwise.\n        {\n            // Loser is fully funded but the winner is not. Rule in favor of the loser.\n            if (resultRuling == RulingOption.Accept)\n                resultRuling = RulingOption.Refuse;\n             else\n                resultRuling = RulingOption.Accept;\n        }\n\n        emit Ruling(Arbitrator(msg.sender), _disputeID, uint(resultRuling));\n        executeRuling(_disputeID, uint(resultRuling));\n    }\n\n    /** @dev Submit a reference to evidence. EVENT.\n     *  @param _evidence A link to an evidence using its URI.\n     */\n    function submitEvidence(bytes32 _tokenID, string _evidence) external {\n        Token storage token = tokens[_tokenID];\n        Request storage request = token.requests[token.requests.length - 1];\n        require(request.disputed, \"The request is not disputed.\");\n\n        emit Evidence(arbitrator, request.disputeID, msg.sender, _evidence);\n    }\n\n    // ************************ //\n    // *      Governance      * //\n    // ************************ //\n\n    /** @dev Change the duration of the challenge period.\n     *  @param _challengePeriodDuration The new duration of the challenge period.\n     */\n    function changeTimeToChallenge(uint _challengePeriodDuration) external onlyGovernor {\n        challengePeriodDuration = _challengePeriodDuration;\n    }\n\n    /** @dev Change the required deposit required to place or challenge a request.\n     *  @param _challengeReward The new amount of wei required to place or challenge a request.\n     */\n    function changeChallengeReward(uint _challengeReward) external onlyGovernor {\n        challengeReward = _challengeReward;\n    }\n\n    /** @dev Change the governor of the Token Curated List.\n     *  @param _governor The address of the new governor.\n     */\n    function changeGovernor(address _governor) external onlyGovernor {\n        governor = _governor;\n    }\n\n    /** @dev Change duration of the arbitration fees funding period.\n     *  @param _arbitrationFeesWaitingTime The new duration of the arbitration fees funding period in seconds.\n     */\n    function changeArbitrationFeesWaitingTime(uint _arbitrationFeesWaitingTime) external onlyGovernor {\n        arbitrationFeesWaitingTime = _arbitrationFeesWaitingTime;\n    }\n\n    /** @dev Change the percentage of arbitration fees that must be paid as fee stake by parties when there wasn't a winner or loser in the previous round.\n     *  @param _sharedStakeMultiplier The new percentage of arbitration fees that must be paid as fee stake with 2 digits precision (e.g. a value of 1000 will result in 10% of the arbitration fees required in that round).\n     */\n    function changeSharedStakeMultiplier(uint _sharedStakeMultiplier) external onlyGovernor {\n        sharedStakeMultiplier = _sharedStakeMultiplier;\n    }\n\n    /** @dev Change the percentage of arbitration fees that must be paid as fee stake by winner of the previous round.\n     *  @param _winnerStakeMultiplier The new percentage of arbitration fees that must be paid as fee stake with 2 digits precision (e.g. a value of 5000 will result in 50% of the arbitration fees required in that round).\n     */\n    function changeWinnerStakeMultiplier(uint _winnerStakeMultiplier) external onlyGovernor {\n        winnerStakeMultiplier = _winnerStakeMultiplier;\n    }\n\n    /** @dev Change the percentage of arbitration fees that must be paid as fee stake by party that lost the previous round.\n     *  @param _loserStakeMultiplier The new percentage of arbitration fees that must be paid as fee stake with 2 digits precision (e.g. a value of 10000 will result in 100% of the arbitration fees required in that round).\n     */\n    function changeLoserStakeMultiplier(uint _loserStakeMultiplier) external onlyGovernor {\n        loserStakeMultiplier = _loserStakeMultiplier;\n    }\n\n    /* Public Views */\n\n    /** @dev Return true if the token is on the list.\n     *  @param _tokenID The ID of the token to be queried.\n     *  @return allowed True if the token is allowed, false otherwise.\n     */\n    function isPermitted(bytes32 _tokenID) external view returns (bool allowed) {\n        Token storage token = tokens[_tokenID];\n        return token.status == TokenStatus.Registered || token.status == TokenStatus.ClearingRequested;\n    }\n\n    /* Internal */\n\n    /**\n     *  @dev Execute the ruling of a dispute.\n     *  @param _disputeID ID of the dispute in the Arbitrator contract.\n     *  @param _ruling Ruling given by the arbitrator. Note that 0 is reserved for \"Not able/wanting to make a decision\".\n     */\n    function executeRuling(uint _disputeID, uint _ruling) internal {\n        bytes32 tokenID = disputeIDToTokenID[_disputeID];\n        Token storage token = tokens[tokenID];\n        Request storage request = token.requests[token.requests.length - 1];\n\n        Party winner;\n        if(RulingOption(_ruling) == RulingOption.Accept)\n            winner = Party.Requester;\n        else if (RulingOption(_ruling) == RulingOption.Refuse)\n            winner = Party.Challenger;\n\n        // Update token state\n        if (winner == Party.Requester) // Execute Request\n            if (token.status == TokenStatus.RegistrationRequested)\n                token.status = TokenStatus.Registered;\n            else\n                token.status = TokenStatus.Absent;\n        else // Revert to previous state.\n            if (token.status == TokenStatus.RegistrationRequested)\n                token.status = TokenStatus.Absent;\n            else if (token.status == TokenStatus.ClearingRequested)\n                token.status = TokenStatus.Registered;\n\n        // Send challenge reward.\n        // Deliberate use of send in order to not block the contract in case of reverting fallback.\n        if (winner == Party.Challenger)\n            request.parties[uint(Party.Challenger)].send(request.challengeRewardBalance);\n        else if (winner == Party.Requester)\n            request.parties[uint(Party.Requester)].send(request.challengeRewardBalance);\n        else {\n            // Reimburse parties.\n            request.parties[uint(Party.Requester)].send(request.challengeRewardBalance / 2);\n            request.parties[uint(Party.Challenger)].send(request.challengeRewardBalance / 2);\n        }\n\n        request.challengeRewardBalance = 0;\n        request.resolved = true;\n\n        emit TokenStatusChange(\n            request.parties[uint(Party.Requester)],\n            request.parties[uint(Party.Challenger)],\n            tokenID,\n            token.status,\n            false\n        );\n    }\n\n    /** @dev Returns the amount that must be paid by each side to fully fund a dispute or appeal.\n     *  Capped math is used to deal with overflows since the arbitrator can return high values for appeal and arbitration cost to denote unpayable amounts.\n     *  @param _tokenID The dispute ID to be queried.\n     *  @param _oldWinnerTotalCost The total amount of fees the winner had to pay before a governance change in the second half of an appeal period. If the appeal period is not known or the arbitrator does not support appeal period, this parameter is unused.\n     *  @return The amount of ETH required for each side.\n     */\n    function calculateRequiredForSide(bytes32 _tokenID, uint _oldWinnerTotalCost)\n        internal\n        view\n        returns(uint[3] requiredForSide)\n    {\n        Token storage token = tokens[_tokenID];\n        Request storage request = token.requests[token.requests.length - 1];\n\n        if(!request.disputed) { // First round of a dispute.\n            uint arbitrationCost = arbitrator.arbitrationCost(arbitratorExtraData);\n            requiredForSide[uint(Party.Requester)] =\n                arbitrationCost.addCap((arbitrationCost.mulCap(sharedStakeMultiplier)) / MULTIPLIER_PRECISION);\n            requiredForSide[uint(Party.Challenger)] =\n                arbitrationCost.addCap((arbitrationCost.mulCap(sharedStakeMultiplier)) / MULTIPLIER_PRECISION);\n            return;\n        }\n\n        Party winner;\n        Party loser;\n        RulingOption ruling = RulingOption(arbitrator.currentRuling(request.disputeID));\n        if(ruling == RulingOption.Accept) {\n            winner = Party.Requester;\n            loser = Party.Challenger;\n        } else if (ruling == RulingOption.Refuse) {\n            winner = Party.Challenger;\n            loser = Party.Requester;\n        }\n\n        uint appealCost = arbitrator.appealCost(request.disputeID, arbitratorExtraData);\n        if(uint(winner) > 0) {\n            // Arbitrator gave a decisive ruling.\n            // Set the required amount for the winner.\n            requiredForSide[uint(winner)] = appealCost.addCap((appealCost.mulCap(winnerStakeMultiplier)) / MULTIPLIER_PRECISION);\n\n            (uint appealPeriodStart, uint appealPeriodEnd) = arbitrator.appealPeriod(request.disputeID);\n            if(appealPeriodEnd > appealPeriodStart){ // The appeal period is known.\n                // Fee changes in the second half of the appeal period may create a difference between the amount paid by the winner and the amount paid by the loser.\n                // To deal with this case, the amount that must be paid by the winner is max(old appeal cost + old winner stake, new appeal cost).\n                if (now - appealPeriodStart > (appealPeriodEnd - appealPeriodStart) / 2) // In second half of appeal period.\n                    requiredForSide[uint(winner)] = _oldWinnerTotalCost > appealCost ? _oldWinnerTotalCost : appealCost;\n\n                // Set the required amount for the loser.\n                // The required amount for the loser must only be affected by governance/fee changes made in the first half of the appeal period. Otherwise, increases would cause the loser to lose the case due to being underfunded.\n                if (now - appealPeriodStart < (appealPeriodEnd - appealPeriodStart) / 2) // In first half of appeal period.\n                    requiredForSide[uint(loser)] = appealCost.addCap((appealCost.mulCap(loserStakeMultiplier)) / MULTIPLIER_PRECISION);\n            } else // Arbitration period is not known or the arbitrator does not support appeal period. Update loser's required value as well.\n                requiredForSide[uint(loser)] = appealCost.addCap((appealCost.mulCap(loserStakeMultiplier)) / MULTIPLIER_PRECISION);\n        } else {\n            // Arbitrator did not rule or refused to rule.\n            requiredForSide[uint(Party.Requester)] =\n                appealCost.addCap((appealCost.mulCap(sharedStakeMultiplier)) / MULTIPLIER_PRECISION);\n            requiredForSide[uint(Party.Challenger)] =\n                appealCost.addCap((appealCost.mulCap(sharedStakeMultiplier)) / MULTIPLIER_PRECISION);\n        }\n    }\n\n     /** @dev Returns the contribution value and remainder from available ETH and required amount.\n     *  @param _available The amount of ETH available for the contribution.\n     *  @param _requiredAmount The amount of ETH required for the contribution.\n     *  @return The amount of ETH taken.\n     *  @return The amount of ETH left from the contribution.\n     */\n    function calculateContribution(uint _available, uint _requiredAmount)\n        internal\n        pure\n        returns(uint taken, uint remainder)\n    {\n        if (_requiredAmount > _available)\n            return (_available, 0); // Take whatever is available, return 0 as leftover ETH.\n\n        remainder = _available - _requiredAmount;\n        return (_requiredAmount, remainder);\n    }\n\n    /* Interface Views */\n\n    /** @dev Returns token information. Includes length of requests array.\n     *  @param _tokenID The ID of the queried token.\n     *  @return The token information.\n     */\n    function getTokenInfo(bytes32 _tokenID)\n        external\n        view\n        returns (\n            string name,\n            string ticker,\n            address addr,\n            string symbolMultihash,\n            string networkID,\n            TokenStatus status,\n            uint numberOfRequests\n        )\n    {\n        Token storage token = tokens[_tokenID];\n        return (\n            token.name,\n            token.ticker,\n            token.addr,\n            token.symbolMultihash,\n            token.networkID,\n            token.status,\n            token.requests.length\n        );\n    }\n\n    /** @dev Gets information on a request made for a token.\n     *  @param _tokenID The ID of the queried token.\n     *  @param _request The request to be queried.\n     *  @return The information.\n     */\n    function getRequestInfo(bytes32 _tokenID, uint _request)\n        external\n        view\n        returns (\n            bool disputed,\n            uint disputeID,\n            uint submissionTime,\n            uint challengeRewardBalance,\n            uint challengerDepositTime,\n            uint balance,\n            bool resolved,\n            address[3] parties,\n            uint[3] totalContributed,\n            uint numberOfRounds\n        )\n    {\n        Token storage token = tokens[_tokenID];\n        Request storage request = token.requests[_request];\n        return (\n            request.disputed,\n            request.disputeID,\n            request.submissionTime,\n            request.challengeRewardBalance,\n            request.challengerDepositTime,\n            request.feeRewards,\n            request.resolved,\n            request.parties,\n            request.totalContributed,\n            request.rounds.length\n        );\n    }\n\n    /** @dev Gets the information on a round of a request.\n     *  @param _tokenID The ID of the queried token.\n     *  @param _request The request to be queried.\n     *  @param _round The round to be queried.\n     *  @return The information.\n     */\n    function getRoundInfo(bytes32 _tokenID, uint _request, uint _round)\n        external\n        view\n        returns (\n            bool appealed,\n            uint oldWinnerTotalCost,\n            uint[3] paidFees,\n            uint[3] requiredForSide\n        )\n    {\n        Token storage token = tokens[_tokenID];\n        Request storage request = token.requests[_request];\n        Round storage round = request.rounds[_round];\n        return (\n            round.appealed,\n            round.oldWinnerTotalCost,\n            round.paidFees,\n            round.requiredForSide\n        );\n    }\n\n    /** @dev Gets the contributions made by a party for a given request.\n     *  @param _tokenID The ID of the token.\n     *  @param _request The position of the request.\n     *  @param _contributor The address of the contributor.\n     *  @return The contributions.\n     */\n    function getContributions(\n        bytes32 _tokenID,\n        uint _request,\n        address _contributor\n    ) external view returns(uint[3] contributions) {\n        Token storage token = tokens[_tokenID];\n        Request storage request = token.requests[_request];\n        contributions = request.contributions[_contributor];\n    }\n\n    /** @dev Return the numbers of tokens that were submitted. Includes tokens that never made it to the list or were later removed.\n     *  @return The numbers of tokens in the list.\n     */\n    function tokenCount() external view returns (uint count) {\n        return tokensList.length;\n    }\n\n    /** @dev Return the numbers of tokens with each status. This function is O(n) at worst, where n is the number of tokens. This could exceed the gas limit, therefore this function should only be used for interface display and not by other contracts.\n     *  @return The numbers of tokens in the list per status.\n     */\n    function countByStatus()\n        external\n        view\n        returns (\n            uint disputed,\n            uint absent,\n            uint registered,\n            uint registrationRequested,\n            uint clearingRequested\n        )\n    {\n        for (uint i = 0; i < tokensList.length; i++) {\n            Token storage token = tokens[tokensList[i]];\n            Request storage request = token.requests[token.requests.length - 1];\n\n            if (uint(token.status) > 1 && request.disputed) disputed++;\n            if (token.status == TokenStatus.Absent) absent++;\n            else if (token.status == TokenStatus.Registered) registered++;\n            else if (token.status == TokenStatus.RegistrationRequested) registrationRequested++;\n            else if (token.status == TokenStatus.ClearingRequested) clearingRequested++;\n        }\n    }\n\n    /** @dev Return the values of the tokens the query finds. This function is O(n) at worst, where n is the number of tokens. This could exceed the gas limit, therefore this function should only be used for interface display and not by other contracts.\n     *  @param _cursor The ID of the token from which to start iterating. To start from either the oldest or newest item.\n     *  @param _count The number of tokens to return.\n     *  @param _filter The filter to use. Each element of the array in sequence means:\n     *  - Include absent tokens in result.\n     *  - Include registered tokens in result.\n     *  - Include tokens with registration requests that are not disputed in result.\n     *  - Include tokens with clearing requests that are not disputed in result.\n     *  - Include disputed tokens with registration requests in result.\n     *  - Include disputed tokens with clearing requests in result.\n     *  - Include tokens submitted by the caller.\n     *  - Include tokens challenged by the caller.\n     *  @param _oldestFirst Whether to sort from oldest to the newest item.\n     *  @return The values of the tokens found and whether there are more tokens for the current filter and sort.\n     */\n    function queryTokens(bytes32 _cursor, uint _count, bool[8] _filter, bool _oldestFirst)\n        external\n        view\n        returns (bytes32[] values, bool hasMore)\n    {\n        uint cursorIndex;\n        values = new bytes32[](_count);\n        uint index = 0;\n\n        if (_cursor == 0)\n            cursorIndex = 0;\n        else {\n            for (uint j = 0; j < tokensList.length; j++) {\n                if (tokensList[j] == _cursor) {\n                    cursorIndex = j;\n                    break;\n                }\n            }\n            require(cursorIndex != 0, \"The cursor is invalid.\");\n        }\n\n        for (\n                uint i = cursorIndex == 0 ? (_oldestFirst ? 0 : 1) : (_oldestFirst ? cursorIndex + 1 : tokensList.length - cursorIndex + 1);\n                _oldestFirst ? i < tokensList.length : i <= tokensList.length;\n                i++\n            ) { // Oldest or newest first.\n            bytes32 tokenID = tokensList[_oldestFirst ? i : tokensList.length - i];\n            Token storage token = tokens[tokenID];\n            Request storage request = token.requests[token.requests.length - 1];\n            if (\n                /* solium-disable operator-whitespace */\n                (_filter[0] && token.status == TokenStatus.Absent) ||\n                (_filter[1] && token.status == TokenStatus.Registered) ||\n                (_filter[2] && token.status == TokenStatus.RegistrationRequested && !request.disputed) ||\n                (_filter[3] && token.status == TokenStatus.ClearingRequested && !request.disputed) ||\n                (_filter[4] && token.status == TokenStatus.RegistrationRequested && request.disputed) ||\n                (_filter[5] && token.status == TokenStatus.ClearingRequested && request.disputed) ||\n                (_filter[6] && request.parties[uint(Party.Requester)]== msg.sender) || // My Submissions.\n                (_filter[7] && request.parties[uint(Party.Challenger)]== msg.sender) // My Challenges.\n                /* solium-enable operator-whitespace */\n            ) {\n                if (index < _count) {\n                    values[index] = tokensList[_oldestFirst ? i : tokensList.length - i];\n                    index++;\n                } else {\n                    hasMore = true;\n                    break;\n                }\n            }\n        }\n    }\n}\n",
  "sourcePath": "/home/rigel/Documents/kleros/kleros-interaction/contracts/standard/permission/ArbitrableTokenList.sol",
  "compiler": {
    "name": "solc",
    "version": "0.4.24+commit.e67f0147.Emscripten.clang"
  },
  "schemaVersion": "2.0.1",
  "updatedAt": "2019-01-17T13:45:43.532Z"
}