{
  "contractName": "ArbitrableAddressList",
  "abi": [
    {
      "constant": true,
      "inputs": [],
      "name": "challengePeriodDuration",
      "outputs": [
        {
          "name": "",
          "type": "uint256"
        }
      ],
      "payable": false,
      "stateMutability": "view",
      "type": "function"
    },
    {
      "constant": true,
      "inputs": [],
      "name": "governor",
      "outputs": [
        {
          "name": "",
          "type": "address"
        }
      ],
      "payable": false,
      "stateMutability": "view",
      "type": "function"
    },
    {
      "constant": true,
      "inputs": [],
      "name": "arbitratorExtraData",
      "outputs": [
        {
          "name": "",
          "type": "bytes"
        }
      ],
      "payable": false,
      "stateMutability": "view",
      "type": "function"
    },
    {
      "constant": true,
      "inputs": [],
      "name": "loserStakeMultiplier",
      "outputs": [
        {
          "name": "",
          "type": "uint256"
        }
      ],
      "payable": false,
      "stateMutability": "view",
      "type": "function"
    },
    {
      "constant": true,
      "inputs": [],
      "name": "challengerBaseDeposit",
      "outputs": [
        {
          "name": "",
          "type": "uint256"
        }
      ],
      "payable": false,
      "stateMutability": "view",
      "type": "function"
    },
    {
      "constant": true,
      "inputs": [],
      "name": "sharedStakeMultiplier",
      "outputs": [
        {
          "name": "",
          "type": "uint256"
        }
      ],
      "payable": false,
      "stateMutability": "view",
      "type": "function"
    },
    {
      "constant": true,
      "inputs": [],
      "name": "arbitrator",
      "outputs": [
        {
          "name": "",
          "type": "address"
        }
      ],
      "payable": false,
      "stateMutability": "view",
      "type": "function"
    },
    {
      "constant": true,
      "inputs": [],
      "name": "metaEvidenceUpdates",
      "outputs": [
        {
          "name": "",
          "type": "uint256"
        }
      ],
      "payable": false,
      "stateMutability": "view",
      "type": "function"
    },
    {
      "constant": true,
      "inputs": [],
      "name": "winnerStakeMultiplier",
      "outputs": [
        {
          "name": "",
          "type": "uint256"
        }
      ],
      "payable": false,
      "stateMutability": "view",
      "type": "function"
    },
    {
      "constant": true,
      "inputs": [
        {
          "name": "",
          "type": "address"
        }
      ],
      "name": "addresses",
      "outputs": [
        {
          "name": "status",
          "type": "uint8"
        }
      ],
      "payable": false,
      "stateMutability": "view",
      "type": "function"
    },
    {
      "constant": true,
      "inputs": [],
      "name": "requesterBaseDeposit",
      "outputs": [
        {
          "name": "",
          "type": "uint256"
        }
      ],
      "payable": false,
      "stateMutability": "view",
      "type": "function"
    },
    {
      "constant": true,
      "inputs": [
        {
          "name": "",
          "type": "uint256"
        }
      ],
      "name": "addressList",
      "outputs": [
        {
          "name": "",
          "type": "address"
        }
      ],
      "payable": false,
      "stateMutability": "view",
      "type": "function"
    },
    {
      "constant": true,
      "inputs": [
        {
          "name": "",
          "type": "address"
        },
        {
          "name": "",
          "type": "uint256"
        }
      ],
      "name": "arbitratorDisputeIDToAddress",
      "outputs": [
        {
          "name": "",
          "type": "address"
        }
      ],
      "payable": false,
      "stateMutability": "view",
      "type": "function"
    },
    {
      "constant": true,
      "inputs": [],
      "name": "MULTIPLIER_DIVISOR",
      "outputs": [
        {
          "name": "",
          "type": "uint256"
        }
      ],
      "payable": false,
      "stateMutability": "view",
      "type": "function"
    },
    {
      "inputs": [
        {
          "name": "_arbitrator",
          "type": "address"
        },
        {
          "name": "_arbitratorExtraData",
          "type": "bytes"
        },
        {
          "name": "_registrationMetaEvidence",
          "type": "string"
        },
        {
          "name": "_clearingMetaEvidence",
          "type": "string"
        },
        {
          "name": "_governor",
          "type": "address"
        },
        {
          "name": "_requesterBaseDeposit",
          "type": "uint256"
        },
        {
          "name": "_challengerBaseDeposit",
          "type": "uint256"
        },
        {
          "name": "_challengePeriodDuration",
          "type": "uint256"
        },
        {
          "name": "_sharedStakeMultiplier",
          "type": "uint256"
        },
        {
          "name": "_winnerStakeMultiplier",
          "type": "uint256"
        },
        {
          "name": "_loserStakeMultiplier",
          "type": "uint256"
        }
      ],
      "payable": false,
      "stateMutability": "nonpayable",
      "type": "constructor"
    },
    {
      "anonymous": false,
      "inputs": [
        {
          "indexed": true,
          "name": "_address",
          "type": "address"
        },
        {
          "indexed": true,
          "name": "_requester",
          "type": "address"
        }
      ],
      "name": "AddressSubmitted",
      "type": "event"
    },
    {
      "anonymous": false,
      "inputs": [
        {
          "indexed": true,
          "name": "_address",
          "type": "address"
        },
        {
          "indexed": false,
          "name": "_registrationRequest",
          "type": "bool"
        }
      ],
      "name": "RequestSubmitted",
      "type": "event"
    },
    {
      "anonymous": false,
      "inputs": [
        {
          "indexed": true,
          "name": "_requester",
          "type": "address"
        },
        {
          "indexed": true,
          "name": "_challenger",
          "type": "address"
        },
        {
          "indexed": true,
          "name": "_address",
          "type": "address"
        },
        {
          "indexed": false,
          "name": "_status",
          "type": "uint8"
        },
        {
          "indexed": false,
          "name": "_disputed",
          "type": "bool"
        },
        {
          "indexed": false,
          "name": "_appealed",
          "type": "bool"
        }
      ],
      "name": "AddressStatusChange",
      "type": "event"
    },
    {
      "anonymous": false,
      "inputs": [
        {
          "indexed": true,
          "name": "_address",
          "type": "address"
        },
        {
          "indexed": true,
          "name": "_contributor",
          "type": "address"
        },
        {
          "indexed": true,
          "name": "_request",
          "type": "uint256"
        },
        {
          "indexed": false,
          "name": "_round",
          "type": "uint256"
        },
        {
          "indexed": false,
          "name": "_value",
          "type": "uint256"
        }
      ],
      "name": "RewardWithdrawal",
      "type": "event"
    },
    {
      "anonymous": false,
      "inputs": [
        {
          "indexed": true,
          "name": "_metaEvidenceID",
          "type": "uint256"
        },
        {
          "indexed": false,
          "name": "_evidence",
          "type": "string"
        }
      ],
      "name": "MetaEvidence",
      "type": "event"
    },
    {
      "anonymous": false,
      "inputs": [
        {
          "indexed": true,
          "name": "_arbitrator",
          "type": "address"
        },
        {
          "indexed": true,
          "name": "_disputeID",
          "type": "uint256"
        },
        {
          "indexed": false,
          "name": "_metaEvidenceID",
          "type": "uint256"
        },
        {
          "indexed": false,
          "name": "_evidenceGroupID",
          "type": "uint256"
        }
      ],
      "name": "Dispute",
      "type": "event"
    },
    {
      "anonymous": false,
      "inputs": [
        {
          "indexed": true,
          "name": "_arbitrator",
          "type": "address"
        },
        {
          "indexed": true,
          "name": "_evidenceGroupID",
          "type": "uint256"
        },
        {
          "indexed": true,
          "name": "_party",
          "type": "address"
        },
        {
          "indexed": false,
          "name": "_evidence",
          "type": "string"
        }
      ],
      "name": "Evidence",
      "type": "event"
    },
    {
      "anonymous": false,
      "inputs": [
        {
          "indexed": true,
          "name": "_arbitrator",
          "type": "address"
        },
        {
          "indexed": true,
          "name": "_disputeID",
          "type": "uint256"
        },
        {
          "indexed": false,
          "name": "_ruling",
          "type": "uint256"
        }
      ],
      "name": "Ruling",
      "type": "event"
    },
    {
      "constant": false,
      "inputs": [
        {
          "name": "_address",
          "type": "address"
        }
      ],
      "name": "requestStatusChange",
      "outputs": [],
      "payable": true,
      "stateMutability": "payable",
      "type": "function"
    },
    {
      "constant": false,
      "inputs": [
        {
          "name": "_address",
          "type": "address"
        },
        {
          "name": "_evidence",
          "type": "string"
        }
      ],
      "name": "challengeRequest",
      "outputs": [],
      "payable": true,
      "stateMutability": "payable",
      "type": "function"
    },
    {
      "constant": false,
      "inputs": [
        {
          "name": "_address",
          "type": "address"
        },
        {
          "name": "_side",
          "type": "uint8"
        }
      ],
      "name": "fundAppeal",
      "outputs": [],
      "payable": true,
      "stateMutability": "payable",
      "type": "function"
    },
    {
      "constant": false,
      "inputs": [
        {
          "name": "_beneficiary",
          "type": "address"
        },
        {
          "name": "_address",
          "type": "address"
        },
        {
          "name": "_request",
          "type": "uint256"
        },
        {
          "name": "_round",
          "type": "uint256"
        }
      ],
      "name": "withdrawFeesAndRewards",
      "outputs": [],
      "payable": false,
      "stateMutability": "nonpayable",
      "type": "function"
    },
    {
      "constant": false,
      "inputs": [
        {
          "name": "_beneficiary",
          "type": "address"
        },
        {
          "name": "_address",
          "type": "address"
        },
        {
          "name": "_request",
          "type": "uint256"
        },
        {
          "name": "_cursor",
          "type": "uint256"
        },
        {
          "name": "_count",
          "type": "uint256"
        }
      ],
      "name": "batchRoundWithdraw",
      "outputs": [],
      "payable": false,
      "stateMutability": "nonpayable",
      "type": "function"
    },
    {
      "constant": false,
      "inputs": [
        {
          "name": "_beneficiary",
          "type": "address"
        },
        {
          "name": "_address",
          "type": "address"
        },
        {
          "name": "_cursor",
          "type": "uint256"
        },
        {
          "name": "_count",
          "type": "uint256"
        },
        {
          "name": "_roundCursor",
          "type": "uint256"
        },
        {
          "name": "_roundCount",
          "type": "uint256"
        }
      ],
      "name": "batchRequestWithdraw",
      "outputs": [],
      "payable": false,
      "stateMutability": "nonpayable",
      "type": "function"
    },
    {
      "constant": false,
      "inputs": [
        {
          "name": "_address",
          "type": "address"
        }
      ],
      "name": "executeRequest",
      "outputs": [],
      "payable": false,
      "stateMutability": "nonpayable",
      "type": "function"
    },
    {
      "constant": false,
      "inputs": [
        {
          "name": "_disputeID",
          "type": "uint256"
        },
        {
          "name": "_ruling",
          "type": "uint256"
        }
      ],
      "name": "rule",
      "outputs": [],
      "payable": false,
      "stateMutability": "nonpayable",
      "type": "function"
    },
    {
      "constant": false,
      "inputs": [
        {
          "name": "_address",
          "type": "address"
        },
        {
          "name": "_evidence",
          "type": "string"
        }
      ],
      "name": "submitEvidence",
      "outputs": [],
      "payable": false,
      "stateMutability": "nonpayable",
      "type": "function"
    },
    {
      "constant": false,
      "inputs": [
        {
          "name": "_challengePeriodDuration",
          "type": "uint256"
        }
      ],
      "name": "changeTimeToChallenge",
      "outputs": [],
      "payable": false,
      "stateMutability": "nonpayable",
      "type": "function"
    },
    {
      "constant": false,
      "inputs": [
        {
          "name": "_requesterBaseDeposit",
          "type": "uint256"
        }
      ],
      "name": "changeRequesterBaseDeposit",
      "outputs": [],
      "payable": false,
      "stateMutability": "nonpayable",
      "type": "function"
    },
    {
      "constant": false,
      "inputs": [
        {
          "name": "_challengerBaseDeposit",
          "type": "uint256"
        }
      ],
      "name": "changeChallengerBaseDeposit",
      "outputs": [],
      "payable": false,
      "stateMutability": "nonpayable",
      "type": "function"
    },
    {
      "constant": false,
      "inputs": [
        {
          "name": "_governor",
          "type": "address"
        }
      ],
      "name": "changeGovernor",
      "outputs": [],
      "payable": false,
      "stateMutability": "nonpayable",
      "type": "function"
    },
    {
      "constant": false,
      "inputs": [
        {
          "name": "_sharedStakeMultiplier",
          "type": "uint256"
        }
      ],
      "name": "changeSharedStakeMultiplier",
      "outputs": [],
      "payable": false,
      "stateMutability": "nonpayable",
      "type": "function"
    },
    {
      "constant": false,
      "inputs": [
        {
          "name": "_winnerStakeMultiplier",
          "type": "uint256"
        }
      ],
      "name": "changeWinnerStakeMultiplier",
      "outputs": [],
      "payable": false,
      "stateMutability": "nonpayable",
      "type": "function"
    },
    {
      "constant": false,
      "inputs": [
        {
          "name": "_loserStakeMultiplier",
          "type": "uint256"
        }
      ],
      "name": "changeLoserStakeMultiplier",
      "outputs": [],
      "payable": false,
      "stateMutability": "nonpayable",
      "type": "function"
    },
    {
      "constant": false,
      "inputs": [
        {
          "name": "_arbitrator",
          "type": "address"
        },
        {
          "name": "_arbitratorExtraData",
          "type": "bytes"
        }
      ],
      "name": "changeArbitrator",
      "outputs": [],
      "payable": false,
      "stateMutability": "nonpayable",
      "type": "function"
    },
    {
      "constant": false,
      "inputs": [
        {
          "name": "_registrationMetaEvidence",
          "type": "string"
        },
        {
          "name": "_clearingMetaEvidence",
          "type": "string"
        }
      ],
      "name": "changeMetaEvidence",
      "outputs": [],
      "payable": false,
      "stateMutability": "nonpayable",
      "type": "function"
    },
    {
      "constant": true,
      "inputs": [
        {
          "name": "_address",
          "type": "bytes32"
        }
      ],
      "name": "isPermitted",
      "outputs": [
        {
          "name": "allowed",
          "type": "bool"
        }
      ],
      "payable": false,
      "stateMutability": "view",
      "type": "function"
    },
    {
      "constant": true,
      "inputs": [
        {
          "name": "_address",
          "type": "address"
        },
        {
          "name": "_beneficiary",
          "type": "address"
        },
        {
          "name": "_request",
          "type": "uint256"
        }
      ],
      "name": "amountWithdrawable",
      "outputs": [
        {
          "name": "total",
          "type": "uint256"
        }
      ],
      "payable": false,
      "stateMutability": "view",
      "type": "function"
    },
    {
      "constant": true,
      "inputs": [],
      "name": "addressCount",
      "outputs": [
        {
          "name": "count",
          "type": "uint256"
        }
      ],
      "payable": false,
      "stateMutability": "view",
      "type": "function"
    },
    {
      "constant": true,
      "inputs": [],
      "name": "countByStatus",
      "outputs": [
        {
          "name": "absent",
          "type": "uint256"
        },
        {
          "name": "registered",
          "type": "uint256"
        },
        {
          "name": "registrationRequest",
          "type": "uint256"
        },
        {
          "name": "clearingRequest",
          "type": "uint256"
        },
        {
          "name": "challengedRegistrationRequest",
          "type": "uint256"
        },
        {
          "name": "challengedClearingRequest",
          "type": "uint256"
        }
      ],
      "payable": false,
      "stateMutability": "view",
      "type": "function"
    },
    {
      "constant": true,
      "inputs": [
        {
          "name": "_cursor",
          "type": "address"
        },
        {
          "name": "_count",
          "type": "uint256"
        },
        {
          "name": "_filter",
          "type": "bool[8]"
        },
        {
          "name": "_oldestFirst",
          "type": "bool"
        }
      ],
      "name": "queryAddresses",
      "outputs": [
        {
          "name": "values",
          "type": "address[]"
        },
        {
          "name": "hasMore",
          "type": "bool"
        }
      ],
      "payable": false,
      "stateMutability": "view",
      "type": "function"
    },
    {
      "constant": true,
      "inputs": [
        {
          "name": "_address",
          "type": "address"
        },
        {
          "name": "_request",
          "type": "uint256"
        },
        {
          "name": "_round",
          "type": "uint256"
        },
        {
          "name": "_contributor",
          "type": "address"
        }
      ],
      "name": "getContributions",
      "outputs": [
        {
          "name": "contributions",
          "type": "uint256[3]"
        }
      ],
      "payable": false,
      "stateMutability": "view",
      "type": "function"
    },
    {
      "constant": true,
      "inputs": [
        {
          "name": "_address",
          "type": "address"
        }
      ],
      "name": "getAddressInfo",
      "outputs": [
        {
          "name": "status",
          "type": "uint8"
        },
        {
          "name": "numberOfRequests",
          "type": "uint256"
        }
      ],
      "payable": false,
      "stateMutability": "view",
      "type": "function"
    },
    {
      "constant": true,
      "inputs": [
        {
          "name": "_address",
          "type": "address"
        },
        {
          "name": "_request",
          "type": "uint256"
        }
      ],
      "name": "getRequestInfo",
      "outputs": [
        {
          "name": "disputed",
          "type": "bool"
        },
        {
          "name": "disputeID",
          "type": "uint256"
        },
        {
          "name": "submissionTime",
          "type": "uint256"
        },
        {
          "name": "resolved",
          "type": "bool"
        },
        {
          "name": "parties",
          "type": "address[3]"
        },
        {
          "name": "numberOfRounds",
          "type": "uint256"
        },
        {
          "name": "ruling",
          "type": "uint8"
        },
        {
          "name": "arbitrator",
          "type": "address"
        },
        {
          "name": "arbitratorExtraData",
          "type": "bytes"
        }
      ],
      "payable": false,
      "stateMutability": "view",
      "type": "function"
    },
    {
      "constant": true,
      "inputs": [
        {
          "name": "_address",
          "type": "address"
        },
        {
          "name": "_request",
          "type": "uint256"
        },
        {
          "name": "_round",
          "type": "uint256"
        }
      ],
      "name": "getRoundInfo",
      "outputs": [
        {
          "name": "appealed",
          "type": "bool"
        },
        {
          "name": "paidFees",
          "type": "uint256[3]"
        },
        {
          "name": "hasPaid",
          "type": "bool[3]"
        },
        {
          "name": "feeRewards",
          "type": "uint256"
        }
      ],
      "payable": false,
      "stateMutability": "view",
      "type": "function"
    }
  ],
  "bytecode": "0x6080604052600280553480156200001557600080fd5b50604051620041da380380620041da8339810160409081528151602080840151928401516060850151608086015160a087015160c088015160e08901516101008a01516101208b01516101408c015160008054600160a060020a031916600160a060020a038d161790559a8c0180519a9c909b9881019a9701989597949693959294919390928c918c91620000b09160019184019062000211565b5050506000600080516020620041ba8339815191528a6040518080602001828103825283818151815260200191508051906020019080838360005b8381101562000105578181015183820152602001620000eb565b50505050905090810190601f168015620001335780820380516001836020036101000a031916815260200191505b509250505060405180910390a26001600080516020620041ba833981519152896040518080602001828103825283818151815260200191508051906020019080838360005b838110156200019257818101518382015260200162000178565b50505050905090810190601f168015620001c05780820380516001836020036101000a031916815260200191505b509250505060405180910390a260038054600160a060020a031916600160a060020a039890981697909717909655600494909455600592909255600655600a5560085560095550620002b692505050565b828054600181600116156101000203166002900490600052602060002090601f016020900481019282601f106200025457805160ff191683800117855562000284565b8280016001018555821562000284579182015b828111156200028457825182559160200191906001019062000267565b506200029292915062000296565b5090565b620002b391905b808211156200029257600081556001016200029d565b90565b613ef480620002c66000396000f3006080604052600436106101de5763ffffffff60e060020a60003504166282a36d81146101e35780630c340a241461020a5780630c7ac7b61461023b57806312ce3525146102c55780631d512085146102df57806329ccf8ea146102f4578063311a6c561461033c578063329cedb41461035757806334f06fb91461036c57806341658341146103845780635bb5e55b146103995780636cc6cde1146103c65780636cdc090f146103db5780636d050cb3146103f05780636e112409146104575780636e98762d1461057857806375024275146105995780637b943383146105ad57806382d38954146105c257806384a2343414610607578063854a88d31461063a57806389679dfc146106545780638c10fef31461068457806392239dff146106995780639d80c818146106b1578063adc7faba146106c6578063b810fb43146106de578063b987dcb1146106f6578063ba7079ca14610720578063bac05a7b1461074d578063beabdb7b1461077a578063c09beaa1146107a6578063ce5b3cd714610831578063d36fdb1814610855578063d661dd311461086d578063d706be3114610882578063dd0f0265146108ae578063dda7986c146108c6578063e4c0aaf4146108e6578063ebb0079614610907578063f5e3a3ad14610953575b600080fd5b3480156101ef57600080fd5b506101f86109ee565b60408051918252519081900360200190f35b34801561021657600080fd5b5061021f6109f4565b60408051600160a060020a039092168252519081900360200190f35b34801561024757600080fd5b50610250610a03565b6040805160208082528351818301528351919283929083019185019080838360005b8381101561028a578181015183820152602001610272565b50505050905090810190601f1680156102b75780820380516001836020036101000a031916815260200191505b509250505060405180910390f35b3480156102d157600080fd5b506102dd600435610a90565b005b3480156102eb57600080fd5b506101f8610ae5565b34801561030057600080fd5b50610309610aeb565b604080519687526020870195909552858501939093526060850191909152608084015260a0830152519081900360c00190f35b34801561034857600080fd5b506102dd600435602435610c78565b34801561036357600080fd5b506101f8610ded565b34801561037857600080fd5b506102dd600435610df3565b34801561039057600080fd5b506101f8610e48565b3480156103a557600080fd5b506102dd60048035600160a060020a03169060248035908101910135610e4e565b3480156103d257600080fd5b5061021f611008565b3480156103e757600080fd5b506101f8611017565b3480156103fc57600080fd5b5061041f600160a060020a0360043581169060243590604435906064351661101d565b6040518082606080838360005b8381101561044457818101518382015260200161042c565b5050505090500191505060405180910390f35b34801561046357600080fd5b5061047b600160a060020a03600435166024356110da565b604051808a1515151581526020018981526020018881526020018715151515815260200186600360200280838360005b838110156104c35781810151838201526020016104ab565b505050509050018581526020018460028111156104dc57fe5b60ff16815260200183600160a060020a0316600160a060020a0316815260200180602001828103825283818151815260200191508051906020019080838360005b8381101561053557818101518382015260200161051d565b50505050905090810190601f1680156105625780820380516001836020036101000a031916815260200191505b509a505050505050505050505060405180910390f35b34801561058457600080fd5b506102dd600160a060020a0360043516611259565b6102dd600160a060020a03600435166114c6565b3480156105b957600080fd5b506101f861196d565b3480156105ce57600080fd5b506105e3600160a060020a0360043516611973565b604051808260038111156105f357fe5b60ff16815260200191505060405180910390f35b34801561061357600080fd5b506102dd600160a060020a036004358116906024351660443560643560843560a435611988565b6102dd600160a060020a036004351660ff602435166119e0565b34801561066057600080fd5b506102dd600160a060020a03600435811690602435166044356064356084356121f1565b34801561069057600080fd5b506101f8612266565b3480156106a557600080fd5b506102dd60043561226c565b3480156106bd57600080fd5b506101f86122c1565b3480156106d257600080fd5b506102dd6004356122c8565b3480156106ea57600080fd5b5061021f60043561231d565b34801561070257600080fd5b506101f8600160a060020a0360043581169060243516604435612345565b34801561072c57600080fd5b506102dd60048035600160a060020a03169060248035908101910135612561565b34801561075957600080fd5b506102dd600160a060020a03600435811690602435166044356064356125de565b34801561078657600080fd5b506107926004356128b3565b604080519115158252519081900360200190f35b3480156107b257600080fd5b506107d2600160a060020a036004351660243560446101443515156128ff565b604051808060200183151515158152602001828103825284818151815260200191508051906020019060200280838360005b8381101561081c578181015183820152602001610804565b50505050905001935050505060405180910390f35b34801561083d57600080fd5b5061021f600160a060020a0360043516602435612cc0565b34801561086157600080fd5b506102dd600435612ce6565b34801561087957600080fd5b506101f8612d3b565b34801561088e57600080fd5b506102dd6024600480358281019290820135918135918201910135612d41565b3480156108ba57600080fd5b506102dd600435612e2c565b6102dd60048035600160a060020a03169060248035908101910135612e81565b3480156108f257600080fd5b506102dd600160a060020a0360043516613629565b34801561091357600080fd5b50610928600160a060020a036004351661369b565b6040518083600381111561093857fe5b60ff1681526020018281526020019250505060405180910390f35b34801561095f57600080fd5b5061097a600160a060020a03600435166024356044356136c2565b60405184151581526020810184606080838360005b838110156109a757818101518382015260200161098f565b5050505090500183600360200280838360005b838110156109d25781810151838201526020016109ba565b5050505090500182815260200194505050505060405180910390f35b60065481565b600354600160a060020a031681565b60018054604080516020600284861615610100026000190190941693909304601f81018490048402820184019092528181529291830182828015610a885780601f10610a5d57610100808354040283529160200191610a88565b820191906000526020600020905b815481529060010190602001808311610a6b57829003601f168201915b505050505081565b600354600160a060020a03163314610ae0576040805160e560020a62461bcd0281526020600482018190526024820152600080516020613e49833981519152604482015290519081900360640190fd5b600a55565b60095481565b600080808080808080805b600d54831015610c6d57600b6000600d85815481101515610b1357fe5b6000918252602080832090910154600160a060020a031683528201929092526040019020600181018054919350906000198101908110610b4f57fe5b600091825260208220600a909102019150825460ff166003811115610b7057fe5b1415610b8157600190980197610c62565b6001825460ff166003811115610b9357fe5b1415610ba457600190970196610c62565b6002825460ff166003811115610bb657fe5b148015610bc55750805460ff16155b15610bd557600190960195610c62565b6003825460ff166003811115610be757fe5b148015610bf65750805460ff16155b15610c0657600190950194610c62565b6002825460ff166003811115610c1857fe5b148015610c265750805460ff165b15610c3657600190940193610c62565b6003825460ff166003811115610c4857fe5b148015610c565750805460ff165b15610c62576001909301925b600190920191610af6565b505050909192939495565b6000806000806000856002811115610c8c57fe5b336000908152600c602090815260408083208b8452825280832054600160a060020a0316808452600b9092529091206001810180549398509196509450906000198101908110610cd857fe5b60009182526020909120600a90910201600781018054919350906000198101908110610d0057fe5b906000526020600020906006020190506002548611151515610d2157600080fd5b60088201546101009004600160a060020a03163314610d3f57600080fd5b600382015460ff1615610d5157600080fd5b600381015460ff61010090910416151560011415610d725760019450610d8f565b600381015462010000900460ff16151560011415610d8f57600294505b86337f394027a5fa6e098a1191094d1719d6929b9abc535fcc0c8f448d6a4e75622276876002811115610dbe57fe5b60408051918252519081900360200190a3610de487866002811115610ddf57fe5b6137ee565b50505050505050565b60055481565b600354600160a060020a03163314610e43576040805160e560020a62461bcd0281526020600482018190526024820152600080516020613e49833981519152604482015290519081900360640190fd5b600455565b600a5481565b600160a060020a0383166000908152600b602052604081206001810180549192916000198101908110610e7d57fe5b60009182526020909120600a90910201600381015490915060ff1615610f02576040805160e560020a62461bcd02815260206004820152602960248201527f5468652064697370757465206d757374206e6f7420616c726561647920626520604482015260b960020a683932b9b7b63b32b21702606482015290519081900360840190fd5b33600160a060020a03168560018460010180549050036040516020018083600160a060020a0316600160a060020a0316606060020a028152601401828152602001925050506040516020818303038152906040526040518082805190602001908083835b60208310610f855780518252601f199092019160209182019101610f66565b518151600019602094850361010090810a91909101918216911992909216179091526040805195909301859003852060088a01548387529286018c90529650600160a060020a039104169350600080516020613e29833981519152928a925089918190810184848082843760405192018290039550909350505050a45050505050565b600054600160a060020a031681565b60075481565b611025613b4b565b600160a060020a0385166000908152600b602052604081206001810180549192918291908890811061105357fe5b90600052602060002090600a02019150816007018681548110151561107457fe5b60009182526020808320600160a060020a03891684526005600690930201918201905260409182902082516060810190935290925060038282826020028201915b8154815260200190600101908083116110b55750505050509350505050949350505050565b6000806000806110e8613b4b565b600160a060020a0387166000908152600b6020526040812060010180548291829160609183918c90811061111857fe5b60009182526020909120600a909102018054600182015460028301546003808501546007860154600887015460408051606081019182905298995060ff97881698969795969386169560048b0195939490831693610100909304600160a060020a03169260098c019287919082845b8154600160a060020a03168152600190910190602001808311611187575050845460408051602060026001851615610100026000190190941693909304601f8101849004840282018401909252818152959a50869450925084019050828280156112325780601f1061120757610100808354040283529160200191611232565b820191906000526020600020905b81548152906001019060200180831161121557829003601f168201915b50505050509050995099509950995099509950995099509950509295985092959850929598565b600160a060020a0381166000908152600b60205260408120600181018054919291600019810190811061128857fe5b90600052602060002090600a0201905060065481600201544203111515611314576040805160e560020a62461bcd02815260206004820152602f60248201527f54696d6520746f206368616c6c656e6765207468652072657175657374206d756044820152608960020a6e39ba103430bb32903830b9b9b2b21702606482015290519081900360840190fd5b805460ff161561137d576040805160e560020a62461bcd02815260206004820152602360248201527f54686520726571756573742073686f756c64206e6f7420626520646973707574604482015260e960020a6232b21702606482015290519081900360840190fd5b6002825460ff16600381111561138f57fe5b14156113ad578154600190839060ff191682805b0217905550611426565b6003825460ff1660038111156113bf57fe5b14156113d8578154600090839060ff19166001836113a3565b6040805160e560020a62461bcd0281526020600482015260186024820152604160020a772a3432b9329036bab9ba1031329030903932b8bab2b9ba1702604482015290519081900360640190fd5b60038101805460ff1916600190811790915560058201549083015461145c91600160a060020a03169085906000190160006125de565b60058101548254604051600160a060020a0386811693600093911691600080516020613e898339815191529160ff1690849081908084600381111561149d57fe5b60ff168152921515602084015250151560408083019190915251908190036060019150a4505050565b600160a060020a0381166000908152600b602052604081206001810154909190819081908190151561156857600d805460018101825560009182527fd7b6990105719101dabeb77144f2a3385c8033acd3af97e9423a695e81ad1eb5018054600160a060020a031916600160a060020a03891690811790915560405133927f15fd438d8a4b65994e0e9aa906cf8dbf669673fd34f724b4e923a4905963f88291a35b6000855460ff16600381111561157a57fe5b1415611599578454600290869060ff19166001835b0217905550611626565b6001855460ff1660038111156115ab57fe5b14156115c4578454600390869060ff191660018361158f565b6040805160e560020a62461bcd02815260206004820152602660248201527f4164647265737320616c72656164792068617320612070656e64696e67207265604482015260d160020a6538bab2b9ba1702606482015290519081900360840190fd5b60018086018054909161163c9083908301613b6a565b8154811061164657fe5b60009182526020909120600a90910201935033600485016001018054600160a060020a031916600160a060020a039283161790554260028681019190915560005460088701805461010060a860020a03191661010092909416820293909317909255600180546116c9936009890193828416159091026000190190911604613b9b565b506007840180546116dd8260018301613c20565b815481106116e757fe5b600091825260209091206006909102019250600160a060020a0386167f3ceaabcfa5956ec0e9a9ab7a4fb96b1d5adf53a79b5082a4d52a7e92521bf03a6002875460ff16600381111561173657fe5b60408051929091148252519081900360200190a2600884015460405160e060020a63f7434ea90281526020600482019081526009870180546002610100600183161581026000190190921604602485018190529404600160a060020a03169363f7434ea9939192918291604490910190849080156117f55780601f106117ca576101008083540402835291602001916117f5565b820191906000526020600020905b8154815290600101906020018083116117d857829003601f168201915b505092505050602060405180830381600087803b15801561181557600080fd5b505af1158015611829573d6000803e3d6000fd5b505050506040513d602081101561183f57600080fd5b5051600454600a5491935061188b9161187f906127109061186790879063ffffffff6139eb16565b81151561187057fe5b8691900463ffffffff613a2816565b9063ffffffff613a2816565b905061189b836001333485613a3d565b80836001015410156118e5576040805160e560020a62461bcd02815260206004820152601e6024820152600080516020613ea9833981519152604482015290519081900360640190fd5b60038301805461ff001916610100179055600160a060020a038616600060048601600101548754604051600160a060020a0390921691600080516020613e898339815191529160ff169060009081908084600381111561194157fe5b60ff168152921515602084015250151560408083019190915251908190036060019150a4505050505050565b60085481565b600b6020526000908152604090205460ff1681565b600160a060020a0385166000908152600b60205260409020845b6001820154811080156119bc57508415806119bc57508481105b156119d6576119ce88888387876121f1565b6001016119a2565b5050505050505050565b600080808080808080808060018b60028111156119f957fe5b1480611a10575060028b6002811115611a0e57fe5b145b1515611a1b57600080fd5b600160a060020a038c166000908152600b60205260409020995060028a5460ff166003811115611a4757fe5b1480611a62575060038a5460ff166003811115611a6057fe5b145b1515611aba576040805160e560020a62461bcd0281526020600482015260286024820152600080516020613e69833981519152604482015260c160020a673932b8bab2b9ba1702606482015290519081900360840190fd5b60018a0180546000198101908110611ace57fe5b60009182526020909120600a90910201805490995060ff161515611b5a576040805160e560020a62461bcd02815260206004820152603260248201527f412064697370757465206d7573742068617665206265656e20726169736564206044820152607160020a713a3790333ab7321030b71030b83832b0b61702606482015290519081900360840190fd5b8860080160019054906101000a9004600160a060020a0316600160a060020a031663afe15cfb8a600101546040518263ffffffff1660e060020a028152600401808281526020019150506040805180830381600087803b158015611bbd57600080fd5b505af1158015611bd1573d6000803e3d6000fd5b505050506040513d6040811015611be757600080fd5b5080516020909101519098509650428811801590611c0457508642105b1515611c7a576040805160e560020a62461bcd02815260206004820152603460248201527f436f6e747269627574696f6e73206d757374206265206d6164652077697468696044820152606160020a7337103a34329030b83832b0b6103832b934b7b21702606482015290519081900360840190fd5b6007890180546000198101908110611c8e57fe5b906000526020600020906006020195508860080160019054906101000a9004600160a060020a0316600160a060020a0316631c3db16d8a600101546040518263ffffffff1660e060020a02815260040180828152602001915050602060405180830381600087803b158015611d0257600080fd5b505af1158015611d16573d6000803e3d6000fd5b505050506040513d6020811015611d2c57600080fd5b50516002811115611d3957fe5b94506001856002811115611d4957fe5b1415611d585760029350611d71565b6002856002811115611d6657fe5b1415611d7157600193505b836002811115611d7d57fe5b8b6002811115611d8957fe5b141580611d9c5750600288880304884203105b1515611e29576040805160e560020a62461bcd02815260206004820152604560248201527f546865206c6f736572206d75737420636f6e7472696275746520647572696e6760448201527f207468652066697273742068616c66206f66207468652061707065616c207065606482015260d960020a643934b7b21702608482015290519081900360a40190fd5b846002811115611e3557fe5b8b6002811115611e4157fe5b1415611e51576008549250611e7f565b836002811115611e5d57fe5b8b6002811115611e6957fe5b1415611e79576009549250611e7f565b600a5492505b60088901546001808b01546040805160e160020a63791f8b73028152600481018381526024820192835260098f018054600261010097821615880260001901909116046044840181905295909604600160a060020a03169563f23f16e695909391926064019084908015611f345780601f10611f0957610100808354040283529160200191611f34565b820191906000526020600020905b815481529060010190602001808311611f1757829003601f168201915b50509350505050602060405180830381600087803b158015611f5557600080fd5b505af1158015611f69573d6000803e3d6000fd5b505050506040513d6020811015611f7f57600080fd5b50519150611fb1612710611f99848663ffffffff6139eb16565b811515611fa257fe5b8491900463ffffffff613a2816565b9050611fc0868c333485613a3d565b80868c6002811115611fce57fe5b60038110611fd857fe5b01541061201b576001866003018c6002811115611ff157fe5b60038110611ffb57fe5b602091828204019190066101000a81548160ff0219169083151502179055505b600386015462010000900460ff16801561203e57506003860154610100900460ff165b156121e35760088901546001808b01546040805160e360020a63093225f1028152600481018381526024820192835260098f018054600261010097821615880260001901909116046044840181905295909604600160a060020a0316956349912f8895899594919360640190849080156120f95780601f106120ce576101008083540402835291602001916120f9565b820191906000526020600020905b8154815290600101906020018083116120dc57829003601f168201915b505093505050506000604051808303818588803b15801561211957600080fd5b505af115801561212d573d6000803e3d6000fd5b50505060078b0180549250612146915060018301613c20565b50600486015461215c908363ffffffff613b0916565b600487810191909155600160a060020a038d16908a0160020154600160a060020a031660048b01600101548c54604051600160a060020a0390921691600080516020613e898339815191529160ff16906001908190808460038111156121be57fe5b60ff168152921515602084015250151560408083019190915251908190036060019150a45b505050505050505050505050565b600160a060020a0384166000908152600b602052604081206001810180549192918291908790811061221f57fe5b90600052602060002090600a020191508490505b60078201548110801561224d575083158061224d57508381105b156119d65761225e888888846125de565b600101612233565b60045481565b600354600160a060020a031633146122bc576040805160e560020a62461bcd0281526020600482018190526024820152600080516020613e49833981519152604482015290519081900360640190fd5b600955565b600d545b90565b600354600160a060020a03163314612318576040805160e560020a62461bcd0281526020600482018190526024820152600080516020613e49833981519152604482015290519081900360640190fd5b600855565b600d80548290811061232b57fe5b600091825260209091200154600160a060020a0316905081565b600160a060020a0383166000908152600b60205260408120600101805482918291829182918291908890811061237757fe5b60009182526020909120600a90910201600381015490955060ff16151561239d57612555565b600093505b600785015484101561255557600785018054859081106123be57fe5b600091825260209091208654600690920201935060ff1615806123f357506000600886015460ff1660028111156123f157fe5b145b156124aa57600083600101541161240b576000612449565b826002015483600101546004850154600160a060020a038b16600090815260058701602052604090209290910191600101540281151561244757fe5b045b9150600083600201541161245e57600061249c565b826002015483600101546004850154600160a060020a038b16600090815260058701602052604090209290910191600201540281151561249a57fe5b045b90508082018601955061254a565b6008850154600090849060ff1660028111156124c257fe5b600381106124cc57fe5b0154116124da576000612545565b6008850154839060ff1660028111156124ef57fe5b600381106124f957fe5b01546004840154600160a060020a038a1660009081526005860160205260409020600888015460ff16600281111561252d57fe5b6003811061253757fe5b01540281151561254357fe5b045b860195505b6001909301926123a2565b50505050509392505050565b600354600160a060020a031633146125b1576040805160e560020a62461bcd0281526020600482018190526024820152600080516020613e49833981519152604482015290519081900360640190fd5b60008054600160a060020a031916600160a060020a0385161790556125d860018383613c4c565b50505050565b600160a060020a0383166000908152600b6020526040812060018101805491929182918291829182918990811061261157fe5b90600052602060002090600a02019450846007018781548110151561263257fe5b600091825260209091206003870154600690920201945060ff16151561265757600080fd5b845460ff16158061267a57506000600886015460ff16600281111561267857fe5b145b156127545760008460010154116126925760006126d0565b836001015484600201546004860154600160a060020a038d1660009081526005880160205260409020929091019160010154028115156126ce57fe5b045b915060008460020154116126e5576000612723565b836001015484600201546004860154600160a060020a038d16600090815260058801602052604090209290910191600201540281151561272157fe5b045b600160a060020a038b166000908152600586016020526040812060018101829055600201558281019350905061282e565b6008850154600090859060ff16600281111561276c57fe5b6003811061277657fe5b0154116127845760006127ef565b6008850154849060ff16600281111561279957fe5b600381106127a357fe5b01546004850154600160a060020a038c1660009081526005870160205260409020600888015460ff1660028111156127d757fe5b600381106127e157fe5b0154028115156127ed57fe5b045b600160a060020a038b16600090815260058601602052604081206008880154929550909160ff16600281111561282157fe5b6003811061282b57fe5b01555b878a600160a060020a03168a600160a060020a03167f4f58820b6487d0399074b44a85e09b290dd88a811557ceea4fcb9684cbb1fbc68a87604051808381526020018281526020019250505060405180910390a4604051600160a060020a038b169084156108fc029085906000818181858888f1505050505050505050505050505050565b600160a060020a0381166000908152600b602052604081206001815460ff1660038111156128dd57fe5b14806128f857506003815460ff1660038111156128f657fe5b145b9392505050565b606060008060008060008060008a604051908082528060200260200182016040528015612936578160200160208202803883390190505b50975060009450600160a060020a038c16151561295657600095506129ff565b600093505b600d548410156129ac578b600160a060020a0316600d8581548110151561297e57fe5b600091825260209091200154600160a060020a031614156129a1578395506129ac565b60019093019261295b565b8515156129ff576040805160e560020a62461bcd0281526020600482015260166024820152605160020a752a34329031bab939b7b91034b99034b73b30b634b21702604482015290519081900360640190fd5b8515612a225788612a1857600d54869003600101612a1d565b856001015b612a35565b88612a2e576001612a31565b60005b60ff165b92505b88612a4857600d54831115612a4e565b600d5483105b15612cb157600b6000600d8b612a6957600d54869003612a6b565b855b81548110612a7557fe5b6000918252602080832090910154600160a060020a031683528201929092526040019020600181018054919350906000198101908110612ab157fe5b60009182526020909120600a909102019050893515801590612ae257506000825460ff166003811115612ae057fe5b145b80612b0a575060208a013515801590612b0a57506001825460ff166003811115612b0857fe5b145b80612b40575060408a013515801590612b3257506002825460ff166003811115612b3057fe5b145b8015612b405750805460ff16155b80612b76575060608a013515801590612b6857506003825460ff166003811115612b6657fe5b145b8015612b765750805460ff16155b80612bab575060808a013515801590612b9e57506002825460ff166003811115612b9c57fe5b145b8015612bab5750805460ff165b80612be0575060a08a013515801590612bd357506003825460ff166003811115612bd157fe5b145b8015612be05750805460ff165b80612c05575060c08a013515801590612c0557506005810154600160a060020a031633145b80612c2a575060e08a013515801590612c2a57506006810154600160a060020a031633145b15612ca6578a851015612c9d57600d89612c4957600d54849003612c4b565b835b81548110612c5557fe5b6000918252602090912001548851600160a060020a0390911690899087908110612c7b57fe5b600160a060020a03909216602092830290910190910152600190940193612ca6565b60019650612cb1565b600190920191612a38565b50505050505094509492505050565b600c602090815260009283526040808420909152908252902054600160a060020a031681565b600354600160a060020a03163314612d36576040805160e560020a62461bcd0281526020600482018190526024820152600080516020613e49833981519152604482015290519081900360640190fd5b600655565b61271081565b600354600160a060020a03163314612d91576040805160e560020a62461bcd0281526020600482018190526024820152600080516020613e49833981519152604482015290519081900360640190fd5b60078054600101908190556040805160208082528101869052600290920291600080516020613e0983398151915291879187918190810184848082843760405192018290039550909350505050a2600754600202600101600080516020613e0983398151915283836040518080602001828103825284848281815260200192508082843760405192018290039550909350505050a250505050565b600354600160a060020a03163314612e7c576040805160e560020a62461bcd0281526020600482018190526024820152600080516020613e49833981519152604482015290519081900360640190fd5b600555565b600160a060020a0383166000908152600b60205260408120908080806002855460ff166003811115612eaf57fe5b1480612eca57506003855460ff166003811115612ec857fe5b145b1515612f22576040805160e560020a62461bcd0281526020600482015260286024820152600080516020613e69833981519152604482015260c160020a673932b8bab2b9ba1702606482015290519081900360840190fd5b6001850180546000198101908110612f3657fe5b90600052602060002090600a020193506006548460020154420311151515612fc6576040805160e560020a62461bcd02815260206004820152603260248201527f4368616c6c656e676573206d757374206f6363757220647572696e67207468656044820152607160020a711031b430b63632b733b2903832b934b7b21702606482015290519081900360840190fd5b835460ff161561303e576040805160e560020a62461bcd02815260206004820152603260248201527f54686520726571756573742073686f756c64206e6f74206861766520616c72656044820152607160020a7130b23c903132b2b7103234b9b83aba32b21702606482015290519081900360840190fd5b600684018054600160a060020a03191633179055600784018054600019810190811061306657fe5b6000918252602091829020600887015460405160e060020a63f7434ea902815260048101948552600989018054600261010060018316158102600019019092160460248401819052600696909602909401985092909104600160a060020a03169363f7434ea99390918291604490910190849080156131265780601f106130fb57610100808354040283529160200191613126565b820191906000526020600020905b81548152906001019060200180831161310957829003601f168201915b505092505050602060405180830381600087803b15801561314657600080fd5b505af115801561315a573d6000803e3d6000fd5b505050506040513d602081101561317057600080fd5b5051600554600a549193506131989161187f906127109061186790879063ffffffff6139eb16565b90506131a8836002333485613a3d565b80836002015410156131f2576040805160e560020a62461bcd02815260206004820152601e6024820152600080516020613ea9833981519152604482015290519081900360640190fd5b60038301805462ff00001916620100001790556008840154600280546040805160e060020a63c13517e1028152600481018381526024820192835260098a018054600181161561010090810260001901909116969096046044840181905295909604600160a060020a03169563c13517e195899594919360640190849080156132bc5780601f10613291576101008083540402835291602001916132bc565b820191906000526020600020905b81548152906001019060200180831161329f57829003601f168201915b505093505050506020604051808303818588803b1580156132dc57600080fd5b505af11580156132f0573d6000803e3d6000fd5b50505050506040513d602081101561330757600080fd5b5051600185810182905560088601546101009004600160a060020a039081166000908152600c60209081526040808320958352949052929092208054600160a060020a031916928b1692909217909155845460ff1916811785556007850180549161337491908301613c20565b50600483015461338a908363ffffffff613b0916565b6004840155600184015460088501546101009004600160a060020a03167f74baab670a4015ab2f1b467c5252a96141a2573f2908e58a92081e80d3cfde3d6002885460ff1660038111156133da57fe5b146133ed576007546002026001016133f4565b6007546002025b8b60018a60010180549050036040516020018083600160a060020a0316600160a060020a0316606060020a028152601401828152602001925050506040516020818303038152906040526040518082805190602001908083835b6020831061346d5780518252601f19909201916020918201910161344e565b51815160209384036101000a600019018019909216911617905260408051929094018290038220968252810195909552508051938490030192915050a3600684015460058501548654604051600160a060020a038c8116948116931691600080516020613e898339815191529160ff90911690600190600090808460038111156134f357fe5b60ff168152921515602084015250151560408083019190915251908190036060019150a460008611156119d65733600160a060020a03168860018760010180549050036040516020018083600160a060020a0316600160a060020a0316606060020a028152601401828152602001925050506040516020818303038152906040526040518082805190602001908083835b602083106135a35780518252601f199092019160209182019101613584565b518151600019602094850361010090810a91909101918216911992909216179091526040805195909301859003852060088d01548387529286018f90529650600160a060020a039104169350600080516020613e29833981519152928d92508c918190810184848082843760405192018290039550909350505050a45050505050505050565b600354600160a060020a03163314613679576040805160e560020a62461bcd0281526020600482018190526024820152600080516020613e49833981519152604482015290519081900360640190fd5b60038054600160a060020a031916600160a060020a0392909216919091179055565b600160a060020a03166000908152600b60205260409020805460019091015460ff90911691565b60006136cc613b4b565b6136d4613b4b565b600160a060020a0386166000908152600b60205260408120600181018054839182918a90811061370057fe5b90600052602060002090600a02019150816007018881548110151561372157fe5b9060005260206000209060060201905060018260070180549050038814158160000182600301836004015482600380602002604051908101604052809291908260038015613784576020028201915b815481526020019060010190808311613770575b5050604080516060810191829052949750869350600392509050826000855b825461010083900a900460ff1615158152602060019283018181049485019490930390920291018084116137a357905050505050509150965096509650965050505093509350935093565b336000908152600c60209081526040808320858452825280832054600160a060020a0316808452600b909252822060018101805492939192829190600019810190811061383757fe5b90600052602060002090600a0201915084600281111561385357fe5b9050600181600281111561386357fe5b14156138ab576002835460ff16600381111561387b57fe5b141561389157825460ff191660011783556138a6565b8254600090849060ff19166001835b02179055505b6138fa565b6002835460ff1660038111156138bd57fe5b14156138d6578254600090849060ff19166001836138a0565b6003835460ff1660038111156138e857fe5b14156138fa57825460ff191660011783555b60038201805460ff1916600117905584600281111561391557fe5b60088301805460ff1916600183600281111561392d57fe5b0217905550600081600281111561394057fe5b141561398d5761397a6004830160015b6003811061395a57fe5b01546001850154600160a060020a039091169086906000190160006125de565b613988600483016002613950565b6139a0565b6139a08260040182600281111561395057fe5b6006820154600583015484548454604051600160a060020a03898116958116941692600080516020613e898339815191529260ff918216929116906000908084600381111561194157fe5b6000808315156139fe5760009150613a21565b50828202828482811515613a0e57fe5b0414613a1c57600019613a1e565b805b91505b5092915050565b600082820183811015613a1c57600019613a1e565b600080613a7284613a6d89896002811115613a5457fe5b60038110613a5e57fe5b0154869063ffffffff613b0916565b613b26565b600160a060020a038716600090815260058a016020526040902091935091508290876002811115613a9f57fe5b60038110613aa957fe5b01805490910190558187876002811115613abf57fe5b60038110613ac957fe5b018054909101905560048701805483019055604051600160a060020a0386169082156108fc029083906000818181858888f1505050505050505050505050565b600082821115613b1b57506000613b20565b508082035b92915050565b60008083831115613b3c57508290506000613b44565b508190508083035b9250929050565b6060604051908101604052806003906020820280388339509192915050565b815481835581811115613b9657600a0281600a028360005260206000209182019101613b969190613cba565b505050565b828054600181600116156101000203166002900490600052602060002090601f016020900481019282601f10613bd45780548555613c10565b82800160010185558215613c1057600052602060002091601f016020900482015b82811115613c10578254825591600101919060010190613bf5565b50613c1c929150613d32565b5090565b815481835581811115613b9657600602816006028360005260206000209182019101613b969190613d4c565b828054600181600116156101000203166002900490600052602060002090601f016020900481019282601f10613c8d5782800160ff19823516178555613c10565b82800160010185558215613c10579182015b82811115613c10578235825591602001919060010190613c9f565b6122c591905b80821115613c1c57805460ff19908116825560006001830181905560028301819055600383018054909216909155613cfb6004830182613d84565b613d09600783016000613d99565b600882018054600160a860020a0319169055613d29600983016000613dbd565b50600a01613cc0565b6122c591905b80821115613c1c5760008155600101613d38565b6122c591905b80821115613c1c576000613d668282613d84565b613d74600383016000613e01565b5060006004820155600601613d52565b50600081556001016000815560010160009055565b5080546000825560060290600052602060002090810190613dba9190613d4c565b50565b50805460018160011615610100020316600290046000825580601f10613de35750613dba565b601f016020900490600052602060002090810190613dba9190613d32565b5060009055560061606860eb6c87306811e2695215385101daab53bd6ab4e9f9049aead9363c7ddccf2f8b2cc26eafcd61905cba744cff4b81d14740725f6376390dc6298a6a3c5468652063616c6c6572206d7573742062652074686520676f7665726e6f722e5468652061646472657373206d757374206861766520612070656e64696e6720fefd493f905b0f02e94e79f43fad305bc4413681f18f7ecfeeffccbc2174a67e596f75206d7573742066756c6c792066756e6420796f757220736964652e0000a165627a7a723058206d6a01c5c4cb5bc48a32013ca2780a504fafb18279677299f14e89a855486fc5002961606860eb6c87306811e2695215385101daab53bd6ab4e9f9049aead9363c7d",
  "source": "/**\n *  @authors: [@mtsalenc]\n *  @reviewers: []\n *  @auditors: []\n *  @bounties: []\n *  @deployments: []\n */\n/* solium-disable max-len*/\npragma solidity ^0.4.24;\n\nimport \"../arbitration/Arbitrable.sol\";\nimport \"./PermissionInterface.sol\";\nimport \"../../libraries/CappedMath.sol\";\n\n/**\n *  @title ArbitrableAddressList\n *  This contract is an arbitrable token curated registry for addresses, sometimes referred to as a Address Curated Registry. Users can send requests to register or remove addresses from the registry, which can in turn, be challenged by parties that disagree with them.\n *  A crowdsourced insurance system allows parties to contribute to arbitration fees and win rewards if the side they backed ultimately wins a dispute.\n *  NOTE: This contract trusts that the Arbitrator is honest and will not reenter or modify its costs during a call. This contract is only to be used with an arbitrator returning appealPeriod and having non-zero fees. The governor contract (which will be a DAO) is also to be trusted.\n */\ncontract ArbitrableAddressList is PermissionInterface, Arbitrable {\n    using CappedMath for uint; // Operations bounded between 0 and 2**256 - 1.\n\n    /* Enums */\n\n    enum AddressStatus {\n        Absent, // The address is not in the registry.\n        Registered, // The address is in the registry.\n        RegistrationRequested, // The address has a request to be added to the registry.\n        ClearingRequested // The address has a request to be removed from the registry.\n    }\n\n    enum Party {\n        None,      // Party per default when there is no challenger or requester. Also used for unconclusive ruling.\n        Requester, // Party that made the request to change an address status.\n        Challenger // Party that challenges the request to change an address status.\n    }\n\n    // ************************ //\n    // *  Request Life Cycle  * //\n    // ************************ //\n    // Changes to the address status are made via requests for either listing or removing an address from the Address Curated Registry.\n    // To make or challenge a request, a party must pay a deposit. This value will be rewarded to the party that ultimately wins a dispute. If no one challenges the request, the value will be reimbursed to the requester.\n    // Additionally to the challenge reward, in the case a party challenges a request, both sides must fully pay the amount of arbitration fees required to raise a dispute. The party that ultimately wins the case will be reimbursed.\n    // Finally, arbitration fees can be crowdsourced. To incentivise insurers, an additional fee stake must be deposited. Contributors that fund the side that ultimately wins a dispute will be reimbursed and rewarded with the other side's fee stake proportionally to their contribution.\n    // In summary, costs for placing or challenging a request are the following:\n    // - A challenge reward given to the party that wins a potential dispute.\n    // - Arbitration fees used to pay jurors.\n    // - A fee stake that is distributed among insurers of the side that ultimately wins a dispute.\n\n    /* Structs */\n\n    struct Address {\n        AddressStatus status; // The status of the address.\n        Request[] requests; // List of status change requests made for the address.\n    }\n\n    // Some arrays below have 3 elements to map with the Party enums for better readability:\n    // - 0: is unused, matches `Party.None`.\n    // - 1: for `Party.Requester`.\n    // - 2: for `Party.Challenger`.\n    struct Request {\n        bool disputed; // True if a dispute was raised.\n        uint disputeID; // ID of the dispute, if any.\n        uint submissionTime; // Time when the request was made. Used to track when the challenge period ends.\n        bool resolved; // True if the request was executed and/or any disputes raised were resolved.\n        address[3] parties; // Address of requester and challenger, if any.\n        Round[] rounds; // Tracks each round of a dispute.\n        Party ruling; // The final ruling given, if any.\n        Arbitrator arbitrator; // The arbitrator trusted to solve disputes for this request.\n        bytes arbitratorExtraData; // The extra data for the trusted arbitrator of this request.\n    }\n\n    struct Round {\n        uint[3] paidFees; // Tracks the fees paid by each side on this round.\n        bool[3] hasPaid; // True when the side has fully paid its fee. False otherwise.\n        uint feeRewards; // Sum of reimbursable fees and stake rewards available to the parties that made contributions to the side that ultimately wins a dispute.\n        mapping(address => uint[3]) contributions; // Maps contributors to their contributions for each side.\n    }\n\n    /* Storage */\n\n    // Constants\n\n    uint RULING_OPTIONS = 2; // The amount of non 0 choices the arbitrator can give.\n\n    // Settings\n    address public governor; // The address that can make governance changes to the parameters of the Address Curated Registry.\n    uint public requesterBaseDeposit; // The base deposit to make a request.\n    uint public challengerBaseDeposit; // The base deposit to challenge a request.\n    uint public challengePeriodDuration; // The time before a request becomes executable if not challenged.\n    uint public metaEvidenceUpdates; // The number of times the meta evidence has been updated. Used to track the latest meta evidence ID.\n\n    // The required fee stake that a party must pay depends on who won the previous round and is proportional to the arbitration cost such that the fee stake for a round is stake multiplier * arbitration cost for that round.\n    // Multipliers are in basis points.\n    uint public winnerStakeMultiplier; // Multiplier for calculating the fee stake paid by the party that won the previous round.\n    uint public loserStakeMultiplier; // Multiplier for calculating the fee stake paid by the party that lost the previous round.\n    uint public sharedStakeMultiplier; // Multiplier for calculating the fee stake that must be paid in the case where there isn't a winner and loser (e.g. when it's the first round or the arbitrator ruled \"refused to rule\"/\"could not rule\").\n    uint public constant MULTIPLIER_DIVISOR = 10000; // Divisor parameter for multipliers.\n\n    // Registry data.\n    mapping(address => Address) public addresses; // Maps the address to the address data.\n    mapping(address => mapping(uint => address)) public arbitratorDisputeIDToAddress; // Maps a dispute ID to the address with the disputed request. On the form arbitratorDisputeIDToAddress[arbitrator][disputeID].\n    address[] public addressList; // List of submitted addresses.\n\n    /* Modifiers */\n\n    modifier onlyGovernor {require(msg.sender == governor, \"The caller must be the governor.\"); _;}\n\n    /* Events */\n\n    /**\n     *  @dev Emitted when a party submits a new address.\n     *  @param _address The address.\n     *  @param _requester The address of the party that made the request.\n     */\n    event AddressSubmitted(address indexed _address, address indexed _requester);\n\n    /** @dev Emitted when a party makes a request to change an address status.\n     *  @param _address The affected address.\n     *  @param _registrationRequest Whether the request is a registration request. False means it is a clearing request.\n     */\n    event RequestSubmitted(address indexed _address, bool _registrationRequest);\n\n    /**\n     *  @dev Emitted when a party makes a request, dispute or appeals are raised, or when a request is resolved.\n     *  @param _requester Address of the party that submitted the request.\n     *  @param _challenger Address of the party that has challenged the request, if any.\n     *  @param _address The address.\n     *  @param _status The status of the address.\n     *  @param _disputed Whether the address is disputed.\n     *  @param _appealed Whether the current round was appealed.\n     */\n    event AddressStatusChange(\n        address indexed _requester,\n        address indexed _challenger,\n        address indexed _address,\n        AddressStatus _status,\n        bool _disputed,\n        bool _appealed\n    );\n\n    /** @dev Emitted when a reimbursements and/or contribution rewards are withdrawn.\n     *  @param _address The address from which the withdrawal was made.\n     *  @param _contributor The address that sent the contribution.\n     *  @param _request The request from which the withdrawal was made.\n     *  @param _round The round from which the reward was taken.\n     *  @param _value The value of the reward.\n     */\n    event RewardWithdrawal(address indexed _address, address indexed _contributor, uint indexed _request, uint _round, uint _value);\n\n\n    /* Constructor */\n\n    /**\n     *  @dev Constructs the arbitrable token curated registry.\n     *  @param _arbitrator The trusted arbitrator to resolve potential disputes.\n     *  @param _arbitratorExtraData Extra data for the trusted arbitrator contract.\n     *  @param _registrationMetaEvidence The URI of the meta evidence object for registration requests.\n     *  @param _clearingMetaEvidence The URI of the meta evidence object for clearing requests.\n     *  @param _governor The trusted governor of this contract.\n     *  @param _requesterBaseDeposit The base deposit to make a request.\n     *  @param _challengerBaseDeposit The base deposit to challenge a request.\n     *  @param _challengePeriodDuration The time in seconds, parties have to challenge a request.\n     *  @param _sharedStakeMultiplier Multiplier of the arbitration cost that each party must pay as fee stake for a round when there isn't a winner/loser in the previous round (e.g. when it's the first round or the arbitrator refused to or did not rule). In basis points.\n     *  @param _winnerStakeMultiplier Multiplier of the arbitration cost that the winner has to pay as fee stake for a round in basis points.\n     *  @param _loserStakeMultiplier Multiplier of the arbitration cost that the loser has to pay as fee stake for a round in basis points.\n     */\n    constructor(\n        Arbitrator _arbitrator,\n        bytes _arbitratorExtraData,\n        string _registrationMetaEvidence,\n        string _clearingMetaEvidence,\n        address _governor,\n        uint _requesterBaseDeposit,\n        uint _challengerBaseDeposit,\n        uint _challengePeriodDuration,\n        uint _sharedStakeMultiplier,\n        uint _winnerStakeMultiplier,\n        uint _loserStakeMultiplier\n    ) Arbitrable(_arbitrator, _arbitratorExtraData) public {\n        emit MetaEvidence(0, _registrationMetaEvidence);\n        emit MetaEvidence(1, _clearingMetaEvidence);\n\n        governor = _governor;\n        requesterBaseDeposit = _requesterBaseDeposit;\n        challengerBaseDeposit = _challengerBaseDeposit;\n        challengePeriodDuration = _challengePeriodDuration;\n        sharedStakeMultiplier = _sharedStakeMultiplier;\n        winnerStakeMultiplier = _winnerStakeMultiplier;\n        loserStakeMultiplier = _loserStakeMultiplier;\n    }\n\n\n    /* External and Public */\n\n    // ************************ //\n    // *       Requests       * //\n    // ************************ //\n\n    /** @dev Submits a request to change an address status. Accepts enough ETH to fund a potential dispute considering the current required amount and reimburses the rest. TRUSTED.\n     *  @param _address The address.\n     */\n    function requestStatusChange(address _address)\n        external\n        payable\n    {\n        Address storage addr = addresses[_address];\n        if (addr.requests.length == 0) {\n            // Initial address registration.\n            addressList.push(_address);\n            emit AddressSubmitted(_address, msg.sender);\n        }\n\n        // Update address status.\n        if (addr.status == AddressStatus.Absent)\n            addr.status = AddressStatus.RegistrationRequested;\n        else if (addr.status == AddressStatus.Registered)\n            addr.status = AddressStatus.ClearingRequested;\n        else\n            revert(\"Address already has a pending request.\");\n\n        // Setup request.\n        Request storage request = addr.requests[addr.requests.length++];\n        request.parties[uint(Party.Requester)] = msg.sender;\n        request.submissionTime = now;\n        request.arbitrator = arbitrator;\n        request.arbitratorExtraData = arbitratorExtraData;\n        Round storage round = request.rounds[request.rounds.length++];\n\n        emit RequestSubmitted(_address, addr.status == AddressStatus.RegistrationRequested);\n\n        // Amount required to fully the requester: requesterBaseDeposit + arbitration cost + (arbitration cost * multiplier).\n        uint arbitrationCost = request.arbitrator.arbitrationCost(request.arbitratorExtraData);\n        uint totalCost = arbitrationCost.addCap((arbitrationCost.mulCap(sharedStakeMultiplier)) / MULTIPLIER_DIVISOR).addCap(requesterBaseDeposit);\n        contribute(round, Party.Requester, msg.sender, msg.value, totalCost);\n        require(round.paidFees[uint(Party.Requester)] >= totalCost, \"You must fully fund your side.\");\n        round.hasPaid[uint(Party.Requester)] = true;\n\n        emit AddressStatusChange(\n            request.parties[uint(Party.Requester)],\n            address(0x0),\n            _address,\n            addr.status,\n            false,\n            false\n        );\n    }\n\n    /** @dev Challenges the latest request of an address. Accepts enough ETH to fund a potential dispute considering the current required amount. Reimburses unused ETH. TRUSTED.\n     *  @param _address The address with the request to challenge.\n     *  @param _evidence A link to an evidence using its URI. Ignored if not provided or if not enough funds were provided to create a dispute.\n     */\n    function challengeRequest(address _address, string _evidence) external payable {\n        Address storage addr = addresses[_address];\n        require(\n            addr.status == AddressStatus.RegistrationRequested || addr.status == AddressStatus.ClearingRequested,\n            \"The address must have a pending request.\"\n        );\n        Request storage request = addr.requests[addr.requests.length - 1];\n        require(now - request.submissionTime <= challengePeriodDuration, \"Challenges must occur during the challenge period.\");\n        require(!request.disputed, \"The request should not have already been disputed.\");\n\n        // Take the deposit and save the challenger's address.\n        request.parties[uint(Party.Challenger)] = msg.sender;\n\n        Round storage round = request.rounds[request.rounds.length - 1];\n        uint arbitrationCost = request.arbitrator.arbitrationCost(request.arbitratorExtraData);\n        uint totalCost = arbitrationCost.addCap((arbitrationCost.mulCap(sharedStakeMultiplier)) / MULTIPLIER_DIVISOR).addCap(challengerBaseDeposit);\n        contribute(round, Party.Challenger, msg.sender, msg.value, totalCost);\n        require(round.paidFees[uint(Party.Challenger)] >= totalCost, \"You must fully fund your side.\");\n        round.hasPaid[uint(Party.Challenger)] = true;\n\n        // Raise a dispute.\n        request.disputeID = request.arbitrator.createDispute.value(arbitrationCost)(RULING_OPTIONS, request.arbitratorExtraData);\n        arbitratorDisputeIDToAddress[request.arbitrator][request.disputeID] = _address;\n        request.disputed = true;\n        request.rounds.length++;\n        round.feeRewards = round.feeRewards.subCap(arbitrationCost);\n\n        emit Dispute(\n            request.arbitrator,\n            request.disputeID,\n            addr.status == AddressStatus.RegistrationRequested\n                ? 2 * metaEvidenceUpdates\n                : 2 * metaEvidenceUpdates + 1,\n            uint(keccak256(abi.encodePacked(_address,addr.requests.length - 1)))\n        );\n        emit AddressStatusChange(\n            request.parties[uint(Party.Requester)],\n            request.parties[uint(Party.Challenger)],\n            _address,\n            addr.status,\n            true,\n            false\n        );\n        if (bytes(_evidence).length > 0)\n            emit Evidence(request.arbitrator, uint(keccak256(abi.encodePacked(_address,addr.requests.length - 1))), msg.sender, _evidence);\n    }\n\n    /** @dev Takes up to the total amount required to fund a side of an appeal. Reimburses the rest. Creates an appeal if both sides are fully funded. TRUSTED.\n     *  @param _address The address with the request to fund.\n     *  @param _side The recipient of the contribution.\n     */\n    function fundAppeal(address _address, Party _side) external payable {\n        // Recipient must be either the requester or challenger.\n        require(_side == Party.Requester || _side == Party.Challenger); // solium-disable-line error-reason\n        Address storage addr = addresses[_address];\n        require(\n            addr.status == AddressStatus.RegistrationRequested || addr.status == AddressStatus.ClearingRequested,\n            \"The address must have a pending request.\"\n        );\n        Request storage request = addr.requests[addr.requests.length - 1];\n        require(request.disputed, \"A dispute must have been raised to fund an appeal.\");\n        (uint appealPeriodStart, uint appealPeriodEnd) = request.arbitrator.appealPeriod(request.disputeID);\n        require(\n            now >= appealPeriodStart && now < appealPeriodEnd,\n            \"Contributions must be made within the appeal period.\"\n        );\n\n\n        // Amount required to fully fund each side: arbitration cost + (arbitration cost * multiplier)\n        Round storage round = request.rounds[request.rounds.length - 1];\n        Party winner = Party(request.arbitrator.currentRuling(request.disputeID));\n        Party loser;\n        if (winner == Party.Requester)\n            loser = Party.Challenger;\n        else if (winner == Party.Challenger)\n            loser = Party.Requester;\n        require(!(_side==loser) || (now-appealPeriodStart < (appealPeriodEnd-appealPeriodStart)/2), \"The loser must contribute during the first half of the appeal period.\");\n\n        uint multiplier;\n        if (_side == winner)\n            multiplier = winnerStakeMultiplier;\n        else if (_side == loser)\n            multiplier = loserStakeMultiplier;\n        else\n            multiplier = sharedStakeMultiplier;\n        uint appealCost = request.arbitrator.appealCost(request.disputeID, request.arbitratorExtraData);\n        uint totalCost = appealCost.addCap((appealCost.mulCap(multiplier)) / MULTIPLIER_DIVISOR);\n        contribute(round, _side, msg.sender, msg.value, totalCost);\n        if (round.paidFees[uint(_side)] >= totalCost)\n            round.hasPaid[uint(_side)] = true;\n\n        // Raise appeal if both sides are fully funded.\n        if (round.hasPaid[uint(Party.Challenger)] && round.hasPaid[uint(Party.Requester)]) {\n            request.arbitrator.appeal.value(appealCost)(request.disputeID, request.arbitratorExtraData);\n            request.rounds.length++;\n            round.feeRewards = round.feeRewards.subCap(appealCost);\n            emit AddressStatusChange(\n                request.parties[uint(Party.Requester)],\n                request.parties[uint(Party.Challenger)],\n                _address,\n                addr.status,\n                true,\n                true\n            );\n        }\n    }\n\n    /** @dev Reimburses contributions if no disputes were raised. If a dispute was raised, sends the fee stake rewards and reimbursements proportional to the contributions made to the winner of a dispute.\n     *  @param _beneficiary The address that made contributions to a request.\n     *  @param _address The address submission with the request from which to withdraw.\n     *  @param _request The request from which to withdraw.\n     *  @param _round The round from which to withdraw.\n     */\n    function withdrawFeesAndRewards(address _beneficiary, address _address, uint _request, uint _round) public {\n        Address storage addr = addresses[_address];\n        Request storage request = addr.requests[_request];\n        Round storage round = request.rounds[_round];\n        // The request must be executed and there can be no disputes pending resolution.\n        require(request.resolved); // solium-disable-line error-reason\n\n        uint reward;\n        if (!request.disputed || request.ruling == Party.None) {\n            // No disputes were raised, or there isn't a winner and loser. Reimburse unspent fees proportionally.\n            uint rewardRequester = round.paidFees[uint(Party.Requester)] > 0\n                ? (round.contributions[_beneficiary][uint(Party.Requester)] * round.feeRewards) / (round.paidFees[uint(Party.Challenger)] + round.paidFees[uint(Party.Requester)])\n                : 0;\n            uint rewardChallenger = round.paidFees[uint(Party.Challenger)] > 0\n                ? (round.contributions[_beneficiary][uint(Party.Challenger)] * round.feeRewards) / (round.paidFees[uint(Party.Challenger)] + round.paidFees[uint(Party.Requester)])\n                : 0;\n\n            reward = rewardRequester + rewardChallenger;\n            round.contributions[_beneficiary][uint(Party.Requester)] = 0;\n            round.contributions[_beneficiary][uint(Party.Challenger)] = 0;\n        } else {\n            // Reward the winner.\n            reward = round.paidFees[uint(request.ruling)] > 0\n                ? (round.contributions[_beneficiary][uint(request.ruling)] * round.feeRewards) / round.paidFees[uint(request.ruling)]\n                : 0;\n\n            round.contributions[_beneficiary][uint(request.ruling)] = 0;\n        }\n\n        emit RewardWithdrawal(_address, _beneficiary, _request, _round,  reward);\n        _beneficiary.send(reward); // It is the user responsibility to accept ETH.\n    }\n\n    /** @dev Withdraws rewards and reimbursements of multiple rounds at once. This function is O(n) where n is the number of rounds. This could exceed gas limits, therefore this function should be used only as a utility and not be relied upon by other contracts.\n     *  @param _beneficiary The address that made contributions to the request.\n     *  @param _address The address with funds to be withdrawn.\n     *  @param _request The request from which to withdraw contributions.\n     *  @param _cursor The round from where to start withdrawing.\n     *  @param _count The number of rounds to iterate. If set to 0 or a value larger than the number of rounds, iterates until the last round.\n     */\n    function batchRoundWithdraw(address _beneficiary, address _address, uint _request, uint _cursor, uint _count) public {\n        Address storage addr = addresses[_address];\n        Request storage request = addr.requests[_request];\n        for (uint i = _cursor; i<request.rounds.length && (_count==0 || i<_count); i++)\n            withdrawFeesAndRewards(_beneficiary, _address, _request, i);\n    }\n\n    /** @dev Withdraws rewards and reimbursements of multiple requests at once. This function is O(n*m) where n is the number of requests and m is the number of rounds. This could exceed gas limits, therefore this function should be used only as a utility and not be relied upon by other contracts.\n     *  @param _beneficiary The address that made contributions to the request.\n     *  @param _address The address with funds to be withdrawn.\n     *  @param _cursor The request from which to start withdrawing.\n     *  @param _count The number of requests to iterate. If set to 0 or a value larger than the number of request, iterates until the last request.\n     *  @param _roundCursor The round of each request from where to start withdrawing.\n     *  @param _roundCount The number of rounds to iterate on each request. If set to 0 or a value larger than the number of rounds a request has, iteration for that request will stop at the last round.\n     */\n    function batchRequestWithdraw(\n        address _beneficiary,\n        address _address,\n        uint _cursor,\n        uint _count,\n        uint _roundCursor,\n        uint _roundCount\n    ) external {\n        Address storage addr = addresses[_address];\n        for (uint i = _cursor; i<addr.requests.length && (_count==0 || i<_count); i++)\n            batchRoundWithdraw(_beneficiary, _address, i, _roundCursor, _roundCount);\n    }\n\n    /** @dev Executes a request if the challenge period passed and no one challenged the request.\n     *  @param _address The address with the request to execute.\n     */\n    function executeRequest(address _address) external {\n        Address storage addr = addresses[_address];\n        Request storage request = addr.requests[addr.requests.length - 1];\n        require(\n            now - request.submissionTime > challengePeriodDuration,\n            \"Time to challenge the request must have passed.\"\n        );\n        require(!request.disputed, \"The request should not be disputed.\");\n\n        if (addr.status == AddressStatus.RegistrationRequested)\n            addr.status = AddressStatus.Registered;\n        else if (addr.status == AddressStatus.ClearingRequested)\n            addr.status = AddressStatus.Absent;\n        else\n            revert(\"There must be a request.\");\n\n        request.resolved = true;\n        withdrawFeesAndRewards(request.parties[uint(Party.Requester)], _address, addr.requests.length - 1, 0); // Automatically withdraw for the requester.\n\n        emit AddressStatusChange(\n            request.parties[uint(Party.Requester)],\n            address(0x0),\n            _address,\n            addr.status,\n            false,\n            false\n        );\n    }\n\n    /** @dev Give a ruling for a dispute. Can only be called by the arbitrator. TRUSTED.\n     *  Overrides parent function to account for the situation where the winner loses a case due to paying less appeal fees than expected.\n     *  @param _disputeID ID of the dispute in the arbitrator contract.\n     *  @param _ruling Ruling given by the arbitrator. Note that 0 is reserved for \"Not able/wanting to make a decision\".\n     */\n    function rule(uint _disputeID, uint _ruling) public {\n        Party resultRuling = Party(_ruling);\n        address _address = arbitratorDisputeIDToAddress[msg.sender][_disputeID];\n        Address storage addr = addresses[_address];\n        Request storage request = addr.requests[addr.requests.length - 1];\n        Round storage round = request.rounds[request.rounds.length - 1];\n        require(_ruling <= RULING_OPTIONS); // solium-disable-line error-reason\n        require(request.arbitrator == msg.sender); // solium-disable-line error-reason\n        require(!request.resolved); // solium-disable-line error-reason\n\n        // The ruling is inverted if the loser paid its fees.\n        if (round.hasPaid[uint(Party.Requester)] == true) // If one side paid its fees, the ruling is in its favor. Note that if the other side had also paid, an appeal would have been created.\n            resultRuling = Party.Requester;\n        else if (round.hasPaid[uint(Party.Challenger)] == true)\n            resultRuling = Party.Challenger;\n\n        emit Ruling(Arbitrator(msg.sender), _disputeID, uint(resultRuling));\n        executeRuling(_disputeID, uint(resultRuling));\n    }\n\n    /** @dev Submit a reference to evidence. EVENT.\n     *  @param _evidence A link to an evidence using its URI.\n     */\n    function submitEvidence(address _address, string _evidence) external {\n        Address storage addr = addresses[_address];\n        Request storage request = addr.requests[addr.requests.length - 1];\n        require(!request.resolved, \"The dispute must not already be resolved.\");\n\n        emit Evidence(request.arbitrator, uint(keccak256(abi.encodePacked(_address,addr.requests.length - 1))), msg.sender, _evidence);\n    }\n\n    // ************************ //\n    // *      Governance      * //\n    // ************************ //\n\n    /** @dev Change the duration of the challenge period.\n     *  @param _challengePeriodDuration The new duration of the challenge period.\n     */\n    function changeTimeToChallenge(uint _challengePeriodDuration) external onlyGovernor {\n        challengePeriodDuration = _challengePeriodDuration;\n    }\n\n    /** @dev Change the base amount required as a deposit to make a request.\n     *  @param _requesterBaseDeposit The new base amount of wei required to make a request.\n     */\n    function changeRequesterBaseDeposit(uint _requesterBaseDeposit) external onlyGovernor {\n        requesterBaseDeposit = _requesterBaseDeposit;\n    }\n\n    /** @dev Change the base amount required as a deposit to challenge a request.\n     *  @param _challengerBaseDeposit The new base amount of wei required to challenge a request.\n     */\n    function changeChallengerBaseDeposit(uint _challengerBaseDeposit) external onlyGovernor {\n        challengerBaseDeposit = _challengerBaseDeposit;\n    }\n\n    /** @dev Change the governor of the token curated registry.\n     *  @param _governor The address of the new governor.\n     */\n    function changeGovernor(address _governor) external onlyGovernor {\n        governor = _governor;\n    }\n\n    /** @dev Change the percentage of arbitration fees that must be paid as fee stake by parties when there isn't a winner or loser.\n     *  @param _sharedStakeMultiplier Multiplier of arbitration fees that must be paid as fee stake. In basis points.\n     */\n    function changeSharedStakeMultiplier(uint _sharedStakeMultiplier) external onlyGovernor {\n        sharedStakeMultiplier = _sharedStakeMultiplier;\n    }\n\n    /** @dev Change the percentage of arbitration fees that must be paid as fee stake by the winner of the previous round.\n     *  @param _winnerStakeMultiplier Multiplier of arbitration fees that must be paid as fee stake. In basis points.\n     */\n    function changeWinnerStakeMultiplier(uint _winnerStakeMultiplier) external onlyGovernor {\n        winnerStakeMultiplier = _winnerStakeMultiplier;\n    }\n\n    /** @dev Change the percentage of arbitration fees that must be paid as fee stake by the party that lost the previous round.\n     *  @param _loserStakeMultiplier Multiplier of arbitration fees that must be paid as fee stake. In basis points.\n     */\n    function changeLoserStakeMultiplier(uint _loserStakeMultiplier) external onlyGovernor {\n        loserStakeMultiplier = _loserStakeMultiplier;\n    }\n\n    /** @dev Change the arbitrator to be used for disputes that may be raised in the next requests. The arbitrator is trusted to support appeal periods and not reenter.\n     *  @param _arbitrator The new trusted arbitrator to be used in the next requests.\n     *  @param _arbitratorExtraData The extra data used by the new arbitrator.\n     */\n    function changeArbitrator(Arbitrator _arbitrator, bytes _arbitratorExtraData) external onlyGovernor {\n        arbitrator = _arbitrator;\n        arbitratorExtraData = _arbitratorExtraData;\n    }\n\n    /** @dev Update the meta evidence used for disputes.\n     *  @param _registrationMetaEvidence The meta evidence to be used for future registration request disputes.\n     *  @param _clearingMetaEvidence The meta evidence to be used for future clearing request disputes.\n     */\n    function changeMetaEvidence(string _registrationMetaEvidence, string _clearingMetaEvidence) external onlyGovernor {\n        metaEvidenceUpdates++;\n        emit MetaEvidence(2 * metaEvidenceUpdates, _registrationMetaEvidence);\n        emit MetaEvidence(2 * metaEvidenceUpdates + 1, _clearingMetaEvidence);\n    }\n\n\n    /* Internal */\n\n    /** @dev Returns the contribution value and remainder from available ETH and required amount.\n     *  @param _available The amount of ETH available for the contribution.\n     *  @param _requiredAmount The amount of ETH required for the contribution.\n     *  @return taken The amount of ETH taken.\n     *  @return remainder The amount of ETH left from the contribution.\n     */\n    function calculateContribution(uint _available, uint _requiredAmount)\n        internal\n        pure\n        returns(uint taken, uint remainder)\n    {\n        if (_requiredAmount > _available)\n            return (_available, 0); // Take whatever is available, return 0 as leftover ETH.\n\n        remainder = _available - _requiredAmount;\n        return (_requiredAmount, remainder);\n    }\n\n    /** @dev Make a fee contribution.\n     *  @param _round The round to contribute.\n     *  @param _side The side for which to contribute.\n     *  @param _contributor The contributor.\n     *  @param _amount The amount contributed.\n     *  @param _totalRequired The total amount required for this side.\n     */\n    function contribute(Round storage _round, Party _side, address _contributor, uint _amount, uint _totalRequired) internal {\n        // Take up to the amount necessary to fund the current round at the current costs.\n        uint contribution; // Amount contributed.\n        uint remainingETH; // Remaining ETH to send back.\n        (contribution, remainingETH) = calculateContribution(_amount, _totalRequired.subCap(_round.paidFees[uint(_side)]));\n        _round.contributions[_contributor][uint(_side)] += contribution;\n        _round.paidFees[uint(_side)] += contribution;\n        _round.feeRewards += contribution;\n\n        // Reimburse leftover ETH.\n        _contributor.send(remainingETH); // Deliberate use of send in order to not block the contract in case of reverting fallback.\n    }\n\n    /** @dev Execute the ruling of a dispute.\n     *  @param _disputeID ID of the dispute in the Arbitrator contract.\n     *  @param _ruling Ruling given by the arbitrator. Note that 0 is reserved for \"Not able/wanting to make a decision\".\n     */\n    function executeRuling(uint _disputeID, uint _ruling) internal {\n        address _address = arbitratorDisputeIDToAddress[msg.sender][_disputeID];\n        Address storage addr = addresses[_address];\n        Request storage request = addr.requests[addr.requests.length - 1];\n\n        Party winner = Party(_ruling);\n\n        // Update address state\n        if (winner == Party.Requester) { // Execute Request\n            if (addr.status == AddressStatus.RegistrationRequested)\n                addr.status = AddressStatus.Registered;\n            else\n                addr.status = AddressStatus.Absent;\n        } else { // Revert to previous state.\n            if (addr.status == AddressStatus.RegistrationRequested)\n                addr.status = AddressStatus.Absent;\n            else if (addr.status == AddressStatus.ClearingRequested)\n                addr.status = AddressStatus.Registered;\n        }\n\n        request.resolved = true;\n        request.ruling = Party(_ruling);\n        // Automatically withdraw.\n        if (winner == Party.None) {\n            withdrawFeesAndRewards(request.parties[uint(Party.Requester)], _address, addr.requests.length-1, 0);\n            withdrawFeesAndRewards(request.parties[uint(Party.Challenger)], _address, addr.requests.length-1, 0);\n        } else {\n            withdrawFeesAndRewards(request.parties[uint(winner)], _address, addr.requests.length-1, 0);\n        }\n\n        emit AddressStatusChange(\n            request.parties[uint(Party.Requester)],\n            request.parties[uint(Party.Challenger)],\n            _address,\n            addr.status,\n            request.disputed,\n            false\n        );\n    }\n\n\n    /* Views */\n\n    /** @dev Return true if the address is on the list.\n     *  @param _address The address to be queried.\n     *  @return allowed True if the address is allowed, false otherwise.\n     */\n    function isPermitted(bytes32 _address) external view returns (bool allowed) {\n        Address storage addr = addresses[address(_address)];\n        return addr.status == AddressStatus.Registered || addr.status == AddressStatus.ClearingRequested;\n    }\n\n\n    /* Interface Views */\n\n    /** @dev Return the sum of withdrawable wei of a request an account is entitled to. This function is O(n), where n is the number of rounds of the request. This could exceed the gas limit, therefore this function should only be used for interface display and not by other contracts.\n     *  @param _address The address to query.\n     *  @param _beneficiary The contributor for which to query.\n     *  @param _request The request from which to query for.\n     *  @return The total amount of wei available to withdraw.\n     */\n    function amountWithdrawable(address _address, address _beneficiary, uint _request) external view returns (uint total){\n        Request storage request = addresses[_address].requests[_request];\n        if (!request.resolved) return total;\n\n        for (uint i = 0; i < request.rounds.length; i++) {\n            Round storage round = request.rounds[i];\n            if (!request.disputed || request.ruling == Party.None) {\n                uint rewardRequester = round.paidFees[uint(Party.Requester)] > 0\n                    ? (round.contributions[_beneficiary][uint(Party.Requester)] * round.feeRewards) / (round.paidFees[uint(Party.Requester)] + round.paidFees[uint(Party.Challenger)])\n                    : 0;\n                uint rewardChallenger = round.paidFees[uint(Party.Challenger)] > 0\n                    ? (round.contributions[_beneficiary][uint(Party.Challenger)] * round.feeRewards) / (round.paidFees[uint(Party.Requester)] + round.paidFees[uint(Party.Challenger)])\n                    : 0;\n\n                total += rewardRequester + rewardChallenger;\n            } else {\n                total += round.paidFees[uint(request.ruling)] > 0\n                    ? (round.contributions[_beneficiary][uint(request.ruling)] * round.feeRewards) / round.paidFees[uint(request.ruling)]\n                    : 0;\n            }\n        }\n\n        return total;\n    }\n\n    /** @dev Return the numbers of addresses that were submitted. Includes addresses that never made it to the list or were later removed.\n     *  @return count The numbers of addresses in the list.\n     */\n    function addressCount() external view returns (uint count) {\n        return addressList.length;\n    }\n\n    /** @dev Return the numbers of addresses with each status. This function is O(n), where n is the number of addresses. This could exceed the gas limit, therefore this function should only be used for interface display and not by other contracts.\n     *  @return The numbers of addresses in the list per status.\n     */\n    function countByStatus()\n        external\n        view\n        returns (\n            uint absent,\n            uint registered,\n            uint registrationRequest,\n            uint clearingRequest,\n            uint challengedRegistrationRequest,\n            uint challengedClearingRequest\n        )\n    {\n        for (uint i = 0; i < addressList.length; i++) {\n            Address storage addr = addresses[addressList[i]];\n            Request storage request = addr.requests[addr.requests.length - 1];\n\n            if (addr.status == AddressStatus.Absent) absent++;\n            else if (addr.status == AddressStatus.Registered) registered++;\n            else if (addr.status == AddressStatus.RegistrationRequested && !request.disputed) registrationRequest++;\n            else if (addr.status == AddressStatus.ClearingRequested && !request.disputed) clearingRequest++;\n            else if (addr.status == AddressStatus.RegistrationRequested && request.disputed) challengedRegistrationRequest++;\n            else if (addr.status == AddressStatus.ClearingRequested && request.disputed) challengedClearingRequest++;\n        }\n    }\n\n    /** @dev Return the values of the addresses the query finds. This function is O(n), where n is the number of addresses. This could exceed the gas limit, therefore this function should only be used for interface display and not by other contracts.\n     *  @param _cursor The address from which to start iterating. To start from either the oldest or newest item.\n     *  @param _count The number of addresses to return.\n     *  @param _filter The filter to use. Each element of the array in sequence means:\n     *  - Include absent addresses in result.\n     *  - Include registered addresses in result.\n     *  - Include addresses with registration requests that are not disputed in result.\n     *  - Include addresses with clearing requests that are not disputed in result.\n     *  - Include disputed addresses with registration requests in result.\n     *  - Include disputed addresses with clearing requests in result.\n     *  - Include addresses submitted by the caller.\n     *  - Include addresses challenged by the caller.\n     *  @param _oldestFirst Whether to sort from oldest to the newest item.\n     *  @return The values of the addresses found and whether there are more addresses for the current filter and sort.\n     */\n    function queryAddresses(address _cursor, uint _count, bool[8] _filter, bool _oldestFirst)\n        external\n        view\n        returns (address[] values, bool hasMore)\n    {\n        uint cursorIndex;\n        values = new address[](_count);\n        uint index = 0;\n\n        if (_cursor == 0)\n            cursorIndex = 0;\n        else {\n            for (uint j = 0; j < addressList.length; j++) {\n                if (addressList[j] == _cursor) {\n                    cursorIndex = j;\n                    break;\n                }\n            }\n            require(cursorIndex != 0, \"The cursor is invalid.\");\n        }\n\n        for (\n                uint i = cursorIndex == 0 ? (_oldestFirst ? 0 : 1) : (_oldestFirst ? cursorIndex + 1 : addressList.length - cursorIndex + 1);\n                _oldestFirst ? i < addressList.length : i <= addressList.length;\n                i++\n            ) { // Oldest or newest first.\n            Address storage addr = addresses[addressList[_oldestFirst ? i : addressList.length - i]];\n            Request storage request = addr.requests[addr.requests.length - 1];\n            if (\n                /* solium-disable operator-whitespace */\n                (_filter[0] && addr.status == AddressStatus.Absent) ||\n                (_filter[1] && addr.status == AddressStatus.Registered) ||\n                (_filter[2] && addr.status == AddressStatus.RegistrationRequested && !request.disputed) ||\n                (_filter[3] && addr.status == AddressStatus.ClearingRequested && !request.disputed) ||\n                (_filter[4] && addr.status == AddressStatus.RegistrationRequested && request.disputed) ||\n                (_filter[5] && addr.status == AddressStatus.ClearingRequested && request.disputed) ||\n                (_filter[6] && request.parties[uint(Party.Requester)] == msg.sender) || // My Submissions.\n                (_filter[7] && request.parties[uint(Party.Challenger)] == msg.sender) // My Challenges.\n                /* solium-enable operator-whitespace */\n            ) {\n                if (index < _count) {\n                    values[index] = addressList[_oldestFirst ? i : addressList.length - i];\n                    index++;\n                } else {\n                    hasMore = true;\n                    break;\n                }\n            }\n        }\n    }\n\n    /** @dev Gets the contributions made by a party for a given round of a request.\n     *  @param _address The address.\n     *  @param _request The position of the request.\n     *  @param _round The position of the round.\n     *  @param _contributor The address of the contributor.\n     *  @return The contributions.\n     */\n    function getContributions(\n        address _address,\n        uint _request,\n        uint _round,\n        address _contributor\n    ) external view returns(uint[3] contributions) {\n        Address storage addr = addresses[_address];\n        Request storage request = addr.requests[_request];\n        Round storage round = request.rounds[_round];\n        contributions = round.contributions[_contributor];\n    }\n\n    /** @dev Returns address information. Includes length of requests array.\n     *  @param _address The queried address.\n     *  @return The address information.\n     */\n    function getAddressInfo(address _address)\n        external\n        view\n        returns (\n            AddressStatus status,\n            uint numberOfRequests\n        )\n    {\n        Address storage addr = addresses[_address];\n        return (\n            addr.status,\n            addr.requests.length\n        );\n    }\n\n    /** @dev Gets information on a request made for an address.\n     *  @param _address The queried address.\n     *  @param _request The request to be queried.\n     *  @return The request information.\n     */\n    function getRequestInfo(address _address, uint _request)\n        external\n        view\n        returns (\n            bool disputed,\n            uint disputeID,\n            uint submissionTime,\n            bool resolved,\n            address[3] parties,\n            uint numberOfRounds,\n            Party ruling,\n            Arbitrator arbitrator,\n            bytes arbitratorExtraData\n        )\n    {\n        Request storage request = addresses[_address].requests[_request];\n        return (\n            request.disputed,\n            request.disputeID,\n            request.submissionTime,\n            request.resolved,\n            request.parties,\n            request.rounds.length,\n            request.ruling,\n            request.arbitrator,\n            request.arbitratorExtraData\n        );\n    }\n\n    /** @dev Gets the information on a round of a request.\n     *  @param _address The queried address.\n     *  @param _request The request to be queried.\n     *  @param _round The round to be queried.\n     *  @return The round information.\n     */\n    function getRoundInfo(address _address, uint _request, uint _round)\n        external\n        view\n        returns (\n            bool appealed,\n            uint[3] paidFees,\n            bool[3] hasPaid,\n            uint feeRewards\n        )\n    {\n        Address storage addr = addresses[_address];\n        Request storage request = addr.requests[_request];\n        Round storage round = request.rounds[_round];\n        return (\n            _round != (request.rounds.length-1),\n            round.paidFees,\n            round.hasPaid,\n            round.feeRewards\n        );\n    }\n}\n",
  "sourcePath": "/home/rigel/Documents/kleros/kleros-interaction/contracts/standard/permission/ArbitrableAddressList.sol",
  "compiler": {
    "name": "solc",
    "version": "0.4.24+commit.e67f0147.Emscripten.clang"
  },
  "schemaVersion": "2.0.1",
  "updatedAt": "2019-02-28T18:03:47.517Z"
}