{
  "contractName": "ArbitrableTokenList",
  "abi": [
    {
      "constant": true,
      "inputs": [],
      "name": "timeToChallenge",
      "outputs": [
        {
          "name": "",
          "type": "uint256"
        }
      ],
      "payable": false,
      "stateMutability": "view",
      "type": "function"
    },
    {
      "constant": true,
      "inputs": [
        {
          "name": "_agreementID",
          "type": "bytes32"
        }
      ],
      "name": "getFeesInfo",
      "outputs": [
        {
          "name": "ruling",
          "type": "uint256[]"
        },
        {
          "name": "_stake",
          "type": "uint256[]"
        },
        {
          "name": "totalValue",
          "type": "uint256[]"
        },
        {
          "name": "totalContributedPerSide",
          "type": "uint256[2][]"
        },
        {
          "name": "loserFullyFunded",
          "type": "bool[]"
        }
      ],
      "payable": false,
      "stateMutability": "view",
      "type": "function"
    },
    {
      "constant": true,
      "inputs": [],
      "name": "arbitratorExtraData",
      "outputs": [
        {
          "name": "",
          "type": "bytes"
        }
      ],
      "payable": false,
      "stateMutability": "view",
      "type": "function"
    },
    {
      "constant": true,
      "inputs": [
        {
          "name": "",
          "type": "bytes32"
        }
      ],
      "name": "paidFees",
      "outputs": [
        {
          "name": "firstContributionTime",
          "type": "uint256"
        }
      ],
      "payable": false,
      "stateMutability": "view",
      "type": "function"
    },
    {
      "constant": false,
      "inputs": [
        {
          "name": "_agreementID",
          "type": "bytes32"
        },
        {
          "name": "_round",
          "type": "uint256"
        }
      ],
      "name": "withdrawReward",
      "outputs": [],
      "payable": false,
      "stateMutability": "nonpayable",
      "type": "function"
    },
    {
      "constant": false,
      "inputs": [
        {
          "name": "_disputeID",
          "type": "uint256"
        },
        {
          "name": "_ruling",
          "type": "uint256"
        }
      ],
      "name": "rule",
      "outputs": [],
      "payable": false,
      "stateMutability": "nonpayable",
      "type": "function"
    },
    {
      "constant": true,
      "inputs": [],
      "name": "stake",
      "outputs": [
        {
          "name": "",
          "type": "uint256"
        }
      ],
      "payable": false,
      "stateMutability": "view",
      "type": "function"
    },
    {
      "constant": true,
      "inputs": [],
      "name": "challengeReward",
      "outputs": [
        {
          "name": "",
          "type": "uint256"
        }
      ],
      "payable": false,
      "stateMutability": "view",
      "type": "function"
    },
    {
      "constant": true,
      "inputs": [
        {
          "name": "",
          "type": "bytes32"
        }
      ],
      "name": "items",
      "outputs": [
        {
          "name": "status",
          "type": "uint8"
        },
        {
          "name": "lastAction",
          "type": "uint256"
        },
        {
          "name": "balance",
          "type": "uint256"
        },
        {
          "name": "challengeReward",
          "type": "uint256"
        },
        {
          "name": "latestAgreementID",
          "type": "bytes32"
        }
      ],
      "payable": false,
      "stateMutability": "view",
      "type": "function"
    },
    {
      "constant": true,
      "inputs": [],
      "name": "feeGovernor",
      "outputs": [
        {
          "name": "",
          "type": "address"
        }
      ],
      "payable": false,
      "stateMutability": "view",
      "type": "function"
    },
    {
      "constant": true,
      "inputs": [],
      "name": "t2clGovernor",
      "outputs": [
        {
          "name": "",
          "type": "address"
        }
      ],
      "payable": false,
      "stateMutability": "view",
      "type": "function"
    },
    {
      "constant": true,
      "inputs": [],
      "name": "arbitrator",
      "outputs": [
        {
          "name": "",
          "type": "address"
        }
      ],
      "payable": false,
      "stateMutability": "view",
      "type": "function"
    },
    {
      "constant": true,
      "inputs": [],
      "name": "fundDisputeCache",
      "outputs": [
        {
          "name": "cost",
          "type": "uint256"
        },
        {
          "name": "appealing",
          "type": "bool"
        },
        {
          "name": "appealPeriodStart",
          "type": "uint256"
        },
        {
          "name": "appealPeriodEnd",
          "type": "uint256"
        },
        {
          "name": "appealPeriodSupported",
          "type": "bool"
        },
        {
          "name": "requiredValueForSide",
          "type": "uint256"
        },
        {
          "name": "expectedValue",
          "type": "uint256"
        },
        {
          "name": "stillRequiredValueForSide",
          "type": "uint256"
        },
        {
          "name": "keptValue",
          "type": "uint256"
        },
        {
          "name": "refundedValue",
          "type": "uint256"
        }
      ],
      "payable": false,
      "stateMutability": "view",
      "type": "function"
    },
    {
      "constant": true,
      "inputs": [
        {
          "name": "_agreementID",
          "type": "bytes32"
        },
        {
          "name": "_round",
          "type": "uint256"
        },
        {
          "name": "_contributor",
          "type": "address"
        }
      ],
      "name": "getContributions",
      "outputs": [
        {
          "name": "contributions",
          "type": "uint256[2]"
        }
      ],
      "payable": false,
      "stateMutability": "view",
      "type": "function"
    },
    {
      "constant": true,
      "inputs": [
        {
          "name": "",
          "type": "bytes32"
        }
      ],
      "name": "agreements",
      "outputs": [
        {
          "name": "creator",
          "type": "address"
        },
        {
          "name": "numberOfChoices",
          "type": "uint256"
        },
        {
          "name": "extraData",
          "type": "bytes"
        },
        {
          "name": "arbitrationFeesWaitingTime",
          "type": "uint256"
        },
        {
          "name": "arbitrator",
          "type": "address"
        },
        {
          "name": "disputeID",
          "type": "uint256"
        },
        {
          "name": "disputed",
          "type": "bool"
        },
        {
          "name": "appealed",
          "type": "bool"
        },
        {
          "name": "ruling",
          "type": "uint256"
        },
        {
          "name": "executed",
          "type": "bool"
        }
      ],
      "payable": false,
      "stateMutability": "view",
      "type": "function"
    },
    {
      "constant": true,
      "inputs": [
        {
          "name": "",
          "type": "uint256"
        }
      ],
      "name": "itemsList",
      "outputs": [
        {
          "name": "",
          "type": "bytes32"
        }
      ],
      "payable": false,
      "stateMutability": "view",
      "type": "function"
    },
    {
      "constant": true,
      "inputs": [
        {
          "name": "",
          "type": "address"
        },
        {
          "name": "",
          "type": "uint256"
        }
      ],
      "name": "arbitratorAndDisputeIDToAgreementID",
      "outputs": [
        {
          "name": "",
          "type": "bytes32"
        }
      ],
      "payable": false,
      "stateMutability": "view",
      "type": "function"
    },
    {
      "constant": true,
      "inputs": [],
      "name": "arbitrationFeesWaitingTime",
      "outputs": [
        {
          "name": "",
          "type": "uint256"
        }
      ],
      "payable": false,
      "stateMutability": "view",
      "type": "function"
    },
    {
      "constant": false,
      "inputs": [
        {
          "name": "_feeGovernor",
          "type": "address"
        }
      ],
      "name": "changeFeeGovernor",
      "outputs": [],
      "payable": false,
      "stateMutability": "nonpayable",
      "type": "function"
    },
    {
      "constant": true,
      "inputs": [
        {
          "name": "_agreementID",
          "type": "bytes32"
        }
      ],
      "name": "getAgreementInfo",
      "outputs": [
        {
          "name": "creator",
          "type": "address"
        },
        {
          "name": "parties",
          "type": "address[]"
        },
        {
          "name": "numberOfChoices",
          "type": "uint256"
        },
        {
          "name": "extraData",
          "type": "bytes"
        },
        {
          "name": "arbitrationFeesWaitingTime",
          "type": "uint256"
        },
        {
          "name": "arbitrator",
          "type": "address"
        },
        {
          "name": "disputeID",
          "type": "uint256"
        },
        {
          "name": "disputed",
          "type": "bool"
        },
        {
          "name": "appealed",
          "type": "bool"
        },
        {
          "name": "ruling",
          "type": "uint256"
        },
        {
          "name": "executed",
          "type": "bool"
        }
      ],
      "payable": false,
      "stateMutability": "view",
      "type": "function"
    },
    {
      "constant": true,
      "inputs": [
        {
          "name": "",
          "type": "bytes32"
        }
      ],
      "name": "agreementIDToItemID",
      "outputs": [
        {
          "name": "",
          "type": "bytes32"
        }
      ],
      "payable": false,
      "stateMutability": "view",
      "type": "function"
    },
    {
      "constant": false,
      "inputs": [
        {
          "name": "_agreementID",
          "type": "bytes32"
        },
        {
          "name": "_evidence",
          "type": "string"
        }
      ],
      "name": "submitEvidence",
      "outputs": [],
      "payable": false,
      "stateMutability": "nonpayable",
      "type": "function"
    },
    {
      "constant": false,
      "inputs": [
        {
          "name": "_stake",
          "type": "uint256"
        }
      ],
      "name": "changeStake",
      "outputs": [],
      "payable": false,
      "stateMutability": "nonpayable",
      "type": "function"
    },
    {
      "inputs": [
        {
          "name": "_arbitrator",
          "type": "address"
        },
        {
          "name": "_arbitratorExtraData",
          "type": "bytes"
        },
        {
          "name": "_feeGovernor",
          "type": "address"
        },
        {
          "name": "_stake",
          "type": "uint256"
        },
        {
          "name": "_t2clGovernor",
          "type": "address"
        },
        {
          "name": "_arbitrationFeesWaitingTime",
          "type": "uint256"
        },
        {
          "name": "_challengeReward",
          "type": "uint256"
        },
        {
          "name": "_timeToChallenge",
          "type": "uint256"
        }
      ],
      "payable": false,
      "stateMutability": "nonpayable",
      "type": "constructor"
    },
    {
      "anonymous": false,
      "inputs": [
        {
          "indexed": true,
          "name": "requester",
          "type": "address"
        },
        {
          "indexed": true,
          "name": "challenger",
          "type": "address"
        },
        {
          "indexed": true,
          "name": "tokenID",
          "type": "bytes32"
        },
        {
          "indexed": false,
          "name": "status",
          "type": "uint8"
        },
        {
          "indexed": false,
          "name": "disputed",
          "type": "bool"
        }
      ],
      "name": "ItemStatusChange",
      "type": "event"
    },
    {
      "anonymous": false,
      "inputs": [
        {
          "indexed": true,
          "name": "_agreementID",
          "type": "bytes32"
        },
        {
          "indexed": true,
          "name": "_round",
          "type": "uint256"
        },
        {
          "indexed": true,
          "name": "_contributor",
          "type": "address"
        },
        {
          "indexed": false,
          "name": "_value",
          "type": "uint256"
        }
      ],
      "name": "Contribution",
      "type": "event"
    },
    {
      "anonymous": false,
      "inputs": [
        {
          "indexed": true,
          "name": "_agreementID",
          "type": "bytes32"
        },
        {
          "indexed": true,
          "name": "_round",
          "type": "uint256"
        },
        {
          "indexed": true,
          "name": "_contributor",
          "type": "address"
        },
        {
          "indexed": false,
          "name": "_value",
          "type": "uint256"
        }
      ],
      "name": "RewardWithdrawal",
      "type": "event"
    },
    {
      "anonymous": false,
      "inputs": [
        {
          "indexed": true,
          "name": "_metaEvidenceID",
          "type": "uint256"
        },
        {
          "indexed": false,
          "name": "_evidence",
          "type": "string"
        }
      ],
      "name": "MetaEvidence",
      "type": "event"
    },
    {
      "anonymous": false,
      "inputs": [
        {
          "indexed": true,
          "name": "_arbitrator",
          "type": "address"
        },
        {
          "indexed": true,
          "name": "_disputeID",
          "type": "uint256"
        },
        {
          "indexed": false,
          "name": "_metaEvidenceID",
          "type": "uint256"
        }
      ],
      "name": "Dispute",
      "type": "event"
    },
    {
      "anonymous": false,
      "inputs": [
        {
          "indexed": true,
          "name": "_arbitrator",
          "type": "address"
        },
        {
          "indexed": true,
          "name": "_disputeID",
          "type": "uint256"
        },
        {
          "indexed": true,
          "name": "_party",
          "type": "address"
        },
        {
          "indexed": false,
          "name": "_evidence",
          "type": "string"
        }
      ],
      "name": "Evidence",
      "type": "event"
    },
    {
      "anonymous": false,
      "inputs": [
        {
          "indexed": true,
          "name": "_arbitrator",
          "type": "address"
        },
        {
          "indexed": true,
          "name": "_disputeID",
          "type": "uint256"
        },
        {
          "indexed": false,
          "name": "_ruling",
          "type": "uint256"
        }
      ],
      "name": "Ruling",
      "type": "event"
    },
    {
      "constant": false,
      "inputs": [
        {
          "name": "_tokenID",
          "type": "bytes32"
        },
        {
          "name": "_metaEvidence",
          "type": "string"
        }
      ],
      "name": "requestRegistration",
      "outputs": [],
      "payable": true,
      "stateMutability": "payable",
      "type": "function"
    },
    {
      "constant": false,
      "inputs": [
        {
          "name": "_tokenID",
          "type": "bytes32"
        },
        {
          "name": "_metaEvidence",
          "type": "string"
        }
      ],
      "name": "requestClearing",
      "outputs": [],
      "payable": true,
      "stateMutability": "payable",
      "type": "function"
    },
    {
      "constant": false,
      "inputs": [
        {
          "name": "_agreementID",
          "type": "bytes32"
        },
        {
          "name": "_side",
          "type": "uint256"
        }
      ],
      "name": "fundDispute",
      "outputs": [],
      "payable": true,
      "stateMutability": "payable",
      "type": "function"
    },
    {
      "constant": false,
      "inputs": [
        {
          "name": "_tokenID",
          "type": "bytes32"
        }
      ],
      "name": "executeRequest",
      "outputs": [],
      "payable": false,
      "stateMutability": "nonpayable",
      "type": "function"
    },
    {
      "constant": false,
      "inputs": [
        {
          "name": "_timeToChallenge",
          "type": "uint256"
        }
      ],
      "name": "changeTimeToChallenge",
      "outputs": [],
      "payable": false,
      "stateMutability": "nonpayable",
      "type": "function"
    },
    {
      "constant": false,
      "inputs": [
        {
          "name": "_challengeReward",
          "type": "uint256"
        }
      ],
      "name": "changeChallengeReward",
      "outputs": [],
      "payable": false,
      "stateMutability": "nonpayable",
      "type": "function"
    },
    {
      "constant": false,
      "inputs": [
        {
          "name": "_t2clGovernor",
          "type": "address"
        }
      ],
      "name": "changeT2CLGovernor",
      "outputs": [],
      "payable": false,
      "stateMutability": "nonpayable",
      "type": "function"
    },
    {
      "constant": false,
      "inputs": [
        {
          "name": "_arbitrationFeesWaitingTime",
          "type": "uint256"
        }
      ],
      "name": "changeArbitrationFeesWaitingTime",
      "outputs": [],
      "payable": false,
      "stateMutability": "nonpayable",
      "type": "function"
    },
    {
      "constant": true,
      "inputs": [
        {
          "name": "_tokenID",
          "type": "bytes32"
        }
      ],
      "name": "isPermitted",
      "outputs": [
        {
          "name": "allowed",
          "type": "bool"
        }
      ],
      "payable": false,
      "stateMutability": "view",
      "type": "function"
    },
    {
      "constant": true,
      "inputs": [],
      "name": "itemsCounts",
      "outputs": [
        {
          "name": "disputed",
          "type": "uint256"
        },
        {
          "name": "absent",
          "type": "uint256"
        },
        {
          "name": "cleared",
          "type": "uint256"
        },
        {
          "name": "resubmitted",
          "type": "uint256"
        },
        {
          "name": "submitted",
          "type": "uint256"
        },
        {
          "name": "clearingRequested",
          "type": "uint256"
        },
        {
          "name": "preventiveClearingRequested",
          "type": "uint256"
        }
      ],
      "payable": false,
      "stateMutability": "view",
      "type": "function"
    },
    {
      "constant": true,
      "inputs": [
        {
          "name": "_cursor",
          "type": "bytes32"
        },
        {
          "name": "_count",
          "type": "uint256"
        },
        {
          "name": "_filter",
          "type": "bool[13]"
        },
        {
          "name": "_sort",
          "type": "bool"
        }
      ],
      "name": "queryItems",
      "outputs": [
        {
          "name": "values",
          "type": "bytes32[]"
        },
        {
          "name": "hasMore",
          "type": "bool"
        }
      ],
      "payable": false,
      "stateMutability": "view",
      "type": "function"
    }
  ],
  "bytecode": "0x60806040523480156200001157600080fd5b5060405162004fb838038062004fb88339810160409081528151602080840151928401516060850151608086015160a087015160c088015160e089015160008054600160a060020a031916600160a060020a038a1617905597909801805196989097949693959294919390928991899189918991839183918791879183918391620000a291600191840190620000fc565b505060048054600160a060020a03968716600160a060020a03199182161790915560059490945550505060119790975560129590955550506014805496909316959093169490941790555060135550620001a19350505050565b828054600181600116156101000203166002900490600052602060002090601f016020900481019282601f106200013f57805160ff19168380011785556200016f565b828001600101855582156200016f579182015b828111156200016f57825182559160200191906001019062000152565b506200017d92915062000181565b5090565b6200019e91905b808211156200017d576000815560010162000188565b90565b614e0780620001b16000396000f3006080604052600436106101ab5763ffffffff7c01000000000000000000000000000000000000000000000000000000006000350416630689d0ff81146101b05780630b3b430d146101d75780630c7ac7b61461037057806313ba2580146103fa57806313c2677a146104145780631961097b1461042c5780631d08991b14610447578063311a6c561461045f5780633a4b66f11461047a5780633ea0c15e1461048f57806348f343f3146104a45780634f4e1d89146104fc578063660f08e81461052d5780636c18bb5b146105425780636cc6cde1146105505780637f854a361461056557806381a1fa02146105ca578063862c8ddd146106175780638fba7fc3146106995780638fee5e06146106ba5780639e1f68c71461071c578063a8b7dcf814610806578063beabdb7b1461081d578063c2bd9d9514610849578063d36fdb1814610861578063d7baa83d14610879578063d987adf41461089d578063dcd8888b146108b2578063e9c24166146108d3578063edde5ff4146108eb578063f2455c5914610a18578063f48a0b3114610a30578063f7b2eb3f14610a8e578063f946373014610aa6575b600080fd5b3480156101bc57600080fd5b506101c5610abd565b60408051918252519081900360200190f35b3480156101e357600080fd5b506101ef600435610ac3565b60405180806020018060200180602001806020018060200186810386528b818151815260200191508051906020019060200280838360005b8381101561023f578181015183820152602001610227565b5050505090500186810385528a818151815260200191508051906020019060200280838360005b8381101561027e578181015183820152602001610266565b50505050905001868103845289818151815260200191508051906020019060200280838360005b838110156102bd5781810151838201526020016102a5565b505050509050018681038352888181518152602001915080516000925b8184101561031c57602080850284010151604080838360005b8381101561030b5781810151838201526020016102f3565b5050505090500192600101926102da565b89810385528a5181528a5160209182019450818c01935002905080838360005b8381101561035457818101518382015260200161033c565b505050509050019a505050505050505050505060405180910390f35b34801561037c57600080fd5b50610385610cd4565b6040805160208082528351818301528351919283929083019185019080838360005b838110156103bf5781810151838201526020016103a7565b50505050905090810190601f1680156103ec5780820380516001836020036101000a031916815260200191505b509250505060405180910390f35b34801561040657600080fd5b50610412600435610d61565b005b34801561042057600080fd5b506101c5600435610dc5565b34801561043857600080fd5b50610412600435602435610dd7565b34801561045357600080fd5b506104126004356112bc565b34801561046b57600080fd5b50610412600435602435611320565b34801561048657600080fd5b506101c5611411565b34801561049b57600080fd5b506101c5611417565b3480156104b057600080fd5b506104bc60043561141d565b604051808660068111156104cc57fe5b60ff16815260208101959095525060408085019390935260608401919091526080830152519081900360a0019150f35b34801561050857600080fd5b50610511611450565b60408051600160a060020a039092168252519081900360200190f35b34801561053957600080fd5b5061051161145f565b61041260043560243561146e565b34801561055c57600080fd5b50610511612806565b34801561057157600080fd5b5061057a612815565b604080519a8b5298151560208b0152898901979097526060890195909552921515608088015260a087019190915260c086015260e085015261010084015261012083015251908190036101400190f35b3480156105d657600080fd5b506105df612840565b604080519788526020880196909652868601949094526060860192909252608085015260a084015260c0830152519081900360e00190f35b34801561062357600080fd5b5061063a60043560243560446101e4351515612992565b604051808060200183151515158152602001828103825284818151815260200191508051906020019060200280838360005b8381101561068457818101518382015260200161066c565b50505050905001935050505060405180910390f35b3480156106a557600080fd5b50610412600160a060020a0360043516612e51565b3480156106c657600080fd5b506106e1600435602435600160a060020a0360443516612edf565b6040518082600260200280838360005b838110156107095781810151838201526020016106f1565b5050505090500191505060405180910390f35b34801561072857600080fd5b50610734600435612f58565b60408051600160a060020a03808d16825260208083018d9052606083018b9052908916608083015260a0820188905286151560c083015285151560e083015261010082018590528315156101208301526101409282018381528b51938301939093528a519192916101608401918c019080838360005b838110156107c25781810151838201526020016107aa565b50505050905090810190601f1680156107ef5780820380516001836020036101000a031916815260200191505b509b50505050505050505050505060405180910390f35b610412600480359060248035908101910135613049565b34801561082957600080fd5b506108356004356133fe565b604080519115158252519081900360200190f35b34801561085557600080fd5b506101c5600435613440565b34801561086d57600080fd5b5061041260043561345f565b34801561088557600080fd5b506101c5600160a060020a03600435166024356134c3565b3480156108a957600080fd5b506101c56134e0565b3480156108be57600080fd5b50610412600160a060020a03600435166134e6565b3480156108df57600080fd5b5061041260043561359d565b3480156108f757600080fd5b506109036004356139a4565b60408051600160a060020a03808e1682529181018b90526080810189905290871660a082015260c0810186905284151560e0820152831515610100820152610120810183905281151561014082015261016060208083018281528d51928401929092528c5160608401916101808501918f8201910280838360005b8381101561099657818101518382015260200161097e565b5050505090500183810382528b818151815260200191508051906020019080838360005b838110156109d25781810151838201526020016109ba565b50505050905090810190601f1680156109ff5780820380516001836020036101000a031916815260200191505b509d505050505050505050505050505060405180910390f35b348015610a2457600080fd5b506101c5600435613c3a565b348015610a3c57600080fd5b5060408051602060046024803582810135601f8101859004850286018501909652858552610412958335953695604494919390910191908190840183828082843750949750613c4c9650505050505050565b348015610a9a57600080fd5b50610412600435613f8f565b61041260048035906024803590810191013561401c565b60125481565b6000818152600660209081526040918290206001810180548451818502810185019095528085526060948594859485948594919392909190830182828015610b2a57602002820191906000526020600020905b815481526020019060010190808311610b16575b5050505050955080600201805480602002602001604051908101604052809291908181526020018280548015610b7f57602002820191906000526020600020905b815481526020019060010190808311610b6b575b5050505050945080600301805480602002602001604051908101604052809291908181526020018280548015610bd457602002820191906000526020600020905b815481526020019060010190808311610bc0575b5050505050935080600401805480602002602001604051908101604052809291908181526020016000905b82821015610c4f5760008481526020902060408051808201918290529160028581029091019182845b815481526020019060010190808311610c2857505050505081526020019060010190610bff565b50505050925080600501805480602002602001604051908101604052809291908181526020018280548015610cc357602002820191906000526020600020906000905b825461010083900a900460ff161515815260206001928301818104948501949093039092029101808411610c925790505b505050505091505091939590929450565b60018054604080516020600284861615610100026000190190941693909304601f81018490048402820184019092528181529291830182828015610d595780601f10610d2e57610100808354040283529160200191610d59565b820191906000526020600020905b815481529060010190602001808311610d3c57829003601f168201915b505050505081565b601454600160a060020a03163314610dc0576040805160e560020a62461bcd02815260206004820152602480820152600080516020614dbc833981519152604482015260e160020a633737b91702606482015290519081900360840190fd5b601355565b60066020526000908152604090205481565b6000828152600260209081526040808320600690925282208154919290918190600160a060020a03161515610e58576040805160e560020a62461bcd0281526020600482015260276024820152600080516020614d9c8339815191526044820152600080516020614d7c833981519152606482015290519081900360840190fd5b600784015460ff161580610f0e575060058401546006850154604080517f10f169e8000000000000000000000000000000000000000000000000000000008152600481019290925251600292600160a060020a0316916310f169e89160248083019260209291908290030181600087803b158015610ed557600080fd5b505af1158015610ee9573d6000803e3d6000fd5b505050506040513d6020811015610eff57600080fd5b50516002811115610f0c57fe5b145b1515610f64576040805160e560020a62461bcd02815260206004820181905260248201527f5468652061677265656d656e74206973207374696c6c2064697370757465642e604482015290519081900360640190fd5b60028301548510610fe5576040805160e560020a62461bcd02815260206004820152603e60248201527f5468652073706563696669656420726f756e64206f662074686520737065636960448201527f666965642061677265656d656e7420646f6573206e6f742065786973742e0000606482015290519081900360840190fd5b841580610ff9575060028301546000190185145b1561110d57841515806110115750600784015460ff16155b15156110b3576040805160e560020a62461bcd02815260206004820152604c60248201527f5468657265206973206e6f7468696e6720746f2077697468647261772066726f60448201527f6d2074686520666972737420726f756e6420696620746865206469737075746560648201527f20776173207261697365642e0000000000000000000000000000000000000000608482015290519081900360a40190fd5b600683018054869081106110c357fe5b6000918252602080832033845290910190526040902060010154600684018054879081106110ed57fe5b600091825260208083203384529091019052604081200154019150611206565b60088401546001840180548790811061112257fe5b9060005260206000200154141561113a57600161113d565b60005b60ff169050826004018581548110151561115357fe5b90600052602060002090600202018160028110151561116e57fe5b015415611200576004830180548690811061118557fe5b9060005260206000209060020201816002811015156111a057fe5b0154600684018054879081106111b257fe5b6000918252602080832033845290910190526040902082600281106111d357fe5b0154600385018054889081106111e557fe5b9060005260206000200154028115156111fa57fe5b04611203565b60005b91505b60408051808201909152600080825260208201526006840180548790811061122a57fe5b6000918252602080832033845290910190526040902061124b916002614bca565b50604051339083156108fc029084906000818181858888f19350505050158015611279573d6000803e3d6000fd5b506040805183815290513391879189917f3af1589e5fc22e884f17d5fef298cf3ddc2cd21fa3d0ee55d7c1e7afc3697c6e919081900360200190a4505050505050565b601454600160a060020a0316331461131b576040805160e560020a62461bcd02815260206004820152602480820152600080516020614dbc833981519152604482015260e160020a633737b91702606482015290519081900360840190fd5b601155565b33600081815260036020908152604080832086845282528083205483526002909152902060050154600160a060020a0316146113cc576040805160e560020a62461bcd02815260206004820152603160248201527f4120646973707574652063616e206f6e6c792062652072756c6564206f6e206260448201527f79206974732061726269747261746f722e000000000000000000000000000000606482015290519081900360840190fd5b604080518281529051839133917f394027a5fa6e098a1191094d1719d6929b9abc535fcc0c8f448d6a4e756222769181900360200190a361140d828261422e565b5050565b60055481565b60115481565b6015602052600090815260409020805460018201546002830154600384015460049094015460ff90931693919290919085565b600454600160a060020a031681565b601454600160a060020a031681565b60008281526002602090815260408083206006835281842060178452828520548552601590935292208254600160a060020a031615156114fa576040805160e560020a62461bcd0281526020600482015260276024820152600080516020614d9c8339815191526044820152600080516020614d7c833981519152606482015290519081900360840190fd5b600983015460ff161561157d576040805160e560020a62461bcd02815260206004820152603160248201527f596f752063616e6e6f742066756e6420646973707574657320666f722065786560448201527f63757465642061677265656d656e74732e000000000000000000000000000000606482015290519081900360840190fd5b600783015460ff161580611633575060058301546006840154604080517f10f169e8000000000000000000000000000000000000000000000000000000008152600481019290925251600192600160a060020a0316916310f169e89160248083019260209291908290030181600087803b1580156115fa57600080fd5b505af115801561160e573d6000803e3d6000fd5b505050506040513d602081101561162457600080fd5b5051600281111561163157fe5b145b15156116af576040805160e560020a62461bcd02815260206004820152603860248201527f5468652061677265656d656e7420697320616c7265616479206469737075746560448201527f6420616e64206973206e6f742061707065616c61626c652e0000000000000000606482015290519081900360840190fd5b6001841115611708576040805160e560020a62461bcd02815260206004820152601960248201527f546865726520617265206f6e6c792074776f2073696465732e00000000000000604482015290519081900360640190fd5b815415156117e05742825560018083018054808301825560009182526020808320909101829055600554600280870180548087018255908552838520019190915560038601805480860182559084528284200183905560408051808201909152838152808301849052600487018054958601808255908552929093209193611797939082029092019190614bca565b50506005820180546001808201835560009283526020928390209282049092018054601f9092166101000a60ff02199091169055600683018054916117de91908301614c0d565b505b600060078190556008805460ff19908116909155600a8290556009829055600b80549091169055600c819055600d819055600e819055600f81905560105560028201546001141561195e5760058301546040517ff7434ea90000000000000000000000000000000000000000000000000000000081526020600482019081526003860180546002600019600183161561010002019091160460248401819052600160a060020a039094169363f7434ea9939192918291604490910190849080156118eb5780601f106118c0576101008083540402835291602001916118eb565b820191906000526020600020905b8154815290600101906020018083116118ce57829003601f168201915b505092505050602060405180830381600087803b15801561190b57600080fd5b505af115801561191f573d6000803e3d6000fd5b505050506040513d602081101561193557600080fd5b505160075560048301548254420311156119595761195485600061424f565b6127ff565b611d96565b60058301546006840154604080517ff23f16e600000000000000000000000000000000000000000000000000000000815260048101838152602482019283526003880180546002600019600183161561010002019091160460448401819052600160a060020a039096169563f23f16e6959491936064019084908015611a255780601f106119fa57610100808354040283529160200191611a25565b820191906000526020600020905b815481529060010190602001808311611a0857829003601f168201915b50509350505050602060405180830381600087803b158015611a4657600080fd5b505af1158015611a5a573d6000803e3d6000fd5b505050506040513d6020811015611a7057600080fd5b50516007556008805460ff1916600117905560058301546006840154604080517fafe15cfb00000000000000000000000000000000000000000000000000000000815260048101929092528051600160a060020a039093169263afe15cfb9260248082019392918290030181600087803b158015611aed57600080fd5b505af1158015611b01573d6000803e3d6000fd5b505050506040513d6040811015611b1757600080fd5b508051602090910151600a55600981905515801590611b375750600a5415155b600b805460ff1916911515919091179081905560ff1615611cf057600954600a546002908290030401421015611be8578315611be3576040805160e560020a62461bcd02815260206004820152603060248201527f497420697320746865206c6f73696e6720736964652773207475726e20746f2060448201527f66756e64207468652061707065616c2e00000000000000000000000000000000606482015290519081900360840190fd5b611959565b836001148015611c2857506005820180546000198101908110611c0757fe5b90600052602060002090602091828204019190069054906101000a900460ff165b1515611959576040805160e560020a62461bcd02815260206004820152606260248201527f4974206973207468652077696e6e696e6720736964652773207475726e20746f60448201527f2066756e64207468652061707065616c2c206f6e6c7920696620746865206c6f60648201527f73696e67207369646520616c72656164792066756c6c792066756e646564206960848201527f742e00000000000000000000000000000000000000000000000000000000000060a482015290519081900360c40190fd5b600754341015611d96576040805160e560020a62461bcd02815260206004820152604c60248201527f46656573206d757374206265207061696420696e2066756c6c2069662074686560448201527f2061726269747261746f7220646f6573206e6f7420737570706f72742060617060648201527f7065616c506572696f64602e0000000000000000000000000000000000000000608482015290519081900360a40190fd5b60003411611e14576040805160e560020a62461bcd02815260206004820152602d60248201527f5468652076616c7565206f662074686520636f6e747269627574696f6e20636160448201527f6e6e6f74206265207a65726f2e00000000000000000000000000000000000000606482015290519081900360840190fd5b60085460ff161515611e2f5760075460029004600c55611f30565b600b5460ff161515611e4657600754600c55611f30565b831515611e7e576002820180546000198101908110611e6157fe5b600091825260209091200154600754600290910201600c55611f30565b6002820180546000198101908110611e9257fe5b6000918252602090912001546004830180546000198101908110611eb257fe5b600091825260208220600290910201015403600d8190556004830180546000198101908110611edd57fe5b60009182526020822060029091020101540160076000015411611f0257600d54611f2c565b6004820180546000198101908110611f1657fe5b6000918252602082206002909102010154600754035b600c555b600c546004830180546000198101908110611f4757fe5b906000526020600020906002020185600281101515611f6257fe5b015410611f73576000600e55611fac565b6004820180546000198101908110611f8757fe5b906000526020600020906002020184600281101515611fa257fe5b0154600c5403600e555b8060030154816002015414156120c157600381015434101561203e576040805160e560020a62461bcd02815260206004820152603560248201527f5061727479206368616c6c656e67696e672061677265656d656e74206d75737460448201527f20706c6163652076616c7565206174207374616b650000000000000000000000606482015290519081900360840190fd5b806003015434036007800154101561205857600e54612060565b806003015434035b600f908155600382015460028301805482019055905434030360105560018381018054339290811061208e57fe5b9060005260206000200160006101000a815481600160a060020a030219169083600160a060020a031602179055506120e0565b600e543411156120d357600e546120d5565b345b600f81905534036010555b600f546000101561218f57600f54600383018054600019810190811061210257fe5b600091825260209091200180549091019055600f54600483018054600019810190811061212b57fe5b90600052602060002090600202018560028110151561214657fe5b0180549091019055600f54600683018054600019810190811061216557fe5b60009182526020808320338452909101905260409020856002811061218657fe5b01805490910190555b601054600010156121ca57601054604051339180156108fc02916000818181858888f193505050501580156121c8573d6000803e3d6000fd5b505b6002820154600f5460408051918252513392600019019188917fbd56b899e801b4dafced5be36852af735083cf687f72a7d69351ec0d2263ee889181900360200190a4600c54600483018054600019810190811061222457fe5b90600052602060002090600202018560028110151561223f57fe5b015410158061225e575060085460ff16801561225e5750600b5460ff16155b156127ff57831580156122ae575060085460ff166122a757600c54600483018054600019810190811061228d57fe5b6000918252602090912060029091020160010154106122ae565b600b5460ff165b156123335760058201805460001981019081106122c757fe5b90600052602060002090602091828204019190069054906101000a900460ff1615156119545760058201805460019190600019810190811061230557fe5b90600052602060002090602091828204019190066101000a81548160ff0219169083151502179055506127ff565b60085460ff16151561252b57600c54600483018054600019810190811061235657fe5b906000526020600020906002020185600014612373576000612376565b60015b60ff166002811061238357fe5b01541015612390576127ff565b6005830154600754600280860154604080517fc13517e1000000000000000000000000000000000000000000000000000000008152600481018381526024820192835260038a01805460001960018216156101000201169590950460448301819052600160a060020a039097169663c13517e19695939192606401908490801561245b5780601f106124305761010080835404028352916020019161245b565b820191906000526020600020905b81548152906001019060200180831161243e57829003601f168201915b505093505050506020604051808303818588803b15801561247b57600080fd5b505af115801561248f573d6000803e3d6000fd5b50505050506040513d60208110156124a657600080fd5b50516006840181815560078501805460ff19166001179055600585018054600160a060020a039081166000908152600360209081526040808320968352958152908590208a90559254915484518a8152945192949116927fc21357d76c2ee05713ed6e2edb9a5f60ab1e8748c56201385df30007f774f58d92918290030190a361270f565b60058301546006840154604080517f1c3db16d000000000000000000000000000000000000000000000000000000008152600481019290925251600160a060020a0390921691631c3db16d916024808201926020929091908290030181600087803b15801561259957600080fd5b505af11580156125ad573d6000803e3d6000fd5b505050506040513d60208110156125c357600080fd5b505160018301805460001981019081106125d957fe5b60009182526020909120015560058301546007546006850154604080517f49912f8800000000000000000000000000000000000000000000000000000000815260048101838152602482019283526003890180546002600019600183161561010002019091160460448401819052600160a060020a03909716966349912f88969594919360640190849080156126b05780601f10612685576101008083540402835291602001916126b0565b820191906000526020600020905b81548152906001019060200180831161269357829003601f168201915b505093505050506000604051808303818588803b1580156126d057600080fd5b505af11580156126e4573d6000803e3d6000fd5b505050506007840154610100900460ff161515905061270f5760078301805461ff0019166101001790555b600754600383018054600019810190811061272657fe5b6000918252602080832090910180549390930390925560018481018054808301825590835283832001829055600554600280870180548085018255908552858520019190915560038601805480840182559084528484200183905560408051808201909152838152808501849052600487018054938401808255908552949093206127b693928202019190614bca565b50506005820180546001808201835560009283526020928390209282049092018054601f9092166101000a60ff02199091169055600683018054916127fd91908301614c0d565b505b5050505050565b600054600160a060020a031681565b600754600854600954600a54600b54600c54600d54600e54600f5460105460ff98891698909516948a565b60008080808080808080805b601654831015612986576015600060168581548110151561286957fe5b600091825260208083209091015483528281019390935260409182018120600481015482526002909352206007810154919350915060ff16156128ad576001909901985b6000825460ff1660068111156128bf57fe5b14156128d05760019098019761297b565b6001825460ff1660068111156128e257fe5b14156128f35760019097019661297b565b6004825460ff16600681111561290557fe5b14156129165760019095019461297b565b6002825460ff16600681111561292857fe5b14156129395760019096019561297b565b6005825460ff16600681111561294b57fe5b141561295c5760019094019361297b565b6006825460ff16600681111561296e57fe5b141561297b576001909301925b60019092019161284c565b50505090919293949596565b60606000806000806000806000808b6040519080825280602002602001820160405280156129ca578160200160208202803883390190505b509850600095508c15156129e15760009650612a7d565b600094505b601654851015612a2657601680548e919087908110612a0157fe5b6000918252602090912001541415612a1b57849650612a26565b6001909401936129e6565b861515612a7d576040805160e560020a62461bcd02815260206004820152601660248201527f54686520637572736f7220697320696e76616c69642e00000000000000000000604482015290519081900360640190fd5b8615612aa05789612a9657601654879003600101612a9b565b866001015b612ab3565b89612aac576001612aaf565b60005b60ff165b93505b89612ac657601654841115612acc565b60165484105b15612e415760168a612ae357601654859003612ae5565b845b81548110612aef57fe5b600091825260208083209190910154808352601582526040808420600481015485526002909352909220919450925090508a3515801590612b3f57506000825460ff166006811115612b3d57fe5b145b80612b67575060208b013515801590612b6757506003825460ff166006811115612b6557fe5b145b80612b8f575060408b013515801590612b8f57506001825460ff166006811115612b8d57fe5b145b80612bc8575060608b013515801590612bb757506004825460ff166006811115612bb557fe5b145b8015612bc85750600781015460ff16155b80612c01575060808b013515801590612bf057506002825460ff166006811115612bee57fe5b145b8015612c015750600781015460ff16155b80612c3a575060a08b013515801590612c2957506005825460ff166006811115612c2757fe5b145b8015612c3a5750600781015460ff16155b80612c73575060c08b013515801590612c6257506006825460ff166006811115612c6057fe5b145b8015612c735750600781015460ff16155b80612cab575060e08b013515801590612c9b57506004825460ff166006811115612c9957fe5b145b8015612cab5750600781015460ff165b80612ce457506101008b013515801590612cd457506002825460ff166006811115612cd257fe5b145b8015612ce45750600781015460ff165b80612d1d57506101208b013515801590612d0d57506005825460ff166006811115612d0b57fe5b145b8015612d1d5750600781015460ff165b80612d5657506101408b013515801590612d4657506006825460ff166006811115612d4457fe5b145b8015612d565750600781015460ff165b80612d9657506101608b013515801590612d9657506001810180543391906000908110612d7f57fe5b600091825260209091200154600160a060020a0316145b80612dd457506101808b013515801590612dd45750600180820180543392908110612dbd57fe5b600091825260209091200154600160a060020a0316145b15612e36578b861015612e2d5760168a612df357601654859003612df5565b845b81548110612dff57fe5b90600052602060002001548987815181101515612e1857fe5b60209081029091010152600190950194612e36565b60019750612e41565b600190930192612ab6565b5050505050505094509492505050565b601454600160a060020a03163314612eb0576040805160e560020a62461bcd02815260206004820152602480820152600080516020614dbc833981519152604482015260e160020a633737b91702606482015290519081900360840190fd5b6014805473ffffffffffffffffffffffffffffffffffffffff1916600160a060020a0392909216919091179055565b612ee7614c36565b600084815260066020819052604090912001805484908110612f0557fe5b60009182526020808320600160a060020a03861684529190910190526040908190208151808301928390529160029082845b815481526020019060010190808311612f3757505050505090509392505050565b60026020818152600092835260409283902080548184015460038301805487516101006001831615026000190190911696909604601f8101869004860287018601909752868652600160a060020a0390921695909492938301828280156130005780601f10612fd557610100808354040283529160200191613000565b820191906000526020600020905b815481529060010190602001808311612fe357829003601f168201915b5050506004840154600585015460068601546007870154600888015460099098015496979396600160a060020a03909316955090935060ff80821693610100909204811692168a565b6000838152601560209081526040808320600481015480855260029093529083209092909160609190156130ff57600983015460ff1615156130fa576040805160e560020a62461bcd028152602060048201526024808201527f546865726520697320616c72656164792061207265717565737420696e20706c60448201527f6163652e00000000000000000000000000000000000000000000000000000000606482015290519081900360840190fd5b613135565b601680546001810182556000919091527fd833147d7dc355ba459fc788f669e58cfaf9dc25ddcd0702e87d69c7b5124289018790555b60115434101561318f576040805160e560020a62461bcd02815260206004820152600f60248201527f4e6f7420656e6f756768204554482e0000000000000000000000000000000000604482015290519081900360640190fd5b6003845460ff1660068111156131a157fe5b14156131c0578354600590859060ff19166001835b0217905550613261565b6000845460ff1660068111156131d257fe5b14156131eb578354600690859060ff19166001836131b6565b6040805160e560020a62461bcd02815260206004820152602260248201527f4974656d20696e2077726f6e672073746174757320666f7220636c656172696e60448201527f672e000000000000000000000000000000000000000000000000000000000000606482015290519081900360840190fd5b6011805460028681019190915542600187015590546003860155604080518281526060810182529190602083019080388339019050509150338260008151811015156132a957fe5b600160a060020a03909216602092830290910182015260408051601f880183900483028101830190915286815261331b918890889081908401838280828437505060408051600080825260208201909252899550600294509250905050601354600054600160a060020a03168d61465a565b601154341115613357576011546040513391340380156108fc02916000818181858888f19350505050158015613355573d6000803e3d6000fd5b505b5060048301546000908152600260205260408120600181018054919289929091908290811061338257fe5b60009182526020909120015486546007850154604051600160a060020a03909316927fa4beab79462e336293c2f229498d5942d3b4642806ab2820d6b7846d42d7e21a9260ff908116921690808360068111156133db57fe5b60ff1681529115156020830152506040805191829003019150a450505050505050565b60008181526015602052604081206003815460ff16600681111561341e57fe5b148061343957506005815460ff16600681111561343757fe5b145b9392505050565b601680548290811061344e57fe5b600091825260209091200154905081565b601454600160a060020a031633146134be576040805160e560020a62461bcd02815260206004820152602480820152600080516020614dbc833981519152604482015260e160020a633737b91702606482015290519081900360840190fd5b601255565b600360209081526000928352604080842090915290825290205481565b60135481565b600454600160a060020a0316331461356e576040805160e560020a62461bcd02815260206004820152602360248201527f5468652063616c6c6572206973206e6f74207468652066656520676f7665726e60448201527f6f722e0000000000000000000000000000000000000000000000000000000000606482015290519081900360840190fd5b6004805473ffffffffffffffffffffffffffffffffffffffff1916600160a060020a0392909216919091179055565b60008181526015602090815260408083206004810154808552600290935292206012546001840154420311613642576040805160e560020a62461bcd02815260206004820152602960248201527f5468652074696d6520746f206368616c6c656e676520686173206e6f7420706160448201527f73736564207965742e0000000000000000000000000000000000000000000000606482015290519081900360840190fd5b8054600160a060020a031615156136a5576040805160e560020a62461bcd0281526020600482015260276024820152600080516020614d9c8339815191526044820152600080516020614d7c833981519152606482015290519081900360840190fd5b600981015460ff1615613728576040805160e560020a62461bcd02815260206004820152603260248201527f546865207370656369666965642061677265656d656e742068617320616c726560448201527f616479206265656e2065786563757465642e0000000000000000000000000000606482015290519081900360840190fd5b600781015460ff16156137aa576040805160e560020a62461bcd028152602060048201526024808201527f546865207370656369666965642061677265656d656e7420697320646973707560448201527f7465642e00000000000000000000000000000000000000000000000000000000606482015290519081900360840190fd5b6002835460ff1660068111156137bc57fe5b14806137d757506004835460ff1660068111156137d557fe5b145b156137f5578254600390849060ff19166001835b02179055506138af565b6005835460ff16600681111561380757fe5b148061382257506006835460ff16600681111561382057fe5b145b15613839578254600190849060ff191682806137eb565b6040805160e560020a62461bcd02815260206004820152602b60248201527f4974656d20696e2077726f6e672073746174757320666f72206578656375746960448201527f6e6720726571756573742e000000000000000000000000000000000000000000606482015290519081900360840190fd5b60018101805460009081106138c057fe5b60009182526020822001546002850154604051600160a060020a039092169281156108fc029290818181858888f15050505060098201805460ff1916600190811790915542858201556000600386018190556002860181905590830180548793508290811061392b57fe5b60009182526020909120015485546007850154604051600160a060020a03909316927fa4beab79462e336293c2f229498d5942d3b4642806ab2820d6b7846d42d7e21a9260ff9081169216908083600681111561398457fe5b60ff1681529115156020830152506040805191829003019150a450505050565b6000818152600260209081526040808320805460019091018054835181860281018601909452808452600160a060020a03909216946060949093859385938493849384938493849384939290830182828015613a2957602002820191906000526020600020905b8154600160a060020a03168152600190910190602001808311613a0b575b50505050509950600260008d60001916600019168152602001908152602001600020600201549850600260008d600019166000191681526020019081526020016000206003018054600181600116156101000203166002900480601f016020809104026020016040519081016040528092919081815260200182805460018160011615610100020316600290048015613b035780601f10613ad857610100808354040283529160200191613b03565b820191906000526020600020905b815481529060010190602001808311613ae657829003601f168201915b50505050509750600260008d60001916600019168152602001908152602001600020600401549650600260008d6000191660001916815260200190815260200160002060050160009054906101000a9004600160a060020a03169550600260008d60001916600019168152602001908152602001600020600601549450600260008d6000191660001916815260200190815260200160002060070160009054906101000a900460ff169350600260008d6000191660001916815260200190815260200160002060070160019054906101000a900460ff169250600260008d60001916600019168152602001908152602001600020600801549150600260008d6000191660001916815260200190815260200160002060090160009054906101000a900460ff16905091939597999b90929496989a50565b60176020526000908152604090205481565b6000828152600260205260408120548190600160a060020a03161515613cbe576040805160e560020a62461bcd0281526020600482015260276024820152600080516020614d9c8339815191526044820152600080516020614d7c833981519152606482015290519081900360840190fd5b60008481526002602052604090206007015460ff161515613d4f576040805160e560020a62461bcd02815260206004820152602860248201527f546865207370656369666965642061677265656d656e74206973206e6f74206460448201527f697370757465642e000000000000000000000000000000000000000000000000606482015290519081900360840190fd5b600084815260026020526040902060070154610100900460ff1615613de4576040805160e560020a62461bcd02815260206004820152603260248201527f546865207370656369666965642061677265656d656e742068617320616c726560448201527f616479206265656e2061707065616c65642e0000000000000000000000000000606482015290519081900360840190fd5b5060009050805b600084815260026020526040902060010154811015613e4c576000848152600260205260409020600101805433919083908110613e2457fe5b600091825260209091200154600160a060020a03161415613e4457600191505b600101613deb565b811515613ec9576040805160e560020a62461bcd02815260206004820152603560248201527f5468652073656e646572206973206e6f74206120706172747920696e2074686560448201527f207370656369666965642061677265656d656e742e0000000000000000000000606482015290519081900360840190fd5b600084815260026020908152604080832060068101546005909101548251848152885181860152885133969395600160a060020a03909316947fdccf2f8b2cc26eafcd61905cba744cff4b81d14740725f6376390dc6298a6a3c948b94849392840192908601918190849084905b83811015613f4f578181015183820152602001613f37565b50505050905090810190601f168015613f7c5780820380516001836020036101000a031916815260200191505b509250505060405180910390a450505050565b600454600160a060020a03163314614017576040805160e560020a62461bcd02815260206004820152602360248201527f5468652063616c6c6572206973206e6f74207468652066656520676f7665726e60448201527f6f722e0000000000000000000000000000000000000000000000000000000000606482015290519081900360840190fd5b600555565b6000838152601560209081526040808320600481015480855260029093529083209092909160609190156140d257600983015460ff1615156140cd576040805160e560020a62461bcd028152602060048201526024808201527f546865726520697320612070656e64696e67207265717565737420696e20706c60448201527f6163652e00000000000000000000000000000000000000000000000000000000606482015290519081900360840190fd5b614108565b601680546001810182556000919091527fd833147d7dc355ba459fc788f669e58cfaf9dc25ddcd0702e87d69c7b5124289018790555b601154341015614162576040805160e560020a62461bcd02815260206004820152600f60248201527f4e6f7420656e6f756768204554482e0000000000000000000000000000000000604482015290519081900360640190fd5b6000845460ff16600681111561417457fe5b141561418d578354600490859060ff19166001836131b6565b6001845460ff16600681111561419f57fe5b14156141b8578354600290859060ff19166001836131b6565b6040805160e560020a62461bcd02815260206004820152602660248201527f4974656d20696e2077726f6e672073746174757320666f72207265676973747260448201527f6174696f6e2e0000000000000000000000000000000000000000000000000000606482015290519081900360840190fd5b33600090815260036020908152604080832085845290915290205461140d90825b60008060008061425f86866147a4565b5050506000838152600260208181526040808420600683528185206017845282862054865260159093529320818301549394509092909190600114156142fc5760048301805460009081106142b057fe5b600091825260209091206002909102016001015460048401805460009081106142d557fe5b6000918252602082206002909102010154106142f3575060006142f7565b5060015b6143e3565b600583018054600019810190811061431057fe5b90600052602060002090602091828204019190069054906101000a900460ff1680156143a75750600483018054600019810190811061434b57fe5b6000918252602090912060029091020160010154600284018054600019810190811061437357fe5b600091825260209091200154600485018054600019810190811061439357fe5b600091825260208220600290910201015403115b156143c55760018514156143bd575060016142f7565b5060006143e3565b60018514156143d6575060006143e3565b60028514156143e3575060015b60008160028111156143f157fe5b1415614452576002825460ff16600681111561440957fe5b148061442457506004825460ff16600681111561442257fe5b145b1561443957815460ff1916600317825561444d565b8154600190839060ff191682805b02179055505b6144b0565b6002825460ff16600681111561446457fe5b141561447c578154600190839060ff19168280614447565b6005825460ff16600681111561448e57fe5b14156144a7578154600390839060ff1916600183614447565b815460ff191682555b60028160028111156144be57fe5b141561455b57600184016000815481106144d457fe5b6000918252602082200154600284810154604051600160a060020a039093169391900480156108fc02929091818181858888f15050506001868101925090508154811061451d57fe5b6000918252602082200154600284810154604051600160a060020a039093169391900480156108fc02929091818181858888f19350505050506145a9565b8360010181600281111561456b57fe5b8154811061457557fe5b60009182526020822001546002840154604051600160a060020a039092169281156108fc029290818181858888f150505050505b4260018084019190915560006002840181905560038401819055878152601760205260408120549186018054829081106145df57fe5b60009182526020909120015484546007880154604051600160a060020a03909316927fa4beab79462e336293c2f229498d5942d3b4642806ab2820d6b7846d42d7e21a9260ff9081169216908083600681111561463857fe5b60ff1681529115156020830152506040805191829003019150a4505050505050565b6000818152601560205260408120600481015490919015156146f35760408051602080820186905282518083038201815291830192839052815191929182918401908083835b602083106146bf5780518252601f1990920191602091820191016146a0565b6001836020036101000a03801982511681845116808217855250505050505090500191505060405180910390209050614772565b60048201546040805160208082019390935281518082038401815290820191829052805190928291908401908083835b602083106147425780518252601f199092019160209182019101614723565b6001836020036101000a038019825116818451168082178552505050505050905001915050604051809103902090505b600482018190556000818152601760205260409020839055614799818a8a8a8a8a8a6148b1565b505050505050505050565b60008281526002602052604090208054600160a060020a03161515614815576040805160e560020a62461bcd0281526020600482015260276024820152600080516020614d9c8339815191526044820152600080516020614d7c833981519152606482015290519081900360840190fd5b600981015460ff1615614898576040805160e560020a62461bcd02815260206004820152603260248201527f546865207370656369666965642061677265656d656e742068617320616c726560448201527f616479206265656e2065786563757465642e0000000000000000000000000000606482015290519081900360840190fd5b6008810191909155600901805460ff1916600117905550565b600087815260026020526040902054600160a060020a031615614944576040805160e560020a62461bcd02815260206004820152603060248201527f54686520737570706c6965642061677265656d656e7420494420697320616c7260448201527f65616479206265696e6720757365642e00000000000000000000000000000000606482015290519081900360840190fd5b8451600a10156149c4576040805160e560020a62461bcd02815260206004820152602560248201527f54686572652063616e6e6f74206265206d6f7265207468616e2031302070617260448201527f746965732e000000000000000000000000000000000000000000000000000000606482015290519081900360840190fd5b604080516101608101825233815260208082018881528284018890526060830187905260808301869052600160a060020a0385811660a0850152600060c0850181905260e085018190526101008501819052610120850181905261014085018190528c815260028452949094208351815473ffffffffffffffffffffffffffffffffffffffff19169516949094178455518051929392614a6a9260018501920190614c51565b506040820151600282015560608201518051614a90916003840191602090910190614cbf565b506080820151600482015560a082015160058201805473ffffffffffffffffffffffffffffffffffffffff1916600160a060020a0390921691909117905560c0820151600682015560e08201516007820180546101008086015160ff199283169415159490941761ff001916931515029290921790556101208301516008830155610140909201516009909101805490921690151517905560408051602080825288518183015288518a937f61606860eb6c87306811e2695215385101daab53bd6ab4e9f9049aead9363c7d938b939092839283019185019080838360005b83811015614b87578181015183820152602001614b6f565b50505050905090810190601f168015614bb45780820380516001836020036101000a031916815260200191505b509250505060405180910390a250505050505050565b8260028101928215614bfd579160200282015b82811115614bfd578251829060ff16905591602001919060010190614bdd565b50614c09929150614d2d565b5090565b815481835581811115614c3157600083815260209020614c31918101908301614c09565b505050565b60408051808201825290600290829080388339509192915050565b828054828255906000526020600020908101928215614cb3579160200282015b82811115614cb3578251825473ffffffffffffffffffffffffffffffffffffffff1916600160a060020a03909116178255602090920191600190910190614c71565b50614c09929150614d4a565b828054600181600116156101000203166002900490600052602060002090601f016020900481019282601f10614d0057805160ff1916838001178555614bfd565b82800160010185558215614bfd579182015b82811115614bfd578251825591602001919060010190614d12565b614d4791905b80821115614c095760008155600101614d33565b90565b614d4791905b80821115614c0957805473ffffffffffffffffffffffffffffffffffffffff19168155600101614d5056002065786973742e00000000000000000000000000000000000000000000000000546865207370656369666965642061677265656d656e7420646f6573206e6f745468652063616c6c6572206973206e6f7420746865207432636c20676f766572a165627a7a72305820890b0edc66125d9332c026bacd7181c49af044c107736384e143b90c9d1684d80029",
  "source": "/**\n *  @title ArbitrableTokenList\n *  @author Matheus Alencar - <mtsalenc@gmail.com>\n *  This code hasn't undertaken bug bounty programs yet.\n */\n\npragma solidity ^0.4.24;\n\nimport \"../arbitration/composed-arbitrable/composed/MultiPartyInsurableArbitrableAgreementsBase.sol\";\n\n/**\n *  @title ArbitrableTokenList\n *  This is a T2CL for tokens. Tokens can be submitted and cleared with a time out for challenging.\n */\ncontract ArbitrableTokenList is MultiPartyInsurableArbitrableAgreementsBase {\n\n    /* Enums */\n\n    enum ItemStatus {\n        Absent, // The item has never been submitted.\n        Cleared, // The item has been submitted and the dispute resolution process determined it should not be added or a clearing request has been submitted and the dispute resolution process determined it should be cleared or the clearing was never contested.\n        Resubmitted, // The item has been cleared but someone has resubmitted it.\n        Registered, // The item has been submitted and the dispute resolution process determined it should be added or the submission was never contested.\n        Submitted, // The item has been submitted.\n        ClearingRequested, // The item is registered, but someone has requested to remove it.\n        PreventiveClearingRequested // The item has never been registered, but someone asked to clear it preemptively to avoid it being shown as not registered during the dispute resolution process.\n    }\n\n    enum RulingOption {\n        OTHER, // Arbitrator did not rule of refused to rule.\n        ACCEPT, // Execute request. Rule in favor of requester.\n        REFUSE // Refuse request. Rule in favor of challenger.\n    }\n\n    enum Party {\n        Requester,\n        Challenger,\n        None\n    }\n\n    /* Structs */\n\n    struct Item {\n        ItemStatus status; // Status of the item.\n        uint lastAction; // Time of the last action.\n        uint balance; // The amount of funds placed at stake for this item. Does not include arbitrationFees.\n        uint challengeReward; // The challengeReward of the item for the round.\n        bytes32 latestAgreementID; // The ID of the latest agreement for the item.\n    }\n\n    /* Modifiers */\n\n    modifier onlyT2CLGovernor {require(msg.sender == t2clGovernor, \"The caller is not the t2cl governor.\"); _;}\n\n    /* Events */\n\n    /**\n     *  @dev Called when the item's status changes or when it is challenged/resolved.\n     *  @param requester Address of the requester.\n     *  @param challenger Address of the challenger, if any.\n     *  @param tokenID The tokenID of the item.\n     *  @param status The status of the item.\n     *  @param disputed Wether the item is being disputed.\n     */\n    event ItemStatusChange(\n        address indexed requester,\n        address indexed challenger,\n        bytes32 indexed tokenID,\n        ItemStatus status,\n        bool disputed\n    );\n\n    /* Storage */\n\n    // Settings\n    uint public challengeReward; // The stake deposit required in addition to arbitration fees for challenging a request.\n    uint public timeToChallenge; // The time before a request becomes executable if not challenged.\n    uint public arbitrationFeesWaitingTime; // The maximum time to wait for arbitration fees if the dispute is raised.\n    address public t2clGovernor; // The address that can update t2clGovernor, arbitrationFeesWaitingTime and challengeReward.\n\n    // Items\n    mapping(bytes32 => Item) public items;\n    bytes32[] public itemsList;\n\n    // Agreement and Item Extension\n    mapping(bytes32 => bytes32) public agreementIDToItemID;\n\n    /* Constructor */\n\n    /**\n     *  @dev Constructs the arbitrable token list.\n     *  @param _arbitrator The chosen arbitrator.\n     *  @param _arbitratorExtraData Extra data for the arbitrator contract.\n     *  @param _feeGovernor The fee governor of this contract.\n     *  @param _stake The stake parameter for sharing fees.\n     *  @param _t2clGovernor The t2clGovernor address. This address can update t2clGovernor, arbitrationFeesWaitingTime and challengeReward.\n     *  @param _arbitrationFeesWaitingTime The maximum time to wait for arbitration fees if the dispute is raised.\n     *  @param _challengeReward The amount in Weis of deposit required for a submission or a challenge in addition to the arbitration fees.\n     *  @param _timeToChallenge The time in seconds, parties have to challenge.\n     */\n    constructor(\n        Arbitrator _arbitrator,\n        bytes _arbitratorExtraData,\n        address _feeGovernor,\n        uint _stake,\n        address _t2clGovernor,\n        uint _arbitrationFeesWaitingTime,\n        uint _challengeReward,\n        uint _timeToChallenge\n    ) public MultiPartyInsurableArbitrableAgreementsBase(_arbitrator, _arbitratorExtraData, _feeGovernor, _stake){\n        challengeReward = _challengeReward;\n        timeToChallenge = _timeToChallenge;\n        t2clGovernor = _t2clGovernor;\n        arbitrationFeesWaitingTime = _arbitrationFeesWaitingTime;\n    }\n\n    /* Public */\n\n    // ************************ //\n    // *       Requests       * //\n    // ************************ //\n\n    /** @dev Request for an item to be registered.\n     *  @param _tokenID The keccak hash of a JSON object with all of the token's properties and no insignificant whitespaces.\n     *  @param _metaEvidence The meta evidence for the potential dispute.\n     */\n    function requestRegistration(\n        bytes32 _tokenID,\n        string _metaEvidence\n    ) external payable {\n        Item storage item = items[_tokenID];\n        Agreement storage prevAgreement = agreements[item.latestAgreementID];\n        if(item.latestAgreementID != 0x0) // Not the first request for this tokenID.\n            require(prevAgreement.executed, \"There is a pending request in place.\");\n        else\n            itemsList.push(_tokenID);\n\n        require(msg.value >= challengeReward, \"Not enough ETH.\");\n\n        if (item.status == ItemStatus.Absent)\n            item.status = ItemStatus.Submitted;\n        else if (item.status == ItemStatus.Cleared)\n            item.status = ItemStatus.Resubmitted;\n        else\n            revert(\"Item in wrong status for registration.\"); // If the item is neither Absent nor Cleared, it is not possible to request registering it.\n\n        item.balance = challengeReward;\n        item.lastAction = now;\n        item.challengeReward = challengeReward; // Update challengeReward.\n\n        address[] memory _parties = new address[](2);\n        _parties[0] = msg.sender;\n\n        _createAgreement(\n            _metaEvidence,\n            _parties,\n            2,\n            new bytes(0),\n            arbitrationFeesWaitingTime,\n            arbitrator,\n            _tokenID\n        );\n\n        if(msg.value > challengeReward) msg.sender.transfer(msg.value - challengeReward); // Refund any extra ETH.\n        Agreement storage agreement = agreements[item.latestAgreementID];\n        emit ItemStatusChange(agreement.parties[0], address(0), _tokenID, item.status, agreement.disputed);\n    }\n\n    /** @dev Request an item to be cleared.\n     *  @param _tokenID The keccak hash of a JSON object with all of the token's properties and no insignificant whitespaces.\n     *  @param _metaEvidence The meta evidence for the potential dispute.\n     */\n    function requestClearing(\n        bytes32 _tokenID,\n        string _metaEvidence\n    ) external payable {\n        Item storage item = items[_tokenID];\n        Agreement storage prevAgreement = agreements[item.latestAgreementID];\n        if(item.latestAgreementID != 0x0) // Not the first request for this tokenID.\n            require(prevAgreement.executed, \"There is already a request in place.\");\n        else\n            itemsList.push(_tokenID);\n\n        require(msg.value >= challengeReward, \"Not enough ETH.\");\n\n        if (item.status == ItemStatus.Registered)\n            item.status = ItemStatus.ClearingRequested;\n        else if (item.status == ItemStatus.Absent)\n            item.status = ItemStatus.PreventiveClearingRequested;\n        else\n            revert(\"Item in wrong status for clearing.\"); // If the item is neither Registered nor Absent, it is not possible to request clearing it.\n\n        item.balance = challengeReward; // Update challengeReward.\n        item.lastAction = now;\n        item.challengeReward = challengeReward;\n\n        address[] memory _parties = new address[](2);\n        _parties[0] = msg.sender;\n\n        _createAgreement(\n            _metaEvidence,\n            _parties,\n            2,\n            new bytes(0),\n            arbitrationFeesWaitingTime,\n            arbitrator,\n            _tokenID\n        );\n\n        if(msg.value > challengeReward) msg.sender.transfer(msg.value - challengeReward); // Refund any extra eth.\n        Agreement storage agreement = agreements[item.latestAgreementID];\n        emit ItemStatusChange(agreement.parties[0], address(0), _tokenID, item.status, agreement.disputed);\n    }\n\n    /** @dev Overrides parent to use information specific to Arbitrable Token List in math:\n     *  - Parent's fundDispute doesn't take into account `challengeReward` when calculating ETH.\n     *  - For calls that initiate a dispute, msg.value must also include `challengeReward`.\n     *  @param _agreementID The ID of the agreement.\n     *  @param _side The side with respect to paidFees. 0 for the side that lost the previous round, if any, and 1 for the one that won.\n     */\n    function fundDispute(bytes32 _agreementID, uint _side) public payable {\n        Agreement storage agreement = agreements[_agreementID];\n        PaidFees storage _paidFees = paidFees[_agreementID];\n        Item storage item = items[agreementIDToItemID[_agreementID]];\n        require(agreement.creator != address(0), \"The specified agreement does not exist.\");\n        require(!agreement.executed, \"You cannot fund disputes for executed agreements.\");\n        require(\n            !agreement.disputed || agreement.arbitrator.disputeStatus(agreement.disputeID) == Arbitrator.DisputeStatus.Appealable,\n            \"The agreement is already disputed and is not appealable.\"\n        );\n        require(_side <= 1, \"There are only two sides.\");\n\n        // Prepare storage for first call.\n        if (_paidFees.firstContributionTime == 0) {\n            _paidFees.firstContributionTime = now;\n            _paidFees.ruling.push(0);\n            _paidFees.stake.push(stake);\n            _paidFees.totalValue.push(0);\n            _paidFees.totalContributedPerSide.push([0, 0]);\n            _paidFees.loserFullyFunded.push(false);\n            _paidFees.contributions.length++;\n        }\n\n        // Reset cache.\n        fundDisputeCache.cost = 0;\n        fundDisputeCache.appealing = false;\n        (fundDisputeCache.appealPeriodStart, fundDisputeCache.appealPeriodEnd) = (0, 0);\n        fundDisputeCache.appealPeriodSupported = false;\n        fundDisputeCache.requiredValueForSide = 0;\n        fundDisputeCache.expectedValue = 0;\n        fundDisputeCache.stillRequiredValueForSide = 0;\n        fundDisputeCache.keptValue = 0;\n        fundDisputeCache.refundedValue = 0;\n\n        // Check time outs and requirements.\n        if (_paidFees.stake.length == 1) { // First round.\n            fundDisputeCache.cost = agreement.arbitrator.arbitrationCost(agreement.extraData);\n\n            // Arbitration fees time out.\n            if (now - _paidFees.firstContributionTime > agreement.arbitrationFeesWaitingTime) {\n                executeAgreementRuling(_agreementID, 0);\n                return;\n            }\n        } else { // Appeal.\n            fundDisputeCache.cost = agreement.arbitrator.appealCost(agreement.disputeID, agreement.extraData);\n\n            fundDisputeCache.appealing = true;\n            (fundDisputeCache.appealPeriodStart, fundDisputeCache.appealPeriodEnd) = agreement.arbitrator.appealPeriod(agreement.disputeID);\n            fundDisputeCache.appealPeriodSupported = fundDisputeCache.appealPeriodStart != 0 && fundDisputeCache.appealPeriodEnd != 0;\n            if (fundDisputeCache.appealPeriodSupported) {\n                if (now < fundDisputeCache.appealPeriodStart + ((fundDisputeCache.appealPeriodEnd - fundDisputeCache.appealPeriodStart) / 2)) // In the first half of the appeal period.\n                    require(_side == 0, \"It is the losing side's turn to fund the appeal.\");\n                else // In the second half of the appeal period.\n                    require(\n                        _side == 1 && _paidFees.loserFullyFunded[_paidFees.loserFullyFunded.length - 1],\n                        \"It is the winning side's turn to fund the appeal, only if the losing side already fully funded it.\"\n                    );\n            } else require(msg.value >= fundDisputeCache.cost, \"Fees must be paid in full if the arbitrator does not support `appealPeriod`.\");\n        }\n        require(msg.value > 0, \"The value of the contribution cannot be zero.\");\n\n        // Compute required value.\n        if (!fundDisputeCache.appealing) { // First round.\n            fundDisputeCache.requiredValueForSide = fundDisputeCache.cost / 2;\n        } else { // Appeal.\n            if (!fundDisputeCache.appealPeriodSupported)\n                fundDisputeCache.requiredValueForSide = fundDisputeCache.cost;\n            else if (_side == 0) // Losing side.\n                fundDisputeCache.requiredValueForSide = fundDisputeCache.cost + (2 * _paidFees.stake[_paidFees.stake.length - 1]);\n            else { // Winning side.\n                fundDisputeCache.expectedValue = _paidFees.totalContributedPerSide[_paidFees.totalContributedPerSide.length - 1][0] - _paidFees.stake[_paidFees.stake.length - 1];\n                fundDisputeCache.requiredValueForSide = fundDisputeCache.cost > _paidFees.totalContributedPerSide[_paidFees.totalContributedPerSide.length - 1][0] + fundDisputeCache.expectedValue ? fundDisputeCache.cost - _paidFees.totalContributedPerSide[_paidFees.totalContributedPerSide.length - 1][0] : fundDisputeCache.expectedValue;\n            }\n        }\n\n        // Calculate value still required.\n        if (_paidFees.totalContributedPerSide[_paidFees.totalContributedPerSide.length - 1][_side] >= fundDisputeCache.requiredValueForSide)\n            fundDisputeCache.stillRequiredValueForSide = 0;\n        else\n            fundDisputeCache.stillRequiredValueForSide = fundDisputeCache.requiredValueForSide - _paidFees.totalContributedPerSide[_paidFees.totalContributedPerSide.length - 1][_side];\n\n        if(item.balance == item.challengeReward) {\n            // Party is attempting to start a dispute.\n            require(msg.value >= item.challengeReward, \"Party challenging agreement must place value at stake\");\n            fundDisputeCache.keptValue = fundDisputeCache.stillRequiredValueForSide >= msg.value - item.challengeReward\n                ? msg.value - item.challengeReward\n                : fundDisputeCache.stillRequiredValueForSide;\n            item.balance += item.challengeReward;\n            fundDisputeCache.refundedValue = msg.value - fundDisputeCache.keptValue - item.challengeReward;\n            agreement.parties[1] = msg.sender;\n        } else {\n            // Party that started dispute already placed value at stake, in other words: item.balance == item.challengeReward * 2.\n            // This means the caller is contributing to fees crowdfunding.\n            fundDisputeCache.keptValue = fundDisputeCache.stillRequiredValueForSide >= msg.value\n                ? msg.value\n                : fundDisputeCache.stillRequiredValueForSide;\n\n            fundDisputeCache.refundedValue = msg.value - fundDisputeCache.keptValue;\n        }\n\n        // Take the contribution\n        if (fundDisputeCache.keptValue > 0) {\n            _paidFees.totalValue[_paidFees.totalValue.length - 1] += fundDisputeCache.keptValue;\n            _paidFees.totalContributedPerSide[_paidFees.totalContributedPerSide.length - 1][_side] += fundDisputeCache.keptValue;\n            _paidFees.contributions[_paidFees.contributions.length - 1][msg.sender][_side] += fundDisputeCache.keptValue;\n        }\n        if (fundDisputeCache.refundedValue > 0) msg.sender.transfer(fundDisputeCache.refundedValue);\n        emit Contribution(_agreementID, _paidFees.stake.length - 1, msg.sender, fundDisputeCache.keptValue);\n\n        // Check if enough funds have been gathered and act accordingly.\n        if (\n            _paidFees.totalContributedPerSide[_paidFees.totalContributedPerSide.length - 1][_side] >= fundDisputeCache.requiredValueForSide ||\n            (fundDisputeCache.appealing && !fundDisputeCache.appealPeriodSupported)\n        ) {\n            if (_side == 0 && (fundDisputeCache.appealing ? fundDisputeCache.appealPeriodSupported : _paidFees.totalContributedPerSide[_paidFees.totalContributedPerSide.length - 1][1] < fundDisputeCache.requiredValueForSide)) { // Losing side and not direct appeal or dispute raise.\n                if (!_paidFees.loserFullyFunded[_paidFees.loserFullyFunded.length - 1])\n                    _paidFees.loserFullyFunded[_paidFees.loserFullyFunded.length - 1] = true;\n            } else { // Winning side or direct appeal.\n                if (!fundDisputeCache.appealing) { // First round.\n                    if (_paidFees.totalContributedPerSide[_paidFees.totalContributedPerSide.length - 1][_side == 0 ? 1 : 0] < fundDisputeCache.requiredValueForSide) return;\n                    agreement.disputeID = agreement.arbitrator.createDispute.value(fundDisputeCache.cost)(agreement.numberOfChoices, agreement.extraData);\n                    agreement.disputed = true;\n                    arbitratorAndDisputeIDToAgreementID[agreement.arbitrator][agreement.disputeID] = _agreementID;\n                    emit Dispute(agreement.arbitrator, agreement.disputeID, uint(_agreementID));\n                } else { // Appeal.\n                    _paidFees.ruling[_paidFees.ruling.length - 1] = agreement.arbitrator.currentRuling(agreement.disputeID);\n                    agreement.arbitrator.appeal.value(fundDisputeCache.cost)(agreement.disputeID, agreement.extraData);\n                    if (!agreement.appealed) agreement.appealed = true;\n                }\n\n                // Update the total value.\n                _paidFees.totalValue[_paidFees.totalValue.length - 1] -= fundDisputeCache.cost;\n\n                // Prepare for the next round.\n                _paidFees.ruling.push(0);\n                _paidFees.stake.push(stake);\n                _paidFees.totalValue.push(0);\n                _paidFees.totalContributedPerSide.push([0, 0]);\n                _paidFees.loserFullyFunded.push(false);\n                _paidFees.contributions.length++;\n            }\n        }\n    }\n\n    /** @dev Execute a request after the time for challenging it has passed. Can be called by anyone.\n     *  @param _tokenID The tokenID of the item with the request to execute.\n     */\n    function executeRequest(bytes32 _tokenID) external {\n        Item storage item = items[_tokenID];\n        bytes32 agreementID = item.latestAgreementID;\n        Agreement storage agreement = agreements[agreementID];\n        require(now - item.lastAction > timeToChallenge, \"The time to challenge has not passed yet.\");\n        require(agreement.creator != address(0), \"The specified agreement does not exist.\");\n        require(!agreement.executed, \"The specified agreement has already been executed.\");\n        require(!agreement.disputed, \"The specified agreement is disputed.\");\n\n        if (item.status == ItemStatus.Resubmitted || item.status == ItemStatus.Submitted)\n            item.status = ItemStatus.Registered;\n        else if (item.status == ItemStatus.ClearingRequested || item.status == ItemStatus.PreventiveClearingRequested)\n            item.status = ItemStatus.Cleared;\n        else\n            revert(\"Item in wrong status for executing request.\");\n\n        agreement.parties[0].send(item.balance); // Deliberate use of send in order to not block the contract in case of reverting fallback.\n        agreement.executed = true;\n        item.lastAction = now;\n        item.challengeReward = 0; // Clear challengeReward once a request has been executed.\n        item.balance = 0;\n\n        emit ItemStatusChange(agreement.parties[0], address(0), _tokenID, item.status, agreement.disputed);\n    }\n\n    // ************************ //\n    // *      Governance      * //\n    // ************************ //\n\n    /** @dev Changes the `timeToChallenge` storage variable.\n     *  @param _timeToChallenge The new `timeToChallenge` storage variable.\n     */\n    function changeTimeToChallenge(uint _timeToChallenge) external onlyT2CLGovernor {\n        timeToChallenge = _timeToChallenge;\n    }\n\n    /** @dev Changes the `challengeReward` storage variable.\n     *  @param _challengeReward The new `challengeReward` storage variable.\n     */\n    function changeChallengeReward(uint _challengeReward) external onlyT2CLGovernor {\n        challengeReward = _challengeReward;\n    }\n\n    /** @dev Changes the `t2clGovernor` storage variable.\n     *  @param _t2clGovernor The new `t2clGovernor` storage variable.\n     */\n    function changeT2CLGovernor(address _t2clGovernor) external onlyT2CLGovernor {\n        t2clGovernor = _t2clGovernor;\n    }\n\n    /** @dev Changes the `arbitrationFeesWaitingTime` storage variable.\n     *  @param _arbitrationFeesWaitingTime The new `_arbitrationFeesWaitingTime` storage variable.\n     */\n    function changeArbitrationFeesWaitingTime(uint _arbitrationFeesWaitingTime) external onlyT2CLGovernor {\n        arbitrationFeesWaitingTime = _arbitrationFeesWaitingTime;\n    }\n\n    /* Public Views */\n\n    /** @dev Return true if the item is allowed. We consider the item to be in the list if its status is contested and it has not won a dispute previously.\n     *  @param _tokenID The tokenID of the item to check.\n     *  @return allowed True if the item is allowed, false otherwise.\n     */\n    function isPermitted(bytes32 _tokenID) public view returns (bool allowed) {\n        Item storage item = items[_tokenID];\n        return item.status == ItemStatus.Registered || item.status == ItemStatus.ClearingRequested;\n    }\n\n    /* Internal */\n\n    /** @dev Extends parent to use counter identify agreements.\n     *  @param _metaEvidence The meta evidence of the agreement.\n     *  @param _parties The `parties` value of the agreement.\n     *  @param _numberOfChoices The `numberOfChoices` value of the agreement.\n     *  @param _extraData The `extraData` value of the agreement.\n     *  @param _arbitrationFeesWaitingTime The `arbitrationFeesWaitingTime` value of the agreement.\n     *  @param _arbitrator The `arbitrator` value of the agreement.\n     *  @param _tokenID The item id.\n     */\n    function _createAgreement(\n        string _metaEvidence,\n        address[] _parties,\n        uint _numberOfChoices,\n        bytes _extraData,\n        uint _arbitrationFeesWaitingTime,\n        Arbitrator _arbitrator,\n        bytes32 _tokenID\n    ) internal {\n        Item storage item = items[_tokenID];\n        bytes32 agreementID;\n        if(item.latestAgreementID == 0x0)\n            agreementID = keccak256(abi.encodePacked(_tokenID));\n        else\n            agreementID = keccak256(abi.encodePacked(item.latestAgreementID));\n\n        item.latestAgreementID = agreementID;\n        agreementIDToItemID[agreementID] = _tokenID;\n\n        super._createAgreement(\n            agreementID,\n            _metaEvidence,\n            _parties,\n            _numberOfChoices,\n            _extraData,\n            _arbitrationFeesWaitingTime,\n            _arbitrator\n        );\n    }\n\n    /** @dev Extends parent to set item state and transfer rewards.\n     *  @param _agreementID The ID of the agreement.\n     *  @param _ruling The ruling.\n     */\n    function executeAgreementRuling(bytes32 _agreementID, uint _ruling) internal {\n        super.executeAgreementRuling(_agreementID, _ruling);\n        Agreement storage agreement = agreements[_agreementID];\n        PaidFees storage _paidFees = paidFees[_agreementID];\n        Item storage item = items[agreementIDToItemID[_agreementID]];\n\n        Party winner = Party.None;\n        if (_paidFees.stake.length == 1)  // Failed to fund first round.\n            // Rule in favor of whoever paid more.\n            if (_paidFees.totalContributedPerSide[0][0] >= _paidFees.totalContributedPerSide[0][1])\n                winner = Party.Requester;\n            else\n                winner = Party.Challenger;\n        else\n            // Respect the ruling unless the losing side funded the appeal and the winning side paid less than expected.\n            if (\n                _paidFees.loserFullyFunded[_paidFees.loserFullyFunded.length - 1] &&\n                _paidFees.totalContributedPerSide[_paidFees.totalContributedPerSide.length - 1][0] - _paidFees.stake[_paidFees.stake.length - 1] > _paidFees.totalContributedPerSide[_paidFees.totalContributedPerSide.length - 1][1]\n            )\n                // Rule in favor of the losing party.\n                // If an arbitrator ruled to execute a request, the losing party is the challenger. If\n                // The arbitrator ruled to refuse a request, the losing party is the requester.\n                // Ruling in favor of the losing party means inverting the decision of the arbitrator.\n\n                if (_ruling == uint(RulingOption.ACCEPT))\n                    winner = Party.Challenger;\n                else\n                    winner = Party.Requester;\n            else\n                // Respect the ruling.\n                if (_ruling == uint(RulingOption.ACCEPT))\n                    winner = Party.Requester;\n                else if (_ruling == uint(RulingOption.REFUSE))\n                    winner = Party.Challenger;\n\n        // Update item state\n        if(winner == Party.Requester)\n            // Execute Request\n            if (item.status == ItemStatus.Resubmitted || item.status == ItemStatus.Submitted)\n                item.status = ItemStatus.Registered;\n            else\n                item.status = ItemStatus.Cleared;\n        else\n            // Revert to previous state.\n            if (item.status == ItemStatus.Resubmitted)\n                item.status = ItemStatus.Cleared;\n            else if (item.status == ItemStatus.ClearingRequested)\n                item.status = ItemStatus.Registered;\n            else\n                item.status = ItemStatus.Absent;\n\n        // Send item balance\n        if(winner == Party.None) {\n            // Split the balance 50-50 and give the item the initial status.\n            agreement.parties[uint(Party.Requester)].send(item.balance / 2); // Deliberate use of send in order to not block the contract in case of reverting fallback.\n            agreement.parties[uint(Party.Challenger)].send(item.balance / 2); // Deliberate use of send in order to not block the contract in case of reverting fallback.\n        } else\n            agreement.parties[uint(winner)].send(item.balance); // Deliberate use of send in order to not block the contract in case of reverting fallback.\n\n        item.lastAction = now;\n        item.balance = 0;\n        item.challengeReward = 0; // Clear challengeReward once a dispute is resolved.\n\n        emit ItemStatusChange(agreement.parties[0], address(0), agreementIDToItemID[_agreementID], item.status, agreement.disputed);\n    }\n\n    /* Interface Views */\n\n    /** @dev Return the numbers of items in the list per status.\n     *  @return The numbers of items in the list per status.\n     */\n    function itemsCounts()\n        external\n        view\n        returns (\n            uint disputed,\n            uint absent,\n            uint cleared,\n            uint resubmitted,\n            uint submitted,\n            uint clearingRequested,\n            uint preventiveClearingRequested\n        )\n    {\n        for (uint i = 0; i < itemsList.length; i++) {\n            Item storage item = items[itemsList[i]];\n            Agreement storage latestAgreement = agreements[item.latestAgreementID];\n\n            if (latestAgreement.disputed) disputed++;\n            if (item.status == ItemStatus.Absent) absent++;\n            else if (item.status == ItemStatus.Cleared) cleared++;\n            else if (item.status == ItemStatus.Submitted) submitted++;\n            else if (item.status == ItemStatus.Resubmitted) resubmitted++;\n            else if (item.status == ItemStatus.ClearingRequested) clearingRequested++;\n            else if (item.status == ItemStatus.PreventiveClearingRequested) preventiveClearingRequested++;\n        }\n    }\n\n    /** @dev Return the values of the items the query finds. This function is O(n) at worst, where n is the number of items. This could exceed the gas limit, therefore this function should only be used for interface display and not by other contracts.\n     *  @param _cursor The pagination cursor.\n     *  @param _count The number of items to return.\n     *  @param _filter The filter to use. Each element of the array in sequence means:\n     *  - Include absent items in result;\n     *  - Include registered items in result;\n     *  - Include cleared items in result;\n     *  - Include submited items that are not disputed in result;\n     *  - Include resubmitted items that are not disputed in result;\n     *  - Include items with clearing requests that are not disputed in result;\n     *  - Include items with preventive clearing requests that are not disputed in result;\n     *  - Include submited and disputed items in result;\n     *  - Include resubmitted and disputed items in result;\n     *  - Include disputed items items with clearing requests in result;\n     *  - Include disputed items items with preventive clearing requests in result;\n     *  - Include items submitted by the caller;\n     *  - Include items challenged by the caller;\n     *  @param _sort The sort order to use.\n     *  @return The values of the items found and wether there are more items for the current filter and sort.\n     */\n    function queryItems(bytes32 _cursor, uint _count, bool[13] _filter, bool _sort) external view returns (bytes32[] values, bool hasMore) {\n        uint _cursorIndex;\n        values = new bytes32[](_count);\n        uint _index = 0;\n\n        if (_cursor == 0)\n            _cursorIndex = 0;\n        else {\n            for (uint j = 0; j < itemsList.length; j++) {\n                if (itemsList[j] == _cursor) {\n                    _cursorIndex = j;\n                    break;\n                }\n            }\n            require(_cursorIndex != 0, \"The cursor is invalid.\");\n        }\n\n        for (\n                uint i = _cursorIndex == 0 ? (_sort ? 0 : 1) : (_sort ? _cursorIndex + 1 : itemsList.length - _cursorIndex + 1);\n                _sort ? i < itemsList.length : i <= itemsList.length;\n                i++\n            ) { // Oldest or newest first.\n            bytes32 itemID = itemsList[_sort ? i : itemsList.length - i];\n            Item storage item = items[itemID];\n            Agreement storage agreement = agreements[item.latestAgreementID];\n            if (\n                    /* solium-disable operator-whitespace */\n                    (_filter[0] && item.status == ItemStatus.Absent) ||\n                    (_filter[1] && item.status == ItemStatus.Registered) ||\n                    (_filter[2] && item.status == ItemStatus.Cleared) ||\n                    (_filter[3] && item.status == ItemStatus.Submitted && !agreement.disputed) ||\n                    (_filter[4] && item.status == ItemStatus.Resubmitted && !agreement.disputed) ||\n                    (_filter[5] && item.status == ItemStatus.ClearingRequested && !agreement.disputed) ||\n                    (_filter[6] && item.status == ItemStatus.PreventiveClearingRequested && !agreement.disputed) ||\n                    (_filter[7] && item.status == ItemStatus.Submitted && agreement.disputed) ||\n                    (_filter[8] && item.status == ItemStatus.Resubmitted && agreement.disputed) ||\n                    (_filter[9] && item.status == ItemStatus.ClearingRequested && agreement.disputed) ||\n                    (_filter[10] && item.status == ItemStatus.PreventiveClearingRequested && agreement.disputed) ||\n                    (_filter[11] && agreement.parties[0] == msg.sender) || // My Submissions.\n                    (_filter[12] && agreement.parties[1] == msg.sender) // My Challenges.\n                    /* solium-enable operator-whitespace */\n            ) {\n                if (_index < _count) {\n                    values[_index] = itemsList[_sort ? i : itemsList.length - i];\n                    _index++;\n                } else {\n                    hasMore = true;\n                    break;\n                }\n            }\n        }\n    }\n\n}",
  "sourcePath": "/home/rigel/Documents/kleros/kleros-interaction/contracts/standard/permission/ArbitrableTokenList.sol",
  "compiler": {
    "name": "solc",
    "version": "0.4.24+commit.e67f0147.Emscripten.clang"
  },
  "schemaVersion": "2.0.1",
  "updatedAt": "2018-11-03T01:07:33.126Z"
}