{
  "contractName": "ArbitrableTokenList",
  "abi": [
    {
      "constant": true,
      "inputs": [],
      "name": "timeToChallenge",
      "outputs": [
        {
          "name": "",
          "type": "uint256"
        }
      ],
      "payable": false,
      "stateMutability": "view",
      "type": "function"
    },
    {
      "constant": true,
      "inputs": [],
      "name": "governor",
      "outputs": [
        {
          "name": "",
          "type": "address"
        }
      ],
      "payable": false,
      "stateMutability": "view",
      "type": "function"
    },
    {
      "constant": true,
      "inputs": [],
      "name": "arbitratorExtraData",
      "outputs": [
        {
          "name": "",
          "type": "bytes"
        }
      ],
      "payable": false,
      "stateMutability": "view",
      "type": "function"
    },
    {
      "constant": false,
      "inputs": [
        {
          "name": "_disputeID",
          "type": "uint256"
        },
        {
          "name": "_ruling",
          "type": "uint256"
        }
      ],
      "name": "rule",
      "outputs": [],
      "payable": false,
      "stateMutability": "nonpayable",
      "type": "function"
    },
    {
      "constant": true,
      "inputs": [],
      "name": "stake",
      "outputs": [
        {
          "name": "",
          "type": "uint256"
        }
      ],
      "payable": false,
      "stateMutability": "view",
      "type": "function"
    },
    {
      "constant": true,
      "inputs": [],
      "name": "challengeReward",
      "outputs": [
        {
          "name": "",
          "type": "uint256"
        }
      ],
      "payable": false,
      "stateMutability": "view",
      "type": "function"
    },
    {
      "constant": true,
      "inputs": [
        {
          "name": "",
          "type": "uint256"
        }
      ],
      "name": "tokensList",
      "outputs": [
        {
          "name": "",
          "type": "bytes32"
        }
      ],
      "payable": false,
      "stateMutability": "view",
      "type": "function"
    },
    {
      "constant": true,
      "inputs": [],
      "name": "arbitrator",
      "outputs": [
        {
          "name": "",
          "type": "address"
        }
      ],
      "payable": false,
      "stateMutability": "view",
      "type": "function"
    },
    {
      "constant": true,
      "inputs": [
        {
          "name": "",
          "type": "bytes32"
        }
      ],
      "name": "tokens",
      "outputs": [
        {
          "name": "status",
          "type": "uint8"
        },
        {
          "name": "name",
          "type": "string"
        },
        {
          "name": "addr",
          "type": "address"
        },
        {
          "name": "ticker",
          "type": "string"
        },
        {
          "name": "lastAction",
          "type": "uint256"
        }
      ],
      "payable": false,
      "stateMutability": "view",
      "type": "function"
    },
    {
      "constant": true,
      "inputs": [
        {
          "name": "",
          "type": "uint256"
        }
      ],
      "name": "disputeIDToTokenID",
      "outputs": [
        {
          "name": "",
          "type": "bytes32"
        }
      ],
      "payable": false,
      "stateMutability": "view",
      "type": "function"
    },
    {
      "constant": true,
      "inputs": [],
      "name": "arbitrationFeesWaitingTime",
      "outputs": [
        {
          "name": "",
          "type": "uint256"
        }
      ],
      "payable": false,
      "stateMutability": "view",
      "type": "function"
    },
    {
      "inputs": [
        {
          "name": "_arbitrator",
          "type": "address"
        },
        {
          "name": "_arbitratorExtraData",
          "type": "bytes"
        },
        {
          "name": "_metaEvidence",
          "type": "string"
        },
        {
          "name": "_governor",
          "type": "address"
        },
        {
          "name": "_arbitrationFeesWaitingTime",
          "type": "uint256"
        },
        {
          "name": "_challengeReward",
          "type": "uint256"
        },
        {
          "name": "_timeToChallenge",
          "type": "uint256"
        },
        {
          "name": "_stake",
          "type": "uint256"
        }
      ],
      "payable": false,
      "stateMutability": "nonpayable",
      "type": "constructor"
    },
    {
      "anonymous": false,
      "inputs": [
        {
          "indexed": true,
          "name": "requester",
          "type": "address"
        },
        {
          "indexed": true,
          "name": "challenger",
          "type": "address"
        },
        {
          "indexed": true,
          "name": "tokenID",
          "type": "bytes32"
        },
        {
          "indexed": false,
          "name": "status",
          "type": "uint8"
        },
        {
          "indexed": false,
          "name": "disputed",
          "type": "bool"
        }
      ],
      "name": "TokenStatusChange",
      "type": "event"
    },
    {
      "anonymous": false,
      "inputs": [
        {
          "indexed": true,
          "name": "_tokenID",
          "type": "bytes32"
        },
        {
          "indexed": true,
          "name": "_contributor",
          "type": "address"
        },
        {
          "indexed": false,
          "name": "_value",
          "type": "uint256"
        }
      ],
      "name": "Contribution",
      "type": "event"
    },
    {
      "anonymous": false,
      "inputs": [
        {
          "indexed": true,
          "name": "_metaEvidenceID",
          "type": "uint256"
        },
        {
          "indexed": false,
          "name": "_evidence",
          "type": "string"
        }
      ],
      "name": "MetaEvidence",
      "type": "event"
    },
    {
      "anonymous": false,
      "inputs": [
        {
          "indexed": true,
          "name": "_arbitrator",
          "type": "address"
        },
        {
          "indexed": true,
          "name": "_disputeID",
          "type": "uint256"
        },
        {
          "indexed": false,
          "name": "_metaEvidenceID",
          "type": "uint256"
        }
      ],
      "name": "Dispute",
      "type": "event"
    },
    {
      "anonymous": false,
      "inputs": [
        {
          "indexed": true,
          "name": "_arbitrator",
          "type": "address"
        },
        {
          "indexed": true,
          "name": "_disputeID",
          "type": "uint256"
        },
        {
          "indexed": true,
          "name": "_party",
          "type": "address"
        },
        {
          "indexed": false,
          "name": "_evidence",
          "type": "string"
        }
      ],
      "name": "Evidence",
      "type": "event"
    },
    {
      "anonymous": false,
      "inputs": [
        {
          "indexed": true,
          "name": "_arbitrator",
          "type": "address"
        },
        {
          "indexed": true,
          "name": "_disputeID",
          "type": "uint256"
        },
        {
          "indexed": false,
          "name": "_ruling",
          "type": "uint256"
        }
      ],
      "name": "Ruling",
      "type": "event"
    },
    {
      "constant": false,
      "inputs": [
        {
          "name": "_tokenID",
          "type": "bytes32"
        },
        {
          "name": "_name",
          "type": "string"
        },
        {
          "name": "_ticker",
          "type": "string"
        },
        {
          "name": "_addr",
          "type": "address"
        }
      ],
      "name": "requestStatusChange",
      "outputs": [],
      "payable": true,
      "stateMutability": "payable",
      "type": "function"
    },
    {
      "constant": false,
      "inputs": [
        {
          "name": "_tokenID",
          "type": "bytes32"
        }
      ],
      "name": "fundChallenger",
      "outputs": [],
      "payable": true,
      "stateMutability": "payable",
      "type": "function"
    },
    {
      "constant": false,
      "inputs": [
        {
          "name": "_tokenID",
          "type": "bytes32"
        }
      ],
      "name": "fundRequester",
      "outputs": [],
      "payable": true,
      "stateMutability": "payable",
      "type": "function"
    },
    {
      "constant": false,
      "inputs": [
        {
          "name": "_tokenID",
          "type": "bytes32"
        }
      ],
      "name": "executeRequest",
      "outputs": [],
      "payable": false,
      "stateMutability": "nonpayable",
      "type": "function"
    },
    {
      "constant": false,
      "inputs": [
        {
          "name": "_tokenID",
          "type": "bytes32"
        },
        {
          "name": "_evidence",
          "type": "string"
        }
      ],
      "name": "submitEvidence",
      "outputs": [],
      "payable": false,
      "stateMutability": "nonpayable",
      "type": "function"
    },
    {
      "constant": false,
      "inputs": [
        {
          "name": "_timeToChallenge",
          "type": "uint256"
        }
      ],
      "name": "changeTimeToChallenge",
      "outputs": [],
      "payable": false,
      "stateMutability": "nonpayable",
      "type": "function"
    },
    {
      "constant": false,
      "inputs": [
        {
          "name": "_challengeReward",
          "type": "uint256"
        }
      ],
      "name": "changeChallengeReward",
      "outputs": [],
      "payable": false,
      "stateMutability": "nonpayable",
      "type": "function"
    },
    {
      "constant": false,
      "inputs": [
        {
          "name": "_governor",
          "type": "address"
        }
      ],
      "name": "changeGovernor",
      "outputs": [],
      "payable": false,
      "stateMutability": "nonpayable",
      "type": "function"
    },
    {
      "constant": false,
      "inputs": [
        {
          "name": "_stake",
          "type": "uint256"
        }
      ],
      "name": "changeStake",
      "outputs": [],
      "payable": false,
      "stateMutability": "nonpayable",
      "type": "function"
    },
    {
      "constant": false,
      "inputs": [
        {
          "name": "_arbitrationFeesWaitingTime",
          "type": "uint256"
        }
      ],
      "name": "changeArbitrationFeesWaitingTime",
      "outputs": [],
      "payable": false,
      "stateMutability": "nonpayable",
      "type": "function"
    },
    {
      "constant": true,
      "inputs": [
        {
          "name": "_tokenID",
          "type": "bytes32"
        }
      ],
      "name": "isPermitted",
      "outputs": [
        {
          "name": "allowed",
          "type": "bool"
        }
      ],
      "payable": false,
      "stateMutability": "view",
      "type": "function"
    },
    {
      "constant": true,
      "inputs": [],
      "name": "tokensCounts",
      "outputs": [
        {
          "name": "disputed",
          "type": "uint256"
        },
        {
          "name": "absent",
          "type": "uint256"
        },
        {
          "name": "registered",
          "type": "uint256"
        },
        {
          "name": "submitted",
          "type": "uint256"
        },
        {
          "name": "clearingRequested",
          "type": "uint256"
        }
      ],
      "payable": false,
      "stateMutability": "view",
      "type": "function"
    },
    {
      "constant": true,
      "inputs": [
        {
          "name": "_cursor",
          "type": "bytes32"
        },
        {
          "name": "_count",
          "type": "uint256"
        },
        {
          "name": "_filter",
          "type": "bool[8]"
        },
        {
          "name": "_oldestFirst",
          "type": "bool"
        }
      ],
      "name": "queryTokens",
      "outputs": [
        {
          "name": "values",
          "type": "bytes32[]"
        },
        {
          "name": "hasMore",
          "type": "bool"
        }
      ],
      "payable": false,
      "stateMutability": "view",
      "type": "function"
    },
    {
      "constant": true,
      "inputs": [
        {
          "name": "available",
          "type": "uint256"
        },
        {
          "name": "requiredAmount",
          "type": "uint256"
        }
      ],
      "name": "calculateContribution",
      "outputs": [
        {
          "name": "",
          "type": "uint256"
        },
        {
          "name": "remainder",
          "type": "uint256"
        }
      ],
      "payable": false,
      "stateMutability": "view",
      "type": "function"
    }
  ],
  "bytecode": "0x60806040523480156200001157600080fd5b50604051620029ca380380620029ca8339810160409081528151602080840151928401516060850151608086015160a087015160c088015160e089015160008054600160a060020a031916600160a060020a038a1617905597890180519799909895019693959294919390928991899162000092916001918401906200016e565b5050506002839055600382905560068054600160a060020a031916600160a060020a0387161790556004849055600581905560408051602080825288518183015288516000937f61606860eb6c87306811e2695215385101daab53bd6ab4e9f9049aead9363c7d938b93909283928301918501908083838a5b83811015620001255781810151838201526020016200010b565b50505050905090810190601f168015620001535780820380516001836020036101000a031916815260200191505b509250505060405180910390a2505050505050505062000213565b828054600181600116156101000203166002900490600052602060002090601f016020900481019282601f10620001b157805160ff1916838001178555620001e1565b82800160010185558215620001e1579182015b82811115620001e1578251825591602001919060010190620001c4565b50620001ef929150620001f3565b5090565b6200021091905b80821115620001ef5760008155600101620001fa565b90565b6127a780620002236000396000f3006080604052600436106101485763ffffffff7c01000000000000000000000000000000000000000000000000000000006000350416630689d0ff811461014d5780630c340a24146101745780630c7ac7b6146101a557806313ba25801461022f5780631d08991b14610249578063311a6c56146102615780633a4b66f11461027c5780633ea0c15e146102915780633f92dce6146102a65780634d12e34e146102d5578063636a675e146102ed5780636a457f14146102f85780636cc6cde11461037a578063834072241461038f5780638c6ef7371461039a578063904194a3146103da578063beabdb7b14610505578063d2996e1e14610531578063d36fdb1814610549578063d987adf414610561578063e4c0aaf414610576578063e9c2416614610597578063f48a0b31146105af578063f7b2eb3f1461060d578063feeeabdc14610625575b600080fd5b34801561015957600080fd5b50610162610659565b60408051918252519081900360200190f35b34801561018057600080fd5b5061018961065f565b60408051600160a060020a039092168252519081900360200190f35b3480156101b157600080fd5b506101ba61066e565b6040805160208082528351818301528351919283929083019185019080838360005b838110156101f45781810151838201526020016101dc565b50505050905090810190601f1680156102215780820380516001836020036101000a031916815260200191505b509250505060405180910390f35b34801561023b57600080fd5b506102476004356106fb565b005b34801561025557600080fd5b50610247600435610750565b34801561026d57600080fd5b506102476004356024356107a5565b34801561028857600080fd5b50610162610872565b34801561029d57600080fd5b50610162610878565b610247600480359060248035808201929081013591604435908101910135600160a060020a036064351661087e565b3480156102e157600080fd5b50610162600435610ba3565b610247600435610bc2565b34801561030457600080fd5b5061031b6004356024356044610144351515611081565b604051808060200183151515158152602001828103825284818151815260200191508051906020019060200280838360005b8381101561036557818101518382015260200161034d565b50505050905001935050505060405180910390f35b34801561038657600080fd5b5061018961140a565b610247600435611419565b3480156103a657600080fd5b506103af611a86565b6040805195865260208601949094528484019290925260608401526080830152519081900360a00190f35b3480156103e657600080fd5b506103f2600435611ba1565b6040518086600381111561040257fe5b60ff1681526020018060200185600160a060020a0316600160a060020a0316815260200180602001848152602001838103835287818151815260200191508051906020019080838360005b8381101561046557818101518382015260200161044d565b50505050905090810190601f1680156104925780820380516001836020036101000a031916815260200191505b50838103825285518152855160209182019187019080838360005b838110156104c55781810151838201526020016104ad565b50505050905090810190601f1680156104f25780820380516001836020036101000a031916815260200191505b5097505050505050505060405180910390f35b34801561051157600080fd5b5061051d600435611cf7565b604080519115158252519081900360200190f35b34801561053d57600080fd5b50610162600435611d39565b34801561055557600080fd5b50610247600435611d4b565b34801561056d57600080fd5b50610162611da0565b34801561058257600080fd5b50610247600160a060020a0360043516611da6565b3480156105a357600080fd5b50610247600435611e25565b3480156105bb57600080fd5b5060408051602060046024803582810135601f81018590048502860185019096528585526102479583359536956044949193909101919081908401838280828437509497506120ce9650505050505050565b34801561061957600080fd5b5061024760043561222d565b34801561063157600080fd5b50610640600435602435612282565b6040805192835260208301919091528051918290030190f35b60035481565b600654600160a060020a031681565b60018054604080516020600284861615610100026000190190941693909304601f810184900484028201840190925281815292918301828280156106f35780601f106106c8576101008083540402835291602001916106f3565b820191906000526020600020905b8154815290600101906020018083116106d657829003601f168201915b505050505081565b600654600160a060020a0316331461074b576040805160e560020a62461bcd02815260206004820152601f602482015260008051602061275c833981519152604482015290519081900360640190fd5b600455565b600654600160a060020a031633146107a0576040805160e560020a62461bcd02815260206004820152601f602482015260008051602061275c833981519152604482015290519081900360640190fd5b600255565b600054600160a060020a0316331461082d576040805160e560020a62461bcd02815260206004820152602560248201527f43616e206f6e6c792062652063616c6c6564206279207468652061726269747260448201527f61746f722e000000000000000000000000000000000000000000000000000000606482015290519081900360840190fd5b604080518281529051839133917f394027a5fa6e098a1191094d1719d6929b9abc535fcc0c8f448d6a4e756222769181900360200190a361086e82826122a7565b5050565b60055481565b60025481565b600080600254341415156108dc576040805160e560020a62461bcd02815260206004820152600f60248201527f4e6f7420656e6f756768204554482e0000000000000000000000000000000000604482015290519081900360640190fd5b6000888152600760205260409020600581015490925015156109455761090660018301888861256c565b5061091560038301868661256c565b5060028201805473ffffffffffffffffffffffffffffffffffffffff1916600160a060020a0385161790556109e8565b600582018054600019810190811061095957fe5b60009182526020909120600f909102015460ff16156109e8576040805160e560020a62461bcd02815260206004820152603f60248201527f546f6b656e206d757374206e6f7420626520646973707574656420666f72207360448201527f75626d697474696e6720737461747573206368616e6765207265717565737400606482015290519081900360840190fd5b6000825460ff1660038111156109fa57fe5b1415610a19578154600290839060ff19166001835b0217905550610aba565b6001825460ff166003811115610a2b57fe5b1415610a44578154600390839060ff1916600183610a0f565b6040805160e560020a62461bcd02815260206004820152602260248201527f546f6b656e20696e2077726f6e672073746174757320666f722072657175657360448201527f742e000000000000000000000000000000000000000000000000000000000000606482015290519081900360840190fd5b60058201805490610ace90600183016125ea565b506005820180546000198101908110610ae357fe5b6000918252602082206002546006600f90930290910191820155346005808301919091556004805460038085019190915591546007840155815481840155600c8301805473ffffffffffffffffffffffffffffffffffffffff191633908117909155429187019190915585546040519395508c9493919260008051602061273c8339815191529260ff90921691859181908490811115610b7f57fe5b60ff1681529115156020830152506040805191829003019150a45050505050505050565b6009805482908110610bb157fe5b600091825260209091200154905081565b600081815260076020526040812060048054908201549192918291829142910110610c5d576040805160e560020a62461bcd02815260206004820152602960248201527f5468652074696d6520746f206368616c6c656e67652068617320616c7265616460448201527f79207061737365642e0000000000000000000000000000000000000000000000606482015290519081900360840190fd5b825460ff1615610cb7576040805160e560020a62461bcd02815260206004820152601d60248201527f54686520746f6b656e20697320616c7265616479206469737075746564000000604482015290519081900360640190fd5b6002845460ff166003811115610cc957fe5b1480610ce457506003845460ff166003811115610ce257fe5b145b1515610d60576040805160e560020a62461bcd02815260206004820152602860248201527f546f6b656e20646f6573206e6f74206861766520616e792070656e64696e672060448201527f7265717565737473000000000000000000000000000000000000000000000000606482015290519081900360840190fd5b600584015415610de0576040805160e560020a62461bcd02815260206004820152602360248201527f5468652073706563696669656420746f6b656e20646f6573206e6f742065786960448201527f73742e0000000000000000000000000000000000000000000000000000000000606482015290519081900360840190fd5b6005840180546000198101908110610df457fe5b90600052602060002090600f0201925082600601548360050154141515610e8b576040805160e560020a62461bcd02815260206004820152602d60248201527f54686572652069736e277420612070656e64696e67207265717565737420666f60448201527f72207468697320746f6b656e2e00000000000000000000000000000000000000606482015290519081900360840190fd5b6007830154600684015401341015610eed576040805160e560020a62461bcd02815260206004820152600f60248201527f4e6f7420656e6f756768204554482e0000000000000000000000000000000000604482015290519081900360640190fd5b6007830154600a84015410801590610f0c575082600601548360050154145b1515610f88576040805160e560020a62461bcd02815260206004820152603160248201527f546865726520697320616c72656164792066756e6465642070656e64696e672060448201527f6368616c6c656e67652072657175657374000000000000000000000000000000606482015290519081900360840190fd5b600d8301805473ffffffffffffffffffffffffffffffffffffffff1916331790556006830154600584018054820190556007840154600a8501819055600e850180543493909303919091039350610fe2906001830161261b565b50600e830180546000198101908110610ff757fe5b906000526020600020906004020190506000821115611071578181600201553360009081526003820160205260409020829060020180549091019055426002840155604080518381529051339187917f7a081114c2e4eef9afd324e65ff2a3d1ca20ae09818f7d7609d54b9871068e8c9181900360200190a35b4284600401819055505050505050565b60606000806000806000806000808b6040519080825280602002602001820160405280156110b9578160200160208202803883390190505b509850600095508c15156110d0576000965061116c565b600094505b60095485101561111557600980548e9190879081106110f057fe5b600091825260209091200154141561110a57849650611115565b6001909401936110d5565b86151561116c576040805160e560020a62461bcd02815260206004820152601660248201527f54686520637572736f7220697320696e76616c69642e00000000000000000000604482015290519081900360640190fd5b861561118f57896111855760095487900360010161118a565b866001015b6111a2565b8961119b57600161119e565b60005b60ff165b93505b896111b5576009548411156111bb565b60095484105b156113fa5760098a6111d2576009548590036111d4565b845b815481106111de57fe5b60009182526020808320909101548083526007909152604090912060058101805492955090935090600019810190811061121457fe5b60009182526020909120600f9091020190508a351580159061124557506000825460ff16600381111561124357fe5b145b8061126d575060208b01351580159061126d57506001825460ff16600381111561126b57fe5b145b806112a3575060408b01351580159061129557506002825460ff16600381111561129357fe5b145b80156112a35750805460ff16155b806112d9575060608b0135158015906112cb57506003825460ff1660038111156112c957fe5b145b80156112d95750805460ff16155b8061130e575060808b01351580159061130157506002825460ff1660038111156112ff57fe5b145b801561130e5750805460ff165b80611343575060a08b01351580159061133657506003825460ff16600381111561133457fe5b145b80156113435750805460ff165b80611368575060c08b0135158015906113685750600c810154600160a060020a031633145b8061138d575060e08b01351580159061138d5750600d810154600160a060020a031633145b156113ef578b8610156113e65760098a6113ac576009548590036113ae565b845b815481106113b857fe5b906000526020600020015489878151811015156113d157fe5b602090810290910101526001909501946113ef565b600197506113fa565b6001909301926111a5565b5050505050505094509492505050565b600054600160a060020a031681565b6000818152600760205260408120908080806002855460ff16600381111561143d57fe5b148061145857506003855460ff16600381111561145657fe5b145b15156114d4576040805160e560020a62461bcd02815260206004820152602860248201527f546f6b656e20646f6573206e6f74206861766520616e792070656e64696e672060448201527f7265717565737473000000000000000000000000000000000000000000000000606482015290519081900360840190fd5b600585015415611554576040805160e560020a62461bcd02815260206004820152602360248201527f5468652073706563696669656420746f6b656e20646f6573206e6f742065786960448201527f73742e0000000000000000000000000000000000000000000000000000000000606482015290519081900360840190fd5b600585018054600019810190811061156857fe5b60009182526020909120600f90910201805490945060ff16156115d5576040805160e560020a62461bcd02815260206004820152601d60248201527f54686520746f6b656e20697320616c7265616479206469737075746564000000604482015290519081900360640190fd5b6003840154600285015442910111611637576040805160e560020a62461bcd02815260206004820152601b60248201527f4172626974726174696f6e20666565732074696d6564206f75742e0000000000604482015290519081900360640190fd5b6007840154341015611693576040805160e560020a62461bcd02815260206004820152600f60248201527f4e6f7420656e6f756768204554482e0000000000000000000000000000000000604482015290519081900360640190fd5b6007840154600a850154146116f2576040805160e560020a62461bcd02815260206004820152601960248201527f466565207374616b6520616c72656164792066756e6465642e00000000000000604482015290519081900360640190fd5b600e84018054600019810190811061170657fe5b60009182526020909120600786015460049092020193503492506008850160020154116117465761173b828560070154612282565b600a86019190915591505b60008211156117b0578183600201553360009081526003840160205260409020829060020180549091019055426002850155604080518381529051339188917f7a081114c2e4eef9afd324e65ff2a3d1ca20ae09818f7d7609d54b9871068e8c9181900360200190a35b426004808701919091556000546040517ff7434ea900000000000000000000000000000000000000000000000000000000815260209281019283526001805460026000198284161561010002019091160460248301819052600160a060020a039093169363f7434ea99391929091829160440190849080156118735780601f1061184857610100808354040283529160200191611873565b820191906000526020600020905b81548152906001019060200180831161185657829003601f168201915b505092505050602060405180830381600087803b15801561189357600080fd5b505af11580156118a7573d6000803e3d6000fd5b505050506040513d60208110156118bd57600080fd5b50519050808360010154101580156118d9575080836002015410155b15611a7e57600054604080517fc13517e100000000000000000000000000000000000000000000000000000000815260026004820181815260248301938452600180546000198183161561010002011683900460448501819052600160a060020a039096169563c13517e19588959293929091606490910190849080156119a15780601f10611976576101008083540402835291602001916119a1565b820191906000526020600020905b81548152906001019060200180831161198457829003601f168201915b505093505050506020604051808303818588803b1580156119c157600080fd5b505af11580156119d5573d6000803e3d6000fd5b50505050506040513d60208110156119ec57600080fd5b50516001858101829055600091825260086020526040909120879055845460ff191617845585600b850160020154600160a060020a0316600b86016001015487548754604051600160a060020a039093169260008051602061273c8339815191529260ff90811692169080836003811115611a6357fe5b60ff1681529115156020830152506040805191829003019150a45b505050505050565b6000808080808080805b600954831015611b975760076000600985815481101515611aad57fe5b600091825260208083209091015483528201929092526040019020600581018054919350906000198101908110611ae057fe5b60009182526020909120600f90910201805490915060ff1615611b04576001909701965b6000825460ff166003811115611b1657fe5b1415611b2757600190960195611b8c565b6001825460ff166003811115611b3957fe5b1415611b4a57600190950194611b8c565b6002825460ff166003811115611b5c57fe5b1415611b6d57600190940193611b8c565b6003825460ff166003811115611b7f57fe5b1415611b8c576001909301925b600190920191611a90565b5050509091929394565b6007602090815260009182526040918290208054600180830180548651600261010094831615949094026000190190911692909204601f810186900486028301860190965285825260ff909216949293909290830182828015611c455780601f10611c1a57610100808354040283529160200191611c45565b820191906000526020600020905b815481529060010190602001808311611c2857829003601f168201915b505050506002838101546003850180546040805160206101006001851615026000190190931695909504601f81018390048302860183019091528085529596600160a060020a0390931695929450909190830182828015611ce75780601f10611cbc57610100808354040283529160200191611ce7565b820191906000526020600020905b815481529060010190602001808311611cca57829003601f168201915b5050505050908060040154905085565b60008181526007602052604081206001815460ff166003811115611d1757fe5b1480611d3257506003815460ff166003811115611d3057fe5b145b9392505050565b60086020526000908152604090205481565b600654600160a060020a03163314611d9b576040805160e560020a62461bcd02815260206004820152601f602482015260008051602061275c833981519152604482015290519081900360640190fd5b600355565b60045481565b600654600160a060020a03163314611df6576040805160e560020a62461bcd02815260206004820152601f602482015260008051602061275c833981519152604482015290519081900360640190fd5b6006805473ffffffffffffffffffffffffffffffffffffffff1916600160a060020a0392909216919091179055565b60008181526007602052604081206005810180549192916000198101908110611e4a57fe5b90600052602060002090600f0201905042600354836004015401111515611ee1576040805160e560020a62461bcd02815260206004820152602960248201527f5468652074696d6520746f206368616c6c656e676520686173206e6f7420706160448201527f73736564207965742e0000000000000000000000000000000000000000000000606482015290519081900360840190fd5b805460ff1615611f60576040805160e560020a62461bcd028152602060048201526024808201527f546865207370656369666965642061677265656d656e7420697320646973707560448201527f7465642e00000000000000000000000000000000000000000000000000000000606482015290519081900360840190fd5b6002825460ff166003811115611f7257fe5b1415611f90578154600190839060ff191682805b0217905550612031565b6003825460ff166003811115611fa257fe5b1415611fbb578154600090839060ff1916600183611f86565b6040805160e560020a62461bcd02815260206004820152602c60248201527f546f6b656e20696e2077726f6e672073746174757320666f722065786563757460448201527f696e6720726571756573742e0000000000000000000000000000000000000000606482015290519081900360840190fd5b426004830155600c8101546005820154604051600160a060020a03909216916108fc82150291906000818181858888f15050600060058501819055869350915050600b8301600101548454604051600160a060020a039092169160008051602061273c8339815191529160ff1690600090808360038111156120af57fe5b60ff1681529115156020830152506040805191829003019150a4505050565b600082815260076020526040812060058101805491929160001981019081106120f357fe5b60009182526020909120600f90910201805490915060ff161515612161576040805160e560020a62461bcd02815260206004820152601b60248201527f5468652072657175657374206973206e6f742064697370757465640000000000604482015290519081900360640190fd5b33600160a060020a031681600101546000809054906101000a9004600160a060020a0316600160a060020a03167fdccf2f8b2cc26eafcd61905cba744cff4b81d14740725f6376390dc6298a6a3c866040518080602001828103825283818151815260200191508051906020019080838360005b838110156121ed5781810151838201526020016121d5565b50505050905090810190601f16801561221a5780820380516001836020036101000a031916815260200191505b509250505060405180910390a450505050565b600654600160a060020a0316331461227d576040805160e560020a62461bcd02815260206004820152601f602482015260008051602061275c833981519152604482015290519081900360640190fd5b600555565b60008082841015612298575082905060006122a0565b508190508083035b9250929050565b600082815260086020908152604080832054808452600790925282209091808060018614156122d957600192506122e7565b60028614156122e757600292505b60018360028111156122f557fe5b141561233d576002845460ff16600381111561230d57fe5b141561232357835460ff19166001178455612338565b8354600090859060ff19166001835b02179055505b61238c565b6002845460ff16600381111561234f57fe5b1415612368578354600090859060ff1916600183612332565b6003845460ff16600381111561237a57fe5b141561238c57835460ff191660011784555b60058401805460001981019081106123a057fe5b60009182526020909120600f90910201600e810180549193509060001981019081106123c857fe5b60009182526020909120600490910201905060028360028111156123e857fe5b141561243557600d820154600160a060020a03166108fc8260025b6003811061240d57fe5b01548460060154019081150290604051600060405180830381858888f19350505050506124cd565b600183600281111561244357fe5b141561246257600c820154600160a060020a03166108fc826001612403565b600c82015460018201546006840154604051600160a060020a0390931692910180156108fc02916000818181858888f1505050600d84015460028401546006860154604051600160a060020a0390931694500180156108fc029250906000818181858888f150505050505b426004850155815460ff191682556000600583018190558160010155600081600201556000600683015584600b830160020154600160a060020a0316600b84016001015486548554604051600160a060020a039093169260008051602061273c8339815191529260ff9081169216908083600381111561254957fe5b60ff1681529115156020830152506040805191829003019150a450505050505050565b828054600181600116156101000203166002900490600052602060002090601f016020900481019282601f106125ad5782800160ff198235161785556125da565b828001600101855582156125da579182015b828111156125da5782358255916020019190600101906125bf565b506125e6929150612647565b5090565b81548183558181111561261657600f0281600f0283600052602060002091820191016126169190612664565b505050565b8154818355818111156126165760040281600402836000526020600020918201910161261691906126df565b61266191905b808211156125e6576000815560010161264d565b90565b61266191905b808211156125e657805460ff191681556000600182018190556002820181905560038201819055600482018190556005820181905560068201819055600782018190556126ba6008830182612702565b6126c8600b83016000612702565b6126d6600e83016000612717565b50600f0161266a565b61266191905b808211156125e65760006126f98282612702565b506004016126e5565b50600081556001016000815560010160009055565b508054600082556004029060005260206000209081019061273891906126df565b5056003ee664d593ac27afc86a29df82d69632252db742dc1d088b04f51fa26316dd865468652063616c6c6572206973206e6f742074686520676f7665726e6f722e00a165627a7a7230582075bdd88928309210f47b777c5b9f567733cdb73051dcb486ad01a836e40a19ec0029",
  "source": "/**\n *  @title ArbitrableTokenList\n *  @author Matheus Alencar - <mtsalenc@gmail.com>\n *  This code hasn't undertaken bug bounty programs yet.\n */\n\npragma solidity ^0.4.24;\n\nimport \"../arbitration/Arbitrable.sol\";\nimport \"./PermissionInterface.sol\";\n/**\n *  @title ArbitrableTokenList\n *  This is a T2CL for tokens. Tokens can be submitted and cleared with a time out for challenging.\n */\ncontract ArbitrableTokenList is PermissionInterface, Arbitrable {\n\n    /* Enums */\n\n    enum TokenStatus {\n        Absent, // The token is not on the list.\n        Registered, // The token is on the list.\n        RegistrationRequested, // The token has a request to be added to the list.\n        ClearingRequested // The token has a request to be removed from the list.\n    }\n\n    enum RulingOption {\n        Other, // Arbitrator did not rule of refused to rule.\n        Accept, // Execute request. Rule in favor of requester.\n        Refuse // Refuse request. Rule in favor of challenger.\n    }\n\n    enum Party {\n        None,\n        Requester,\n        Challenger\n    }\n\n    /* Structs */\n\n    // Array of party balances have 3 elements to map with the Party enum for better readability:\n    // - 0 is unused, matches Party.None.\n    // - 1 for Party.Requester\n    // - 2 for Party.Challenger\n\n    struct Token {\n        TokenStatus status;\n        string name;\n        address addr;\n        string ticker;\n        uint lastAction; // Time of the last action.\n        Request[] requests;\n    }\n\n    struct Request {\n        bool disputed; // True if a dispute is taking place.\n        uint disputeID; // ID of the dispute, if any.\n        uint firstContributionTime; // The time the first contribution was made at.\n        uint arbitrationFeesWaitingTime; // The waiting time for fees for each round.\n        uint timeToChallenge; // The time to challenge for each round.\n        uint challengeRewardBalance; // The amount of funds placed at stake for this token.\n        uint challengeReward; // The challengeReward of the token for the round.\n        uint requiredFeeStake; // The required stake.\n        uint[3] paidFeeStake; // The stake paid by each side, if any.\n        address[3] parties; // Address of requester and challenger, if any.\n        Round[] rounds; // Tracks fees for each round of dispute and appeals.\n    }\n\n    struct Round {\n        uint[3] paidFees; // The amount of fees paid for each side, if any.\n        mapping(address => uint[3]) contributions; // Maps contributors to their contributions for each side, if any.\n    }\n\n    /* Modifiers */\n\n    modifier onlyGovernor {require(msg.sender == governor, \"The caller is not the governor.\"); _;}\n\n    /* Events */\n\n    /**\n     *  @dev Called when the token's status changes or when it is challenged/resolved.\n     *  @param requester Address of the requester.\n     *  @param challenger Address of the challenger, if any.\n     *  @param tokenID The tokenID of the token.\n     *  @param status The status of the token.\n     *  @param disputed Wether the token is being disputed.\n     */\n    event TokenStatusChange(\n        address indexed requester,\n        address indexed challenger,\n        bytes32 indexed tokenID,\n        TokenStatus status,\n        bool disputed\n    );\n\n    /** @dev Emitted when a contribution is made.\n     *  @param _tokenID The ID of the token that the contribution was made to.\n     *  @param _contributor The address that sent the contribution.\n     *  @param _value The value of the contribution.\n     */\n    event Contribution(bytes32 indexed _tokenID, address indexed _contributor, uint _value);\n\n    // TODO: Add event for challengeRequested\n\n    /* Storage */\n\n    // Settings\n    uint public challengeReward; // The stake deposit required in addition to arbitration fees for challenging a request.\n    uint public timeToChallenge; // The time before a request becomes executable if not challenged.\n    uint public arbitrationFeesWaitingTime; // The maximum time to wait for arbitration fees if the dispute is raised.\n    uint public stake; // The stake parameter for arbitration fees crowdfunding.\n    address public governor; // The address that can update t2clGovernor, arbitrationFeesWaitingTime and challengeReward.\n\n    // Tokens\n    mapping(bytes32 => Token) public tokens;\n    mapping(uint => bytes32) public disputeIDToTokenID;\n    bytes32[] public tokensList;\n\n    /* Constructor */\n\n    /**\n     *  @dev Constructs the arbitrable token list.\n     *  @param _arbitrator The chosen arbitrator.\n     *  @param _arbitratorExtraData Extra data for the arbitrator contract.\n     *  @param _metaEvidence The URI of the meta evidence object.\n     *  @param _governor The governor of this contract.\n     *  @param _arbitrationFeesWaitingTime The maximum time to wait for arbitration fees if the dispute is raised.\n     *  @param _challengeReward The amount in Weis of deposit required for a submission or a challenge in addition to the arbitration fees.\n     *  @param _timeToChallenge The time in seconds, parties have to challenge.\n     *  @param _stake The stake parameter for sharing fees.\n     */\n    constructor(\n        Arbitrator _arbitrator,\n        bytes _arbitratorExtraData,\n        string _metaEvidence,\n        address _governor,\n        uint _arbitrationFeesWaitingTime,\n        uint _challengeReward,\n        uint _timeToChallenge,\n        uint _stake\n    ) Arbitrable(_arbitrator, _arbitratorExtraData) public {\n        challengeReward = _challengeReward;\n        timeToChallenge = _timeToChallenge;\n        governor = _governor;\n        arbitrationFeesWaitingTime = _arbitrationFeesWaitingTime;\n        stake = _stake;\n        emit MetaEvidence(0, _metaEvidence);\n    }\n\n    /* Public */\n\n    // ************************ //\n    // *       Requests       * //\n    // ************************ //\n\n    /** @dev Submits a request to change the token status.\n     *  @param _tokenID The keccak hash of a JSON object with all of the token's properties and no insignificant whitespaces.\n     *  @param _name The name of the token.\n     *  @param _ticker The token ticker.\n     *  @param _addr The token address.\n     */\n    function requestStatusChange(\n        bytes32 _tokenID,\n        string _name,\n        string _ticker,\n        address _addr\n    ) external payable {\n        require(msg.value == challengeReward, \"Not enough ETH.\");\n        Token storage token = tokens[_tokenID];\n        if(token.requests.length == 0) {\n            // Initial token registration\n            token.name = _name;\n            token.ticker = _ticker;\n            token.addr = _addr;\n        } else\n            require(\n                !token.requests[token.requests.length - 1].disputed,\n                \"Token must not be disputed for submitting status change request\"\n            );\n\n        if (token.status == TokenStatus.Absent)\n            token.status = TokenStatus.RegistrationRequested;\n        else if (token.status == TokenStatus.Registered)\n            token.status = TokenStatus.ClearingRequested;\n        else\n            revert(\"Token in wrong status for request.\");\n\n        token.requests.length++;\n\n        Request storage request = token.requests[token.requests.length - 1];\n        request.challengeReward = challengeReward;\n        request.challengeRewardBalance = msg.value;\n        request.arbitrationFeesWaitingTime = arbitrationFeesWaitingTime;\n        request.requiredFeeStake = stake;\n        request.timeToChallenge = timeToChallenge;\n        request.parties[uint(Party.Requester)] = msg.sender;\n\n        token.lastAction = now;\n\n        emit TokenStatusChange(msg.sender, address(0), _tokenID, token.status, false);\n    }\n\n    /** @dev Challenge a request for a token.\n     *  @param _tokenID The tokenID of the token with the request to execute.\n     */\n    function fundChallenger(bytes32 _tokenID) external payable {\n        Token storage token = tokens[_tokenID];\n        require(token.lastAction + request.timeToChallenge < now, \"The time to challenge has already passed.\");\n        require(!request.disputed, \"The token is already disputed\");\n        require(\n            token.status == TokenStatus.RegistrationRequested || token.status == TokenStatus.ClearingRequested,\n            \"Token does not have any pending requests\"\n        );\n        require(token.requests.length == 0, \"The specified token does not exist.\");\n        Request storage request = token.requests[token.requests.length - 1];\n        require(request.challengeRewardBalance == request.challengeReward, \"There isn't a pending request for this token.\");\n        require(\n            msg.value >= request.challengeReward + request.requiredFeeStake,\n            \"Not enough ETH.\"\n        );\n        require(\n            request.paidFeeStake[uint(Party.Challenger)] >= request.requiredFeeStake && request.challengeRewardBalance == request.challengeReward,\n            \"There is already funded pending challenge request\"\n        );\n\n        request.parties[uint(Party.Challenger)] = msg.sender;\n        request.challengeRewardBalance += request.challengeReward;\n        request.paidFeeStake[uint(Party.Challenger)] = request.requiredFeeStake;\n        uint remainingETH = msg.value - request.challengeReward - request.requiredFeeStake;\n\n        request.rounds.length++;\n        Round storage round = request.rounds[request.rounds.length - 1];\n\n        if(remainingETH > 0) {\n            round.paidFees[uint(Party.Challenger)] = remainingETH;\n            round.contributions[msg.sender][uint(Party.Challenger)] += remainingETH;\n            request.firstContributionTime = now;\n            emit Contribution(_tokenID, msg.sender, remainingETH);\n        }\n\n        token.lastAction = now;\n    }\n\n    /** @dev Fund the requester side of the dispute. Contributes to fee stake first, then to the crowdfunding.\n     *  @param _tokenID The tokenID of the token with the request to execute.\n     */\n    function fundRequester(bytes32 _tokenID) external payable {\n        Token storage token = tokens[_tokenID];\n        require(\n            token.status == TokenStatus.RegistrationRequested || token.status == TokenStatus.ClearingRequested,\n            \"Token does not have any pending requests\"\n        );\n        require(token.requests.length == 0, \"The specified token does not exist.\");\n        Request storage request = token.requests[token.requests.length - 1];\n        require(!request.disputed, \"The token is already disputed\");\n        require(request.firstContributionTime + request.arbitrationFeesWaitingTime > now, \"Arbitration fees timed out.\");\n        require(msg.value >= request.requiredFeeStake, \"Not enough ETH.\");\n        require(request.paidFeeStake[uint(Party.Challenger)] == request.requiredFeeStake, \"Fee stake already funded.\");\n\n        Round storage round = request.rounds[request.rounds.length - 1];\n        uint remainingETH = msg.value;\n        if(request.paidFeeStake[uint(Party.Challenger)] <= request.requiredFeeStake)\n            (request.paidFeeStake[uint(Party.Challenger)], remainingETH) =\n                calculateContribution(remainingETH, request.requiredFeeStake);\n\n        if(remainingETH > 0) {\n            round.paidFees[uint(Party.Challenger)] = remainingETH;\n            round.contributions[msg.sender][uint(Party.Challenger)] += remainingETH;\n            request.firstContributionTime = now;\n            emit Contribution(_tokenID, msg.sender, remainingETH);\n        }\n\n        token.lastAction = now;\n\n        uint arbitrationCost = arbitrator.arbitrationCost(arbitratorExtraData);\n        if (round.paidFees[uint(Party.Requester)] >= arbitrationCost && round.paidFees[uint(Party.Challenger)] >= arbitrationCost) {\n            request.disputeID = arbitrator.createDispute.value(arbitrationCost)(2, arbitratorExtraData);\n            disputeIDToTokenID[request.disputeID] = _tokenID;\n            request.disputed = true;\n            emit TokenStatusChange(\n                request.parties[uint(Party.Requester)],\n                request.parties[uint(Party.Challenger)],\n                _tokenID,\n                token.status,\n                request.disputed\n            );\n        }\n    }\n\n    /** @dev Execute a request after the time for challenging it has passed. Can be called by anyone.\n     *  @param _tokenID The tokenID of the token with the request to execute.\n     */\n    function executeRequest(bytes32 _tokenID) external {\n        Token storage token = tokens[_tokenID];\n        Request storage request = token.requests[token.requests.length - 1];\n        require(token.lastAction + timeToChallenge > now, \"The time to challenge has not passed yet.\");\n        require(!request.disputed, \"The specified agreement is disputed.\");\n\n        if (token.status == TokenStatus.RegistrationRequested)\n            token.status = TokenStatus.Registered;\n        else if (token.status == TokenStatus.ClearingRequested)\n            token.status = TokenStatus.Absent;\n        else\n            revert(\"Token in wrong status for executing request.\");\n\n        token.lastAction = now;\n        request.parties[uint(Party.Requester)].send(request.challengeRewardBalance); // Deliberate use of send in order to not block the contract in case of reverting fallback.\n        request.challengeRewardBalance = 0;\n\n        emit TokenStatusChange(request.parties[uint(Party.Requester)], address(0), _tokenID, token.status, false);\n    }\n\n    /** @dev Submit a reference to evidence. EVENT.\n     *  @param _evidence A link to an evidence using its URI.\n     */\n    function submitEvidence(bytes32 _tokenID, string _evidence) public {\n        Token storage token = tokens[_tokenID];\n        Request storage request = token.requests[token.requests.length - 1];\n        require(request.disputed, \"The request is not disputed\");\n        emit Evidence(arbitrator, request.disputeID, msg.sender, _evidence);\n    }\n\n    // ************************ //\n    // *      Governance      * //\n    // ************************ //\n\n    /** @dev Changes the `timeToChallenge` storage variable.\n     *  @param _timeToChallenge The new `timeToChallenge` storage variable.\n     */\n    function changeTimeToChallenge(uint _timeToChallenge) external onlyGovernor {\n        timeToChallenge = _timeToChallenge;\n    }\n\n    /** @dev Changes the `challengeReward` storage variable.\n     *  @param _challengeReward The new `challengeReward` storage variable.\n     */\n    function changeChallengeReward(uint _challengeReward) external onlyGovernor {\n        challengeReward = _challengeReward;\n    }\n\n    /** @dev Changes the `governor` storage variable.\n     *  @param _governor The new `governor` storage variable.\n     */\n    function changeGovernor(address _governor) external onlyGovernor {\n        governor = _governor;\n    }\n\n    /** @dev Changes the `stake` storage variable.\n     *  @param _stake The new `stake` storage variable.\n     */\n    function changeStake(uint _stake) public onlyGovernor {\n        stake = _stake;\n    }\n\n    /** @dev Changes the `arbitrationFeesWaitingTime` storage variable.\n     *  @param _arbitrationFeesWaitingTime The new `_arbitrationFeesWaitingTime` storage variable.\n     */\n    function changeArbitrationFeesWaitingTime(uint _arbitrationFeesWaitingTime) external onlyGovernor {\n        arbitrationFeesWaitingTime = _arbitrationFeesWaitingTime;\n    }\n\n    /* Public Views */\n\n    /** @dev Return true if the token is allowed. We consider the token to be in the list if its status is contested and it has not won a dispute previously.\n     *  @param _tokenID The tokenID of the token to check.\n     *  @return allowed True if the token is allowed, false otherwise.\n     */\n    function isPermitted(bytes32 _tokenID) external view returns (bool allowed) {\n        Token storage token = tokens[_tokenID];\n        return token.status == TokenStatus.Registered || token.status == TokenStatus.ClearingRequested;\n    }\n\n    /* Internal */\n\n    /**\n     *  @dev Execute the ruling of a dispute.\n     *  @param _disputeID ID of the dispute in the Arbitrator contract.\n     *  @param _ruling Ruling given by the arbitrator. Note that 0 is reserved for \"Not able/wanting to make a decision\".\n     */\n    function executeRuling(uint _disputeID, uint _ruling) internal {\n        bytes32 tokenID = disputeIDToTokenID[_disputeID];\n        Token storage token = tokens[tokenID];\n        Party winner;\n        if (_ruling == uint(RulingOption.Accept))\n            winner = Party.Requester;\n        else if (_ruling == uint(RulingOption.Refuse))\n            winner = Party.Challenger;\n\n        // Update token state\n        if(winner == Party.Requester) // Execute Request\n            if (token.status == TokenStatus.RegistrationRequested)\n                token.status = TokenStatus.Registered;\n            else\n                token.status = TokenStatus.Absent;\n        else // Revert to previous state.\n            if (token.status == TokenStatus.RegistrationRequested)\n                token.status = TokenStatus.Absent;\n            else if (token.status == TokenStatus.ClearingRequested)\n                token.status = TokenStatus.Registered;\n\n        Request storage request = token.requests[token.requests.length - 1];\n        Round storage round = request.rounds[request.rounds.length - 1];\n        // Send token balance and reimburse fees.\n        // Deliberate use of send in order to not block the contract in case of reverting fallback.\n        if(winner == Party.Challenger)\n            request.parties[uint(Party.Challenger)].send(request.challengeReward + round.paidFees[uint(Party.Challenger)]);\n        else if(winner == Party.Requester)\n            request.parties[uint(Party.Requester)].send(request.challengeReward + round.paidFees[uint(Party.Requester)]);\n        else {\n            // Reimburse parties.\n            request.parties[uint(Party.Requester)].send(request.challengeReward + round.paidFees[uint(Party.Requester)]);\n            request.parties[uint(Party.Challenger)].send(request.challengeReward + round.paidFees[uint(Party.Challenger)]);\n        }\n\n        token.lastAction = now;\n        request.disputed = false;\n        request.challengeRewardBalance = 0;\n        round.paidFees[uint(Party.Requester)] = 0;\n        round.paidFees[uint(Party.Challenger)] = 0;\n        request.challengeReward = 0; // Reset challengeReward once a dispute is resolved.\n\n        emit TokenStatusChange(request.parties[uint(Party.Requester)], request.parties[uint(Party.Challenger)], tokenID, token.status, request.disputed);\n    }\n\n    /* Interface Views */\n\n    /** @dev Return the numbers of tokens in the list per status. This function is O(n) at worst, where n is the number of tokens. This could exceed the gas limit, therefore this function should only be used for interface display and not by other contracts.\n     *  @return The numbers of tokens in the list per status.\n     */\n    function tokensCounts()\n        external\n        view\n        returns (\n            uint disputed,\n            uint absent,\n            uint registered,\n            uint submitted,\n            uint clearingRequested\n        )\n    {\n        for (uint i = 0; i < tokensList.length; i++) {\n            Token storage token = tokens[tokensList[i]];\n            Request storage request = token.requests[token.requests.length - 1];\n\n            if (request.disputed) disputed++;\n            if (token.status == TokenStatus.Absent) absent++;\n            else if (token.status == TokenStatus.Registered) registered++;\n            else if (token.status == TokenStatus.RegistrationRequested) submitted++;\n            else if (token.status == TokenStatus.ClearingRequested) clearingRequested++;\n        }\n    }\n\n    /** @dev Return the values of the tokens the query finds. This function is O(n) at worst, where n is the number of tokens. This could exceed the gas limit, therefore this function should only be used for interface display and not by other contracts.\n     *  @param _cursor The pagination cursor.\n     *  @param _count The number of tokens to return.\n     *  @param _filter The filter to use. Each element of the array in sequence means:\n     *  - Include absent tokens in result.\n     *  - Include registered tokens in result.\n     *  - Include tokens with registration requests that are not disputed in result.\n     *  - Include tokens with clearing requests that are not disputed in result.\n     *  - Include disputed tokens with registration requests in result.\n     *  - Include disputed tokens with clearing requests in result.\n     *  - Include tokens submitted by the caller.\n     *  - Include tokens challenged by the caller.\n     *  @param _oldestFirst The sort order to use.\n     *  @return The values of the tokens found and wether there are more tokens for the current filter and sort.\n     */\n    function queryTokens(\n        bytes32 _cursor,\n        uint _count,\n        bool[8] _filter,\n        bool _oldestFirst\n    ) external view returns (bytes32[] values, bool hasMore) {\n        uint _cursorIndex;\n        values = new bytes32[](_count);\n        uint _index = 0;\n\n        if (_cursor == 0)\n            _cursorIndex = 0;\n        else {\n            for (uint j = 0; j < tokensList.length; j++) {\n                if (tokensList[j] == _cursor) {\n                    _cursorIndex = j;\n                    break;\n                }\n            }\n            require(_cursorIndex != 0, \"The cursor is invalid.\");\n        }\n\n        for (\n                uint i = _cursorIndex == 0 ? (_oldestFirst ? 0 : 1) : (_oldestFirst ? _cursorIndex + 1 : tokensList.length - _cursorIndex + 1);\n                _oldestFirst ? i < tokensList.length : i <= tokensList.length;\n                i++\n            ) { // Oldest or newest first.\n            bytes32 tokenID = tokensList[_oldestFirst ? i : tokensList.length - i];\n            Token storage token = tokens[tokenID];\n            Request storage request = token.requests[token.requests.length - 1];\n            if (\n                    /* solium-disable operator-whitespace */\n                    (_filter[0] && token.status == TokenStatus.Absent) ||\n                    (_filter[1] && token.status == TokenStatus.Registered) ||\n                    (_filter[2] && token.status == TokenStatus.RegistrationRequested && !request.disputed) ||\n                    (_filter[3] && token.status == TokenStatus.ClearingRequested && !request.disputed) ||\n                    (_filter[4] && token.status == TokenStatus.RegistrationRequested && request.disputed) ||\n                    (_filter[5] && token.status == TokenStatus.ClearingRequested && request.disputed) ||\n                    (_filter[6] && request.parties[uint(Party.Requester)]== msg.sender) || // My Submissions.\n                    (_filter[7] && request.parties[uint(Party.Challenger)]== msg.sender) // My Challenges.\n                    /* solium-enable operator-whitespace */\n            ) {\n                if (_index < _count) {\n                    values[_index] = tokensList[_oldestFirst ? i : tokensList.length - i];\n                    _index++;\n                } else {\n                    hasMore = true;\n                    break;\n                }\n            }\n        }\n    }\n\n    function calculateContribution(uint available, uint requiredAmount) public view returns(uint, uint remainder) {\n        if(available < requiredAmount)\n            return (available, 0);\n\n        remainder = available - requiredAmount;\n        return (requiredAmount, remainder);\n    }\n\n}",
  "sourcePath": "/home/rigelm/Documents/Kleros/kleros-interaction/contracts/standard/permission/ArbitrableTokenList.sol",
  "compiler": {
    "name": "solc",
    "version": "0.4.24+commit.e67f0147.Emscripten.clang"
  },
  "schemaVersion": "2.0.1",
  "updatedAt": "2018-11-22T00:21:45.113Z"
}