{
  "contractName": "ArbitrableAddressList",
  "abi": [
    {
      "constant": true,
      "inputs": [],
      "name": "challengePeriodDuration",
      "outputs": [
        {
          "name": "",
          "type": "uint256"
        }
      ],
      "payable": false,
      "stateMutability": "view",
      "type": "function"
    },
    {
      "constant": true,
      "inputs": [],
      "name": "governor",
      "outputs": [
        {
          "name": "",
          "type": "address"
        }
      ],
      "payable": false,
      "stateMutability": "view",
      "type": "function"
    },
    {
      "constant": true,
      "inputs": [],
      "name": "arbitratorExtraData",
      "outputs": [
        {
          "name": "",
          "type": "bytes"
        }
      ],
      "payable": false,
      "stateMutability": "view",
      "type": "function"
    },
    {
      "constant": true,
      "inputs": [],
      "name": "loserStakeMultiplier",
      "outputs": [
        {
          "name": "",
          "type": "uint256"
        }
      ],
      "payable": false,
      "stateMutability": "view",
      "type": "function"
    },
    {
      "constant": true,
      "inputs": [
        {
          "name": "",
          "type": "uint256"
        }
      ],
      "name": "disputeIDToAddress",
      "outputs": [
        {
          "name": "",
          "type": "address"
        }
      ],
      "payable": false,
      "stateMutability": "view",
      "type": "function"
    },
    {
      "constant": true,
      "inputs": [],
      "name": "challengeReward",
      "outputs": [
        {
          "name": "",
          "type": "uint256"
        }
      ],
      "payable": false,
      "stateMutability": "view",
      "type": "function"
    },
    {
      "constant": true,
      "inputs": [],
      "name": "sharedStakeMultiplier",
      "outputs": [
        {
          "name": "",
          "type": "uint256"
        }
      ],
      "payable": false,
      "stateMutability": "view",
      "type": "function"
    },
    {
      "constant": true,
      "inputs": [],
      "name": "arbitrator",
      "outputs": [
        {
          "name": "",
          "type": "address"
        }
      ],
      "payable": false,
      "stateMutability": "view",
      "type": "function"
    },
    {
      "constant": true,
      "inputs": [],
      "name": "winnerStakeMultiplier",
      "outputs": [
        {
          "name": "",
          "type": "uint256"
        }
      ],
      "payable": false,
      "stateMutability": "view",
      "type": "function"
    },
    {
      "constant": true,
      "inputs": [
        {
          "name": "",
          "type": "address"
        }
      ],
      "name": "addresses",
      "outputs": [
        {
          "name": "status",
          "type": "uint8"
        }
      ],
      "payable": false,
      "stateMutability": "view",
      "type": "function"
    },
    {
      "constant": true,
      "inputs": [],
      "name": "MULTIPLIER_PRECISION",
      "outputs": [
        {
          "name": "",
          "type": "uint256"
        }
      ],
      "payable": false,
      "stateMutability": "view",
      "type": "function"
    },
    {
      "constant": true,
      "inputs": [
        {
          "name": "",
          "type": "uint256"
        }
      ],
      "name": "addressList",
      "outputs": [
        {
          "name": "",
          "type": "address"
        }
      ],
      "payable": false,
      "stateMutability": "view",
      "type": "function"
    },
    {
      "constant": true,
      "inputs": [],
      "name": "arbitrationFeesWaitingTime",
      "outputs": [
        {
          "name": "",
          "type": "uint256"
        }
      ],
      "payable": false,
      "stateMutability": "view",
      "type": "function"
    },
    {
      "inputs": [
        {
          "name": "_arbitrator",
          "type": "address"
        },
        {
          "name": "_arbitratorExtraData",
          "type": "bytes"
        },
        {
          "name": "_metaEvidence",
          "type": "string"
        },
        {
          "name": "_governor",
          "type": "address"
        },
        {
          "name": "_arbitrationFeesWaitingTime",
          "type": "uint256"
        },
        {
          "name": "_challengeReward",
          "type": "uint256"
        },
        {
          "name": "_challengePeriodDuration",
          "type": "uint256"
        },
        {
          "name": "_sharedStakeMultiplier",
          "type": "uint256"
        },
        {
          "name": "_winnerStakeMultiplier",
          "type": "uint256"
        },
        {
          "name": "_loserStakeMultiplier",
          "type": "uint256"
        }
      ],
      "payable": false,
      "stateMutability": "nonpayable",
      "type": "constructor"
    },
    {
      "anonymous": false,
      "inputs": [
        {
          "indexed": true,
          "name": "_requester",
          "type": "address"
        },
        {
          "indexed": true,
          "name": "_challenger",
          "type": "address"
        },
        {
          "indexed": true,
          "name": "_address",
          "type": "address"
        },
        {
          "indexed": false,
          "name": "_status",
          "type": "uint8"
        },
        {
          "indexed": false,
          "name": "_disputed",
          "type": "bool"
        }
      ],
      "name": "AddressStatusChange",
      "type": "event"
    },
    {
      "anonymous": false,
      "inputs": [
        {
          "indexed": true,
          "name": "_address",
          "type": "address"
        },
        {
          "indexed": true,
          "name": "_contributor",
          "type": "address"
        },
        {
          "indexed": true,
          "name": "_side",
          "type": "uint8"
        },
        {
          "indexed": false,
          "name": "_value",
          "type": "uint256"
        }
      ],
      "name": "Contribution",
      "type": "event"
    },
    {
      "anonymous": false,
      "inputs": [
        {
          "indexed": true,
          "name": "_address",
          "type": "address"
        },
        {
          "indexed": true,
          "name": "_challenger",
          "type": "address"
        }
      ],
      "name": "ChallengeDepositPlaced",
      "type": "event"
    },
    {
      "anonymous": false,
      "inputs": [
        {
          "indexed": true,
          "name": "_address",
          "type": "address"
        },
        {
          "indexed": true,
          "name": "_contributor",
          "type": "address"
        },
        {
          "indexed": true,
          "name": "_request",
          "type": "uint256"
        },
        {
          "indexed": false,
          "name": "_round",
          "type": "uint256"
        },
        {
          "indexed": false,
          "name": "_value",
          "type": "uint256"
        }
      ],
      "name": "RewardWithdrawal",
      "type": "event"
    },
    {
      "anonymous": false,
      "inputs": [
        {
          "indexed": true,
          "name": "_metaEvidenceID",
          "type": "uint256"
        },
        {
          "indexed": false,
          "name": "_evidence",
          "type": "string"
        }
      ],
      "name": "MetaEvidence",
      "type": "event"
    },
    {
      "anonymous": false,
      "inputs": [
        {
          "indexed": true,
          "name": "_arbitrator",
          "type": "address"
        },
        {
          "indexed": true,
          "name": "_disputeID",
          "type": "uint256"
        },
        {
          "indexed": false,
          "name": "_metaEvidenceID",
          "type": "uint256"
        }
      ],
      "name": "Dispute",
      "type": "event"
    },
    {
      "anonymous": false,
      "inputs": [
        {
          "indexed": true,
          "name": "_arbitrator",
          "type": "address"
        },
        {
          "indexed": true,
          "name": "_disputeID",
          "type": "uint256"
        },
        {
          "indexed": true,
          "name": "_party",
          "type": "address"
        },
        {
          "indexed": false,
          "name": "_evidence",
          "type": "string"
        }
      ],
      "name": "Evidence",
      "type": "event"
    },
    {
      "anonymous": false,
      "inputs": [
        {
          "indexed": true,
          "name": "_arbitrator",
          "type": "address"
        },
        {
          "indexed": true,
          "name": "_disputeID",
          "type": "uint256"
        },
        {
          "indexed": false,
          "name": "_ruling",
          "type": "uint256"
        }
      ],
      "name": "Ruling",
      "type": "event"
    },
    {
      "constant": false,
      "inputs": [
        {
          "name": "_address",
          "type": "address"
        }
      ],
      "name": "requestStatusChange",
      "outputs": [],
      "payable": true,
      "stateMutability": "payable",
      "type": "function"
    },
    {
      "constant": false,
      "inputs": [
        {
          "name": "_address",
          "type": "address"
        }
      ],
      "name": "challengeRequest",
      "outputs": [],
      "payable": true,
      "stateMutability": "payable",
      "type": "function"
    },
    {
      "constant": false,
      "inputs": [
        {
          "name": "_address",
          "type": "address"
        },
        {
          "name": "_side",
          "type": "uint8"
        }
      ],
      "name": "fundLatestRound",
      "outputs": [],
      "payable": true,
      "stateMutability": "payable",
      "type": "function"
    },
    {
      "constant": false,
      "inputs": [
        {
          "name": "_address",
          "type": "address"
        },
        {
          "name": "_request",
          "type": "uint256"
        },
        {
          "name": "_round",
          "type": "uint256"
        }
      ],
      "name": "withdrawFeesAndRewards",
      "outputs": [],
      "payable": false,
      "stateMutability": "nonpayable",
      "type": "function"
    },
    {
      "constant": false,
      "inputs": [
        {
          "name": "_address",
          "type": "address"
        }
      ],
      "name": "timeout",
      "outputs": [],
      "payable": false,
      "stateMutability": "nonpayable",
      "type": "function"
    },
    {
      "constant": false,
      "inputs": [
        {
          "name": "_disputeID",
          "type": "uint256"
        },
        {
          "name": "_ruling",
          "type": "uint256"
        }
      ],
      "name": "rule",
      "outputs": [],
      "payable": false,
      "stateMutability": "nonpayable",
      "type": "function"
    },
    {
      "constant": false,
      "inputs": [
        {
          "name": "_address",
          "type": "address"
        },
        {
          "name": "_evidence",
          "type": "string"
        }
      ],
      "name": "submitEvidence",
      "outputs": [],
      "payable": false,
      "stateMutability": "nonpayable",
      "type": "function"
    },
    {
      "constant": false,
      "inputs": [
        {
          "name": "_challengePeriodDuration",
          "type": "uint256"
        }
      ],
      "name": "changeTimeToChallenge",
      "outputs": [],
      "payable": false,
      "stateMutability": "nonpayable",
      "type": "function"
    },
    {
      "constant": false,
      "inputs": [
        {
          "name": "_challengeReward",
          "type": "uint256"
        }
      ],
      "name": "changeChallengeReward",
      "outputs": [],
      "payable": false,
      "stateMutability": "nonpayable",
      "type": "function"
    },
    {
      "constant": false,
      "inputs": [
        {
          "name": "_governor",
          "type": "address"
        }
      ],
      "name": "changeGovernor",
      "outputs": [],
      "payable": false,
      "stateMutability": "nonpayable",
      "type": "function"
    },
    {
      "constant": false,
      "inputs": [
        {
          "name": "_arbitrationFeesWaitingTime",
          "type": "uint256"
        }
      ],
      "name": "changeArbitrationFeesWaitingTime",
      "outputs": [],
      "payable": false,
      "stateMutability": "nonpayable",
      "type": "function"
    },
    {
      "constant": false,
      "inputs": [
        {
          "name": "_sharedStakeMultiplier",
          "type": "uint256"
        }
      ],
      "name": "changeSharedStakeMultiplier",
      "outputs": [],
      "payable": false,
      "stateMutability": "nonpayable",
      "type": "function"
    },
    {
      "constant": false,
      "inputs": [
        {
          "name": "_winnerStakeMultiplier",
          "type": "uint256"
        }
      ],
      "name": "changeWinnerStakeMultiplier",
      "outputs": [],
      "payable": false,
      "stateMutability": "nonpayable",
      "type": "function"
    },
    {
      "constant": false,
      "inputs": [
        {
          "name": "_loserStakeMultiplier",
          "type": "uint256"
        }
      ],
      "name": "changeLoserStakeMultiplier",
      "outputs": [],
      "payable": false,
      "stateMutability": "nonpayable",
      "type": "function"
    },
    {
      "constant": true,
      "inputs": [
        {
          "name": "_value",
          "type": "bytes32"
        }
      ],
      "name": "isPermitted",
      "outputs": [
        {
          "name": "allowed",
          "type": "bool"
        }
      ],
      "payable": false,
      "stateMutability": "view",
      "type": "function"
    },
    {
      "constant": true,
      "inputs": [
        {
          "name": "_address",
          "type": "address"
        },
        {
          "name": "_request",
          "type": "uint256"
        }
      ],
      "name": "getRequestInfo",
      "outputs": [
        {
          "name": "disputed",
          "type": "bool"
        },
        {
          "name": "disputeID",
          "type": "uint256"
        },
        {
          "name": "submissionTime",
          "type": "uint256"
        },
        {
          "name": "challengeRewardBalance",
          "type": "uint256"
        },
        {
          "name": "challengerDepositTime",
          "type": "uint256"
        },
        {
          "name": "resolved",
          "type": "bool"
        },
        {
          "name": "parties",
          "type": "address[3]"
        },
        {
          "name": "numberOfRounds",
          "type": "uint256"
        }
      ],
      "payable": false,
      "stateMutability": "view",
      "type": "function"
    },
    {
      "constant": true,
      "inputs": [
        {
          "name": "_address",
          "type": "address"
        },
        {
          "name": "_request",
          "type": "uint256"
        },
        {
          "name": "_round",
          "type": "uint256"
        }
      ],
      "name": "getRoundInfo",
      "outputs": [
        {
          "name": "appealed",
          "type": "bool"
        },
        {
          "name": "oldWinnerTotalCost",
          "type": "uint256"
        },
        {
          "name": "paidFees",
          "type": "uint256[3]"
        },
        {
          "name": "requiredForSide",
          "type": "uint256[3]"
        },
        {
          "name": "totalContributed",
          "type": "uint256[3]"
        },
        {
          "name": "feeRewards",
          "type": "uint256"
        }
      ],
      "payable": false,
      "stateMutability": "view",
      "type": "function"
    },
    {
      "constant": true,
      "inputs": [
        {
          "name": "_address",
          "type": "address"
        },
        {
          "name": "_request",
          "type": "uint256"
        },
        {
          "name": "_round",
          "type": "uint256"
        },
        {
          "name": "_contributor",
          "type": "address"
        }
      ],
      "name": "getContributions",
      "outputs": [
        {
          "name": "contributions",
          "type": "uint256[3]"
        }
      ],
      "payable": false,
      "stateMutability": "view",
      "type": "function"
    },
    {
      "constant": true,
      "inputs": [],
      "name": "addressCount",
      "outputs": [
        {
          "name": "count",
          "type": "uint256"
        }
      ],
      "payable": false,
      "stateMutability": "view",
      "type": "function"
    },
    {
      "constant": true,
      "inputs": [],
      "name": "countByStatus",
      "outputs": [
        {
          "name": "disputed",
          "type": "uint256"
        },
        {
          "name": "absent",
          "type": "uint256"
        },
        {
          "name": "registered",
          "type": "uint256"
        },
        {
          "name": "registrationRequested",
          "type": "uint256"
        },
        {
          "name": "clearingRequested",
          "type": "uint256"
        }
      ],
      "payable": false,
      "stateMutability": "view",
      "type": "function"
    },
    {
      "constant": true,
      "inputs": [
        {
          "name": "_cursor",
          "type": "address"
        },
        {
          "name": "_count",
          "type": "uint256"
        },
        {
          "name": "_filter",
          "type": "bool[8]"
        },
        {
          "name": "_oldestFirst",
          "type": "bool"
        }
      ],
      "name": "queryAddresses",
      "outputs": [
        {
          "name": "values",
          "type": "address[]"
        },
        {
          "name": "hasMore",
          "type": "bool"
        }
      ],
      "payable": false,
      "stateMutability": "view",
      "type": "function"
    }
  ],
  "bytecode": "0x60806040523480156200001157600080fd5b5060405162004538380380620045388339810160409081528151602080840151928401516060850151608086015160a087015160c088015160e08901516101008a01516101208b015160008054600160a060020a031916600160a060020a038c16179055998b018051999b909a97019895979496939592949193909290918b918b91620000a49160019184019062000188565b50505060007f61606860eb6c87306811e2695215385101daab53bd6ab4e9f9049aead9363c7d896040518080602001828103825283818151815260200191508051906020019080838360005b838110156200010a578181015183820152602001620000f0565b50505050905090810190601f168015620001385780820380516001836020036101000a031916815260200191505b509250505060405180910390a260058054600160a060020a031916600160a060020a039890981697909717909655600494909455600292909255600355600855600655600755506200022d915050565b828054600181600116156101000203166002900490600052602060002090601f016020900481019282601f10620001cb57805160ff1916838001178555620001fb565b82800160010185558215620001fb579182015b82811115620001fb578251825591602001919060010190620001de565b50620002099291506200020d565b5090565b6200022a91905b8082111562000209576000815560010162000214565b90565b6142fb806200023d6000396000f3006080604052600436106101aa5763ffffffff7c010000000000000000000000000000000000000000000000000000000060003504166282a36d81146101af5780630c340a24146101d65780630c7ac7b61461020757806312ce35251461029157806313ba2580146102ab5780631d08991b146102c35780631d512085146102db578063233c9ab7146102f057806329ccf8ea14610308578063311a6c56146103485780633ea0c15e14610363578063416583411461037857806347e0f70b1461038d5780635bb5e55b146103a75780636cc6cde1146103d45780636d050cb3146103e95780636e112409146104505780636e99a23a146104e857806372c957f61461050f57806375024275146105235780637b9433831461053757806382d389541461054c57806392239dff146105915780639d80c818146105a9578063adc7faba146105be578063aedd18dc146105d6578063b309483a146105f7578063b810fb431461060c578063beabdb7b14610624578063c09beaa114610650578063d36fdb18146106db578063d987adf4146106f3578063e4c0aaf414610708578063f5e3a3ad14610729575b600080fd5b3480156101bb57600080fd5b506101c46107f8565b60408051918252519081900360200190f35b3480156101e257600080fd5b506101eb6107fe565b60408051600160a060020a039092168252519081900360200190f35b34801561021357600080fd5b5061021c61080d565b6040805160208082528351818301528351919283929083019185019080838360005b8381101561025657818101518382015260200161023e565b50505050905090810190601f1680156102835780820380516001836020036101000a031916815260200191505b509250505060405180910390f35b34801561029d57600080fd5b506102a960043561089a565b005b3480156102b757600080fd5b506102a96004356108ef565b3480156102cf57600080fd5b506102a9600435610944565b3480156102e757600080fd5b506101c4610999565b3480156102fc57600080fd5b506101eb60043561099f565b34801561031457600080fd5b5061031d6109ba565b6040805195865260208601949094528484019290925260608401526080830152519081900360a00190f35b34801561035457600080fd5b506102a9600435602435610af9565b34801561036f57600080fd5b506101c4610d33565b34801561038457600080fd5b506101c4610d39565b6102a9600160a060020a036004351660ff60243516610d3f565b3480156103b357600080fd5b506102a960048035600160a060020a03169060248035908101910135611a5b565b3480156103e057600080fd5b506101eb611b64565b3480156103f557600080fd5b50610418600160a060020a03600435811690602435906044359060643516611b73565b6040518082606080838360005b8381101561043d578181015183820152602001610425565b5050505090500191505060405180910390f35b34801561045c57600080fd5b50610474600160a060020a0360043516602435611c30565b60405180891515151581526020018881526020018781526020018681526020018581526020018415151515815260200183600360200280838360005b838110156104c85781810151838201526020016104b0565b505050509050018281526020019850505050505050505060405180910390f35b3480156104f457600080fd5b506102a9600160a060020a0360043516602435604435611d10565b6102a9600160a060020a03600435166120c4565b6102a9600160a060020a03600435166127fd565b34801561054357600080fd5b506101c4612bab565b34801561055857600080fd5b5061056d600160a060020a0360043516612bb1565b6040518082600381111561057d57fe5b60ff16815260200191505060405180910390f35b34801561059d57600080fd5b506102a9600435612bc6565b3480156105b557600080fd5b506101c4612c1b565b3480156105ca57600080fd5b506102a9600435612c22565b3480156105e257600080fd5b506102a9600160a060020a0360043516612c77565b34801561060357600080fd5b506101c461313d565b34801561061857600080fd5b506101eb600435613143565b34801561063057600080fd5b5061063c60043561316b565b604080519115158252519081900360200190f35b34801561065c57600080fd5b5061067c600160a060020a036004351660243560446101443515156131b7565b604051808060200183151515158152602001828103825284818151815260200191508051906020019060200280838360005b838110156106c65781810151838201526020016106ae565b50505050905001935050505060405180910390f35b3480156106e757600080fd5b506102a960043561357c565b3480156106ff57600080fd5b506101c46135d1565b34801561071457600080fd5b506102a9600160a060020a03600435166135d7565b34801561073557600080fd5b50610750600160a060020a0360043516602435604435613656565b6040805187151581526020810187905290810185606080838360005b8381101561078457818101518382015260200161076c565b5050505090500184600360200280838360005b838110156107af578181015183820152602001610797565b5050505090500183600360200280838360005b838110156107da5781810151838201526020016107c2565b50505050905001828152602001965050505050505060405180910390f35b60035481565b600554600160a060020a031681565b60018054604080516020600284861615610100026000190190941693909304601f810184900484028201840190925281815292918301828280156108925780601f1061086757610100808354040283529160200191610892565b820191906000526020600020905b81548152906001019060200180831161087557829003601f168201915b505050505081565b600554600160a060020a031633146108ea576040805160e560020a62461bcd02815260206004820152601f60248201526000805160206142b0833981519152604482015290519081900360640190fd5b600855565b600554600160a060020a0316331461093f576040805160e560020a62461bcd02815260206004820152601f60248201526000805160206142b0833981519152604482015290519081900360640190fd5b600455565b600554600160a060020a03163314610994576040805160e560020a62461bcd02815260206004820152601f60248201526000805160206142b0833981519152604482015290519081900360640190fd5b600255565b60075481565b600a60205260009081526040902054600160a060020a031681565b6000808080808080805b600b54831015610aef5760096000600b858154811015156109e157fe5b6000918252602080832090910154600160a060020a031683528201929092526040019020600181018054919350906000198101908110610a1d57fe5b600091825260209091208354600a90920201915060019060ff166003811115610a4257fe5b118015610a505750805460ff165b15610a5c576001909701965b6000825460ff166003811115610a6e57fe5b1415610a7f57600190960195610ae4565b6001825460ff166003811115610a9157fe5b1415610aa257600190950194610ae4565b6002825460ff166003811115610ab457fe5b1415610ac557600190940193610ae4565b6003825460ff166003811115610ad757fe5b1415610ae4576001909301925b6001909201916109c4565b5050509091929394565b6000805481908190819081908190600160a060020a03163314610b8c576040805160e560020a62461bcd02815260206004820152602560248201527f43616e206f6e6c792062652063616c6c6564206279207468652061726269747260448201527f61746f722e000000000000000000000000000000000000000000000000000000606482015290519081900360840190fd5b866002811115610b9857fe5b93506001846002811115610ba857fe5b1415610bbb576001955060029450610bd8565b6002846002811115610bc957fe5b1415610bd85760029550600194505b6000888152600a6020908152604080832054600160a060020a0316835260099091529020600181018054919450906000198101908110610c1457fe5b60009182526020909120600a90910201600981018054919350906000198101908110610c3c57fe5b600091825260208220600e909102019150846002811115610c5957fe5b14158015610c9d575080600501856002811115610c7257fe5b60038110610c7c57fe5b015481600201866002811115610c8e57fe5b60038110610c9857fe5b015410155b8015610cad5750600881015460ff165b15610cd4576001846002811115610cc057fe5b1415610ccf5760029350610cd4565b600193505b87337f394027a5fa6e098a1191094d1719d6929b9abc535fcc0c8f448d6a4e75622276866002811115610d0357fe5b60408051918252519081900360200190a3610d2988856002811115610d2457fe5b6137a1565b5050505050505050565b60025481565b60085481565b600080808080808080808060018b6002811115610d5857fe5b1480610d6f575060028b6002811115610d6d57fe5b145b1515610deb576040805160e560020a62461bcd02815260206004820152603060248201527f53696465206d757374206265206569746865722074686520726571756573746560448201527f72206f72206368616c6c656e6765722e00000000000000000000000000000000606482015290519081900360840190fd5b600160a060020a038c166000908152600960205260409020995060028a5460ff166003811115610e1757fe5b1480610e32575060038a5460ff166003811115610e3057fe5b145b1515610eae576040805160e560020a62461bcd02815260206004820152602b60248201527f4164647265737320646f6573206e6f74206861766520616e792070656e64696e60448201527f672072657175657374732e000000000000000000000000000000000000000000606482015290519081900360840190fd5b60018a0180546000198101908110610ec257fe5b90600052602060002090600a0201985060008960040154111515610f56576040805160e560020a62461bcd02815260206004820152602360248201527f41207061727479206d757374206861766520706c616365642061206465706f7360448201527f69742e0000000000000000000000000000000000000000000000000000000000606482015290519081900360840190fd5b6009890180546000198101908110610f6a57fe5b90600052602060002090600e02019750610f9a8c89600101548a60080160009054906101000a900460ff16613a41565b610faa9060058a019060036140b8565b5060088801805460ff19166001179055885460ff16158015610fd0575060008960040154115b156110855760048054908a0154420310611080576040805160e560020a62461bcd02815260206004820152604a60248201527f546865206172626974726174696f6e20666565732066756e64696e672070657260448201527f696f64206f662074686520666972737420726f756e642068617320616c72656160648201527f6479207061737365642e00000000000000000000000000000000000000000000608482015290519081900360a40190fd5b6113ac565b6000805460018b0154604080517fafe15cfb00000000000000000000000000000000000000000000000000000000815260048101929092528051600160a060020a039093169363afe15cfb936024808501949192918390030190829087803b1580156110f057600080fd5b505af1158015611104573d6000803e3d6000fd5b505050506040513d604081101561111a57600080fd5b508051602090910151909650945085851180156111cd57506000805460018b01546040805160e060020a631c3db16d028152600481019290925251600160a060020a0390921691631c3db16d9160248082019260209290919082900301818787803b15801561118857600080fd5b505af115801561119c573d6000803e3d6000fd5b505050506040513d60208110156111b257600080fd5b505160028111156111bf57fe5b60028111156111ca57fe5b14155b156113ac5760026000805460018c01546040805160e060020a631c3db16d028152600481019290925251600160a060020a0390921692631c3db16d926024808401936020939083900390910190829087803b15801561122b57600080fd5b505af115801561123f573d6000803e3d6000fd5b505050506040513d602081101561125557600080fd5b5051600281111561126257fe5b600281111561126d57fe5b141561127c5760019650611281565b600296505b86600281111561128d57fe5b8b600281111561129957fe5b1415611324576002868603044287900310611080576040805160e560020a62461bcd02815260206004820152603060248201527f41707065616c20706572696f6420666f722066756e64696e6720746865206c6f60448201527f73696e67207369646520656e6465642e00000000000000000000000000000000606482015290519081900360840190fd5b42851161137b576040805160e560020a62461bcd02815260206004820152601460248201527f41707065616c20706572696f6420656e6465642e000000000000000000000000604482015290519081900360640190fd5b60028686030486420310156113ac57876005018b600281111561139a57fe5b600381106113a457fe5b015460018901555b349250876002018b60028111156113bf57fe5b600381106113c957fe5b0154886005018c60028111156113db57fe5b600381106113e557fe5b01540391506113f48383614041565b336000908152600d8b0160205260409020919550935084908c600281111561141857fe5b6003811061142257fe5b018054909101905583600989018c600281111561143b57fe5b6003811061144557fe5b0180549091019055836002808a01908d9081111561145f57fe5b6003811061146957fe5b0180549091019055600c880180548501905560008411156114dc578a600281111561149057fe5b33600160a060020a03168d600160a060020a03167fac7bf286d2fce64cdd19894e557842b76e1771ea03dc652caf6d0533f0b0457d876040518082815260200191505060405180910390a45b604051339084156108fc029085906000818181858888f150505050600689015460038a0154108015915061151857506007880154600489015410155b15611a4d57885460ff161561163a5760005460018a810154604080517ff23f16e60000000000000000000000000000000000000000000000000000000081526004810183815260248201928352845460026000198288161561010002019091160460448301819052600160a060020a039096169563f23f16e69593919260640190849080156115e85780601f106115bd576101008083540402835291602001916115e8565b820191906000526020600020905b8154815290600101906020018083116115cb57829003601f168201915b50509350505050602060405180830381600087803b15801561160957600080fd5b505af115801561161d573d6000803e3d6000fd5b505050506040513d602081101561163357600080fd5b5051611742565b6000546040517ff7434ea90000000000000000000000000000000000000000000000000000000081526020600482019081526001805460026000198284161561010002019091160460248401819052600160a060020a039094169363f7434ea9939192918291604490910190849080156116f55780601f106116ca576101008083540402835291602001916116f5565b820191906000526020600020905b8154815290600101906020018083116116d857829003601f168201915b505092505050602060405180830381600087803b15801561171557600080fd5b505af1158015611729573d6000803e3d6000fd5b505050506040513d602081101561173f57600080fd5b50515b895490915060ff1615156118ab57600054604080517fc13517e100000000000000000000000000000000000000000000000000000000815260026004820181815260248301938452600180546000198183161561010002011683900460448501819052600160a060020a039096169563c13517e19588959293929091606490910190849080156118135780601f106117e857610100808354040283529160200191611813565b820191906000526020600020905b8154815290600101906020018083116117f657829003601f168201915b505093505050506020604051808303818588803b15801561183357600080fd5b505af1158015611847573d6000803e3d6000fd5b50505050506040513d602081101561185e57600080fd5b505160018a81018290556000918252600a6020526040909120805473ffffffffffffffffffffffffffffffffffffffff1916600160a060020a038f16179055895460ff19161789556119b7565b60005460018a810154604080517f49912f880000000000000000000000000000000000000000000000000000000081526004810183815260248201928352845460026000198288161561010002019091160460448301819052600160a060020a03909616956349912f889588959490939091606490910190849080156119725780601f1061194757610100808354040283529160200191611972565b820191906000526020600020905b81548152906001019060200180831161195557829003601f168201915b505093505050506000604051808303818588803b15801561199257600080fd5b505af11580156119a6573d6000803e3d6000fd5b50508a5460ff19166001178b555050505b600989018054906119cb90600183016140f6565b50600c880180548290039055600160a060020a038c1660068a0160020154600160a060020a031660068b01600101548c548c54604051600160a060020a03909316926000805160206142908339815191529260ff90811692169080836003811115611a3257fe5b60ff1681529115156020830152506040805191829003019150a45b505050505050505050505050565b600160a060020a03831660009081526009602052604081206001810180549192916000198101908110611a8a57fe5b60009182526020909120600a90910201805490915060ff161515611af8576040805160e560020a62461bcd02815260206004820152601c60248201527f5468652072657175657374206973206e6f742064697370757465642e00000000604482015290519081900360640190fd5b60018101546000546040805160208082528101879052339392600160a060020a0316917fdccf2f8b2cc26eafcd61905cba744cff4b81d14740725f6376390dc6298a6a3c9189918991908190810184848082843760405192018290039550909350505050a45050505050565b600054600160a060020a031681565b611b7b614127565b600160a060020a038516600090815260096020526040812060018101805491929182919088908110611ba957fe5b90600052602060002090600a020191508160090186815481101515611bca57fe5b60009182526020808320600160a060020a0389168452600d600e90930201918201905260409182902082516060810190935290925060038282826020028201915b815481526020019060010190808311611c0b5750505050509350505050949350505050565b600080600080600080611c41614127565b600160a060020a03891660009081526009602052604081206001810180548391908c908110611c6c57fe5b60009182526020909120600a90910201805460018201546002830154600380850154600486015460058701546009880154604080516060810191829052999a5060ff988916999798969794969395939092169360068b019391929091849182845b8154600160a060020a03168152600190910190602001808311611ccd57505050505091509950995099509950995099509950995050509295985092959890939650565b600160a060020a0383166000908152600960205260408120600181018054919291829182918291829189908110611d4357fe5b90600052602060002090600a020194508460090187815481101515611d6457fe5b600091825260209091206005870154600e90920201945060ff161515611e20576040805160e560020a62461bcd02815260206004820152604a60248201527f546865207265717565737420776173206e6f7420657865637574656420616e6460448201527f2f6f72207468657265206172652064697370757465732070656e64696e67207260648201527f65736f6c7574696f6e2e00000000000000000000000000000000000000000000608482015290519081900360a40190fd5b845460ff161580611ec657506000805460018701546040805160e060020a631c3db16d028152600481019290925251600160a060020a0390921691631c3db16d9160248082019260209290919082900301818787803b158015611e8257600080fd5b505af1158015611e96573d6000803e3d6000fd5b505050506040513d6020811015611eac57600080fd5b50516002811115611eb957fe5b6002811115611ec457fe5b145b15611ef857336000908152600d8501602052604081206002810180546001909201805490849055929055019250612041565b60016000805460018801546040805160e060020a631c3db16d028152600481019290925251600160a060020a0390921692631c3db16d926024808401936020939083900390910190829087803b158015611f5157600080fd5b505af1158015611f65573d6000803e3d6000fd5b505050506040513d6020811015611f7b57600080fd5b50516002811115611f8857fe5b6002811115611f9357fe5b1415611fa25760019150611fa7565b600291505b83600901826002811115611fb757fe5b60038110611fc157fe5b0154336000908152600d86016020526040902061271090846002811115611fe457fe5b60038110611fee57fe5b015402811515611ffa57fe5b04905061271084600c0154820281151561201057fe5b336000908152600d8701602052604081209290910494509083600281111561203457fe5b6003811061203e57fe5b01555b604080518881526020810185905281518a923392600160a060020a038e16927f4f58820b6487d0399074b44a85e09b290dd88a811557ceea4fcb9684cbb1fbc6929181900390910190a4604051339084156108fc029085906000818181858888f193505050501580156120b8573d6000803e3d6000fd5b50505050505050505050565b600160a060020a038116600090815260096020526040812090808080806002865460ff1660038111156120f357fe5b148061210e57506003865460ff16600381111561210c57fe5b145b151561218a576040805160e560020a62461bcd02815260206004820152602b60248201527f4164647265737320646f6573206e6f74206861766520616e792070656e64696e60448201527f672072657175657374732e000000000000000000000000000000000000000000606482015290519081900360840190fd5b600186018054600019810190811061219e57fe5b90600052602060002090600a0201945060035485600201544203101515612235576040805160e560020a62461bcd02815260206004820152602860248201527f546865206368616c6c656e676520706572696f642068617320616c726561647960448201527f207061737365642e000000000000000000000000000000000000000000000000606482015290519081900360840190fd5b6004850154156122b5576040805160e560020a62461bcd02815260206004820152603160248201527f526571756573742073686f756c642068617665206f6e6c79207468652072657160448201527f7565737465722773206465706f7369742e000000000000000000000000000000606482015290519081900360840190fd5b600385015434101561235e576040805160e560020a62461bcd028152602060048201526044602482018190527f4e6f7420656e6f756768204554482e205061727479207374617274696e672064908201527f697370757465206d75737420706c6163652061206465706f73697420696e206660648201527f756c6c2e00000000000000000000000000000000000000000000000000000000608482015290519081900360a40190fd5b600385018054808001909155340393503360068601600201805473ffffffffffffffffffffffffffffffffffffffff1916600160a060020a0392831617905542600487015560405133918916907fb8e9aa6b03018a9b02c5452f00696ed2a9a73b4aa473e0af5356b03ff7c0559390600090a360098501805460001981019081106123e557fe5b90600052602060002090600e020192506124158784600101548560080160009054906101000a900460ff16613a41565b61242590600585019060036140b8565b5060088301805460ff19166001179055612451846005850160025b6003811061244a57fe5b0154614041565b336000908152600d860160205260408120600201839055600b860183905560048601839055600c86018054840190559095509092508211156124d05760026040805184815290513391600160a060020a038b16917fac7bf286d2fce64cdd19894e557842b76e1771ea03dc652caf6d0533f0b0457d9181900360200190a45b604051339085156108fc029086906000818181858888f15050505060068401546003850154108015915061250c57506007830154600484015410155b15612792576000546040517ff7434ea90000000000000000000000000000000000000000000000000000000081526020600482019081526001805460026000198284161561010002019091160460248401819052600160a060020a039094169363f7434ea9939192918291604490910190849080156125cc5780601f106125a1576101008083540402835291602001916125cc565b820191906000526020600020905b8154815290600101906020018083116125af57829003601f168201915b505092505050602060405180830381600087803b1580156125ec57600080fd5b505af1158015612600573d6000803e3d6000fd5b505050506040513d602081101561261657600080fd5b5051600054604080517fc13517e100000000000000000000000000000000000000000000000000000000815260026004820181815260248301938452600180546000198183161561010002011683900460448501819052969750600160a060020a039095169563c13517e19588959394909391606490910190849080156126de5780601f106126b3576101008083540402835291602001916126de565b820191906000526020600020905b8154815290600101906020018083116126c157829003601f168201915b505093505050506020604051808303818588803b1580156126fe57600080fd5b505af1158015612712573d6000803e3d6000fd5b50505050506040513d602081101561272957600080fd5b505160018681018290556000918252600a6020526040909120805473ffffffffffffffffffffffffffffffffffffffff1916600160a060020a038a16179055855460ff19168117865560098601805491612785919083016140f6565b50600c8301805482900390555b6008850154600786015487548754604051600160a060020a038c81169581169416926000805160206142908339815191529260ff91821692911690808360038111156127da57fe5b60ff1681529115156020830152506040805191829003019150a450505050505050565b60008060008060006002543410151515612861576040805160e560020a62461bcd02815260206004820152600f60248201527f4e6f7420656e6f756768204554482e0000000000000000000000000000000000604482015290519081900360640190fd5b600160a060020a0386166000908152600960205260409020600181015490955015156128e057600b80546001810182556000919091527f0175b7a638427703f0dbe7bb9bbf987a2551717b34e79f33b5b1008d1fa01db901805473ffffffffffffffffffffffffffffffffffffffff1916600160a060020a0388161790555b6000855460ff1660038111156128f257fe5b1415612911578454600290869060ff19166001835b02179055506129b1565b6001855460ff16600381111561292357fe5b141561293c578454600390869060ff1916600183612907565b6040805160e560020a62461bcd028152602060048201526024808201527f4164647265737320696e2077726f6e672073746174757320666f72207265717560448201527f6573742e00000000000000000000000000000000000000000000000000000000606482015290519081900360840190fd5b60018086018054916129c591908301614146565b5060018501805460001981019081106129da57fe5b600091825260209091206007600a90920201908101805473ffffffffffffffffffffffffffffffffffffffff191633179055426002820155600981018054919550612a2890600183016140f6565b5060025460038501556009840180546000198101908110612a4557fe5b90600052602060002090600e02019250612a758684600101548560080160009054906101000a900460ff16613a41565b612a8590600585019060036140b8565b505060088201805460ff19166001908117909155600254340390612aaf9082906005860190612440565b336000908152600d860160205260408120600101839055600a860183905560038601839055600c86018054840190559193509150821115612b2d5760016040805184815290513391600160a060020a038a16917fac7bf286d2fce64cdd19894e557842b76e1771ea03dc652caf6d0533f0b0457d9181900360200190a45b604051339082156108fc029083906000818181858888f15050505060078501548654604051600160a060020a038a8116945060009316916000805160206142908339815191529160ff90911690849080836003811115612b8957fe5b60ff1681529115156020830152506040805191829003019150a4505050505050565b60065481565b60096020526000908152604090205460ff1681565b600554600160a060020a03163314612c16576040805160e560020a62461bcd02815260206004820152601f60248201526000805160206142b0833981519152604482015290519081900360640190fd5b600755565b600b545b90565b600554600160a060020a03163314612c72576040805160e560020a62461bcd02815260206004820152601f60248201526000805160206142b0833981519152604482015290519081900360640190fd5b600655565b600160a060020a0381166000908152600960205260408120600181018054919291829182916000198101908110612caa57fe5b90600052602060002090600a02019250826004015460001415612e60576003546002840154420311612d4c576040805160e560020a62461bcd02815260206004820152602960248201527f5468652074696d6520746f206368616c6c656e676520686173206e6f7420706160448201527f73736564207965742e0000000000000000000000000000000000000000000000606482015290519081900360840190fd5b6002845460ff166003811115612d5e57fe5b1415612d7c578354600190859060ff191682805b0217905550612e1d565b6003845460ff166003811115612d8e57fe5b1415612da7578354600090859060ff1916600183612d72565b6040805160e560020a62461bcd02815260206004820152602e60248201527f4164647265737320696e2077726f6e672073746174757320666f72206578656360448201527f7574696e6720726571756573742e000000000000000000000000000000000000606482015290519081900360840190fd5b6006830160015b60038110612e2e57fe5b01546003840154604051600160a060020a039092169181156108fc0291906000818181858888f19350505050506130ae565b825460ff1615612edf576040805160e560020a62461bcd028152602060048201526024808201527f412064697370757465206d7573742068617665206e6f74206265656e2072616960448201527f7365642e00000000000000000000000000000000000000000000000000000000606482015290519081900360840190fd5b6004805490840154420311612f64576040805160e560020a62461bcd02815260206004820152602c60248201527f5468657265206973207374696c6c2074696d6520746f20706c6163652061206360448201527f6f6e747269627574696f6e2e0000000000000000000000000000000000000000606482015290519081900360840190fd5b6009830180546000198101908110612f7857fe5b90600052602060002090600e0201915081600201600280811115612f9857fe5b60038110612fa257fe5b0154600383015410612fb657506001612fba565b5060025b6001816002811115612fc857fe5b1415613010576002845460ff166003811115612fe057fe5b1415612ff657835460ff1916600117845561300b565b8354600090859060ff19166001835b02179055505b61305f565b6002845460ff16600381111561302257fe5b141561303b578354600090859060ff1916600183613005565b6003845460ff16600381111561304d57fe5b141561305f57835460ff191660011784555b600281600281111561306d57fe5b141561307e57600683016002612e24565b60078301546003840154604051600160a060020a03909216916108fc82150291906000818181858888f150505050505b6000600384015560058301805460ff19166001179055600160a060020a0385166006840160020154600160a060020a031660068501600101548654604051600160a060020a03909216916000805160206142908339815191529160ff16906000908083600381111561311c57fe5b60ff1681529115156020830152506040805191829003019150a45050505050565b61271081565b600b80548290811061315157fe5b600091825260209091200154600160a060020a0316905081565b600160a060020a03811660009081526009602052604081206001815460ff16600381111561319557fe5b14806131b057506003815460ff1660038111156131ae57fe5b145b9392505050565b606060008060008060008060008a6040519080825280602002602001820160405280156131ee578160200160208202803883390190505b50975060009450600160a060020a038c16151561320e57600095506132bb565b600093505b600b54841015613264578b600160a060020a0316600b8581548110151561323657fe5b600091825260209091200154600160a060020a0316141561325957839550613264565b600190930192613213565b8515156132bb576040805160e560020a62461bcd02815260206004820152601660248201527f54686520637572736f7220697320696e76616c69642e00000000000000000000604482015290519081900360640190fd5b85156132de57886132d457600b548690036001016132d9565b856001015b6132f1565b886132ea5760016132ed565b60005b60ff165b92505b8861330457600b5483111561330a565b600b5483105b1561356d5760096000600b8b61332557600b54869003613327565b855b8154811061333157fe5b6000918252602080832090910154600160a060020a03168352820192909252604001902060018101805491935090600019810190811061336d57fe5b60009182526020909120600a90910201905089351580159061339e57506000825460ff16600381111561339c57fe5b145b806133c6575060208a0135158015906133c657506001825460ff1660038111156133c457fe5b145b806133fc575060408a0135158015906133ee57506002825460ff1660038111156133ec57fe5b145b80156133fc5750805460ff16155b80613432575060608a01351580159061342457506003825460ff16600381111561342257fe5b145b80156134325750805460ff16155b80613467575060808a01351580159061345a57506002825460ff16600381111561345857fe5b145b80156134675750805460ff165b8061349c575060a08a01351580159061348f57506003825460ff16600381111561348d57fe5b145b801561349c5750805460ff165b806134c1575060c08a0135158015906134c157506007810154600160a060020a031633145b806134e6575060e08a0135158015906134e657506008810154600160a060020a031633145b15613562578a85101561355957600b8961350557600b54849003613507565b835b8154811061351157fe5b6000918252602090912001548851600160a060020a039091169089908790811061353757fe5b600160a060020a03909216602092830290910190910152600190940193613562565b6001965061356d565b6001909201916132f4565b50505050505094509492505050565b600554600160a060020a031633146135cc576040805160e560020a62461bcd02815260206004820152601f60248201526000805160206142b0833981519152604482015290519081900360640190fd5b600355565b60045481565b600554600160a060020a03163314613627576040805160e560020a62461bcd02815260206004820152601f60248201526000805160206142b0833981519152604482015290519081900360640190fd5b6005805473ffffffffffffffffffffffffffffffffffffffff1916600160a060020a0392909216919091179055565b600080613661614127565b613669614127565b613671614127565b600160a060020a0388166000908152600960205260408120600181018054839182918c90811061369d57fe5b90600052602060002090600a02019150816009018a8154811015156136be57fe5b60009182526020909120600e9091020180546001820154600c830154604080516060810190915293945060ff9092169290916002850191600586019160098701918460038282826020028201915b81548152602001906001019080831161370c57505060408051606081019182905294985087935060039250905082845b81548152602001906001019080831161373c57505060408051606081019182905294975086935060039250905082845b81548152602001906001019080831161376c575050505050915098509850985098509850985050505093975093979195509350565b6000828152600a6020908152604080832054600160a060020a031683526009909152812060018101805491929182919060001981019081106137df57fe5b60009182526020909120600a90910201915060018460028111156137ff57fe5b600281111561380a57fe5b14156138185750600161383b565b600284600281111561382657fe5b600281111561383157fe5b141561383b575060025b600181600281111561384957fe5b1415613891576002835460ff16600381111561386157fe5b141561387757825460ff1916600117835561388c565b8254600090849060ff19166001835b02179055505b6138e0565b6002835460ff1660038111156138a357fe5b14156138bc578254600090849060ff1916600183613886565b6003835460ff1660038111156138ce57fe5b14156138e057825460ff191660011783555b60028160028111156138ee57fe5b1415613937576006820160025b6003811061390557fe5b01546003830154604051600160a060020a039092169181156108fc0291906000818181858888f19350505050506139c5565b600181600281111561394557fe5b1415613956576006820160016138fb565b60068201600101546003830154604051600160a060020a0390921691600290910480156108fc02916000818181858888f15050506006840191506002905001546003830154604051600160a060020a0390921691600290910480156108fc02916000818181858888f150505050505b60006003830181905560058301805460ff19166001179055858152600a6020526040902054600160a060020a03166006830160020154600160a060020a031660068401600101548554604051600160a060020a03909216916000805160206142908339815191529160ff16906000908083600381111561311c57fe5b613a49614127565b600160a060020a03841660009081526009602052604081206001810180549192918291829182918291829182918291906000198101908110613a8757fe5b60009182526020909120600a90910201805490985060ff161515613c16576000546040517ff7434ea90000000000000000000000000000000000000000000000000000000081526020600482019081526001805460026000198284161561010002019091160460248401819052600160a060020a039094169363f7434ea993919291829160449091019084908015613b605780601f10613b3557610100808354040283529160200191613b60565b820191906000526020600020905b815481529060010190602001808311613b4357829003601f168201915b505092505050602060405180830381600087803b158015613b8057600080fd5b505af1158015613b94573d6000803e3d6000fd5b505050506040513d6020811015613baa57600080fd5b5051600854909750613be39061271090613bcb908a9063ffffffff61406616565b811515613bd457fe5b8991900463ffffffff6140a316565b60208b0152600854613bfe9061271090613bcb908a90614066565b8a60025b60038110613c0c57fe5b6020020152614031565b6000805460018a01546040805160e060020a631c3db16d028152600481019290925251600160a060020a0390921692631c3db16d926024808401936020939083900390910190829087803b158015613c6d57600080fd5b505af1158015613c81573d6000803e3d6000fd5b505050506040513d6020811015613c9757600080fd5b50516002811115613ca457fe5b93506001846002811115613cb457fe5b1415613cc7576001955060029450613ce4565b6002846002811115613cd557fe5b1415613ce45760029550600194505b600054600189810154604080517ff23f16e60000000000000000000000000000000000000000000000000000000081526004810183815260248201928352845460026000198288161561010002019091160460448301819052600160a060020a039096169563f23f16e6959391926064019084908015613da55780601f10613d7a57610100808354040283529160200191613da5565b820191906000526020600020905b815481529060010190602001808311613d8857829003601f168201915b50509350505050602060405180830381600087803b158015613dc657600080fd5b505af1158015613dda573d6000803e3d6000fd5b505050506040513d6020811015613df057600080fd5b505192506000866002811115613e0257fe5b1115613ff557613e3b612710613e236006548661406690919063ffffffff16565b811515613e2c57fe5b8591900463ffffffff6140a316565b8a876002811115613e4857fe5b60038110613e5257fe5b60200201526000805460018a0154604080517fafe15cfb00000000000000000000000000000000000000000000000000000000815260048101929092528051600160a060020a039093169363afe15cfb936024808501949192918390030190829087803b158015613ec257600080fd5b505af1158015613ed6573d6000803e3d6000fd5b505050506040513d6040811015613eec57600080fd5b508051602090910151909250905081811115613fc8576002828203048242031115613f3d57828c11613f1e5782613f20565b8b5b8a876002811115613f2d57fe5b60038110613f3757fe5b60200201525b8a1515613f7c57613f5f612710613e236007548661406690919063ffffffff16565b8a866002811115613f6c57fe5b60038110613f7657fe5b60200201525b6002828203048242031015613fc357613fa6612710613e236007548661406690919063ffffffff16565b8a866002811115613fb357fe5b60038110613fbd57fe5b60200201525b613ff0565b613fe3612710613e236007548661406690919063ffffffff16565b8a866002811115613c0257fe5b614031565b614010612710613e236008548661406690919063ffffffff16565b60208b015260085461402b9061271090613e23908690614066565b60408b01525b5050505050505050509392505050565b600080838311156140575750829050600061405f565b508190508083035b9250929050565b600080831515614079576000915061409c565b5082820282848281151561408957fe5b041461409757600019614099565b805b91505b5092915050565b60008282018381101561409757600019614099565b82600381019282156140e6579160200282015b828111156140e65782518255916020019190600101906140cb565b506140f2929150614172565b5090565b81548183558181111561412257600e0281600e028360005260206000209182019101614122919061418c565b505050565b6060604051908101604052806003906020820280388339509192915050565b81548183558181111561412257600a0281600a02836000526020600020918201910161412291906141f0565b612c1f91905b808211156140f25760008155600101614178565b612c1f91905b808211156140f257805460ff191681556000600182018190556141b86002830182614256565b6141c6600583016000614256565b60088201805460ff191690556141e0600983016000614256565b506000600c820155600e01614192565b612c1f91905b808211156140f257805460ff19908116825560006001830181905560028301819055600383018190556004830181905560058301805490921690915561423f6006830182614256565b61424d60098301600061426b565b50600a016141f6565b50600081556001016000815560010160009055565b50805460008255600e029060005260206000209081019061428c919061418c565b505600cf4a741815b379036d45b7e65b9705154df3dd009564cfe17e9b22c4c49dd28b5468652063616c6c6572206973206e6f742074686520676f7665726e6f722e00a165627a7a72305820f849b4abbf4ccd63a1a7144be7eea18d5c43c36e4c522a6fb7080ba4d1ba490f0029",
  "source": "/**\n *  @authors: [@mtsalenc]\n *  @reviewers: []\n *  @auditors: []\n *  @bounties: []\n *  @deployments: []\n */\n\npragma solidity ^0.4.24;\n\nimport \"../arbitration/Arbitrable.sol\";\nimport \"./PermissionInterface.sol\";\n\n\n/**\n * @title CappedMath\n * @dev Math operations with caps for under and overflow.\n */\nlibrary CappedMath {\n    uint constant private UINT_MAX = 2**256 - 1;\n\n    /**\n    * @dev Adds two unsigned integers, returns 2^256 - 1 on overflow.\n    */\n    function addCap(uint256 _a, uint256 _b) internal pure returns (uint256) {\n        uint c = _a + _b;\n        return c >= _a ? c : UINT_MAX;\n    }\n\n    /**\n    * @dev Multiplies two unsigned integers, returns 2^256 - 1 on overflow.\n    */\n    function mulCap(uint256 _a, uint256 _b) internal pure returns (uint256) {\n        // Gas optimization: this is cheaper than requiring '_a' not being zero, but the\n        // benefit is lost if '_b' is also tested.\n        // See: https://github.com/OpenZeppelin/openzeppelin-solidity/pull/522\n        if (_a == 0)\n            return 0;\n\n        uint256 c = _a * _b;\n        return c / _a == _b ? c : UINT_MAX;\n    }\n}\n\n/**\n *  @title ArbitrableAddressList\n *  This contract is arbitrable token curated list of addresses. Users can send requests to register or remove addresses from the list which can, in turn, be challenged by parties that disagree with the request.\n *  A crowdsourced insurance system allows parties to contribute to arbitration fees and win rewards if the side they backed ultimatly wins a dispute.\n */\ncontract ArbitrableAddressList is PermissionInterface, Arbitrable {\n    using CappedMath for uint;\n    /* solium-disable max-len*/\n    /* solium-disable operator-whitespace*/\n\n    /* Enums */\n\n    enum AddressStatus {\n        Absent, // The address is not on the list.\n        Registered, // The address is on the list.\n        RegistrationRequested, // The address has a request to be added to the list.\n        ClearingRequested // The address has a request to be removed from the list.\n    }\n\n    enum RulingOption {\n        Other, // Arbitrator did not rule or refused to rule.\n        Accept, // Execute request. Rule in favor of requester.\n        Refuse // Refuse request. Rule in favor of challenger.\n    }\n\n    enum Party {\n        None,\n        Requester, // Party that placed a request to change a address status.\n        Challenger // Party challenging a request.\n    }\n\n    // ************************ //\n    // *  Request Life Cycle  * //\n    // ************************ //\n    // Changes to the address status are made via requests for either listing or removing a address from the TCR.\n    // The total cost a request vary depending on whether a party challenges that request and on the number of appeals.\n    // To place or challenge a request, a party must place value at stake. This value will rewarded to the party that ultimatly wins the dispute. If no one challenges the request, the value will be reimbursed to the requester.\n    // Additionally to the challenge reward, in the case a party challenges a request, both sides must fully pay the amount of arbitration fees required to raise a dispute. The party that ultimatly wins the case will be reimbursed.\n    // Finally, arbitration fees can be crowdsourced. To incentivise insurers, an additional value must placed at stake. Contributors that fund the side that ultimatly win a dispute will be reimbursed and rewarded with the other side's fee stake proportinally to their contribution.\n    // In summary, costs for placing or challenging a request are the following:\n    // - A challenge reward given to the party that wins a potential dispute.\n    // - Arbitration fees used to pay jurors.\n    // - Fee stake that is distributed among contributors of the side that ultimatly wins a dispute.\n\n    /* Structs */\n    struct Address {\n        AddressStatus status;\n        Request[] requests; // List of status change requests made for the address.\n    }\n\n    // Arrays of that have 3 elements to map with the Party enum for better readability:\n    // - 0 is unused, matches Party.None.\n    // - 1 for Party.Requester.\n    // - 2 for Party.Challenger.\n    struct Request {\n        bool disputed; // True if a dispute was raised.\n        uint disputeID; // ID of the dispute, if any.\n        uint submissionTime; // Time when the request was made. Used to track when the challenge period ends.\n        uint challengeRewardBalance; // The summation of requester's and challenger's deposit. This value will be given to the party that ultimatly wins a potential dispute, or be reimbursed to the requester if no one challenges.\n        uint challengerDepositTime; // The time when a challenger placed his deposit. Used to track when the request left the challenge period and entered the arbitration fees funding period.\n        bool resolved; // True if the request was executed and/or any disputes raised were resolved.\n        address[3] parties; // Address of requester and challenger, if any.\n        Round[] rounds; // Tracks each round of a dispute.\n    }\n\n    struct Round {\n        bool appealed; // True if this round was appealed.\n        uint oldWinnerTotalCost; // Governance changes on the second half of the appeal funding period create a difference between the amount that must be contributed by the winner and the loser. This variable tracks the amount that was required of the winner in the first round, before a change that happened on the second half of the funding period. It is used to calculate the amount that must be paid by the winner to fully fund his side, which is max(old total cost, new appeal cost).\n        uint[3] paidFees; // Tracks the fees paid by each side on this round.\n        uint[3] requiredForSide; // The total amount required to fully fund each side. It is the summation of the dispute or appeal cost and the fee stake. The fourth element is used to track whether the required value for each side has been set, with 1 for true and 0 for false.\n        bool requiredForSideSet; // Tracks if the required amount has been set. False if no one made any contributions after the arbitrator gave a ruling.\n        uint[3] totalContributed; // The total amount contributed for each side. Used for calculating rewards.\n        uint feeRewards; // Summation of reimbursable fees and stake rewards available to the parties that made contributions to the side that ultimatly wins a dispute.\n        mapping(address => uint[3]) contributions; // Maps contributors to their contributions for each side, if any.\n    }\n\n    /* Modifiers */\n\n    modifier onlyGovernor {require(msg.sender == governor, \"The caller is not the governor.\"); _;}\n\n    /* Events */\n\n    /**\n     *  @dev Emitted when a party places a request, dispute or appeals are raised or when a request is resolved.\n     *  @param _requester Address of the party that submitted the request.\n     *  @param _challenger Address of the party that challenged the request, if any.\n     *  @param _address The affected address.\n     *  @param _status The status of the address.\n     *  @param _disputed Whether the address is disputed.\n     */\n    event AddressStatusChange(\n        address indexed _requester,\n        address indexed _challenger,\n        address indexed _address,\n        AddressStatus _status,\n        bool _disputed\n    );\n\n    /** @dev Emitted when a party makes contribution.\n     *  @param _address The address for which the contribution was made to.\n     *  @param _contributor The contributor's address.\n     *  @param _side The side the contribution was made to.\n     *  @param _value The value of the contribution.\n     */\n    event Contribution(address indexed _address, address indexed _contributor, Party indexed _side, uint _value);\n\n    /** @dev Emitted when a deposit is made to challenge a request.\n     *  @param _address The address that has the challenged request.\n     *  @param _challenger The address that placed the deposit.\n     */\n    event ChallengeDepositPlaced(address indexed _address, address indexed _challenger);\n\n    /** @dev Emitted when a reimbursements and/or contribution rewards are withdrawn.\n     *  @param _address The address from which the withdrawal was made.\n     *  @param _contributor The address that sent the contribution.\n     *  @param _request The request from which the withdrawal was made.\n     *  @param _round The reward from which the reward was taken.\n     *  @param _value The value of the reward.\n     */\n    event RewardWithdrawal(address indexed _address, address indexed _contributor, uint indexed _request, uint _round, uint _value);\n\n    /* Storage */\n\n    // Settings\n    uint public challengeReward; // The deposit required for placing and/or challenging a request. A party that wins a disputed request will be reimbursed and will receive the other's deposit.\n    uint public challengePeriodDuration; // The time before a request becomes executable if not challenged.\n    uint public arbitrationFeesWaitingTime; // The time available to fund arbitration fees and fee stake for a potential dispute.\n    address public governor; // The address that can make governance changes to the parameters of the Token Curated List.\n\n    // The required fee stake that a party must pay depends on who won the previous round and is proportional to the arbitration cost such that the fee stake for a round is stake multiplier * arbitration cost for that round.\n    // The value is the percentage in 2 digits precision (e.g. a multiplier of 5000 results the fee stake being 50% of the arbitration cost for that round).\n    uint public winnerStakeMultiplier; // Multiplier for calculating the fee stake paid by the party that won the previous round.\n    uint public loserStakeMultiplier; // Multiplier for calculating the fee stake paid by the party that lost the previous round.\n    uint public sharedStakeMultiplier; // Multiplier for calculating the fee stake that be must paid in the case where the previous round does not have a winner (e.g. when it's the first round or the arbitrator ruled refused to rule/could not rule).\n    uint public constant MULTIPLIER_PRECISION = 10000; // Precision parameter for multipliers.\n\n    mapping(address => Address) public addresses; // Maps the address to its current state.\n    mapping(uint => address) public disputeIDToAddress; // Maps a dispute ID to the affected address.\n    address[] public addressList; // List of submitted addresses.\n\n    /* Constructor */\n\n    /**\n     *  @dev Constructs the arbitrable token curated list.\n     *  @param _arbitrator The chosen arbitrator.\n     *  @param _arbitratorExtraData Extra data for the arbitrator contract.\n     *  @param _metaEvidence The URI of the meta evidence object.\n     *  @param _governor The governor of this contract.\n     *  @param _arbitrationFeesWaitingTime The maximum time to wait for arbitration fees if the dispute is raised.\n     *  @param _challengeReward The amount in weis required to submit or a challenge a request.\n     *  @param _challengePeriodDuration The time in seconds, parties have to challenge a request.\n     *  @param _sharedStakeMultiplier Percentage of the arbitration cost that each party must pay as fee stake for a round when there isn't a winner/loser in the previous round (e.g. when it's the first round or the arbitrator refused to or did not rule). Value in 2 digits precision (e.g. 2500 results in 25% of the arbitration cost value of that round).\n     *  @param _winnerStakeMultiplier Percentage of the arbitration cost that the winner has to pay as fee stake for a round. Value in 2 digits precision (e.g. 5000 results in 50% of the arbitration cost value of that round).\n     *  @param _loserStakeMultiplier Percentage of the arbitration cost that the loser has to pay as fee stake for a round. Value in 2 digits precision (e.g. 10000 results in 100% of the arbitration cost value of that round).\n     */\n    constructor(\n        Arbitrator _arbitrator,\n        bytes _arbitratorExtraData,\n        string _metaEvidence,\n        address _governor,\n        uint _arbitrationFeesWaitingTime,\n        uint _challengeReward,\n        uint _challengePeriodDuration,\n        uint _sharedStakeMultiplier,\n        uint _winnerStakeMultiplier,\n        uint _loserStakeMultiplier\n    ) Arbitrable(_arbitrator, _arbitratorExtraData) public {\n        emit MetaEvidence(0, _metaEvidence);\n        governor = _governor;\n        arbitrationFeesWaitingTime = _arbitrationFeesWaitingTime;\n        challengeReward = _challengeReward;\n        challengePeriodDuration = _challengePeriodDuration;\n        sharedStakeMultiplier = _sharedStakeMultiplier;\n        winnerStakeMultiplier = _winnerStakeMultiplier;\n        loserStakeMultiplier = _loserStakeMultiplier;\n    }\n\n    /* Public */\n\n    // ************************ //\n    // *       Requests       * //\n    // ************************ //\n\n    /** @dev Submit a request to change a address status. Accepts enough ETH to fund a potential dispute considering the current required amount and reimburses the rest.\n     *  @param _address The address to receive the request.\n     */\n    function requestStatusChange(address _address)\n        external\n        payable\n    {\n        require(msg.value >= challengeReward, \"Not enough ETH.\");\n        Address storage addr = addresses[_address];\n        if (addr.requests.length == 0)\n            addressList.push(_address);\n\n        // Update address status.\n        if (addr.status == AddressStatus.Absent)\n            addr.status = AddressStatus.RegistrationRequested;\n        else if (addr.status == AddressStatus.Registered)\n            addr.status = AddressStatus.ClearingRequested;\n        else\n            revert(\"Address in wrong status for request.\");\n\n        // Setup request.\n        addr.requests.length++;\n        Request storage request = addr.requests[addr.requests.length - 1];\n        request.parties[uint(Party.Requester)] = msg.sender;\n        request.submissionTime = now;\n        request.rounds.length++;\n        request.challengeRewardBalance = challengeReward;\n\n        // Calculate and save the total amount required to fully fund the each side.\n        Round storage round = request.rounds[request.rounds.length - 1];\n        round.requiredForSide = calculateRequiredForSide(_address, round.oldWinnerTotalCost, round.requiredForSideSet);\n        round.requiredForSideSet = true;\n\n        // Take up to the amount necessary to fund the current round at the current costs.\n        uint contribution;\n        uint remainingETH = msg.value - challengeReward;\n        (contribution, remainingETH) = calculateContribution(remainingETH, round.requiredForSide[uint(Party.Requester)]);\n        round.contributions[msg.sender][uint(Party.Requester)] = contribution;\n        round.totalContributed[uint(Party.Requester)] = contribution;\n        round.paidFees[uint(Party.Requester)] = contribution;\n        round.feeRewards += contribution;\n        if (contribution > 0)\n            emit Contribution(_address, msg.sender, Party.Requester, contribution);\n\n        // Reimburse leftover ETH.\n        msg.sender.send(remainingETH); // Deliberate use of send in order to not block the contract in case of reverting fallback.\n\n        emit AddressStatusChange(\n            request.parties[uint(Party.Requester)],\n            address(0x0),\n            _address,\n            addr.status,\n            false\n        );\n    }\n\n    /** @dev Challenges the latest request of an address. Accepts enough ETH to fund a potential dispute considering the current required amount and reimburses the rest.\n     *  @param _address The address with the request to execute.\n     */\n    function challengeRequest(address _address) external payable {\n        Address storage addr = addresses[_address];\n        require(\n            addr.status == AddressStatus.RegistrationRequested || addr.status == AddressStatus.ClearingRequested,\n            \"Address does not have any pending requests.\"\n        );\n        Request storage request = addr.requests[addr.requests.length - 1];\n        require(now - request.submissionTime < challengePeriodDuration, \"The challenge period has already passed.\");\n        require(request.challengerDepositTime == 0, \"Request should have only the requester's deposit.\");\n        require(msg.value >= request.challengeRewardBalance, \"Not enough ETH. Party starting dispute must place a deposit in full.\");\n\n        // Take the deposit and save the challenger's address.\n        uint remainingETH = msg.value - request.challengeRewardBalance;\n        request.challengeRewardBalance += request.challengeRewardBalance;\n        request.parties[uint(Party.Challenger)] = msg.sender;\n        request.challengerDepositTime = now; // Save the start of the first round arbitration fees funding period.\n        emit ChallengeDepositPlaced(_address, msg.sender);\n\n        // Calculate and save the total amount required to fully fund the each side.\n        Round storage round = request.rounds[request.rounds.length - 1];\n        round.requiredForSide = calculateRequiredForSide(_address, round.oldWinnerTotalCost, round.requiredForSideSet);\n        round.requiredForSideSet = true;\n\n        // Take up to the amount necessary to fund the current round at the current costs.\n        uint contribution;\n        (contribution, remainingETH) = calculateContribution(remainingETH, round.requiredForSide[uint(Party.Challenger)]);\n        round.contributions[msg.sender][uint(Party.Challenger)] = contribution;\n        round.totalContributed[uint(Party.Challenger)] = contribution;\n        round.paidFees[uint(Party.Challenger)] = contribution;\n        round.feeRewards += contribution;\n        if (contribution > 0)\n            emit Contribution(_address, msg.sender, Party.Challenger, contribution);\n\n        // Reimburse leftover ETH.\n        msg.sender.send(remainingETH); // Deliberate use of send in order to not block the contract in case of reverting fallback.\n\n        // Raise dispute if both sides are fully funded.\n        if (round.paidFees[uint(Party.Requester)] >= round.requiredForSide[uint(Party.Requester)] &&\n            round.paidFees[uint(Party.Challenger)] >= round.requiredForSide[uint(Party.Challenger)]) {\n\n            uint arbitrationCost = arbitrator.arbitrationCost(arbitratorExtraData);\n            request.disputeID = arbitrator.createDispute.value(arbitrationCost)(2, arbitratorExtraData);\n            disputeIDToAddress[request.disputeID] = _address;\n            request.disputed = true;\n\n            request.rounds.length++;\n            round.feeRewards -= arbitrationCost;\n        }\n\n        emit AddressStatusChange(\n            request.parties[uint(Party.Requester)],\n            request.parties[uint(Party.Challenger)],\n            _address,\n            addr.status,\n            request.disputed\n        );\n    }\n\n    /** @dev Takes up to the total required to fund a side of the latest round, reimburses the rest.\n     *  @param _address The address with the request to execute.\n     *  @param _side The recipient of the contribution.\n     */\n    function fundLatestRound(address _address, Party _side) external payable {\n        require(\n            _side == Party.Requester || _side == Party.Challenger,\n            \"Side must be either the requester or challenger.\"\n        );\n        Address storage addr = addresses[_address];\n        require(\n            addr.status == AddressStatus.RegistrationRequested || addr.status == AddressStatus.ClearingRequested,\n            \"Address does not have any pending requests.\"\n        );\n        Request storage request = addr.requests[addr.requests.length - 1];\n        require(request.challengerDepositTime > 0, \"A party must have placed a deposit.\");\n\n        // Calculate and save the total amount required to fully fund the each side.\n        Round storage round = request.rounds[request.rounds.length - 1];\n        round.requiredForSide = calculateRequiredForSide(_address, round.oldWinnerTotalCost, round.requiredForSideSet);\n        round.requiredForSideSet = true;\n\n        // Check if the contribution is within time restrictions, if there are any.\n        Party loser;\n        if(!request.disputed && request.challengerDepositTime > 0) { // First round.\n            require(\n                now - request.challengerDepositTime < arbitrationFeesWaitingTime,\n                \"The arbitration fees funding period of the first round has already passed.\"\n            );\n        } else { // Later round.\n            (uint appealPeriodStart, uint appealPeriodEnd) = arbitrator.appealPeriod(request.disputeID);\n            if(appealPeriodEnd > appealPeriodStart && RulingOption(arbitrator.currentRuling(request.disputeID)) != RulingOption.Other) {\n                // Appeal period is known and there is a winner and loser.\n                // Contributions are time restricted to the first half if the beneficiary is the loser.\n                if(RulingOption(arbitrator.currentRuling(request.disputeID)) == RulingOption.Refuse)\n                    loser = Party.Requester;\n                else\n                    loser = Party.Challenger;\n\n                // The losing side must fully fund in the first half of the appeal period.\n                if(_side == loser)\n                    require(\n                        now - appealPeriodStart < (appealPeriodEnd - appealPeriodStart) / 2,\n                        \"Appeal period for funding the losing side ended.\"\n                    );\n                else {\n                    require(now < appealPeriodEnd, \"Appeal period ended.\"); // Winner can only receive contributions in the appeal period.\n                    // Beneficiary is the winning side.\n                    // If in the first half of the appeal period, update the old total cost to the winner.\n                    // This is required to calculate the amount the winner has to pay when governance changes are made in the second half of the appeal period.\n                    if (now - appealPeriodStart < (appealPeriodEnd - appealPeriodStart) / 2) // First half of appeal period.\n                        round.oldWinnerTotalCost = round.requiredForSide[uint(_side)];\n                }\n            }\n        }\n\n        // Take only the necessary ETH.\n        uint contribution;\n        uint remainingETH = msg.value;\n        uint amountStillRequired = round.requiredForSide[uint(_side)] - round.paidFees[uint(_side)];\n        (contribution, remainingETH) = calculateContribution(remainingETH, amountStillRequired);\n        round.contributions[msg.sender][uint(_side)] += contribution;\n        round.totalContributed[uint(_side)] += contribution;\n        round.paidFees[uint(_side)] += contribution;\n        round.feeRewards += contribution;\n        if (contribution > 0)\n            emit Contribution(_address, msg.sender, _side, contribution);\n\n        // Reimburse leftover ETH.\n        msg.sender.send(remainingETH); // Deliberate use of send in order to not block the contract in case of reverting fallback.\n\n        // Raise dispute or appeal if both sides are fully funded.\n        if (round.paidFees[uint(Party.Requester)] >= round.requiredForSide[uint(Party.Requester)] &&\n            round.paidFees[uint(Party.Challenger)] >= round.requiredForSide[uint(Party.Challenger)]) {\n\n            uint cost = !request.disputed // First round.\n                ? arbitrator.arbitrationCost(arbitratorExtraData)\n                : arbitrator.appealCost(request.disputeID, arbitratorExtraData);\n\n            if(!request.disputed) {\n                // First round, raise dispute.\n                request.disputeID = arbitrator.createDispute.value(cost)(2, arbitratorExtraData);\n                disputeIDToAddress[request.disputeID] = _address;\n                request.disputed = true;\n            } else {\n                // Later round, raise an appeal.\n                arbitrator.appeal.value(cost)(request.disputeID, arbitratorExtraData);\n                round.appealed = true;\n            }\n\n            request.rounds.length++;\n            round.feeRewards -= cost;\n\n            emit AddressStatusChange(\n                request.parties[uint(Party.Requester)],\n                request.parties[uint(Party.Challenger)],\n                _address,\n                addr.status,\n                request.disputed\n            );\n        }\n    }\n\n    /** @dev Reimburses caller's contributions if no disputes were raised. If a dispute was raised,  withdraws the rewards and reimbursements proportional to the contribtutions made to the winner of a dispute.\n     *  @param _address The address from which to withdraw.\n     *  @param _request The request from which to withdraw.\n     *  @param _round The request from which to withdraw.\n     */\n    function withdrawFeesAndRewards(address _address, uint _request, uint _round) external {\n        Address storage addr = addresses[_address];\n        Request storage request = addr.requests[_request];\n        Round storage round = request.rounds[_round];\n        require(\n            request.resolved,\n            \"The request was not executed and/or there are disputes pending resolution.\"\n        );\n\n        uint reward;\n        if (!request.disputed || RulingOption(arbitrator.currentRuling(request.disputeID)) == RulingOption.Other) {\n            // No disputes were raised, or there isn't a winner and and loser. Reimburse contributions.\n            reward = round.contributions[msg.sender][uint(Party.Requester)] + round.contributions[msg.sender][uint(Party.Challenger)];\n            round.contributions[msg.sender][uint(Party.Requester)] = 0;\n            round.contributions[msg.sender][uint(Party.Challenger)] = 0;\n        } else {\n            Party winner;\n            if(RulingOption(arbitrator.currentRuling(request.disputeID)) == RulingOption.Accept)\n                winner = Party.Requester;\n            else\n                winner = Party.Challenger;\n\n            // Take rewards for funding the winner.\n            uint share = round.contributions[msg.sender][uint(winner)] * MULTIPLIER_PRECISION / round.totalContributed[uint(winner)];\n            reward = (share * round.feeRewards) / MULTIPLIER_PRECISION;\n            round.contributions[msg.sender][uint(winner)] = 0;\n        }\n\n        emit RewardWithdrawal(_address, msg.sender, _request, _round,  reward);\n        msg.sender.transfer(reward);\n    }\n\n    /** @dev Execute a request if no disputes were raised within the allowed period.\n     *  @param _address The address with the request to execute.\n     */\n    function timeout(address _address) external {\n        Address storage addr = addresses[_address];\n        Request storage request = addr.requests[addr.requests.length - 1];\n        if(request.challengerDepositTime == 0) {\n            // No one placed a challenge deposit.\n            require(\n                now - request.submissionTime > challengePeriodDuration,\n                \"The time to challenge has not passed yet.\"\n            );\n\n            if (addr.status == AddressStatus.RegistrationRequested)\n                addr.status = AddressStatus.Registered;\n            else if (addr.status == AddressStatus.ClearingRequested)\n                addr.status = AddressStatus.Absent;\n            else\n                revert(\"Address in wrong status for executing request.\");\n\n            // Deliberate use of send in order to not block the contract in case of reverting fallback.\n            request.parties[uint(Party.Requester)].send(request.challengeRewardBalance);\n        } else {\n            require(!request.disputed, \"A dispute must have not been raised.\");\n            require(\n                now - request.challengerDepositTime > arbitrationFeesWaitingTime,\n                \"There is still time to place a contribution.\"\n            );\n\n            // Rule in favor of requester if he paid more or the same amount of the challenger. Rule in favor of challenger otherwise.\n            Round storage round = request.rounds[request.rounds.length - 1];\n            Party winner;\n            if (round.paidFees[uint(Party.Requester)] >= round.paidFees[uint(Party.Challenger)])\n                winner = Party.Requester;\n            else\n                winner = Party.Challenger;\n\n            // Update address state\n            if (winner == Party.Requester) // Execute Request\n                if (addr.status == AddressStatus.RegistrationRequested)\n                    addr.status = AddressStatus.Registered;\n                else\n                    addr.status = AddressStatus.Absent;\n            else // Revert to previous state.\n                if (addr.status == AddressStatus.RegistrationRequested)\n                    addr.status = AddressStatus.Absent;\n                else if (addr.status == AddressStatus.ClearingRequested)\n                    addr.status = AddressStatus.Registered;\n\n            // Send address balance.\n            // Deliberate use of send in order to not block the contract in case the recipient refuses payments.\n            if (winner == Party.Challenger)\n                request.parties[uint(Party.Challenger)].send(request.challengeRewardBalance);\n            else\n                request.parties[uint(Party.Requester)].send(request.challengeRewardBalance);\n        }\n\n        request.challengeRewardBalance = 0;\n        request.resolved = true;\n\n        emit AddressStatusChange(\n            request.parties[uint(Party.Requester)],\n            request.parties[uint(Party.Challenger)],\n            _address,\n            addr.status,\n            false\n        );\n    }\n\n    /** @dev Give a ruling for a dispute. Can only be called by the arbitrator.\n     *  Overrides parent function to account for the situation where the winner loses a case due to paying less appeal fees than expected.\n     *  @param _disputeID ID of the dispute in the arbitrator contract.\n     *  @param _ruling Ruling given by the arbitrator. Note that 0 is reserved for \"Not able/wanting to make a decision\".\n     */\n    function rule(uint _disputeID, uint _ruling) public onlyArbitrator {\n        Party winner;\n        Party loser;\n        RulingOption resultRuling = RulingOption(_ruling);\n        if(resultRuling == RulingOption.Accept) {\n            winner = Party.Requester;\n            loser = Party.Challenger;\n        } else if (resultRuling == RulingOption.Refuse) {\n            winner = Party.Challenger;\n            loser = Party.Requester;\n        } // Respect ruling if there aren't a winner and loser.\n\n        // Invert ruling if there are a winner and loser and the loser fully funded but the winner did not. Respect the ruling otherwise.\n        Address storage addr = addresses[disputeIDToAddress[_disputeID]];\n        Request storage request = addr.requests[addr.requests.length - 1];\n        Round storage round = request.rounds[request.rounds.length - 1];\n        if(resultRuling != RulingOption.Other &&\n            round.paidFees[uint(loser)] >= round.requiredForSide[uint(loser)] &&\n            round.requiredForSideSet) // Check that the amount required for each side has been set, if respect ruling otherwise.\n        {\n            // Loser is fully funded but the winner is not. Rule in favor of the loser.\n            if (resultRuling == RulingOption.Accept)\n                resultRuling = RulingOption.Refuse;\n             else\n                resultRuling = RulingOption.Accept;\n        }\n\n        emit Ruling(Arbitrator(msg.sender), _disputeID, uint(resultRuling));\n        executeRuling(_disputeID, uint(resultRuling));\n    }\n\n    /** @dev Submit a reference to evidence. EVENT.\n     *  @param _evidence A link to an evidence using its URI.\n     */\n    function submitEvidence(address _address, string _evidence) external {\n        Address storage addr = addresses[_address];\n        Request storage request = addr.requests[addr.requests.length - 1];\n        require(request.disputed, \"The request is not disputed.\");\n\n        emit Evidence(arbitrator, request.disputeID, msg.sender, _evidence);\n    }\n\n    // ************************ //\n    // *      Governance      * //\n    // ************************ //\n\n    /** @dev Change the duration of the challenge period.\n     *  @param _challengePeriodDuration The new duration of the challenge period.\n     */\n    function changeTimeToChallenge(uint _challengePeriodDuration) external onlyGovernor {\n        challengePeriodDuration = _challengePeriodDuration;\n    }\n\n    /** @dev Change the required deposit required to place or challenge a request.\n     *  @param _challengeReward The new amount of wei required to place or challenge a request.\n     */\n    function changeChallengeReward(uint _challengeReward) external onlyGovernor {\n        challengeReward = _challengeReward;\n    }\n\n    /** @dev Change the governor of the Token Curated List.\n     *  @param _governor The address of the new governor.\n     */\n    function changeGovernor(address _governor) external onlyGovernor {\n        governor = _governor;\n    }\n\n    /** @dev Change duration of the arbitration fees funding period.\n     *  @param _arbitrationFeesWaitingTime The new duration of the arbitration fees funding period in seconds.\n     */\n    function changeArbitrationFeesWaitingTime(uint _arbitrationFeesWaitingTime) external onlyGovernor {\n        arbitrationFeesWaitingTime = _arbitrationFeesWaitingTime;\n    }\n\n    /** @dev Change the percentage of arbitration fees that must be paid as fee stake by parties when there wasn't a winner or loser in the previous round.\n     *  @param _sharedStakeMultiplier The new percentage of arbitration fees that must be paid as fee stake with 2 digits precision (e.g. a value of 1000 will result in 10% of the arbitration fees required in that round).\n     */\n    function changeSharedStakeMultiplier(uint _sharedStakeMultiplier) external onlyGovernor {\n        sharedStakeMultiplier = _sharedStakeMultiplier;\n    }\n\n    /** @dev Change the percentage of arbitration fees that must be paid as fee stake by winner of the previous round.\n     *  @param _winnerStakeMultiplier The new percentage of arbitration fees that must be paid as fee stake with 2 digits precision (e.g. a value of 5000 will result in 50% of the arbitration fees required in that round).\n     */\n    function changeWinnerStakeMultiplier(uint _winnerStakeMultiplier) external onlyGovernor {\n        winnerStakeMultiplier = _winnerStakeMultiplier;\n    }\n\n    /** @dev Change the percentage of arbitration fees that must be paid as fee stake by party that lost the previous round.\n     *  @param _loserStakeMultiplier The new percentage of arbitration fees that must be paid as fee stake with 2 digits precision (e.g. a value of 10000 will result in 100% of the arbitration fees required in that round).\n     */\n    function changeLoserStakeMultiplier(uint _loserStakeMultiplier) external onlyGovernor {\n        loserStakeMultiplier = _loserStakeMultiplier;\n    }\n\n    /* Public Views */\n\n    /** @dev Return true if the address is on the list.\n     *  @param _value The address to be queried.\n     *  @return allowed True if the address is allowed, false otherwise.\n     */\n    function isPermitted(bytes32 _value) external view returns (bool allowed) {\n        Address storage addr = addresses[address(_value)];\n        return addr.status == AddressStatus.Registered || addr.status == AddressStatus.ClearingRequested;\n    }\n\n    /* Internal */\n\n    /**\n     *  @dev Execute the ruling of a dispute.\n     *  @param _disputeID ID of the dispute in the Arbitrator contract.\n     *  @param _ruling Ruling given by the arbitrator. Note that 0 is reserved for \"Not able/wanting to make a decision\".\n     */\n    function executeRuling(uint _disputeID, uint _ruling) internal {\n        Address storage addr = addresses[disputeIDToAddress[_disputeID]];\n        Request storage request = addr.requests[addr.requests.length - 1];\n\n        Party winner;\n        if(RulingOption(_ruling) == RulingOption.Accept)\n            winner = Party.Requester;\n        else if (RulingOption(_ruling) == RulingOption.Refuse)\n            winner = Party.Challenger;\n\n        // Update address state\n        if (winner == Party.Requester) // Execute Request\n            if (addr.status == AddressStatus.RegistrationRequested)\n                addr.status = AddressStatus.Registered;\n            else\n                addr.status = AddressStatus.Absent;\n        else // Revert to previous state.\n            if (addr.status == AddressStatus.RegistrationRequested)\n                addr.status = AddressStatus.Absent;\n            else if (addr.status == AddressStatus.ClearingRequested)\n                addr.status = AddressStatus.Registered;\n\n        // Send challenge reward.\n        // Deliberate use of send in order to not block the contract in case of reverting fallback.\n        if (winner == Party.Challenger)\n            request.parties[uint(Party.Challenger)].send(request.challengeRewardBalance);\n        else if (winner == Party.Requester)\n            request.parties[uint(Party.Requester)].send(request.challengeRewardBalance);\n        else {\n            // Reimburse parties.\n            request.parties[uint(Party.Requester)].send(request.challengeRewardBalance / 2);\n            request.parties[uint(Party.Challenger)].send(request.challengeRewardBalance / 2);\n        }\n\n        request.challengeRewardBalance = 0;\n        request.resolved = true;\n\n        emit AddressStatusChange(\n            request.parties[uint(Party.Requester)],\n            request.parties[uint(Party.Challenger)],\n            disputeIDToAddress[_disputeID],\n            addr.status,\n            false\n        );\n    }\n\n    /** @dev Returns the amount that must be paid by each side to fully fund a dispute or appeal.\n     *  Capped math is used to deal with overflows since the arbitrator can return high values for appeal and arbitration cost to denote unpayable amounts.\n     *  @param _address The dispute ID to be queried.\n     *  @param _oldWinnerTotalCost The total amount of fees the winner had to pay before a governance change in the second half of an appeal period. If the appeal period is not known or the arbitrator does not support appeal period, this parameter is unused.\n     *  @param _requiredForSideSet Whether the required amount for each side has been set previously.\n     *  @return The amount of ETH required for each side.\n     */\n    function calculateRequiredForSide(address _address, uint _oldWinnerTotalCost, bool _requiredForSideSet)\n        internal\n        view\n        returns(uint[3] requiredForSide)\n    {\n        Address storage addr = addresses[_address];\n        Request storage request = addr.requests[addr.requests.length - 1];\n\n        if(!request.disputed) { // First round of a dispute.\n            uint arbitrationCost = arbitrator.arbitrationCost(arbitratorExtraData);\n            requiredForSide[uint(Party.Requester)] =\n                arbitrationCost.addCap((arbitrationCost.mulCap(sharedStakeMultiplier)) / MULTIPLIER_PRECISION);\n            requiredForSide[uint(Party.Challenger)] =\n                arbitrationCost.addCap((arbitrationCost.mulCap(sharedStakeMultiplier)) / MULTIPLIER_PRECISION);\n            return;\n        }\n\n        Party winner;\n        Party loser;\n        RulingOption ruling = RulingOption(arbitrator.currentRuling(request.disputeID));\n        if(ruling == RulingOption.Accept) {\n            winner = Party.Requester;\n            loser = Party.Challenger;\n        } else if (ruling == RulingOption.Refuse) {\n            winner = Party.Challenger;\n            loser = Party.Requester;\n        }\n\n        uint appealCost = arbitrator.appealCost(request.disputeID, arbitratorExtraData);\n        if(uint(winner) > 0) {\n            // Arbitrator gave a decisive ruling.\n            // Set the required amount for the winner.\n            requiredForSide[uint(winner)] = appealCost.addCap((appealCost.mulCap(winnerStakeMultiplier)) / MULTIPLIER_PRECISION);\n\n            (uint appealPeriodStart, uint appealPeriodEnd) = arbitrator.appealPeriod(request.disputeID);\n            if(appealPeriodEnd > appealPeriodStart){ // The appeal period is known.\n                // Fee changes in the second half of the appeal period may create a difference between the amount paid by the winner and the amount paid by the loser.\n                // To deal with this case, the amount that must be paid by the winner is max(old appeal cost + old winner stake, new appeal cost).\n                if (now - appealPeriodStart > (appealPeriodEnd - appealPeriodStart) / 2) // In second half of appeal period.\n                    requiredForSide[uint(winner)] = _oldWinnerTotalCost > appealCost ? _oldWinnerTotalCost : appealCost;\n\n                // Set the required amount for the loser.\n                if(!_requiredForSideSet)\n                    requiredForSide[uint(loser)] = appealCost.addCap((appealCost.mulCap(loserStakeMultiplier)) / MULTIPLIER_PRECISION);\n\n                // The required amount for the loser may only be updated by governance/fee changes made in the first half of the appeal period. Otherwise, increases would cause the loser to lose the case due to being underfunded.\n                if (now - appealPeriodStart < (appealPeriodEnd - appealPeriodStart) / 2) // In first half of appeal period.\n                    requiredForSide[uint(loser)] = appealCost.addCap((appealCost.mulCap(loserStakeMultiplier)) / MULTIPLIER_PRECISION);\n            } else // Arbitration period is not known or the arbitrator does not support appeal period. Update loser's required value as well.\n                requiredForSide[uint(loser)] = appealCost.addCap((appealCost.mulCap(loserStakeMultiplier)) / MULTIPLIER_PRECISION);\n        } else {\n            // Arbitrator did not rule or refused to rule.\n            requiredForSide[uint(Party.Requester)] =\n                appealCost.addCap((appealCost.mulCap(sharedStakeMultiplier)) / MULTIPLIER_PRECISION);\n            requiredForSide[uint(Party.Challenger)] =\n                appealCost.addCap((appealCost.mulCap(sharedStakeMultiplier)) / MULTIPLIER_PRECISION);\n        }\n    }\n\n     /** @dev Returns the contribution value and remainder from available ETH and required amount.\n     *  @param _available The amount of ETH available for the contribution.\n     *  @param _requiredAmount The amount of ETH required for the contribution.\n     *  @return The amount of ETH taken.\n     *  @return The amount of ETH left from the contribution.\n     */\n    function calculateContribution(uint _available, uint _requiredAmount)\n        internal\n        pure\n        returns(uint taken, uint remainder)\n    {\n        if (_requiredAmount > _available)\n            return (_available, 0); // Take whatever is available, return 0 as leftover ETH.\n\n        remainder = _available - _requiredAmount;\n        return (_requiredAmount, remainder);\n    }\n\n    /* Interface Views */\n\n    /** @dev Gets information on a request made for an address.\n     *  @param _address The queried address.\n     *  @param _request The request to be queried.\n     *  @return The information.\n     */\n    function getRequestInfo(address _address, uint _request)\n        external\n        view\n        returns (\n            bool disputed,\n            uint disputeID,\n            uint submissionTime,\n            uint challengeRewardBalance,\n            uint challengerDepositTime,\n            bool resolved,\n            address[3] parties,\n            uint numberOfRounds\n        )\n    {\n        Address storage addr = addresses[_address];\n        Request storage request = addr.requests[_request];\n        return (\n            request.disputed,\n            request.disputeID,\n            request.submissionTime,\n            request.challengeRewardBalance,\n            request.challengerDepositTime,\n            request.resolved,\n            request.parties,\n            request.rounds.length\n        );\n    }\n\n    /** @dev Gets the information on a round of a request.\n     *  @param _address The queried address.\n     *  @param _request The request to be queried.\n     *  @param _round The round to be queried.\n     *  @return The information.\n     */\n    function getRoundInfo(address _address, uint _request, uint _round)\n        external\n        view\n        returns (\n            bool appealed,\n            uint oldWinnerTotalCost,\n            uint[3] paidFees,\n            uint[3] requiredForSide,\n            uint[3] totalContributed,\n            uint feeRewards\n        )\n    {\n        Address storage addr = addresses[_address];\n        Request storage request = addr.requests[_request];\n        Round storage round = request.rounds[_round];\n        return (\n            round.appealed,\n            round.oldWinnerTotalCost,\n            round.paidFees,\n            round.requiredForSide,\n            round.totalContributed,\n            round.feeRewards\n        );\n    }\n\n    /** @dev Gets the contributions made by a party for a given request.\n     *  @param _address The address to be queried.\n     *  @param _request The position of the request.\n     *  @param _round The position of the round.\n     *  @param _contributor The address of the contributor.\n     *  @return The contributions.\n     */\n    function getContributions(\n        address _address,\n        uint _request,\n        uint _round,\n        address _contributor\n    ) external view returns(uint[3] contributions) {\n        Address storage addr = addresses[_address];\n        Request storage request = addr.requests[_request];\n        Round storage round = request.rounds[_round];\n        contributions = round.contributions[_contributor];\n    }\n\n    /** @dev Return the numbers of addresses that were submitted. Includes addresses that never made it to the list or were later removed.\n     *  @return The numbers of addresses in the list.\n     */\n    function addressCount() external view returns (uint count) {\n        return addressList.length;\n    }\n\n    /** @dev Return the numbers of addresses with each status. This function is O(n) at worst, where n is the number of addresses. This could exceed the gas limit, therefore this function should only be used for interface display and not by other contracts.\n     *  @return The numbers of addresses in the list per status.\n     */\n    function countByStatus()\n        external\n        view\n        returns (\n            uint disputed,\n            uint absent,\n            uint registered,\n            uint registrationRequested,\n            uint clearingRequested\n        )\n    {\n        for (uint i = 0; i < addressList.length; i++) {\n            Address storage addr = addresses[addressList[i]];\n            Request storage request = addr.requests[addr.requests.length - 1];\n\n            if (uint(addr.status) > 1 && request.disputed) disputed++;\n            if (addr.status == AddressStatus.Absent) absent++;\n            else if (addr.status == AddressStatus.Registered) registered++;\n            else if (addr.status == AddressStatus.RegistrationRequested) registrationRequested++;\n            else if (addr.status == AddressStatus.ClearingRequested) clearingRequested++;\n        }\n    }\n\n    /** @dev Return the addresses the query finds. This function is O(n) at worst, where n is the number of addresses. This could exceed the gas limit, therefore this function should only be used for interface display and not by other contracts.\n     *  @param _cursor The address from which to start iterating. To start from either the oldest or newest item.\n     *  @param _count The number of addresses to return.\n     *  @param _filter The filter to use. Each element of the array in sequence means:\n     *  - Include absent addresses in result.\n     *  - Include registered addresses in result.\n     *  - Include addresses with registration requests that are not disputed in result.\n     *  - Include addresses with clearing requests that are not disputed in result.\n     *  - Include disputed addresses with registration requests in result.\n     *  - Include disputed addresses with clearing requests in result.\n     *  - Include addresses submitted by the caller.\n     *  - Include addresses challenged by the caller.\n     *  @param _oldestFirst Whether to sort from oldest to the newest item.\n     *  @return The addresses found and whether there are more addresses for the current filter and sort.\n     */\n    function queryAddresses(address _cursor, uint _count, bool[8] _filter, bool _oldestFirst)\n        external\n        view\n        returns (address[] values, bool hasMore)\n    {\n        uint cursorIndex;\n        values = new address[](_count);\n        uint index = 0;\n\n        if (_cursor == 0)\n            cursorIndex = 0;\n        else {\n            for (uint j = 0; j < addressList.length; j++) {\n                if (addressList[j] == _cursor) {\n                    cursorIndex = j;\n                    break;\n                }\n            }\n            require(cursorIndex != 0, \"The cursor is invalid.\");\n        }\n\n        for (\n                uint i = cursorIndex == 0 ? (_oldestFirst ? 0 : 1) : (_oldestFirst ? cursorIndex + 1 : addressList.length - cursorIndex + 1);\n                _oldestFirst ? i < addressList.length : i <= addressList.length;\n                i++\n            ) { // Oldest or newest first.\n            Address storage addr = addresses[addressList[_oldestFirst ? i : addressList.length - i]];\n            Request storage request = addr.requests[addr.requests.length - 1];\n            if (\n                /* solium-disable operator-whitespace */\n                (_filter[0] && addr.status == AddressStatus.Absent) ||\n                (_filter[1] && addr.status == AddressStatus.Registered) ||\n                (_filter[2] && addr.status == AddressStatus.RegistrationRequested && !request.disputed) ||\n                (_filter[3] && addr.status == AddressStatus.ClearingRequested && !request.disputed) ||\n                (_filter[4] && addr.status == AddressStatus.RegistrationRequested && request.disputed) ||\n                (_filter[5] && addr.status == AddressStatus.ClearingRequested && request.disputed) ||\n                (_filter[6] && request.parties[uint(Party.Requester)]== msg.sender) || // My Submissions.\n                (_filter[7] && request.parties[uint(Party.Challenger)]== msg.sender) // My Challenges.\n                /* solium-enable operator-whitespace */\n            ) {\n                if (index < _count) {\n                    values[index] = addressList[_oldestFirst ? i : addressList.length - i];\n                    index++;\n                } else {\n                    hasMore = true;\n                    break;\n                }\n            }\n        }\n    }\n}\n",
  "sourcePath": "/home/rigel/Documents/kleros/kleros-interaction/contracts/standard/permission/ArbitrableAddressList.sol",
  "compiler": {
    "name": "solc",
    "version": "0.4.24+commit.e67f0147.Emscripten.clang"
  },
  "schemaVersion": "2.0.1",
  "updatedAt": "2019-01-22T13:25:53.365Z"
}